:020000040800F2
:1000000038040020C50000087D1300083D0C0008DE
:1000100000000000000000000000000000000000E0
:10002000000000000000000000000000A117000810
:100030000000000000000000A1150008071C0008D7
:10004000D700000800000000D7000008D700000813
:10005000D7000008D7000008D7000008BD0300083B
:1000600000000000D7000008D7000008D7000008F3
:10007000D7000008D7000008D700000800000000E3
:10008000D70000080000000000000000D7000008B2
:1000900000000000D7000008D7000008D7000008C3
:1000A00000000000D700000800000000D700000892
:1000B0000348854600F08EF800480047F51C00080C
:1000C000380400200448804704480047FEE7FEE764
:1000D000FEE7FEE7FEE7FEE75D1C0008B100000852
:1000E00030B50B46014600202022012409E00D46D0
:1000F000D5409D4205D31D469540491B2546954058
:1001000040191546521E002DF1DC30BDF0B51FB46C
:100110000646002082B005464024019100901BE075
:10012000019922460F46304600F020F8049A059BBC
:10013000801A994110D310461946224600F039F82A
:10014000361A8F410197224601200021009F00F0BE
:1001500030F838184D4100902046641E0028DFDC3E
:10016000019B00982946324607B0F0BD10B5202A01
:1001700004DB0846203AD040002110BD0B46D34096
:10018000D0402024A21A91400843194610BDD2B293
:1001900001E00270401C491EFBD270470022F6E7C6
:1001A00010B513460A4604461946FFF7F0FF2046ED
:1001B00010BD10B5202A04DB0146203A91400020F2
:1001C00010BD914020239C1A0346E3401943904000
:1001D00010BD0000064C0125064E05E0E36807CC83
:1001E0002B430C3C98471034B442F7D3FFF764FF1D
:1001F000501D0008701D000800210122102806D0A3
:10020000202803D1034842704180017070470148A3
:10021000001FF8E730000020074803780022011F84
:10022000002B03D1001D0378002B02D003784B7004
:1002300002704878704700002C000020F0B51F487D
:1002400087B04269012189040A43426142690A4038
:10025000059242690A4342614069012508400590C0
:100260001020174C03266A4671C2164F694638465D
:1002700000F01CF92020009001AA70C2694638469F
:1002800000F014F900220321072000F033FA0022C5
:100290000321072000F02EFA072000F01FFA0720A4
:1002A00000F01CFA08490020488048700870091DB9
:1002B00048804870087007B0F0BD00000010024090
:1002C00000002110000400482C000020F8B51E4C4E
:1002D0006078012702260025012817D110211B482C
:1002E00000F09CF90028608803D0192808D82770EE
:1002F0000AE0401C60806088642807D3267003E011
:1003000060886428FAD22570657065800E4C241DC3
:100310006078012817D110210C4800F07FF90028DF
:10032000608803D0192808D827700AE0401C608034
:100330006088642807D3267003E060886428FAD2B6
:10034000257065706580F8BD2C0000200004004811
:1003500010B5FFF761FF0E49012888700ED0022802
:100360000BD1002001F0E0F8002001F0CBF80020D4
:1003700001F0BCF8002001F043F810BDBFF34F8F2F
:1003800005490448C860BFF34F8F00BFFDE7000078
:10039000280000200400FA0500ED00E010B5064C2E
:1003A0002078401C20702078142803D3FFF78EFF9C
:1003B0000020207010BD00002800002010B5234848
:1003C0004169C90601D5102003E04169890603D5BA
:1003D000202000F05FF810BD4169490601D540209A
:1003E000F7E74169090601D58020F2E74169C905AF
:1003F00002D5FF200130ECE74169890502D50120D3
:100400004002E6E74169490502D501208002E0E7A4
:100410004169090502D50120C002DAE74169C90432
:1004200002D501200003D4E74169890402D50120E7
:100430004003CEE74169490402D501208003C8E7A3
:1004400040690004C7D50120C003C2E70004014091
:1004500070B5044600F0EEF80546601C02D0044872
:100460000078241800F0E6F8401BA042FAD370BDD3
:1004700000000020012110B5C902884202D101F01C
:100480004DF810BD102801D02028FAD1FFF7B4FE96
:1004900010BD000010B504494A69024202D048610B
:1004A000FFF7E8FF10BD000000040140FCB5002389
:1004B0000124A1E027462A469F403A4073D04D6868
:1004C000012D05D0022D03D0112D01D0122D16D1F2
:1004D00085680326AC465D00AE46AE406546B54332
:1004E000AC46CE687546AE4065462E43866046688B
:1004F0000D79BE43ED06ED0F9D4035434560C6685E
:100500005F000325BD40AE46AE4335468E68BE4013
:100510002E43C6604E68022E01D0122E14D1DE0882
:10052000B60036180196366A5D07B446EE0E0F2502
:10053000B54000966646AE43B4460D69009EB54090
:1005400066462E43019D2E6206687546AE430D79C0
:10055000AD07AD0FBD40354305604D68ED004AD590
:10056000284DAE692643AE61AD699E08ED07ED0FDB
:100570000095254DB6007519AC46AD689E07360F3F
:100580000F27B740BD430927FF06B84201D1002716
:1005900010E01E4FB84201D101270BE01C4FB842BA
:1005A00002D1022706E026E01A4FB84201D1032704
:1005B00000E00527B7402F436546AF60164E35680B
:1005C0004F689543FF0300D51543356075684F6844
:1005D0009543BF0300D515437560B5684F689543D3
:1005E000FF0200D51543B560F5684F689543BF021B
:1005F00000D51543F5605B1C0A681546DA4000D04B
:1006000058E7FCBD00100240000001400004004813
:1006100000080048000C0048000401400069084040
:1006200000D001207047002A01D0816170478162AB
:1006300070470000014880687047000000000020FB
:1006400002488168027889188160704700000020A4
:1006500010B506480168102211430160002000F027
:1006600007F800F027F8002010BD0000002002402D
:1006700070B504460D4D7D202978C000FFF730FD90
:1006800001460B480068FFF72BFD00F0BFFA002879
:1006900009D1042C07D200222146401E00F02AF87E
:1006A00000206C6070BD012070BD000000000020C3
:1006B0000C00002008B508488169012211438161BE
:1006C000816911400091C26901040A43C261C06995
:1006D0000840009008BD000000100240002805DB23
:1006E000C106C90E0120884001490860704700001A
:1006F00000E100E010B501F0CBFA10BDF8B50F46EF
:10070000060059D03A4D2868C007C00FB84209D238
:10071000286840084000384328602868C007C00F98
:10072000B84249D13068334C81070CD5400704D515
:10073000606807210902084360606068F02188430F
:10074000B168084360603078C00726D0706801281F
:100750000ED0216802280ED0890700292CDA6168A2
:100760008908890001436160FFF764FF00900DE094
:1007700021688903F1E78901EFE7FFF75BFF009943
:10078000411A1D48814201D90320F8BD60680C213F
:100790000840716889008842EFD12868C007C00FFF
:1007A000B8420BD9286840084000384328602868C0
:1007B000C007C00FB84201D00120F8BD3078400713
:1007C00006D56068072109028843F1680843606024
:1007D00000F018F86168094A0906090F515CC84021
:1007E000074908600020FFF743FF0020F8BD000024
:1007F000002002400010024088130000401D000845
:100800000C00002010B514A30FCB88B06C460FC4A9
:1008100015A30FCB0FC4184A51680C200B46034098
:100820001648042B16D0082B14D18B021B0F6C46D4
:10083000E45CD26A04AB1207120F9A5CC90305D5B7
:1008400000231946FFF762FC214601E020460C49CF
:1008500001F005FA08B010BD0203040506070809F7
:100860000A0B0C0D0E0F10100102030405060708F9
:10087000090A0B0C0D0E0F100010024000127A0036
:1008800000093D00FEB5040070D02078DC4DC007A3
:100890004AD068680007800F012807D06868000701
:1008A000800F022809D16868C00306D52868800334
:1008B0003AD560680028E7D036E06168012914D095
:1008C00001208004002901D0052914D02A680121C3
:1008D00009048A432A6029688143296060680028E6
:1008E00016D0FFF7A7FE06460EE02868012109048E
:1008F00008432860F2E7296801432960F5E7FFF71C
:1009000099FE801B64286ED828688003F7D50BE019
:10091000FFF790FE064604E0FFF78CFE801B64287C
:10092000F1D828688003F7D42078012680070028B2
:100930003CDA68680007800F07D068680007800FFE
:10094000022809D16868C00306D42868800716D534
:10095000E06801280AD112E0E0680028286816D073
:1009600030432860FFF766FE074605E043E1FFF7E6
:1009700061FEC01B0228C6D828688007F7D5286802
:10098000F82188432169C900084328600EE0400827
:1009900040002860FFF74EFE074604E0FFF74AFEDE
:1009A000C01B0228AFD828688007F7D4207800073A
:1009B00022D5E0690028686A0ED030436862FFF7EC
:1009C00039FE074604E0FFF735FEC01B02289AD81F
:1009D000686A8007F7D50FE0400840006862FFF7BB
:1009E00029FE074605E09DE0FFF724FEC01B022814
:1009F00089D8686A8007F7D4207804274007002840
:100A000060DA00200190E869C00008D4E969B806FE
:100A10000143E961E96901400120009101907948B1
:100A20000168C90511D40168821511430160FFF7FF
:100A300001FE009005E0FFF7FDFD0099401A6428D3
:100A400070D870480068C005F5D5A06801280AD0A4
:100A5000002801D0052810D0286A400840002862EC
:100A6000286AB84301E0286A30432862A068002859
:100A700012D0FFF7DFFD00900AE0286A38432862B1
:100A8000F1E7FFF7D7FD0099411A5F48814249D845
:100A9000286A8007F5D50DE0FFF7CCFD009006E051
:100AA000FFF7C8FD0099411A574881423AD8286A91
:100AB0008007F5D40198002804D0E96901200007D7
:100AC0008143E9612078C00635D5606901280CD0E2
:100AD000401D686B23D038436863686B4008400052
:100AE0006863FFF7A7FD064622E0686B384368633A
:100AF000686B30436863FFF79DFD064604E0FFF72F
:100B000099FD801B02285BD8686B8007F7D5686B5E
:100B1000F8218843A169C900084368630BE0B84322
:100B20006863F4E74CE0FFF785FD801B022847D897
:100B3000686B8007F7D4206A00285ED069680907CF
:100B4000890F022942D0012636060228286805D0DE
:100B5000B0432860FFF76EFD044633E0B0432860E1
:100B6000FFF768FD074604E0FFF764FDC01B02289D
:100B700026D828688001F7D4E86AE16A00090001F4
:100B80000843E862616AA06A084369683D2212046A
:100B9000914308436860286830432860FFF74AFDA6
:100BA000044604E0FFF746FD001B022808D8286829
:100BB0008001F7D521E0FFF73DFD001B022801D998
:100BC0000320FEBD28688001F5D416E00128F8D086
:100BD0006868E96A01221204636A02409A420AD1F3
:100BE0000907E26A090F914205D10F2189040840E3
:100BF000A16A884201D00120FEBD0020FEBD000098
:100C0000001002400070004088130000094910B530
:100C1000401E884201D9012010BD074C60610321AC
:100C2000081F01F035F80020A06107202061002096
:100C300010BD0000FFFFFF0000E000E0FEE710B580
:100C4000CF2000F065FB002000F04EFBC12000F03B
:100C50004BFB302000F048FBED2000F059FB6420F6
:100C600000F042FB032000F03FFB122000F03CFBB1
:100C7000812000F039FBCB2000F04AFB392000F046
:100C800033FB2C2000F030FB002000F02DFB342043
:100C900000F02AFB022000F027FBEA2000F038FBDE
:100CA000002000F021FB002000F01EFBE82000F0F7
:100CB0002FFB852000F018FB102000F015FB792099
:100CC00000F012FBC02000F023FB232000F00CFBFF
:100CD000C12000F01DFB112000F006FBC22000F037
:100CE00017FB112000F000FBC52000F011FB3D2098
:100CF00000F0FAFA302000F0F7FAC72000F008FB05
:100D0000AA2000F0F1FA3A2000F002FB552000F092
:100D1000EBFA362000F0FCFA082000F0E5FAB120EA
:100D200000F0F6FA002000F0DFFA112000F0DCFA03
:100D3000B62000F0EDFA0A2000F0D6FAA22000F06A
:100D4000D3FAF22000F0E4FA002000F0CDFAF72008
:100D500000F0DEFA202000F0C7FAF12000F0D8FA07
:100D6000012000F0C1FA302000F0BEFA262000F089
:100D7000CFFA012000F0B8FAE02000F0C9FA0F2005
:100D800000F0B2FA3F2000F0AFFA2F2000F0ACFAEA
:100D90000C2000F0A9FA102000F0A6FA0A2000F0BA
:100DA000A3FA532000F0A0FAD52000F09DFA4020CD
:100DB00000F09AFA0A2000F097FA132000F094FA53
:100DC000032000F091FA082000F08EFA032000F0D2
:100DD0008BFA002000F088FAE12000F099FA002058
:100DE00000F082FA002000F07FFA102000F07CFA78
:100DF000032000F079FA0F2000F076FA052000F0C9
:100E000073FA2C2000F070FAA22000F06DFA3F2057
:100E100000F06AFA052000F067FA0E2000F064FA8C
:100E20000C2000F061FA372000F05EFA3C2000F060
:100E30005BFA0F2000F058FA112000F069FAFF2247
:100E40004132F021682000F021FA6420FFF700FB16
:100E5000292000F05DFA10BDF0B507461C46154686
:100E60000E462A2000F054FA380A00F03DFAF8B293
:100E700000F03AFA280A00F037FAE8B200F034FA43
:100E80002B2000F045FA300A00F02EFAF0B200F004
:100E90002BFA200A00F028FAE0B200F025FA2C2004
:100EA00000F036FAF0BD0000F0B5694887B042693D
:100EB000012189040A43426142690A40059242695C
:100EC0000A43426142690A400592426909010A43A4
:100ED000426142690A40059242690A43426142699D
:100EE0000A400592426949110A43426142690A4037
:100EF000059242690A43426142690A400592426989
:100F00000A43426142690A40059242690A434261CA
:100F100042690A40059242690A43426142690A40B5
:100F2000059242690A43426142690A400592426958
:100F30000A43426142690A40059242690A4342619A
:100F400042690A40059242690A43426140690124AC
:100F5000084005900025032640206A4671C2694674
:100F60003C48FFF7A3FA01A870C0694639480094CD
:100F7000FFF79CFA01A870C0694637480094FFF754
:100F800095FA02206A4671C269463348FFF78EFA25
:100F900020026A4671C20927FF0669463846FFF7F4
:100FA00085FA01A870C0694638460094FFF77EFABA
:100FB00002206A4671C269463846FFF777FA042074
:100FC0006A4671C269463846FFF770FA08206A46D9
:100FD00071C269463846FFF769FA10206A4671C245
:100FE00069463846FFF762FA20206A4671C26946B0
:100FF0003846FFF75BFA40206A4671C269463846B8
:10100000FFF754FA80206A4671C269463846FFF7F6
:101010004DFA7869FF210902084078617869FF215B
:10102000084378610C49022088618C610948846119
:101030002002B8621420FFF70BFA2002B8611420D6
:10104000FFF706FA04490220886207B0F0BD0000ED
:10105000001002400004004800140048F8B5010ADE
:101060000091C7B2FF220021EF2340320846FFF76C
:10107000F3FE0025FF26413600243946009800F093
:101080003DF9641CA4B2B442F7D36D1CADB2F02D8F
:10109000F2D3F8BD70B5414886B0426901214904D8
:1010A0000A43426142690A40059242690A43426129
:1010B00042690A40059242690A43426142690A4014
:1010C000059242690A43426142690A4005924269B7
:1010D0000A43426142690A40059242690A434261F9
:1010E00042690A40059242690A43426142690A40E4
:1010F000059242690A434261406900240840059014
:10110000012009260325F606009001940395029418
:1011100069463046FFF7CAF90220009001946946FB
:10112000039502943046FFF7C1F904200090019422
:101130006946039502943046FFF7B8F908200090FD
:1011400001946946039502943046FFF7AFF91020E9
:10115000009001946946039502943046FFF7A6F982
:101160002020009001946946039502943046FFF7D1
:101170009DF9402000900194694603950294304601
:10118000FFF794F98020009001946946039502943A
:101190003046FFF78BF906B070BD0000001002402A
:1011A000F0B5394887B04269012149040A434261D8
:1011B00042690A40059242690A43426142690A4013
:1011C000059242690A43426142690A4005924269B6
:1011D0000A43426142690A40059242690A434261F8
:1011E00042690A40059242690A43426142690A40E3
:1011F000059242690A43426142690A400592426986
:101200000A434261406901240840059000250326F5
:1012100001A970C10927FF06694638460094FFF707
:1012200045F902206A4671C269463846FFF73EF921
:1012300004206A4671C269463846FFF737F908202C
:101240006A4671C269463846FFF730F910206A468F
:1012500071C269463846FFF729F920206A4671C2F3
:1012600069463846FFF722F940206A4671C269464E
:101270003846FFF71BF980206A4671C26946384636
:10128000FFF714F907B0F0BD0010024070B5064634
:1012900015460C46362000F03BF8304600F024F8A6
:1012A0002A2000F035F8002000F01EF8002000F0A1
:1012B0001BF8641E2004000E00F016F8E0B200F0E7
:1012C00013F82B2000F024F8002000F00DF8002087
:1012D00000F00AF86D1E2804000E00F005F8E8B2D0
:1012E00000F002F870BD000000B5034A4021916192
:1012F00000F032F800BD00000004004800B5034BC8
:1013000040229A6100F00EF800BD00000004004881
:1013100000B5034A4021916200F01EF800BD0000B4
:101320000004004830B50922D2065369FF24240284
:1013300023405361536903435361064B0120986274
:10134000986155692540556154690C435461986210
:10135000986130BD000400480921C9064A69FF238D
:101360001B021A404A614A6902434A61024901204C
:10137000886288617047000000040048704708B523
:101380000020694608807D21C90003E06A46108874
:10139000401C1080684600888842F7D308BD10B50D
:1013A00000F00AF98021122000F009F8002805D089
:1013B0000A20FFF74DF800F0F4F9012010BD70B5D8
:1013C0000C46054600F06AF9422000F0A2F9002818
:1013D00011D0FFF7D4FF284600F09BF900280AD06F
:1013E000FFF7CDFF204600F094F9002803D000F06D
:1013F00075F9012070BD00F071F9002070BD00008A
:1014000010B50549002800D0044848600920024969
:10141000C006FFF74BF810BD14000020000021109B
:10142000014908784870704710000020F0B52C483A
:1014300087B04269012189040A43426142690A4036
:10144000059242690A43426142690A400592436932
:101450004A101343436143691340059342690A43A9
:1014600042614069032508400590022001240026BE
:101470006A46039551C21B4F69463846FFF716F876
:1014800080206A46039551C269463846FFF70EF838
:1014900008206A46039551C269463846FFF706F8A8
:1014A000E0020090104801AA31C209206946C00636
:1014B000FEF7FCFF002202210720FFF71BF907209F
:1014C000FFF70CF90020FFF79BFF002000F01AF84F
:1014D000002000F00BF8002000F026F807B0F0BD67
:1014E0000010024000040048000021100221044ABC
:1014F000002803D0012800D19162704791617047A4
:10150000000400488021044A002803D0012800D1AB
:1015100091627047916170470004004801490120C1
:1015200008707047100000200821044A002803D0EA
:10153000012800D191627047916170470004004812
:1015400010B5FFF76DFF012824D10020FFF758FFE9
:10155000FFF726FE0020FFF7C9FF0020FFF7D2FFAC
:10156000FF220021EF2340320846FFF775FC0A48AE
:1015700040218161012181620846FFF7B7FF012008
:10158000FFF7C0FFFFF786FD0120FFF739FF034992
:101590000020087010BD000000040048100000206A
:1015A000704708B50020694608800888AA2802D23A
:1015B0000888401CF8E708BDF0B5184887B04269B4
:1015C000012149040A43426142690A400592426985
:1015D0000A43426140690C1208400590112501261A
:1015E00003276A46F0C209206946C006FEF75EFF7F
:1015F00060006A46E1C209206946C006FEF756FF50
:10160000092001222146C006FFF70DF8012209201A
:101610009102C006FFF707F807B0F0BD00100240C6
:1016200030B50F4887B04269012149040A4342613D
:10163000406909250840CC11ED060590012221469C
:101640002846FEF7F0FF00200190012002900320C1
:101650000390009469462846FEF728FF07B030BD86
:101660000010024000B50C4887B0426901214904CE
:101670000A434261406908400590C811009011205A
:101680000190012002900320039009206946C006C2
:10169000FEF70CFF07B000BD0010024070B501223C
:1016A00009259402ED0621462846FEF7BCFF0122DB
:1016B000560231462846FEF7B6FFFFF772FF0022BA
:1016C00021462846FEF7AFFFFFF76BFF00223146A9
:1016D0002846FEF7A8FFFFF764FF70BD70B5012430
:1016E0000925A402ED06002221462846FEF79BFFAD
:1016F000FFF757FF012251022846FEF794FFFFF73C
:1017000050FF012221462846FEF78DFFFFF749FFD3
:1017100070BDF8B509260024F606012705467F02AC
:10172000280601D5012200E000220121890230466D
:10173000FEF779FF6806050EFFF733FF01223946F1
:101740003046FEF770FFFFF72CFF00223946304687
:10175000FEF769FFFFF725FF641CE4B2082CDFD316
:10176000FFF75EFFFFF71DFF012239463046FEF707
:101770005AFFFFF716FF012189023046FEF74EFFA0
:10178000002801D0002400E0012400223946304620
:10179000FEF749FFFFF766FFFFF703FF2046F8BD9E
:1017A000704710B504213A20FFF709FED0214020F0
:1017B000FFF705FE14211220FFF701FE80213220E1
:1017C000FFF7FDFD16211720FFF7F9FD0421182072
:1017D000FFF7F5FD02211920FFF7F1FD7B211A200B
:1017E000FFF7EDFD06210320FFF7E9FD04210C20A2
:1017F000FFF7E5FD00213E20FFF7E1FD3A217020D3
:10180000FFF7DDFD35217120FFF7D9FD1121722091
:10181000FFF7D5FD00217320FFF7D1FD0221A220A3
:10182000FFF7CDFD81211120FFF7C9FD20217A208E
:10183000FFF7C5FD1C217B20FFF7C1FD28217C207F
:10184000FFF7BDFD3C217D20FFF7B9FD55217E202E
:10185000FFF7B5FD68217F20FFF7B1FD76218020DD
:10186000FFF7ADFD80218120FFF7A9FD88218220AF
:10187000FFF7A5FD8F218320FFF7A1FD962184208E
:10188000FFF79DFDA3218520FFF799FDAF2186205D
:10189000FFF795FDC4218720FFF791FDD721882010
:1018A000FFF78DFDE8218920FFF789FDE021132056
:1018B000FFF785FD00210846FFF781FD002110207C
:1018C000FFF77DFD00210D20FFF779FD2821142071
:1018D000FFF775FD0521A520FFF771FD0721AB205E
:1018E000FFF76DFD75212420FFF769FD6321252099
:1018F000FFF765FDA5212620FFF761FD78219F20D8
:10190000FFF75DFD6821A020FFF759FD0321A1200D
:10191000FFF755FDDF21A620FFF751FDDF21A720AE
:10192000FFF74DFDF021A820FFF749FD9021A920E8
:10193000FFF745FD9421AA20FFF741FDE521132083
:10194000FFF73DFD61210E20FFF739FD4B210F20F0
:10195000FFF735FD02211620FFF731FD27211E205C
:10196000FFF72DFD02212120FFF729FD91212220E3
:10197000FFF725FD07212920FFF721FD0B2133204B
:10198000FFF71DFD0B213520FFF719FD1D21372025
:10199000FFF715FD71213820FFF711FD2A213920AD
:1019A000FFF70DFD78213C20FFF709FD40214D2078
:1019B000FFF705FD20214E20FFF701FD00216920E2
:1019C000FFF7FDFC60216B20FFF7F9FC1921742063
:1019D000FFF7F5FC4F218D20FFF7F1FC00218E2051
:1019E000FFF7EDFC00218F20FFF7E9FC002190209C
:1019F000FFF7E5FC00219120FFF7E1FC0021922098
:101A0000FFF7DDFC00219620FFF7D9FC80219A200A
:101A1000FFF7D5FC8421B020FFF7D1FC0C21B120C9
:101A2000FFF7CDFC0E21B220FFF7C9FC8221B320C5
:101A3000FFF7C5FC0A21B820FFF7C1FC14214320A1
:101A4000FFF7BDFCF0214420FFF7B9FC342145200D
:101A5000FFF7B5FC58214620FFF7B1FC28214720AD
:101A6000FFF7ADFC3A214820FFF7A9FC8821592057
:101A7000FFF7A5FC88215A20FFF7A1FC44215B2039
:101A8000FFF79DFC67215C20FFF799FC49215D2051
:101A9000FFF795FC0E215E20FFF791FC04216420E6
:101AA000FFF78DFC20216520FFF789FC05216620CA
:101AB000FFF785FC04219420FFF781FC0821952085
:101AC000FFF77DFC0A216C20FFF779FC55216D2082
:101AD000FFF775FC11216E20FFF771FC9F216F202D
:101AE000FFF76DFC40216A20FFF769FC40210120CF
:101AF000FFF765FC40210220FFF761FCE72113207E
:101B0000FFF75DFC00211520FFF759FC80214F20D5
:101B1000FFF755FC80215020FFF751FC0021512098
:101B2000FFF74DFC22215220FFF749FC5E21532094
:101B3000FFF745FC80215420FFF741FC9E215820EF
:101B4000FFF73DFC08214120FFF739FC00213F2031
:101B5000FFF735FC05217520FFF731FCE1217620E8
:101B6000FFF72DFC00214C20FFF729FC01217720F5
:101B7000FFF725FCC2213D20FFF721FC09214B2066
:101B8000FFF71DFC6021C920FFF719FC3821412017
:101B9000FFF715FC40215620FFF711FC11213420DE
:101BA000FFF70DFC02213B20FFF709FC8921A4204F
:101BB000FFF705FC00219620FFF701FC302197205C
:101BC000FFF7FDFB20219820FFF7F9FB302199203A
:101BD000FFF7F5FB84219A20FFF7F1FB29219B20D9
:101BE000FFF7EDFB03219C20FFF7E9FB4C219D2033
:101BF000FFF7E5FB3F219E20FFF7E1FB0421782062
:101C0000FFF7DDFB10BD10B5FEF71AFDFEF7C6FBB2
:101C100010BD30B591B030216846FEF7BFFA002400
:101C20000D94012003900E94022510200994049035
:101C3000009505200F94C0040A900C9408950B940D
:101C40006846FEF71FFE07200C900E9401210D95AB
:101C50000F940CA8FEF752FD11B030BD7047F8B5D7
:101C6000040C8BB2264682B25E430D0C1046370C34
:101C70005843360480190021794116466E43370CCB
:101C800036048019794126466E438919F8BD000053
:101C90008307FF22DB0E9A408907090E994000282E
:101CA00008DB830809489B001B1818689043084309
:101CB000186070470007000F0838830804489B002D
:101CC0001B18D86990430843D861704700E400E0CE
:101CD00000ED00E002E008C8121F08C1002AFAD196
:101CE00070477047002001E001C1121F002AFBD19C
:101CF00070470000FEF7ACFCFFF78BFFFFF796FB89
:101D00000120FFF711FCFFF7CFF8FEF798FF0B4813
:101D1000FFF7A4F9FFF7BEF9FFF741FB0120FFF73A
:101D2000F1FB0120FFF7E2FB0120FFF769FBFEF763
:101D300085FAFFF705FCFEF70BFBFAE7FFFF000053
:101D4000000000000000000001020304060708096B
:101D5000701D00080000002034000000D41C0008A2
:101D6000A41D00083400002004040000E41C000846
:101D700001000000040000000000000000127A00D2
:101D8000000000000008000000000000010000004A
:101D90000300000000000000000000000000000040
:041DA000000000003F
:04000005080000B13E
:00000001FF
