:020000040800F2
:1000000018040020C500000875130008890A0008BC
:1000100000000000000000000000000000000000E0
:100020000000000000000000000000009D17000814
:1000300000000000000000009D150008C31C00081F
:10004000D700000800000000D7000008D700000813
:10005000D7000008D7000008D7000008F901000801
:1000600000000000D7000008D7000008D7000008F3
:10007000D7000008D7000008D700000800000000E3
:10008000D70000080000000000000000D7000008B2
:1000900000000000D7000008D7000008D7000008C3
:1000A00000000000D700000800000000D700000892
:1000B0000348854600F08EF800480047AD1D000853
:1000C000180400200448804704480047FEE7FEE784
:1000D000FEE7FEE7FEE7FEE7151D0008B100000899
:1000E00030B50B46014600202022012409E00D46D0
:1000F000D5409D4205D31D469540491B2546954058
:1001000040191546521E002DF1DC30BDF0B51FB46C
:100110000646002082B005464024019100901BE075
:10012000019922460F46304600F020F8049A059BBC
:10013000801A994110D310461946224600F039F82A
:10014000361A8F410197224601200021009F00F0BE
:1001500030F838184D4100902046641E0028DFDC3E
:10016000019B00982946324607B0F0BD10B5202A01
:1001700004DB0846203AD040002110BD0B46D34096
:10018000D0402024A21A91400843194610BDD2B293
:1001900001E00270401C491EFBD270470022F6E7C6
:1001A00010B513460A4604461946FFF7F0FF2046ED
:1001B00010BD10B5202A04DB0146203A91400020F2
:1001C00010BD914020239C1A0346E3401943904000
:1001D00010BD0000064C0125064E05E0E36807CC83
:1001E0002B430C3C98471034B442F7D3FFF764FF1D
:1001F000341E0008541E000810B523484169C90682
:1002000001D5102003E04169890603D5202000F0C4
:1002100057F810BD4169490601D54020F7E741690B
:10022000090601D58020F2E74169C90502D5FF2002
:100230000130ECE74169890502D501204002E6E77B
:100240004169490502D501208002E0E741690905BD
:1002500002D50120C002DAE74169C90402D50120B4
:100260000003D4E74169890402D501204003CEE7A9
:100270004169490402D501208003C8E740690004B0
:10028000C7D50120C003C2E70004014070B5044691
:1002900000F0E6F80546601C02D0044800782418F7
:1002A00000F0DEF8401BA042FAD370BD040000202D
:1002B000012110B5C902884201D101F02BF910BD0E
:1002C00010B504494A69024202D04861FFF7F0FFC5
:1002D00010BD000000040140FCB500230124A1E092
:1002E00027462A469F403A4073D04D68012D05D0DD
:1002F000022D03D0112D01D0122D16D185680326B1
:10030000AC465D00AE46AE406546B543AC46CE68F1
:100310007546AE4065462E43866046680D79BE43FD
:10032000ED06ED0F9D4035434560C6685F0003252F
:10033000BD40AE46AE4335468E68BE402E43C660D5
:100340004E68022E01D0122E14D1DE08B6003618E7
:100350000196366A5D07B446EE0E0F25B54000964D
:100360006646AE43B4460D69009EB54066462E43D0
:10037000019D2E6206687546AE430D79AD07AD0F3F
:10038000BD40354305604D68ED004AD5284DAE6946
:100390002643AE61AD699E08ED07ED0F0095254D32
:1003A000B6007519AC46AD689E07360F0F27B740EB
:1003B000BD430927FF06B84201D1002710E01E4FB8
:1003C000B84201D101270BE01C4FB84202D10227ED
:1003D00006E026E01A4FB84201D1032700E00527C6
:1003E000B7402F436546AF60164E35684F6895435A
:1003F000FF0300D51543356075684F689543BF030B
:1004000000D515437560B5684F689543FF0200D568
:100410001543B560F5684F689543BF0200D5154395
:10042000F5605B1C0A681546DA4000D058E7FCBD51
:10043000001002400000014000040048000800488D
:10044000000C0048000401400069084000D0012071
:100450007047002A01D081617047816270470000B7
:10046000014880687047000004000020024881684D
:1004700002788918816070470400002010B5064892
:100480000168102211430160002000F007F800F01D
:1004900027F8002010BD00000020024070B504467F
:1004A0000D4D7D202978C000FFF71AFE01460B484C
:1004B0000068FFF715FE00F0CFFA002809D1042CE0
:1004C00007D200222146401E00F03AF800206C605E
:1004D00070BD012070BD000004000020100000204D
:1004E00008B5084881690122114381618169114081
:1004F0000091C26901040A43C261C06908400090CA
:1005000008BD000000100240002809DBC106C90E2A
:100510000120884003490860BFF34F8FBFF36F8FFE
:100520007047000080E100E0002805DBC106C90E2D
:1005300001208840014908607047000000E100E0A8
:1005400010B501F001FC10BDF8B50F46060059D0FA
:100550003A4D2868C007C00FB84209D22868400841
:100560004000384328602868C007C00FB84249D10E
:100570003068334C81070CD5400704D560680721EB
:100580000902084360606068F0218843B16808434D
:1005900060603078C00726D0706801280ED02168CE
:1005A00002280ED0890700292CDA616889088900A1
:1005B00001436160FFF754FF00900DE0216889035B
:1005C000F1E78901EFE7FFF74BFF0099411A1D485A
:1005D000814201D90320F8BD60680C210840716890
:1005E00089008842EFD12868C007C00FB8420BD9F4
:1005F000286840084000384328602868C007C00FBA
:10060000B84201D00120F8BD3078400706D56068B7
:10061000072109028843F1680843606000F018F878
:100620006168094A0906090F515CC840074908601A
:100630000020FFF733FF0020F8BD0000002002403B
:100640000010024088130000241E00081000002043
:1006500010B514A30FCB88B06C460FC415A30FCBF5
:100660000FC4184A51680C200B4603401648042B4F
:1006700016D0082B14D18B021B0F6C46E45CD26A97
:1006800004AB1207120F9A5CC90305D50023194663
:10069000FFF73CFD214601E020460C4901F03BFB01
:1006A00008B010BD02030405060708090A0B0C0D6B
:1006B0000E0F10100102030405060708090A0B0CAF
:1006C0000D0E0F100010024000127A0000093D00CC
:1006D000FEB5040070D02078DC4DC0074AD06868B1
:1006E0000007800F012807D068680007800F0228E4
:1006F00009D16868C00306D5286880033AD56068C8
:100700000028E7D036E06168012914D00120800478
:10071000002901D0052914D02A68012109048A433F
:100720002A602968814329606068002816D0FFF795
:1007300097FE06460EE02868012109040843286058
:10074000F2E7296801432960F5E7FFF789FE801B7E
:1007500064286ED828688003F7D50BE0FFF780FE89
:10076000064604E0FFF77CFE801B6428F1D8286869
:100770008003F7D420780126800700283CDA6868D7
:100780000007800F07D068680007800F022809D192
:100790006868C00306D42868800716D5E068012879
:1007A0000AD112E0E0680028286816D0304328609B
:1007B000FFF756FE074605E043E1FFF751FEC01B79
:1007C0000228C6D828688007F7D52868F82188430A
:1007D0002169C900084328600EE0400840002860F5
:1007E000FFF73EFE074604E0FFF73AFEC01B022873
:1007F000AFD828688007F7D42078000722D5E069B1
:100800000028686A0ED030436862FFF729FE074669
:1008100004E0FFF725FEC01B02289AD8686A80070B
:10082000F7D50FE0400840006862FFF719FE074661
:1008300005E09DE0FFF714FEC01B022889D8686A16
:100840008007F7D4207804274007002860DA0020CA
:100850000190E869C00008D4E969B8060143E9617C
:10086000E969014001200091019079480168C905BA
:1008700011D40168821511430160FFF7F1FD00906A
:1008800005E0FFF7EDFD0099401A642870D8704824
:100890000068C005F5D5A06801280AD0002801D05D
:1008A000052810D0286A400840002862286AB8430A
:1008B00001E0286A30432862A068002812D0FFF7C0
:1008C000CFFD00900AE0286A38432862F1E7FFF77D
:1008D000C7FD0099411A5F48814249D8286A8007BC
:1008E000F5D50DE0FFF7BCFD009006E0FFF7B8FD81
:1008F0000099411A574881423AD8286A8007F5D4AE
:100900000198002804D0E969012000078143E961CA
:100910002078C00635D5606901280CD0401D686B71
:1009200023D038436863686B400840006863FFF772
:1009300097FD064622E0686B38436863686B304376
:100940006863FFF78DFD064604E0FFF789FD801B15
:1009500002285BD8686B8007F7D5686BF82188435D
:10096000A169C900084368630BE0B8436863F4E712
:100970004CE0FFF775FD801B022847D8686B8007A5
:10098000F7D4206A00285ED069680907890F022918
:1009900042D0012636060228286805D0B0432860D8
:1009A000FFF75EFD044633E0B0432860FFF758FDD3
:1009B000074604E0FFF754FDC01B022826D828682C
:1009C0008001F7D4E86AE16A000900010843E8629F
:1009D000616AA06A084369683D2212049143084392
:1009E0006860286830432860FFF73AFD044604E059
:1009F000FFF736FD001B022808D828688001F7D5CC
:100A000021E0FFF72DFD001B022801D90320FEBDC8
:100A100028688001F5D416E00128F8D06868E96AF2
:100A200001221204636A02409A420AD10907E26A6B
:100A3000090F914205D10F2189040840A16A88421B
:100A400001D00120FEBD0020FEBD000000100240CC
:100A50000070004088130000094910B5401E88420C
:100A600001D9012010BD074C60610321081F01F06E
:100A70006BF90020A06107202061002010BD00005C
:100A8000FFFFFF0000E000E0FEE710B5CF2000F020
:100A900077FB002000F056FBC12000F053FB302014
:100AA00000F050FBED2000F06BFB642000F04AFBEF
:100AB000032000F047FB122000F044FB812000F0EF
:100AC00041FBCB2000F05CFB392000F03BFB2C20ED
:100AD00000F038FB002000F035FB342000F032FB42
:100AE000022000F02FFBEA2000F04AFB002000F07B
:100AF00029FB002000F026FBE82000F041FB8520C8
:100B000000F020FB102000F01DFB792000F01AFB04
:100B1000C02000F035FB232000F014FBC12000F0C2
:100B20002FFB112000F00EFBC22000F029FB11204A
:100B300000F008FBC52000F023FB3D2000F002FB85
:100B4000302000F0FFFAC72000F01AFBAA2000F0C6
:100B5000F9FA3A2000F014FB552000F0F3FA3620A1
:100B600000F00EFB082000F0EDFAB12000F008FBC9
:100B7000002000F0E7FA112000F0E4FAB62000F0BF
:100B8000FFFA0A2000F0DEFAA22000F0DBFAF220E1
:100B900000F0F6FA002000F0D5FAF72000F0F0FAA5
:100BA000202000F0CFFAF12000F0EAFA012000F056
:100BB000C9FA302000F0C6FA262000F0E1FA012040
:100BC00000F0C0FAE02000F0DBFA0F2000F0BAFAE3
:100BD0003F2000F0B7FA2F2000F0B4FA0C2000F00C
:100BE000B1FA102000F0AEFA0A2000F0ABFA532060
:100BF00000F0A8FAD52000F0A5FA402000F0A2FAF3
:100C00000A2000F09FFA132000F09CFA032000F065
:100C100099FA082000F096FA032000F093FA0020D9
:100C200000F090FAE12000F0ABFA002000F08AFA20
:100C3000002000F087FA102000F084FA032000F072
:100C400081FA0F2000F07EFA052000F07BFA2C20BC
:100C500000F078FAA22000F075FA3F2000F072FA56
:100C6000052000F06FFA0E2000F06CFA0C2000F066
:100C700069FA372000F066FA3C2000F063FA0F2092
:100C800000F060FA112000F07BFAFF20F530FFF74A
:100C9000FDFA292000F074FA7D20C000FFF7F6FA73
:100CA00010BDF8B504460D4616461F462A2000F032
:100CB00067FA201200F046FAE0B200F043FA301270
:100CC00000F040FAF0B200F03DFA2B2000F058FAA4
:100CD000281200F037FAE8B200F034FA381200F0C7
:100CE00031FAF8B200F02EFA2C2000F049FAF8BDE3
:100CF00000B587B000BFDD48406901218904084381
:100D0000DA49486108464069012189040840019098
:100D100000BF00BF00BFD54840690843D3494861C0
:100D200008464069012189040840019000BF00BFC6
:100D300000BFCE48406909010843CC4948610846D4
:100D40004069012189050840019000BF00BF00BF34
:100D5000C64840690843C5494861084640690121C1
:100D600089050840019000BF00BF00BFBF4840692F
:100D700049110843BD4948610846406901214904B9
:100D80000840019000BF00BF00BFB8484069084359
:100D9000B64948610846406901214904084001906C
:100DA00000BF00BF00BFB14840690843AF49486178
:100DB00008464069012149040840019000BF00BF76
:100DC00000BFAA4840690843A849486108464069ED
:100DD000012149040840019000BF00BF00BFA348A3
:100DE00040690843A1494861084640690121490416
:100DF0000840019000BF00BF00BF9C484069084305
:100E00009A49486108464069012149040840019017
:100E100000BF00BF00BF954840690843934948613F
:100E200008464069012149040840019000BF00BF05
:100E300000BF8E48406908438C49486108464069B4
:100E4000012149040840019000BF00BF00BF87484E
:100E500040690843854948610846406901214904C1
:100E60000840019000BF00BF0120039000200490C3
:100E7000032005904020029002A97D48FFF72CFA3C
:100E8000012003900020049003200590012002908F
:100E900002A97748FFF720FA012003900020049070
:100EA000032005900120029002A97248FFF714FA6E
:100EB000012003900020049003200590022002905E
:100EC00002A96C48FFF708FA012003900020049063
:100ED00003200590FF200130029002A90920C006DE
:100EE000FFF7FAF9012003900020049003200590F9
:100EF0000120029002A90920C006FFF7EDF90120A8
:100F0000039000200490032005900220029002A983
:100F10000920C006FFF7E0F90120039000200490AB
:100F2000032005900420029002A90920C006FFF7C3
:100F3000D3F901200390002004900320059008209D
:100F4000029002A90920C006FFF7C6F9012003900C
:100F500000200490032005901020029002A909208F
:100F6000C006FFF7B9F90120039000200490032088
:100F700005902020029002A90920C006FFF7ACF9D5
:100F8000012003900020049003200590402002904F
:100F900002A90920C006FFF79FF901200390002055
:100FA0000490032005908020029002A90920C00629
:100FB000FFF792F900BF012211460920C006FFF792
:100FC00048FA022211460920C006FFF742FA04221D
:100FD00011460920C006FFF73CFA082211460920F5
:100FE000C006FFF736FA102211460920C006FFF7A7
:100FF00030FA202211460920C006FFF72AFA4022C3
:1010000011460920C006FFF724FA80221146092064
:10101000C006FFF71EFA00BF012202211548FFF7A4
:1010200018FA012211461348FFF713FA012211465C
:101030000F48FFF70EFA0022FF2101310920C006F8
:10104000FFF707FA1420FFF721F901221102092006
:10105000C006FFF7FEF91420FFF718F9002202215D
:101060000448FFF7F6F907B000BD00000010024089
:101070000004004800140048F8B504462712E0B206
:101080000090FF234033EF2200210846FFF709FEBE
:1010900000250DE0002605E03846009900F060F8D4
:1010A000701C86B2FF2041308642F5DB681C85B299
:1010B000F02DEFDBF8BD000000B587B000BF0E4893
:1010C00040690121490408430B49486108464069C9
:1010D000012149040840019000BF00BF0020039097
:1010E000049003200590FF20029002A90920C00669
:1010F000FFF7F2F807B000BD0010024000B587B05E
:1011000000BF0F4840690121490408430C49486168
:1011100008464069012149040840019000BF00BF12
:10112000012003900020049003200590FF200290EE
:1011300002A90920C006FFF7CFF807B000BD0000E4
:101140000010024010B50446012240210348FFF779
:1011500080F9204600F0BEF810BD000000040048F1
:1011600070B504460D46012240210448FFF771F98D
:101170002946204600F012F870BD00000004004827
:1011800010B50446002240210348FFF762F92046CB
:1011900000F0A0F810BD00000004004870B504463F
:1011A0000D4600BFE207D20F01210920C006FFF75C
:1011B00050F902202040024602210920C006FFF714
:1011C00048F904202040024604210920C006FFF708
:1011D00040F908202040024608210920C006FFF7F8
:1011E00038F910202040024610210920C006FFF7E0
:1011F00030F920202040024620210920C006FFF7B8
:1012000028F940202040024640210920C006FFF76F
:1012100020F980202040024680210920C006FFF7E7
:1012200018F900BF002201212948FFF712F9012215
:1012300011462748FFF70DF900BFEA07D20F012139
:101240000920C006FFF705F90220284002460221C6
:101250000920C006FFF7FDF80420284002460421BB
:101260000920C006FFF7F5F80820284002460821AB
:101270000920C006FFF7EDF8102028400246102193
:101280000920C006FFF7E5F820202840024620216B
:101290000920C006FFF7DDF8402028400246402123
:1012A0000920C006FFF7D5F880202840024680219B
:1012B0000920C006FFF7CDF800BF00220121044835
:1012C000FFF7C7F8012211460148FFF7C2F870BDC9
:1012D0000004004810B5044600BFE207D20F012108
:1012E0000920C006FFF7B5F802202040024602217F
:1012F0000920C006FFF7ADF8042020400246042173
:101300000920C006FFF7A5F8082020400246082162
:101310000920C006FFF79DF810202040024610214A
:101320000920C006FFF795F8202020400246202122
:101330000920C006FFF78DF84020204002464021DA
:101340000920C006FFF785F8802020400246802152
:101350000920C006FFF77DF800BF002201210448E4
:10136000FFF777F8012211460148FFF772F810BD28
:1013700000040048704708B50020694608807D21B8
:10138000C90003E06A461088401C10806846008847
:101390008842F7D308BD10B500F00CF97D20C000DD
:1013A000FEF774FF8021122000F009F8002805D014
:1013B0000A20FEF76BFF00F0F2F9012010BD70B5B6
:1013C0000C46054600F068F9422000F0A0F900281C
:1013D00011D0FFF7D0FF284600F099F900280AD075
:1013E000FFF7C9FF204600F092F9002803D000F073
:1013F00073F9012070BD00F06FF9002070BD10B5C9
:10140000002803D00720FFF78FF810BD0720FFF753
:101410007BF810BDF0B52C4887B0426901218904E2
:101420000A43426142690A40059242690A434261A5
:1014300042690A40059243694A1013434361436974
:101440001340059342690A434261406903250840FD
:1014500005900220012400266A46039551C21B4FC5
:1014600069463846FEF738FF80206A46039551C228
:1014700069463846FEF730FF08206A46039551C298
:1014800069463846FEF728FFE0020090104801AA9E
:1014900031C209206946C006FEF71EFF0022022164
:1014A0000720FFF74DF80720FFF72EF80020FFF781
:1014B000A6FF002000F01EF8002000F00BF800202E
:1014C00000F05CF807B0F0BD0010024000040048D6
:1014D0000000211010B5064B002803D0012806D1CA
:1014E000002200E0012202211846FEF7B2FF10BDE3
:1014F0000004004810B5064B002803D0012806D18F
:10150000002200E0012280211846FEF7A2FF10BD54
:101510000004004810B50020FFF771FFFFF7EEFD53
:10152000154C012202212046FEF793FF0122802163
:101530002046FEF78EFFFF2300214033EF220846AE
:10154000FFF7AFFB012240212046FEF782FF002279
:1015500001212046FEF77DFF002202212046FEF7F2
:1015600078FF002280212046FEF773FFFFF7A4FDDD
:101570000120FFF744FF10BD0004004810B5064BE2
:10158000002803D0012806D1002200E00122082112
:101590001846FEF75EFF10BD00040048704708B50E
:1015A0000020694608800888AA2802D20888401CC2
:1015B000F8E708BDF0B5184887B042690121490431
:1015C0000A43426142690A40059242690A43426104
:1015D00040690C12084005901125012603276A4630
:1015E000F0C209206946C006FEF776FE60006A4632
:1015F000E1C209206946C006FEF76EFE09200122FD
:101600002146C006FEF725FF012209209102C006EF
:10161000FEF71FFF07B0F0BD0010024030B50F48C5
:1016200087B04269012149040A43426140690925A2
:101630000840CC11ED060590012221462846FEF710
:1016400008FF0020019001200290032003900094E5
:1016500069462846FEF740FE07B030BD0010024044
:1016600000B50C4887B04269012149040A43426130
:10167000406908400590C811009011200190012098
:1016800002900320039009206946C006FEF724FE5D
:1016900007B000BD0010024070B501220925940278
:1016A000ED0621462846FEF7D4FE012256023146B9
:1016B0002846FEF7CEFEFFF772FF0022214628469D
:1016C000FEF7C7FEFFF76BFF002231462846FEF704
:1016D000C0FEFFF764FF70BD70B501240925A402A8
:1016E000ED06002221462846FEF7B3FEFFF757FF1E
:1016F000012251022846FEF7ACFEFFF750FF0122FF
:1017000021462846FEF7A5FEFFF749FF70BDF8B554
:1017100009260024F606012705467F02280601D582
:10172000012200E00022012189023046FEF791FEED
:101730006806050EFFF733FF012239463046FEF7F3
:1017400088FEFFF72CFF002239463046FEF781FE67
:10175000FFF725FF641CE4B2082CDFD3FFF75EFF20
:10176000FFF71DFF012239463046FEF772FEFFF7F4
:1017700016FF012189023046FEF766FE002801D0DF
:10178000002400E00124002239463046FEF761FEC5
:10179000FFF766FFFFF703FF2046F8BD704710B55F
:1017A00004213A20FFF70BFED0214020FFF707FE6F
:1017B00014211220FFF703FE80213220FFF7FFFDE6
:1017C00016211720FFF7FBFD04211820FFF7F7FD76
:1017D00002211920FFF7F3FD7B211A20FFF7EFFD0F
:1017E00006210320FFF7EBFD04210C20FFF7E7FDA6
:1017F00000213E20FFF7E3FD3A217020FFF7DFFDD7
:1018000035217120FFF7DBFD11217220FFF7D7FD95
:1018100000217320FFF7D3FD0221A220FFF7CFFDA7
:1018200081211120FFF7CBFD20217A20FFF7C7FD92
:101830001C217B20FFF7C3FD28217C20FFF7BFFD83
:101840003C217D20FFF7BBFD55217E20FFF7B7FD32
:1018500068217F20FFF7B3FD76218020FFF7AFFDE1
:1018600080218120FFF7ABFD88218220FFF7A7FDB3
:101870008F218320FFF7A3FD96218420FFF79FFD92
:10188000A3218520FFF79BFDAF218620FFF797FD61
:10189000C4218720FFF793FDD7218820FFF78FFD14
:1018A000E8218920FFF78BFDE0211320FFF787FD5A
:1018B00000210846FFF783FD00211020FFF77FFD80
:1018C00000210D20FFF77BFD28211420FFF777FD75
:1018D0000521A520FFF773FD0721AB20FFF76FFD62
:1018E00075212420FFF76BFD63212520FFF767FD9D
:1018F000A5212620FFF763FD78219F20FFF75FFDDC
:101900006821A020FFF75BFD0321A120FFF757FD11
:10191000DF21A620FFF753FDDF21A720FFF74FFDB2
:10192000F021A820FFF74BFD9021A920FFF747FDEC
:101930009421AA20FFF743FDE5211320FFF73FFD87
:1019400061210E20FFF73BFD4B210F20FFF737FDF4
:1019500002211620FFF733FD07211E20FFF72FFD80
:1019600002212120FFF72BFD91212220FFF727FDE7
:1019700007212920FFF723FD0B213320FFF71FFD4F
:101980000B213520FFF71BFD1D213720FFF717FD29
:1019900071213820FFF713FD2A213920FFF70FFDB1
:1019A00078213C20FFF70BFD40214D20FFF707FD7C
:1019B00020214E20FFF703FD00216920FFF7FFFCE7
:1019C00060216B20FFF7FBFC19217420FFF7F7FC67
:1019D0004F218D20FFF7F3FC00218E20FFF7EFFC55
:1019E00000218F20FFF7EBFC00219020FFF7E7FCA0
:1019F00000219120FFF7E3FC00219220FFF7DFFC9C
:101A000000219620FFF7DBFC80219A20FFF7D7FC0E
:101A10008421B020FFF7D3FC0C21B120FFF7CFFCCD
:101A20000E21B220FFF7CBFC8221B320FFF7C7FCC9
:101A30000A21B820FFF7C3FC14214320FFF7BFFCA5
:101A4000F0214420FFF7BBFC34214520FFF7B7FC11
:101A500058214620FFF7B3FC28214720FFF7AFFCB1
:101A60003A214820FFF7ABFC88215920FFF7A7FC5B
:101A700088215A20FFF7A3FC44215B20FFF79FFC3D
:101A800067215C20FFF79BFC49215D20FFF797FC55
:101A90000E215E20FFF793FC04216420FFF78FFCEA
:101AA00020216520FFF78BFC05216620FFF787FCCE
:101AB00004219420FFF783FC08219520FFF77FFC89
:101AC0000A216C20FFF77BFC55216D20FFF777FC86
:101AD00011216E20FFF773FC9F216F20FFF76FFC31
:101AE00040216A20FFF76BFC40210120FFF767FCD3
:101AF00040210220FFF763FCE7211320FFF75FFC82
:101B000000211520FFF75BFC80214F20FFF757FCD9
:101B100080215020FFF753FC00215120FFF74FFC9C
:101B200022215220FFF74BFC5E215320FFF747FC98
:101B300080215420FFF743FC9E215820FFF73FFCF3
:101B400008214120FFF73BFC00213F20FFF737FC35
:101B500005217520FFF733FCE1217620FFF72FFCEC
:101B600000214C20FFF72BFC01217720FFF727FCF9
:101B7000C2213D20FFF723FC09214B20FFF71FFC6A
:101B80006021C920FFF71BFC38214120FFF717FC1B
:101B900040215620FFF713FC11213420FFF70FFCE2
:101BA00002213B20FFF70BFC8921A420FFF707FC53
:101BB00000219620FFF703FC30219720FFF7FFFB61
:101BC00020219820FFF7FBFB30219920FFF7F7FB3E
:101BD00084219A20FFF7F3FB29219B20FFF7EFFBDD
:101BE00003219C20FFF7EBFB4C219D20FFF7E7FB37
:101BF0003F219E20FFF7E3FB04217820FFF7DFFB66
:101C000001217920FFF7DBFBF021C820FFF7D7FB8C
:101C10000F217920FFF7D3FB0021C820FFF7CFFB6E
:101C200010217920FFF7CBFB7E21C820FFF7C7FBEF
:101C30000A217920FFF7C3FB8021C820FFF7BFFBF3
:101C40000B217920FFF7BBFB0121C820FFF7B7FB71
:101C50000C217920FFF7B3FB0F21C820FFF7AFFB62
:101C60000D217920FFF7ABFB2021C820FFF7A7FB50
:101C700009217920FFF7A3FB8021C820FFF79FFBF4
:101C800002217920FFF79BFBC021C820FFF797FBBB
:101C900003217920FFF793FB4021C820FFF78FFB3A
:101CA00005217920FFF78BFB3021C820FFF787FB48
:101CB00026217920FFF783FB00210920FFF77FFB16
:101CC00010BD10B5FEF7D2FB10BD30B591B030217C
:101CD0006846FEF763FA00240D94012003900E94E9
:101CE0000225102009940490009505200F94C0044B
:101CF0000A900C9408950B946846FEF7E9FC0720BF
:101D00000C900E9401210D950F940CA8FEF71CFC6D
:101D100011B030BD7047F8B5040C8BB2264682B2C4
:101D20005E430D0C1046370C5843360480190021D1
:101D3000794116466E43370C3604801979412646A0
:101D40006E438919F8BD00008307FF22DB0E9A401D
:101D50008907090E9940002808DB830809489B0081
:101D60001B18186890430843186070470007000F5D
:101D70000838830804489B001B18D869904308431F
:101D8000D861704700E400E000ED00E002E008C820
:101D9000121F08C1002AFAD170477047002001E0E5
:101DA00001C1121F002AFBD170470000FEF766FB3D
:101DB000FFF78BFFFFF72EFB0120FFF7DFFBFEF79E
:101DC00097FFC820FEF762FAFEF75FFE1F20C002F1
:101DD000FFF752F93F204001FFF74EF91F20FFF7B0
:101DE0004BF9FF2300214033EF220846FEF759FF4D
:101DF000FFF7D1FA0A49002808700FD07D20C000F3
:101E0000FEF744FAFFF758F90120FFF773FB0120B2
:101E1000FFF760FB0120FFF7F2FAFEE7FEE70000A4
:101E20000000002000000000000000000102030488
:101E300006070809541E00080000002014000000D6
:101E40008C1D0008681E0008140000200404000017
:101E50009C1D0008000000000100000004000000BC
:081E60000000000000127A00EE
:04000005080000B13E
:00000001FF
