:020000040800F2
:1000000010040020C5000008611100087D0A0008E6
:1000100000000000000000000000000000000000E0
:10002000000000000000000000000000FB120008BB
:100030000000000000000000F9120008FD12000896
:10004000D700000800000000D7000008D700000813
:10005000D7000008D7000008D7000008F901000801
:1000600000000000D7000008D7000008D7000008F3
:10007000D7000008D7000008D700000800000000E3
:10008000D70000080000000000000000D7000008B2
:1000900000000000D7000008D7000008D7000008C3
:1000A00000000000D700000800000000D700000892
:1000B0000348854600F08EF800480047E313000827
:1000C000100400200448804704480047FEE7FEE78C
:1000D000FEE7FEE7FEE7FEE74F130008B100000869
:1000E00030B50B46014600202022012409E00D46D0
:1000F000D5409D4205D31D469540491B2546954058
:1001000040191546521E002DF1DC30BDF0B51FB46C
:100110000646002082B005464024019100901BE075
:10012000019922460F46304600F020F8049A059BBC
:10013000801A994110D310461946224600F039F82A
:10014000361A8F410197224601200021009F00F0BE
:1001500030F838184D4100902046641E0028DFDC3E
:10016000019B00982946324607B0F0BD10B5202A01
:1001700004DB0846203AD040002110BD0B46D34096
:10018000D0402024A21A91400843194610BDD2B293
:1001900001E00270401C491EFBD270470022F6E7C6
:1001A00010B513460A4604461946FFF7F0FF2046ED
:1001B00010BD10B5202A04DB0146203A91400020F2
:1001C00010BD914020239C1A0346E3401943904000
:1001D00010BD0000064C0125064E05E0E36807CC83
:1001E0002B430C3C98471034B442F7D3FFF764FF1D
:1001F000201400084014000810B523484169C906BE
:1002000001D5102003E04169890603D5202000F0C4
:1002100057F810BD4169490601D54020F7E741690B
:10022000090601D58020F2E74169C90502D5FF2002
:100230000130ECE74169890502D501204002E6E77B
:100240004169490502D501208002E0E741690905BD
:1002500002D50120C002DAE74169C90402D50120B4
:100260000003D4E74169890402D501204003CEE7A9
:100270004169490402D501208003C8E740690004B0
:10028000C7D50120C003C2E70004014070B5044691
:1002900000F0E0F80546601C02D0044800782418FD
:1002A00000F0D8F8401BA042FAD370BD0000002037
:1002B000012110B5C902884201D100F0DDFF10BD57
:1002C00010B504494A69024202D04861FFF7F0FFC5
:1002D00010BD000000040140FCB500230124A1E092
:1002E00027462A469F403A4073D04D68012D05D0DD
:1002F000022D03D0112D01D0122D16D185680326B1
:10030000AC465D00AE46AE406546B543AC46CE68F1
:100310007546AE4065462E43866046680D79BE43FD
:10032000ED06ED0F9D4035434560C6685F0003252F
:10033000BD40AE46AE4335468E68BE402E43C660D5
:100340004E68022E01D0122E14D1DE08B6003618E7
:100350000196366A5D07B446EE0E0F25B54000964D
:100360006646AE43B4460D69009EB54066462E43D0
:10037000019D2E6206687546AE430D79AD07AD0F3F
:10038000BD40354305604D68ED004AD5284DAE6946
:100390002643AE61AD699E08ED07ED0F0095254D32
:1003A000B6007519AC46AD689E07360F0F27B740EB
:1003B000BD430927FF06B84201D1002710E01E4FB8
:1003C000B84201D101270BE01C4FB84202D10227ED
:1003D00006E026E01A4FB84201D1032700E00527C6
:1003E000B7402F436546AF60164E35684F6895435A
:1003F000FF0300D51543356075684F689543BF030B
:1004000000D515437560B5684F689543FF0200D568
:100410001543B560F5684F689543BF0200D5154395
:10042000F5605B1C0A681546DA4000D058E7FCBD51
:10043000001002400000014000040048000800488D
:10044000000C004800040140002A01D0816170477F
:1004500081627047014880687047000000000020FA
:100460000248816802788918816070470000002086
:1004700010B506480168102211430160002000F009
:1004800007F800F027F8002010BD0000002002400F
:1004900070B504460D4D7D202978C000FFF720FE81
:1004A00001460B480068FFF71BFE00F0CFFA00285A
:1004B00009D1042C07D200222146401E00F03AF850
:1004C00000206C6070BD012070BD000000000020A5
:1004D0000C00002008B508488169012211438161A0
:1004E000816911400091C26901040A43C261C06977
:1004F0000840009008BD000000100240002809DB01
:10050000C106C90E0120884003490860BFF34F8F20
:10051000BFF36F8F7047000080E100E0002805DB2B
:10052000C106C90E012088400149086070470000DB
:1005300000E100E010B500F023FF10BDF8B50F4654
:10054000060059D03A4D2868C007C00FB84209D2FA
:10055000286840084000384328602868C007C00F5A
:10056000B84249D13068334C81070CD5400704D5D7
:10057000606807210902084360606068F0218843D1
:10058000B168084360603078C00726D070680128E1
:100590000ED0216802280ED0890700292CDA616864
:1005A0008908890001436160FFF754FF00900DE066
:1005B00021688903F1E78901EFE7FFF74BFF009915
:1005C000411A1D48814201D90320F8BD60680C2101
:1005D0000840716889008842EFD12868C007C00FC1
:1005E000B8420BD928684008400038432860286882
:1005F000C007C00FB84201D00120F8BD30784007D5
:1006000006D56068072109028843F16808436060E5
:1006100000F018F86168094A0906090F515CC840E2
:10062000074908600020FFF733FF0020F8BD0000F5
:10063000002002400010024088130000101400083F
:100640000C00002010B514A30FCB88B06C460FC46B
:1006500015A30FCB0FC4184A51680C200B4603405A
:100660001648042B16D0082B14D18B021B0F6C4696
:10067000E45CD26A04AB1207120F9A5CC90305D579
:1006800000231946FFF742FD214601E020460C49B0
:1006900000F05EFE08B010BD02030405060708095D
:1006A0000A0B0C0D0E0F10100102030405060708BB
:1006B000090A0B0C0D0E0F100010024000127A00F8
:1006C00000093D00FEB5040070D02078DC4DC00765
:1006D0004AD068680007800F012807D068680007C3
:1006E000800F022809D16868C00306D528688003F6
:1006F0003AD560680028E7D036E06168012914D057
:1007000001208004002901D0052914D02A68012184
:1007100009048A432A6029688143296060680028A7
:1007200016D0FFF797FE06460EE02868012109045F
:1007300008432860F2E7296801432960F5E7FFF7DD
:1007400089FE801B64286ED828688003F7D50BE0EB
:10075000FFF780FE064604E0FFF77CFE801B64285E
:10076000F1D828688003F7D4207801268007002874
:100770003CDA68680007800F07D068680007800FC0
:10078000022809D16868C00306D42868800716D5F6
:10079000E06801280AD112E0E0680028286816D035
:1007A00030432860FFF756FE074605E043E1FFF7B8
:1007B00051FEC01B0228C6D828688007F7D52868D4
:1007C000F82188432169C900084328600EE04008E9
:1007D00040002860FFF73EFE074604E0FFF73AFEC0
:1007E000C01B0228AFD828688007F7D420780007FC
:1007F00022D5E0690028686A0ED030436862FFF7AE
:1008000029FE074604E0FFF725FEC01B02289AD800
:10081000686A8007F7D50FE0400840006862FFF77C
:1008200019FE074605E09DE0FFF714FEC01B0228F5
:1008300089D8686A8007F7D4207804274007002801
:1008400060DA00200190E869C00008D4E969B806C0
:100850000143E961E9690140012000910190794873
:100860000168C90511D40168821511430160FFF7C1
:10087000F1FD009005E0FFF7EDFD0099401A6428B6
:1008800070D870480068C005F5D5A06801280AD066
:10089000002801D0052810D0286A400840002862AE
:1008A000286AB84301E0286A30432862A06800281B
:1008B00012D0FFF7CFFD00900AE0286A3843286283
:1008C000F1E7FFF7C7FD0099411A5F48814249D817
:1008D000286A8007F5D50DE0FFF7BCFD009006E023
:1008E000FFF7B8FD0099411A574881423AD8286A63
:1008F0008007F5D40198002804D0E9690120000799
:100900008143E9612078C00635D5606901280CD0A3
:10091000401D686B23D038436863686B4008400013
:100920006863FFF797FD064622E0686B384368630B
:10093000686B30436863FFF78DFD064604E0FFF700
:1009400089FD801B02285BD8686B8007F7D5686B30
:10095000F8218843A169C900084368630BE0B843E4
:100960006863F4E74CE0FFF775FD801B022847D869
:10097000686B8007F7D4206A00285ED06968090791
:10098000890F022942D0012636060228286805D0A0
:10099000B0432860FFF75EFD044633E0B0432860B3
:1009A000FFF758FD074604E0FFF754FDC01B02287F
:1009B00026D828688001F7D4E86AE16A00090001B6
:1009C0000843E862616AA06A084369683D2212042C
:1009D000914308436860286830432860FFF73AFD78
:1009E000044604E0FFF736FD001B022808D82868FB
:1009F0008001F7D521E0FFF72DFD001B022801D96A
:100A00000320FEBD28688001F5D416E00128F8D047
:100A10006868E96A01221204636A02409A420AD1B4
:100A20000907E26A090F914205D10F2189040840A4
:100A3000A16A884201D00120FEBD0020FEBD000059
:100A4000001002400070004088130000094910B5F2
:100A5000401E884201D9012010BD074C606103216E
:100A6000081F00F08DFC0020A061072020610020FD
:100A700010BD0000FFFFFF0000E000E0FEE710B542
:100A8000CF2000F081FA002000F060FAC12000F0D1
:100A90005DFA302000F05AFAED2000F075FA64207B
:100AA00000F054FA032000F051FA122000F04EFA40
:100AB000812000F04BFACB2000F066FA392000F0DC
:100AC00045FA2C2000F042FA002000F03FFA3420D2
:100AD00000F03CFA022000F039FAEA2000F054FA63
:100AE000002000F033FA002000F030FAE82000F097
:100AF0004BFA852000F02AFA102000F027FA79201E
:100B000000F024FAC02000F03FFA232000F01EFA83
:100B1000C12000F039FA112000F018FAC22000F0CC
:100B200033FA112000F012FAC52000F02DFA3D2012
:100B300000F00CFA302000F009FAC72000F024FA87
:100B4000AA2000F003FA3A2000F01EFA552000F027
:100B5000FDF9362000F018FA082000F0F7F9B1206E
:100B600000F012FA002000F0F1F9112000F0EEF987
:100B7000B62000F009FA0A2000F0E8F9A22000F0FF
:100B8000E5F9F22000F000FA002000F0DFF9F7208C
:100B900000F0FAF9202000F0D9F9F12000F0F4F982
:100BA000012000F0D3F9302000F0D0F9262000F029
:100BB000EBF9012000F0CAF9E02000F0E5F90F2080
:100BC00000F0C4F93F2000F0C1F92F2000F0BEF979
:100BD0000C2000F0BBF9102000F0B8F90A2000F05A
:100BE000B5F9532000F0B2F9D52000F0AFF940205C
:100BF00000F0ACF90A2000F0A9F9132000F0A6F9E2
:100C0000032000F0A3F9082000F0A0F9032000F071
:100C10009DF9002000F09AF9E12000F0B5F90020DC
:100C200000F094F9002000F091F9102000F08EF906
:100C3000032000F08BF90F2000F088F9052000F068
:100C400085F92C2000F082F9A22000F07FF93F20E6
:100C500000F07CF9052000F079F90E2000F076F91B
:100C60000C2000F073F9372000F070F93C2000F000
:100C70006DF90F2000F06AF9112000F085F9642069
:100C8000FFF704FB292000F07FF910BDF8B50746F7
:100C90001C4615460E462A2000F076F9380A00F068
:100CA00055F9F8B200F052F9280A00F04FF9E8B20D
:100CB00000F04CF92B2000F067F9300A00F046F9FB
:100CC000F0B200F043F9200A00F040F9E0B200F081
:100CD0003DF92C2000F058F9F8BD0000F0B58A4825
:100CE00087B04269012189040A43426142690A408E
:100CF000059242690A43426142690A40059242698B
:100D000009010A43426142690A40059242690A4365
:100D1000426142690A400592426949110A434261AF
:100D200042690A40059242690A43426142690A40A7
:100D3000059242690A43426142690A40059242694A
:100D40000A43426142690A40059242690A4342618C
:100D500042690A40059242690A43426142690A4077
:100D6000059242690A43426142690A40059242691A
:100D70000A43426142690A40059242690A4342615C
:100D8000406940270840009705900124002503266C
:100D900001AA70C269465D48FFF79EFA01A870C0BB
:100DA00069465A480094FFF797FA01A870C069464F
:100DB00057480094FFF790FA02206A4671C26946CC
:100DC0005348FFF789FA20026A4671C20920694632
:100DD000C006FFF781FA01A870C009206946C00665
:100DE0000094FFF779FA02206A4671C20920694629
:100DF000C006FFF771FA04206A4671C209206946ED
:100E0000C006FFF769FA08206A4671C209206946E0
:100E1000C006FFF761FA10206A4671C209206946D0
:100E2000C006FFF759FA20206A4671C209206946B8
:100E3000C006FFF751FA01AA009770C2092069465F
:100E4000C006FFF749FA80206A4671C20920694648
:100E5000C006FFF741FA012209201146C006FFF73C
:100E6000F3FA022209201146C006FFF7EDFA042228
:100E700009201146C006FFF7E7FA082209201146AB
:100E8000C006FFF7E1FA102209201146C006FFF75D
:100E9000DBFA202209201146C006FFF7D5FA4022CE
:100EA00009201146C006FFF7CFFA8022092011461B
:100EB000C006FFF7C9FA012202211548FFF7C4FA5C
:100EC000012211461248FFF7BFFA012211460F48CE
:100ED000FFF7BAFA092000222102C006FFF7B4FA90
:100EE0001420FFF7D3F9012209201102C006FFF7F1
:100EF000ABFA1420FFF7CAF9002202210448FFF7D9
:100F0000A3FA07B0F0BD0000001002400004004842
:100F100000140048F8B5010A0091C7B2FF23002170
:100F20004033EF220846FFF7B1FE0025FF26413689
:100F300000243946009800F017F8641CA4B2B442AB
:100F4000F7D36D1CADB2F02DF2D3F8BD10B5044649
:100F5000012240210348FFF777FA204600F0B8F855
:100F600010BD00000004004870B50C460546012283
:100F700040210448FFF768FA2146284600F012F89D
:100F800070BD00000004004810B504460022402156
:100F90000348FFF759FA204600F09AF810BD000008
:100FA00000040048F8B5C20705460C460920D20FD8
:100FB0000121C006FFF748FA02262A4609203240DE
:100FC0003146C006FFF740FA04272A4609203A4076
:100FD0003946C006FFF738FA08202A460240014683
:100FE0000920C006FFF730FA10202A4602400146C9
:100FF0000920C006FFF728FA20202A4602400146B1
:101000000920C006FFF720FA40202A460240014688
:101010000920C006FFF718FAEA090920D201802149
:10102000C006FFF711FA294D002201212846FFF7DB
:101030000BFA012211462846FFF706FAE2070920BB
:10104000D20F0121C006FFF7FFF9224609203240E6
:101050000221C006FFF7F8F9224609203A40042190
:10106000C006FFF7F1F90820224602400146092098
:10107000C006FFF7E9F91020224602400146092088
:10108000C006FFF7E1F92020224602400146092070
:10109000C006FFF7D9F94020224602400146092048
:1010A000C006FFF7D1F9E2090920D2018021C0066C
:1010B000FFF7CAF9002201212846FFF7C5F90122EE
:1010C00011462846FFF7C0F9F8BD000000040048AB
:1010D00070B5C20709250446ED06D20F0121284646
:1010E000FFF7B2F902202246024001462846FFF7E8
:1010F000ABF904202246024001462846FFF7A4F936
:1011000008202246024001462846FFF79DF910209C
:101110002246024001462846FFF796F92020224643
:10112000024001462846FFF78FF940202246024040
:1011300001462846FFF788F9E209D20180212846B6
:10114000FFF782F9054C002201212046FFF77CF9C8
:10115000012211462046FFF777F970BD00040048D0
:10116000704710B5002803D00720FFF7D7F910BD4E
:101170000720FFF7C3F910BDF0B52C4887B04269CE
:10118000012189040A43426142690A400592426989
:101190000A43426142690A40059243694A10134377
:1011A000436143691340059342690A4342614069C0
:1011B0000325084005900220012400266A46039575
:1011C00051C21B4F69463846FFF786F880206A46B1
:1011D000039551C269463846FFF77EF808206A46F3
:1011E000039551C269463846FFF776F8E002009051
:1011F000104801AA31C209206946C006FFF76CF801
:10120000002202210720FFF795F90720FFF776F962
:101210000020FFF7A6FF002000F01EF8002000F0DD
:101220000BF8002000F058F807B0F0BD00100240A5
:10123000000400480000211010B5064B002803D020
:10124000012806D1002200E0012202211846FFF702
:10125000FBF810BD0004004810B5064B002803D071
:10126000012806D1002200E0012280211846FFF764
:10127000EBF810BD0004004810B50020FFF771FF27
:10128000144C012202212046FFF7DEF801228021C2
:101290002046FFF7D9F8FF2300214033EF2208460C
:1012A000FFF7F4FC012240212046FFF7CDF8002291
:1012B00001212046FFF7C8F8002202212046FFF74F
:1012C000C3F8002280212046FFF7BEF80120FFF777
:1012D00048FF10BD0004004810B5064B002803D09D
:1012E000012806D1002200E0012208211846FFF75C
:1012F000ABF810BD000400487047704710B5FFF709
:10130000AFF810BD30B591B030216846FEF746FF0A
:1013100000240D94012003900E94022510200994BE
:101320000490009505200F94C0040A900C94089531
:101330000B946846FFF7C6F907200C900E94012124
:101340000D950F940CA8FFF7F9F811B030BD704758
:10135000F8B5040C8BB2264682B25E430D0C1046E3
:10136000370C5843360480190021794116466E43E4
:10137000370C36048019794126466E438919F8BD29
:101380008307FF22DB0E9A408907090E9940002847
:1013900008DB830809489B001B1818689043084322
:1013A000186070470007000F0838830804489B0046
:1013B0001B18D86990430843D861704700E400E0E7
:1013C00000ED00E002E008C8121F08C1002AFAD1AF
:1013D00070477047002001E001C1121F002AFBD1B5
:1013E0007047FFF745F8FFF78DFFFFF7C5FEFFF7E2
:1013F00075FCC820FEF74AFFFFF741FBC820FEF747
:1014000045FF0020FFF786FD0120FFF7AAFEFEE75B
:1014100000000000000000000102030406070809A4
:10142000401400080000002010000000C413000851
:10143000501400081000002000040000D41300081D
:1014400001000000040000000000000000127A000B
:04000005080000B13E
:00000001FF
