:020000040800F2
:1000000018040020C5000008A10E0008890A000895
:1000100000000000000000000000000000000000E0
:100020000000000000000000000000008D13000828
:1000300000000000000000008D110008B318000847
:10004000D700000800000000D7000008D700000813
:10005000D7000008D7000008D7000008F901000801
:1000600000000000D7000008D7000008D7000008F3
:10007000D7000008D7000008D700000800000000E3
:10008000D70000080000000000000000D7000008B2
:1000900000000000D7000008D7000008D7000008C3
:1000A00000000000D700000800000000D700000892
:1000B0000348854600F08EF8004800477924000880
:1000C000180400200448804704480047FEE7FEE784
:1000D000FEE7FEE7FEE7FEE705190008B1000008AD
:1000E00030B50B46014600202022012409E00D46D0
:1000F000D5409D4205D31D469540491B2546954058
:1001000040191546521E002DF1DC30BDF0B51FB46C
:100110000646002082B005464024019100901BE075
:10012000019922460F46304600F020F8049A059BBC
:10013000801A994110D310461946224600F039F82A
:10014000361A8F410197224601200021009F00F0BE
:1001500030F838184D4100902046641E0028DFDC3E
:10016000019B00982946324607B0F0BD10B5202A01
:1001700004DB0846203AD040002110BD0B46D34096
:10018000D0402024A21A91400843194610BDD2B293
:1001900001E00270401C491EFBD270470022F6E7C6
:1001A00010B513460A4604461946FFF7F0FF2046ED
:1001B00010BD10B5202A04DB0146203A91400020F2
:1001C00010BD914020239C1A0346E3401943904000
:1001D00010BD0000064C0125064E05E0E36807CC83
:1001E0002B430C3C98471034B442F7D3FFF764FF1D
:1001F000F82400081825000810B523484169C906ED
:1002000001D5102003E04169890603D5202000F0C4
:1002100057F810BD4169490601D54020F7E741690B
:10022000090601D58020F2E74169C90502D5FF2002
:100230000130ECE74169890502D501204002E6E77B
:100240004169490502D501208002E0E741690905BD
:1002500002D50120C002DAE74169C90402D50120B4
:100260000003D4E74169890402D501204003CEE7A9
:100270004169490402D501208003C8E740690004B0
:10028000C7D50120C003C2E70004014070B5044691
:1002900000F0E6F80546601C02D0044800782418F7
:1002A00000F0DEF8401BA042FAD370BD040000202D
:1002B000012110B5C902884201D100F0FFFE10BD36
:1002C00010B504494A69024202D04861FFF7F0FFC5
:1002D00010BD000000040140FCB500230124A1E092
:1002E00027462A469F403A4073D04D68012D05D0DD
:1002F000022D03D0112D01D0122D16D185680326B1
:10030000AC465D00AE46AE406546B543AC46CE68F1
:100310007546AE4065462E43866046680D79BE43FD
:10032000ED06ED0F9D4035434560C6685F0003252F
:10033000BD40AE46AE4335468E68BE402E43C660D5
:100340004E68022E01D0122E14D1DE08B6003618E7
:100350000196366A5D07B446EE0E0F25B54000964D
:100360006646AE43B4460D69009EB54066462E43D0
:10037000019D2E6206687546AE430D79AD07AD0F3F
:10038000BD40354305604D68ED004AD5284DAE6946
:100390002643AE61AD699E08ED07ED0F0095254D32
:1003A000B6007519AC46AD689E07360F0F27B740EB
:1003B000BD430927FF06B84201D1002710E01E4FB8
:1003C000B84201D101270BE01C4FB84202D10227ED
:1003D00006E026E01A4FB84201D1032700E00527C6
:1003E000B7402F436546AF60164E35684F6895435A
:1003F000FF0300D51543356075684F689543BF030B
:1004000000D515437560B5684F689543FF0200D568
:100410001543B560F5684F689543BF0200D5154395
:10042000F5605B1C0A681546DA4000D058E7FCBD51
:10043000001002400000014000040048000800488D
:10044000000C0048000401400069084000D0012071
:100450007047002A01D081617047816270470000B7
:10046000014880687047000004000020024881684D
:1004700002788918816070470400002010B5064892
:100480000168102211430160002000F007F800F01D
:1004900027F8002010BD00000020024070B504467F
:1004A0000D4D7D202978C000FFF71AFE01460B484C
:1004B0000068FFF715FE00F0CFFA002809D1042CE0
:1004C00007D200222146401E00F03AF800206C605E
:1004D00070BD012070BD000004000020100000204D
:1004E00008B5084881690122114381618169114081
:1004F0000091C26901040A43C261C06908400090CA
:1005000008BD000000100240002809DBC106C90E2A
:100510000120884003490860BFF34F8FBFF36F8FFE
:100520007047000080E100E0002805DBC106C90E2D
:1005300001208840014908607047000000E100E0A8
:1005400010B501F067FF10BDF8B50F46060059D091
:100550003A4D2868C007C00FB84209D22868400841
:100560004000384328602868C007C00FB84249D10E
:100570003068334C81070CD5400704D560680721EB
:100580000902084360606068F0218843B16808434D
:1005900060603078C00726D0706801280ED02168CE
:1005A00002280ED0890700292CDA616889088900A1
:1005B00001436160FFF754FF00900DE0216889035B
:1005C000F1E78901EFE7FFF74BFF0099411A1D485A
:1005D000814201D90320F8BD60680C210840716890
:1005E00089008842EFD12868C007C00FB8420BD9F4
:1005F000286840084000384328602868C007C00FBA
:10060000B84201D00120F8BD3078400706D56068B7
:10061000072109028843F1680843606000F018F878
:100620006168094A0906090F515CC840074908601A
:100630000020FFF733FF0020F8BD0000002002403B
:100640000010024088130000E82400081000002079
:1006500010B514A30FCB88B06C460FC415A30FCBF5
:100660000FC4184A51680C200B4603401648042B4F
:1006700016D0082B14D18B021B0F6C46E45CD26A97
:1006800004AB1207120F9A5CC90305D50023194663
:10069000FFF73CFD214601E020460C4901F0A2FE97
:1006A00008B010BD02030405060708090A0B0C0D6B
:1006B0000E0F10100102030405060708090A0B0CAF
:1006C0000D0E0F100010024000127A0000093D00CC
:1006D000FEB5040070D02078DC4DC0074AD06868B1
:1006E0000007800F012807D068680007800F0228E4
:1006F00009D16868C00306D5286880033AD56068C8
:100700000028E7D036E06168012914D00120800478
:10071000002901D0052914D02A68012109048A433F
:100720002A602968814329606068002816D0FFF795
:1007300097FE06460EE02868012109040843286058
:10074000F2E7296801432960F5E7FFF789FE801B7E
:1007500064286ED828688003F7D50BE0FFF780FE89
:10076000064604E0FFF77CFE801B6428F1D8286869
:100770008003F7D420780126800700283CDA6868D7
:100780000007800F07D068680007800F022809D192
:100790006868C00306D42868800716D5E068012879
:1007A0000AD112E0E0680028286816D0304328609B
:1007B000FFF756FE074605E043E1FFF751FEC01B79
:1007C0000228C6D828688007F7D52868F82188430A
:1007D0002169C900084328600EE0400840002860F5
:1007E000FFF73EFE074604E0FFF73AFEC01B022873
:1007F000AFD828688007F7D42078000722D5E069B1
:100800000028686A0ED030436862FFF729FE074669
:1008100004E0FFF725FEC01B02289AD8686A80070B
:10082000F7D50FE0400840006862FFF719FE074661
:1008300005E09DE0FFF714FEC01B022889D8686A16
:100840008007F7D4207804274007002860DA0020CA
:100850000190E869C00008D4E969B8060143E9617C
:10086000E969014001200091019079480168C905BA
:1008700011D40168821511430160FFF7F1FD00906A
:1008800005E0FFF7EDFD0099401A642870D8704824
:100890000068C005F5D5A06801280AD0002801D05D
:1008A000052810D0286A400840002862286AB8430A
:1008B00001E0286A30432862A068002812D0FFF7C0
:1008C000CFFD00900AE0286A38432862F1E7FFF77D
:1008D000C7FD0099411A5F48814249D8286A8007BC
:1008E000F5D50DE0FFF7BCFD009006E0FFF7B8FD81
:1008F0000099411A574881423AD8286A8007F5D4AE
:100900000198002804D0E969012000078143E961CA
:100910002078C00635D5606901280CD0401D686B71
:1009200023D038436863686B400840006863FFF772
:1009300097FD064622E0686B38436863686B304376
:100940006863FFF78DFD064604E0FFF789FD801B15
:1009500002285BD8686B8007F7D5686BF82188435D
:10096000A169C900084368630BE0B8436863F4E712
:100970004CE0FFF775FD801B022847D8686B8007A5
:10098000F7D4206A00285ED069680907890F022918
:1009900042D0012636060228286805D0B0432860D8
:1009A000FFF75EFD044633E0B0432860FFF758FDD3
:1009B000074604E0FFF754FDC01B022826D828682C
:1009C0008001F7D4E86AE16A000900010843E8629F
:1009D000616AA06A084369683D2212049143084392
:1009E0006860286830432860FFF73AFD044604E059
:1009F000FFF736FD001B022808D828688001F7D5CC
:100A000021E0FFF72DFD001B022801D90320FEBDC8
:100A100028688001F5D416E00128F8D06868E96AF2
:100A200001221204636A02409A420AD10907E26A6B
:100A3000090F914205D10F2189040840A16A88421B
:100A400001D00120FEBD0020FEBD000000100240CC
:100A50000070004088130000094910B5401E88420C
:100A600001D9012010BD074C60610321081F01F06E
:100A7000D1FC0020A06107202061002010BD0000F3
:100A8000FFFFFF0000E000E0FEE7000000B587B0D8
:100A900000BFDD484069012189040843DA49486103
:100AA00008464069012189040840019000BF00BF49
:100AB00000BFD54840690843D349486108464069AA
:100AC000012189040840019000BF00BF00BFCE484B
:100AD000406909010843CC49486108464069012141
:100AE00089050840019000BF00BF00BFC6484069AB
:100AF0000843C54948610846406901218905084005
:100B0000019000BF00BF00BFBF48406949110843C2
:100B1000BD494861084640690121490408400190E7
:100B200000BF00BF00BFB84840690843B6494861EC
:100B300008464069012149040840019000BF00BFF8
:100B400000BFB14840690843AF4948610846406961
:100B5000012149040840019000BF00BF00BFAA481E
:100B600040690843A8494861084640690121490491
:100B70000840019000BF00BF00BFA3484069084380
:100B8000A149486108464069012149040840019093
:100B900000BF00BF00BF9C48406908439A494861B4
:100BA00008464069012149040840019000BF00BF88
:100BB00000BF954840690843934948610846406929
:100BC000012149040840019000BF00BF00BF8E48CA
:100BD000406908438C49486108464069012149043D
:100BE0000840019000BF00BF00BF8748406908432C
:100BF000854948610846406901214904084001903F
:100C000000BF00BF01200390002004900320059046
:100C10004020029002A97D48FFF75EFB012003906F
:100C200000200490032005900120029002A977483B
:100C3000FFF752FB01200390002004900320059051
:100C40000120029002A97248FFF746FB01200390A1
:100C500000200490032005900220029002A96C4815
:100C6000FFF73AFB01200390002004900320059039
:100C7000FF200130029002A90920C006FFF72CFBDB
:100C80000120039000200490032005900120029091
:100C900002A90920C006FFF71FFB012003900020D6
:100CA0000490032005900220029002A90920C006AA
:100CB000FFF712FB01200390002004900320059011
:100CC0000420029002A90920C006FFF705FB0120BD
:100CD000039000200490032005900820029002A9B0
:100CE0000920C006FFF7F8FA0120039000200490C5
:100CF000032005901020029002A90920C006FFF7EA
:100D0000EBFA01200390002004900320059020209E
:100D1000029002A90920C006FFF7DEFA0120039025
:100D200000200490032005904020029002A9092091
:100D3000C006FFF7D1FA01200390002004900320A1
:100D400005908020029002A90920C006FFF7C4FA8E
:100D500000BF012211460920C006FFF77AFB0222DC
:100D600011460920C006FFF774FB04221146092032
:100D7000C006FFF76EFB082211460920C006FFF7E8
:100D800068FB102211460920C006FFF762FB2022F3
:100D900011460920C006FFF75CFB402211460920DE
:100DA000C006FFF756FB802211460920C006FFF758
:100DB00050FB00BF012202211548FFF74AFB012228
:100DC00011461348FFF745FB012211460F48FFF774
:100DD00040FB0022FF2101310920C006FFF739FB4B
:100DE0001420FFF753FA012211020920C006FFF771
:100DF00030FB1420FFF74AFA002202210448FFF7D3
:100E000028FB07B000BD00000010024000040048AD
:100E10000014004800B587B000BF0E4840690121AA
:100E2000490408430B4948610846406901214904C7
:100E30000840019000BF00BF0020039004900320F1
:100E40000590FF20029002A90920C006FFF744FA8E
:100E500007B000BD0010024000B587B000BF0F48CA
:100E600040690121490408430C494861084640692A
:100E7000012149040840019000BF00BF01200390F8
:100E80000020049003200590FF20029002A9092071
:100E9000C006FFF721FA07B000BD000000100240B5
:100EA000704708B50020694608807D21C90003E02D
:100EB0006A461088401C1080684600888842F7D334
:100EC00008BD10B500F06EF97D20C000FFF7DEF917
:100ED0008021122000F009F8002805D00A20FFF731
:100EE000D5F900F054FA012010BD70B50C46054646
:100EF00000F0CAF9422000F002FA002811D0FFF7F2
:100F0000D0FF284600F0FBF900280AD0FFF7C9FF00
:100F1000204600F0F4F9002803D000F0D5F90120B4
:100F200070BD00F0D1F9002070BD10B50446002C52
:100F300003D10720FFF7E8FA02E00720FFF7F4FAF1
:100F400010BD000000B587B000BF414840690121D5
:100F5000890408433E4948610846406901218904E3
:100F60000840019000BF00BF00BF394840690843F6
:100F700037494861084640690121890408400190C9
:100F800000BF00BF00BF32484069491008433049E4
:100F9000486108464069012149040840019000BFAA
:100FA00000BF00BF2A4840694900084328494861FA
:100FB00008464069012189040840019000BF00BF34
:100FC000022002900120039000200490032005904D
:100FD00002A92048FFF780F98020029001200390A9
:100FE000002004900320059002A91A48FFF774F925
:100FF0000820029001200390002004900320059017
:1010000002A91448FFF768F90120C00202901248B3
:101010000390012004900320059002A90920C00636
:10102000FFF75AF9002202210720FFF789FA07206B
:10103000FFF76AFA0020FFF778FF002000F026F89B
:10104000002000F00BF8002000F088F807B000BD89
:1010500000100240000400480000211010B50446B2
:10106000002C07D0012C0BD1002202210648FFF7EB
:10107000F0F906E0012202210348FFF7EAF900E057
:1010800000BF00BF10BD00000004004810B50446BA
:10109000002C07D0012C0BD1002280210648FFF73D
:1010A000D8F906E0012280210348FFF7D2F900E0D9
:1010B00000BF00BF10BD00000004004810B50020B4
:1010C000FFF733FFFFF7C8FE012202212148FFF797
:1010D000C0F9012280211F48FFF7BBF90021202021
:1010E00000F03CFCFF214031212000F037FC0021C2
:1010F000502000F033FCEF21512000F02FFC0021A4
:10110000522000F02BFCFF214031532000F026FC40
:101110001149032000F022FC222000F02FFE0122C2
:1011200040210C48FFF795F9002201210948FFF7FB
:1011300090F9002202210748FFF78BF90022802155
:101140000448FFF786F9FFF765FE0120FFF7EDFE83
:1011500010BD0000000400481810000010B504463F
:10116000002C07D0012C0BD1002208210648FFF7E4
:1011700070F906E0012208210348FFF76AF900E050
:1011800000BF00BF10BD000000040048704708B554
:101190000020694608800888AA2802D20888401CD6
:1011A000F8E708BDF0B5184887B042690121490445
:1011B0000A43426142690A40059242690A43426118
:1011C00040690C12084005901125012603276A4644
:1011D000F0C209206946C006FFF77EF860006A4643
:1011E000E1C209206946C006FFF776F8092001220E
:1011F0002146C006FFF72DF9012209209102C00601
:10120000FFF727F907B0F0BD0010024030B50F48D6
:1012100087B04269012149040A43426140690925B6
:101220000840CC11ED060590012221462846FFF723
:1012300010F90020019001200290032003900094F7
:1012400069462846FFF748F807B030BD0010024055
:1012500000B50C4887B04269012149040A43426144
:10126000406908400590C8110090112001900120AC
:1012700002900320039009206946C006FFF72CF86E
:1012800007B000BD0010024070B50122092594028C
:10129000ED0621462846FFF7DCF8012256023146CA
:1012A0002846FFF7D6F8FFF772FF002221462846AE
:1012B000FFF7CFF8FFF76BFF002231462846FFF714
:1012C000C8F8FFF764FF70BD70B501240925A402BA
:1012D000ED06002221462846FFF7BBF8FFF757FF2F
:1012E000012251022846FFF7B4F8FFF750FF012210
:1012F00021462846FFF7ADF8FFF749FF70BDF8B566
:1013000009260024F606012705467F02280601D596
:10131000012200E00022012189023046FFF799F8FE
:101320006806050EFFF733FF012239463046FFF706
:1013300090F8FFF72CFF002239463046FFF789F876
:10134000FFF725FF641CE4B2082CDFD3FFF75EFF34
:10135000FFF71DFF012239463046FFF77AF8FFF705
:1013600016FF012189023046FFF76EF8002801D0F0
:10137000002400E00124002239463046FFF769F8D6
:10138000FFF766FFFFF703FF2046F8BD704710B573
:1013900004213A20FFF7A9FDD0214020FFF7A5FD49
:1013A00014211220FFF7A1FD80213220FFF79DFDBF
:1013B00016211720FFF799FD04211820FFF795FD4E
:1013C00002211920FFF791FD7B211A20FFF78DFDE7
:1013D00006210320FFF789FD04210C20FFF785FD7E
:1013E00000213E20FFF781FD3A217020FFF77DFDAF
:1013F00035217120FFF779FD11217220FFF775FD6E
:1014000000217320FFF771FD0221A220FFF76DFD7F
:1014100081211120FFF769FD20217A20FFF765FD6A
:101420001C217B20FFF761FD28217C20FFF75DFD5B
:101430003C217D20FFF759FD55217E20FFF755FD0A
:1014400068217F20FFF751FD76218020FFF74DFDB9
:1014500080218120FFF749FD88218220FFF745FD8B
:101460008F218320FFF741FD96218420FFF73DFD6A
:10147000A3218520FFF739FDAF218620FFF735FD39
:10148000C4218720FFF731FDD7218820FFF72DFDEC
:10149000E8218920FFF729FDE0211320FFF725FD32
:1014A00000210846FFF721FD00211020FFF71DFD58
:1014B00000210D20FFF719FD28211420FFF715FD4D
:1014C0000521A520FFF711FD0721AB20FFF70DFD3A
:1014D00075212420FFF709FD63212520FFF705FD75
:1014E000A5212620FFF701FD78219F20FFF7FDFCB5
:1014F0006821A020FFF7F9FC0321A120FFF7F5FCEC
:10150000DF21A620FFF7F1FCDF21A720FFF7EDFC8C
:10151000F021A820FFF7E9FC9021A920FFF7E5FCC6
:101520009421AA20FFF7E1FCE5211320FFF7DDFC61
:1015300061210E20FFF7D9FC4B210F20FFF7D5FCCE
:1015400002211620FFF7D1FC07211E20FFF7CDFC5A
:1015500002212120FFF7C9FC91212220FFF7C5FCC1
:1015600007212920FFF7C1FC0B213320FFF7BDFC29
:101570000B213520FFF7B9FC1D213720FFF7B5FC03
:1015800071213820FFF7B1FC2A213920FFF7ADFC8B
:1015900078213C20FFF7A9FC40214D20FFF7A5FC56
:1015A00020214E20FFF7A1FC00216920FFF79DFCC0
:1015B00060216B20FFF799FC19217420FFF795FC3F
:1015C0004F218D20FFF791FC00218E20FFF78DFC2D
:1015D00000218F20FFF789FC00219020FFF785FC78
:1015E00000219120FFF781FC00219220FFF77DFC74
:1015F00000219620FFF779FC80219A20FFF775FCE7
:101600008421B020FFF771FC0C21B120FFF76DFCA5
:101610000E21B220FFF769FC8221B320FFF765FCA1
:101620000A21B820FFF761FC14214320FFF75DFC7D
:10163000F0214420FFF759FC34214520FFF755FCE9
:1016400058214620FFF751FC28214720FFF74DFC89
:101650003A214820FFF749FC88215920FFF745FC33
:1016600088215A20FFF741FC44215B20FFF73DFC15
:1016700067215C20FFF739FC49215D20FFF735FC2D
:101680000E215E20FFF731FC04216420FFF72DFCC2
:1016900020216520FFF729FC05216620FFF725FCA6
:1016A00004219420FFF721FC08219520FFF71DFC61
:1016B0000A216C20FFF719FC55216D20FFF715FC5E
:1016C00011216E20FFF711FC9F216F20FFF70DFC09
:1016D00040216A20FFF709FC40210120FFF705FCAB
:1016E00040210220FFF701FCE7211320FFF7FDFB5B
:1016F00000211520FFF7F9FB80214F20FFF7F5FBB4
:1017000080215020FFF7F1FB00215120FFF7EDFB76
:1017100022215220FFF7E9FB5E215320FFF7E5FB72
:1017200080215420FFF7E1FB9E215820FFF7DDFBCD
:1017300008214120FFF7D9FB00213F20FFF7D5FB0F
:1017400005217520FFF7D1FBE1217620FFF7CDFBC6
:1017500000214C20FFF7C9FB01217720FFF7C5FBD3
:10176000C2213D20FFF7C1FB09214B20FFF7BDFB44
:101770006021C920FFF7B9FB38214120FFF7B5FBF5
:1017800040215620FFF7B1FB11213420FFF7ADFBBC
:1017900002213B20FFF7A9FB8921A420FFF7A5FB2D
:1017A00000219620FFF7A1FB30219720FFF79DFB3A
:1017B00020219820FFF799FB30219920FFF795FB16
:1017C00084219A20FFF791FB29219B20FFF78DFBB5
:1017D00003219C20FFF789FB4C219D20FFF785FB0F
:1017E0003F219E20FFF781FB04217820FFF77DFB3E
:1017F00001217920FFF779FBF021C820FFF775FB65
:101800000F217920FFF771FB0021C820FFF76DFB46
:1018100010217920FFF769FB7E21C820FFF765FBC7
:101820000A217920FFF761FB8021C820FFF75DFBCB
:101830000B217920FFF759FB0121C820FFF755FB49
:101840000C217920FFF751FB0F21C820FFF74DFB3A
:101850000D217920FFF749FB2021C820FFF745FB28
:1018600009217920FFF741FB8021C820FFF73DFBCC
:1018700002217920FFF739FBC021C820FFF735FB93
:1018800003217920FFF731FB4021C820FFF72DFB12
:1018900005217920FFF729FB3021C820FFF725FB20
:1018A00026217920FFF721FB00210920FFF71DFBEE
:1018B00010BD10B5FEF7DAFD10BD30B591B0302186
:1018C0006846FEF76BFC00240D94012003900E94F3
:1018D0000225102009940490009505200F94C0045F
:1018E0000A900C9408950B946846FEF7F1FE0720C9
:1018F0000C900E9401210D950F940CA8FEF724FE78
:1019000011B030BD704770B505460024002150204D
:1019100000F024F8EF21512000F020F8002152209F
:1019200000F01CF8FF214031532000F017F800218F
:10193000202000F013F80021212000F00FF82220D1
:1019400000F01CFA00BF03E0284600F041FC641CD4
:101950004B2080028442F7D370BD0000F3B581B004
:10196000FF2109020198084004120198C5B20298AB
:10197000084006120298C7B200224021FE48FEF736
:1019800068FD00BF002201210920C006FEF761FDAD
:10199000002202210920C006FEF75BFD002204217F
:1019A0000920C006FEF755FD002208210920C006C7
:1019B000FEF74FFD002210210920C006FEF749FD69
:1019C000002220210920C006FEF743FD002240210D
:1019D0000920C006FEF73DFD002280210920C00637
:1019E000FEF737FD00BF00BFE207D20F012109203B
:1019F000C006FEF72EFD02202040024602210920EB
:101A0000C006FEF726FD04202040024604210920DE
:101A1000C006FEF71EFD08202040024608210920CE
:101A2000C006FEF716FD10202040024610210920B6
:101A3000C006FEF70EFD202020400246202109208E
:101A4000C006FEF706FD4020204002464021092046
:101A5000C006FEF7FEFC80202040024680210920BF
:101A6000C006FEF7F6FC00BF00220121C248FEF7C7
:101A7000F0FC01221146C048FEF7EBFC00BF00223B
:101A800001210920C006FEF7E4FC00220221092002
:101A9000C006FEF7DEFC002204210920C006FEF786
:101AA000D8FC002208210920C006FEF7D2FC002243
:101AB00010210920C006FEF7CCFC002220210920BD
:101AC000C006FEF7C6FC002240210920C006FEF732
:101AD000C0FC002280210920C006FEF7BAFC00BF2E
:101AE00000BFEA07D20F01210920C006FEF7B1FCB2
:101AF00002202840024602210920C006FEF7A9FC68
:101B000004202840024604210920C006FEF7A1FC5B
:101B100008202840024608210920C006FEF799FC4B
:101B200010202840024610210920C006FEF791FC33
:101B300020202840024620210920C006FEF789FC0B
:101B400040202840024640210920C006FEF781FCC3
:101B500080202840024680210920C006FEF779FC3B
:101B600000BF002201218448FEF773FC01221146C8
:101B70008148FEF76EFC012240217F48FEF769FC98
:101B800000BF002201210920C006FEF762FC0022EE
:101B900002210920C006FEF75CFC00220421092076
:101BA000C006FEF756FC002208210920C006FEF7F9
:101BB00050FC002210210920C006FEF74AFC00223A
:101BC00020210920C006FEF744FC00224021092004
:101BD000C006FEF73EFC002280210920C006FEF769
:101BE00038FC00BF00BFF207D20F01210920C00658
:101BF000FEF72FFC02203040024602210920C006D9
:101C0000FEF727FC04203040024604210920C006CC
:101C1000FEF71FFC08203040024608210920C006BC
:101C2000FEF717FC10203040024610210920C006A4
:101C3000FEF70FFC20203040024620210920C0067C
:101C4000FEF707FC40203040024640210920C00634
:101C5000FEF7FFFB80203040024680210920C006AD
:101C6000FEF7F7FB00BF002201214348FEF7F1FB1E
:101C7000012211464048FEF7ECFB00BF0022012183
:101C80000920C006FEF7E5FB002202210920C0065C
:101C9000FEF7DFFB002204210920C006FEF7D9FB76
:101CA000002208210920C006FEF7D3FB00221021E4
:101CB0000920C006FEF7CDFB002220210920C00626
:101CC000FEF7C7FB002240210920C006FEF7C1FB3A
:101CD000002280210920C006FEF7BBFB00BF00BF29
:101CE000FA07D20F01210920C006FEF7B2FB02203D
:101CF0003840024602210920C006FEF7AAFB042054
:101D00003840024604210920C006FEF7A2FB082045
:101D10003840024608210920C006FEF79AFB102031
:101D20003840024610210920C006FEF792FB202011
:101D30003840024620210920C006FEF78AFB4020D9
:101D40003840024640210920C006FEF782FB802071
:101D50003840024680210920C006FEF77AFB00BF0A
:101D6000002201210448FEF774FB012211460248BB
:101D7000FEF76FFBFEBD00000004004870B506468C
:101D8000FF20000230400412F5B2002240217F48BB
:101D9000FEF75FFB00BF002201210920C006FEF70D
:101DA00058FB002202210920C006FEF752FB002248
:101DB00004210920C006FEF74CFB0022082109205F
:101DC000C006FEF746FB002210210920C006FEF7E0
:101DD00040FB002220210920C006FEF73AFB00222A
:101DE00040210920C006FEF734FB00228021092093
:101DF000C006FEF72EFB00BF00BFE207D20F012195
:101E00000920C006FEF725FB0220204002460221E1
:101E10000920C006FEF71DFB0420204002460421D5
:101E20000920C006FEF715FB0820204002460821C5
:101E30000920C006FEF70DFB1020204002461021AD
:101E40000920C006FEF705FB202020400246202185
:101E50000920C006FEF7FDFA40202040024640213E
:101E60000920C006FEF7F5FA8020204002468021B6
:101E70000920C006FEF7EDFA00BF00220121434809
:101E8000FEF7E7FA012211464048FEF7E2FA00BFEA
:101E9000002201210920C006FEF7DBFA0022022100
:101EA0000920C006FEF7D5FA002204210920C00649
:101EB000FEF7CFFA002208210920C006FEF7C9FA72
:101EC000002210210920C006FEF7C3FA00222021BB
:101ED0000920C006FEF7BDFA002240210920C006F5
:101EE000FEF7B7FA002280210920C006FEF7B1FAFA
:101EF00000BF00BFEA07D20F01210920C006FEF78C
:101F0000A8FA02202840024602210920C006FEF756
:101F1000A0FA04202840024604210920C006FEF74A
:101F200098FA08202840024608210920C006FEF73A
:101F300090FA10202840024610210920C006FEF722
:101F400088FA20202840024620210920C006FEF7FA
:101F500080FA40202840024640210920C006FEF7B2
:101F600078FA80202840024680210920C006FEF72A
:101F700070FA00BF002201210448FEF76AFA01222C
:101F800011460248FEF765FA70BD000000040048E3
:101F900010B5012211020920C006FEF75AFA1420DA
:101FA000FEF774F90022FF2101310920C006FEF777
:101FB00050FA1420FEF76AF9012211020920C00626
:101FC000FEF747FA7D20C000FEF760F90121C90342
:101FD000E520FFF7C3FC01210020FFF7BFFCFF2134
:101FE00001310120FFF7BAFC072109020220FFF7A7
:101FF000B5FC71490320FFF7B1FC00210420FFF775
:10200000ADFC6E490820FFF7A9FC00210920FFF76D
:10201000A5FC00210A20FFF7A1FC00210C20FFF7FE
:102020009DFC00210D20FFF799FC00210F20FFF7F8
:1020300095FC00211020FFF791FC07211120FFF7EC
:102040008DFC00211220FFF789FC00211320FFF7EF
:1020500085FC7D20C000FEF719F959491020FFF7D3
:102060007DFC07211120FFF779FC7D20C000FEF7E1
:102070000DF9FF213B311220FFF770FC7D20C000DD
:10208000FEF704F90D2149021320FFF767FC0C212C
:102090002920FFF763FC7D20C000FEF7F7F8002140
:1020A0003020FFF75BFC47493120FFF757FC042144
:1020B0003220FFF753FC06213520FFF74FFC424941
:1020C0003620FFF74BFCFF2106313720FFF746FC97
:1020D00002213820FFF742FC3B493920FFF73EFC44
:1020E0003949C91E3C20FFF739FC38493D20FFF72C
:1020F00035FC00215020FFF731FCEF215120FFF784
:102100002DFC00215220FFF729FCFF2140315320F4
:10211000FFF724FC272109026020FFF71FFC0121A3
:102120006120FFF71BFC00216A20FFF717FC00214C
:102130002020FFF713FCFF2140312120FFF70EFC88
:1021400000218020FFF70AFC00218120FFF706FC18
:1021500000218220FFF702FC00218320FFF7FEFB15
:1021600000218420FFF7FAFB00218520FFF7F6FB12
:1021700010219020FFF7F2FB00219220FFF7EEFBE9
:1021800003219320FFF7EAFBFF2111319520FFF790
:10219000E5FB00219720FFF7E1FB00219820FFF7E6
:1021A000DDFBFF2174310720FFF7D8FB7D20C00045
:1021B000FEF76CF810BD00001810000002020000CD
:1021C000B017000005050000070700000708000021
:1021D00070B50646F5B2FF2000023040041201221D
:1021E00040217F48FEF735F900BF00220121092078
:1021F000C006FEF72EF9002202210920C006FEF7D4
:1022000028F9002204210920C006FEF722F9002245
:1022100008210920C006FEF71CF900221021092020
:10222000C006FEF716F9002220210920C006FEF79D
:1022300010F9002240210920C006FEF70AF9002209
:1022400080210920C006FEF704F900BF00BFE207A5
:10225000D20F01210920C006FEF7FBF80220204022
:10226000024602210920C006FEF7F3F804202040B0
:10227000024604210920C006FEF7EBF808202040A2
:10228000024608210920C006FEF7E3F8102020408E
:10229000024610210920C006FEF7DBF8202020406E
:1022A000024620210920C006FEF7D3F84020204036
:1022B000024640210920C006FEF7CBF880202040CE
:1022C000024680210920C006FEF7C3F800BF0022A5
:1022D00001214348FEF7BDF8012211464048FEF7B0
:1022E000B8F800BF002201210920C006FEF7B1F8AE
:1022F000002202210920C006FEF7ABF800220421CB
:102300000920C006FEF7A5F8002208210920C00612
:10231000FEF79FF8002210210920C006FEF799F869
:10232000002220210920C006FEF793F80022402158
:102330000920C006FEF78DF8002280210920C00682
:10234000FEF787F800BF00BFEA07D20F012109207E
:10235000C006FEF77EF8022028400246022109202E
:10236000C006FEF776F80420284002460421092022
:10237000C006FEF76EF80820284002460821092012
:10238000C006FEF766F810202840024610210920FA
:10239000C006FEF75EF820202840024620210920D2
:1023A000C006FEF756F8402028400246402109208A
:1023B000C006FEF74EF88020284002468021092002
:1023C000C006FEF746F800BF002201210448FEF7D0
:1023D00040F8012211460248FEF73BF870BD0000AC
:1023E00000040048F8B5040C8BB2264682B25E4366
:1023F0000D0C1046370C58433604801900217941E2
:1024000016466E43370C36048019794126466E43D2
:102410008919F8BD8307FF22DB0E9A408907090E50
:102420009940002808DB830809489B001B1818689E
:1024300090430843186070470007000F083883086E
:1024400004489B001B18D86990430843D861704723
:1024500000E400E000ED00E002E008C8121F08C13F
:10246000002AFAD170477047002001E001C1121F15
:10247000002AFBD170470000FEF700F8FFF71DFAB5
:10248000FEF760FD0120FEF769FEFEF7FFFAC820A7
:10249000FDF7FCFEFFF77CFD1148FFF734FA7D24C1
:1024A000E4002046FDF7F2FE1F20FFF72CFA20463D
:1024B000FDF7ECFEFEF705FD0A49002808700ED076
:1024C0002046FDF7E3FEFEF7A5FC0120FEF7DEFD4A
:1024D0000120FEF7C3FD0120FEF727FDFEE7FEE722
:1024E000E0FF0000000000200000000000000000ED
:1024F000010203040607080918250008000000204F
:1025000014000000582400082C25000814000020A6
:10251000040400006824000800000000010000001E
:0C252000040000000000000000127A001F
:04000005080000B13E
:00000001FF
