:020000040800F2
:1000000010040020C500000807130008890A000832
:1000100000000000000000000000000000000000E0
:10002000000000000000000000000000871600082B
:100030000000000000000000F9140008AD1B0008DB
:10004000D700000800000000D7000008D700000813
:10005000D7000008D7000008D7000008F901000801
:1000600000000000D7000008D7000008D7000008F3
:10007000D7000008D7000008D700000800000000E3
:10008000D70000080000000000000000D7000008B2
:1000900000000000D7000008D7000008D7000008C3
:1000A00000000000D700000800000000D700000892
:1000B0000348854600F08EF800480047951C00086C
:1000C000100400200448804704480047FEE7FEE78C
:1000D000FEE7FEE7FEE7FEE7FF1B0008B1000008B1
:1000E00030B50B46014600202022012409E00D46D0
:1000F000D5409D4205D31D469540491B2546954058
:1001000040191546521E002DF1DC30BDF0B51FB46C
:100110000646002082B005464024019100901BE075
:10012000019922460F46304600F020F8049A059BBC
:10013000801A994110D310461946224600F039F82A
:10014000361A8F410197224601200021009F00F0BE
:1001500030F838184D4100902046641E0028DFDC3E
:10016000019B00982946324607B0F0BD10B5202A01
:1001700004DB0846203AD040002110BD0B46D34096
:10018000D0402024A21A91400843194610BDD2B293
:1001900001E00270401C491EFBD270470022F6E7C6
:1001A00010B513460A4604461946FFF7F0FF2046ED
:1001B00010BD10B5202A04DB0146203A91400020F2
:1001C00010BD914020239C1A0346E3401943904000
:1001D00010BD0000064C0125064E05E0E36807CC83
:1001E0002B430C3C98471034B442F7D3FFF764FF1D
:1001F000041D0008241D000810B523484169C906E4
:1002000001D5102003E04169890603D5202000F0C4
:1002100057F810BD4169490601D54020F7E741690B
:10022000090601D58020F2E74169C90502D5FF2002
:100230000130ECE74169890502D501204002E6E77B
:100240004169490502D501208002E0E741690905BD
:1002500002D50120C002DAE74169C90402D50120B4
:100260000003D4E74169890402D501204003CEE7A9
:100270004169490402D501208003C8E740690004B0
:10028000C7D50120C003C2E70004014070B5044691
:1002900000F0E6F80546601C02D0044800782418F7
:1002A00000F0DEF8401BA042FAD370BD0000002031
:1002B000012110B5C902884201D101F0DDF810BD5D
:1002C00010B504494A69024202D04861FFF7F0FFC5
:1002D00010BD000000040140FCB500230124A1E092
:1002E00027462A469F403A4073D04D68012D05D0DD
:1002F000022D03D0112D01D0122D16D185680326B1
:10030000AC465D00AE46AE406546B543AC46CE68F1
:100310007546AE4065462E43866046680D79BE43FD
:10032000ED06ED0F9D4035434560C6685F0003252F
:10033000BD40AE46AE4335468E68BE402E43C660D5
:100340004E68022E01D0122E14D1DE08B6003618E7
:100350000196366A5D07B446EE0E0F25B54000964D
:100360006646AE43B4460D69009EB54066462E43D0
:10037000019D2E6206687546AE430D79AD07AD0F3F
:10038000BD40354305604D68ED004AD5284DAE6946
:100390002643AE61AD699E08ED07ED0F0095254D32
:1003A000B6007519AC46AD689E07360F0F27B740EB
:1003B000BD430927FF06B84201D1002710E01E4FB8
:1003C000B84201D101270BE01C4FB84202D10227ED
:1003D00006E026E01A4FB84201D1032700E00527C6
:1003E000B7402F436546AF60164E35684F6895435A
:1003F000FF0300D51543356075684F689543BF030B
:1004000000D515437560B5684F689543FF0200D568
:100410001543B560F5684F689543BF0200D5154395
:10042000F5605B1C0A681546DA4000D058E7FCBD51
:10043000001002400000014000040048000800488D
:10044000000C0048000401400069084000D0012071
:100450007047002A01D081617047816270470000B7
:100460000148806870470000000000200248816851
:1004700002788918816070470000002010B5064896
:100480000168102211430160002000F007F800F01D
:1004900027F8002010BD00000020024070B504467F
:1004A0000D4D7D202978C000FFF71AFE01460B484C
:1004B0000068FFF715FE00F0CFFA002809D1042CE0
:1004C00007D200222146401E00F03AF800206C605E
:1004D00070BD012070BD0000000000200C00002055
:1004E00008B5084881690122114381618169114081
:1004F0000091C26901040A43C261C06908400090CA
:1005000008BD000000100240002809DBC106C90E2A
:100510000120884003490860BFF34F8FBFF36F8FFE
:100520007047000080E100E0002805DBC106C90E2D
:1005300001208840014908607047000000E100E0A8
:1005400010B501F075FB10BDF8B50F46060059D087
:100550003A4D2868C007C00FB84209D22868400841
:100560004000384328602868C007C00FB84249D10E
:100570003068334C81070CD5400704D560680721EB
:100580000902084360606068F0218843B16808434D
:1005900060603078C00726D0706801280ED02168CE
:1005A00002280ED0890700292CDA616889088900A1
:1005B00001436160FFF754FF00900DE0216889035B
:1005C000F1E78901EFE7FFF74BFF0099411A1D485A
:1005D000814201D90320F8BD60680C210840716890
:1005E00089008842EFD12868C007C00FB8420BD9F4
:1005F000286840084000384328602868C007C00FBA
:10060000B84201D00120F8BD3078400706D56068B7
:10061000072109028843F1680843606000F018F878
:100620006168094A0906090F515CC840074908601A
:100630000020FFF733FF0020F8BD0000002002403B
:100640000010024088130000F41C00080C00002079
:1006500010B514A30FCB88B06C460FC415A30FCBF5
:100660000FC4184A51680C200B4603401648042B4F
:1006700016D0082B14D18B021B0F6C46E45CD26A97
:1006800004AB1207120F9A5CC90305D50023194663
:10069000FFF73CFD214601E020460C4901F0B0FA8D
:1006A00008B010BD02030405060708090A0B0C0D6B
:1006B0000E0F10100102030405060708090A0B0CAF
:1006C0000D0E0F100010024000127A0000093D00CC
:1006D000FEB5040070D02078DC4DC0074AD06868B1
:1006E0000007800F012807D068680007800F0228E4
:1006F00009D16868C00306D5286880033AD56068C8
:100700000028E7D036E06168012914D00120800478
:10071000002901D0052914D02A68012109048A433F
:100720002A602968814329606068002816D0FFF795
:1007300097FE06460EE02868012109040843286058
:10074000F2E7296801432960F5E7FFF789FE801B7E
:1007500064286ED828688003F7D50BE0FFF780FE89
:10076000064604E0FFF77CFE801B6428F1D8286869
:100770008003F7D420780126800700283CDA6868D7
:100780000007800F07D068680007800F022809D192
:100790006868C00306D42868800716D5E068012879
:1007A0000AD112E0E0680028286816D0304328609B
:1007B000FFF756FE074605E043E1FFF751FEC01B79
:1007C0000228C6D828688007F7D52868F82188430A
:1007D0002169C900084328600EE0400840002860F5
:1007E000FFF73EFE074604E0FFF73AFEC01B022873
:1007F000AFD828688007F7D42078000722D5E069B1
:100800000028686A0ED030436862FFF729FE074669
:1008100004E0FFF725FEC01B02289AD8686A80070B
:10082000F7D50FE0400840006862FFF719FE074661
:1008300005E09DE0FFF714FEC01B022889D8686A16
:100840008007F7D4207804274007002860DA0020CA
:100850000190E869C00008D4E969B8060143E9617C
:10086000E969014001200091019079480168C905BA
:1008700011D40168821511430160FFF7F1FD00906A
:1008800005E0FFF7EDFD0099401A642870D8704824
:100890000068C005F5D5A06801280AD0002801D05D
:1008A000052810D0286A400840002862286AB8430A
:1008B00001E0286A30432862A068002812D0FFF7C0
:1008C000CFFD00900AE0286A38432862F1E7FFF77D
:1008D000C7FD0099411A5F48814249D8286A8007BC
:1008E000F5D50DE0FFF7BCFD009006E0FFF7B8FD81
:1008F0000099411A574881423AD8286A8007F5D4AE
:100900000198002804D0E969012000078143E961CA
:100910002078C00635D5606901280CD0401D686B71
:1009200023D038436863686B400840006863FFF772
:1009300097FD064622E0686B38436863686B304376
:100940006863FFF78DFD064604E0FFF789FD801B15
:1009500002285BD8686B8007F7D5686BF82188435D
:10096000A169C900084368630BE0B8436863F4E712
:100970004CE0FFF775FD801B022847D8686B8007A5
:10098000F7D4206A00285ED069680907890F022918
:1009900042D0012636060228286805D0B0432860D8
:1009A000FFF75EFD044633E0B0432860FFF758FDD3
:1009B000074604E0FFF754FDC01B022826D828682C
:1009C0008001F7D4E86AE16A000900010843E8629F
:1009D000616AA06A084369683D2212049143084392
:1009E0006860286830432860FFF73AFD044604E059
:1009F000FFF736FD001B022808D828688001F7D5CC
:100A000021E0FFF72DFD001B022801D90320FEBDC8
:100A100028688001F5D416E00128F8D06868E96AF2
:100A200001221204636A02409A420AD10907E26A6B
:100A3000090F914205D10F2189040840A16A88421B
:100A400001D00120FEBD0020FEBD000000100240CC
:100A50000070004088130000094910B5401E88420C
:100A600001D9012010BD074C60610321081F01F06E
:100A7000DFF80020A06107202061002010BD0000E9
:100A8000FFFFFF0000E000E0FEE710B5CF2000F020
:100A900081FA002000F060FAC12000F05DFA3020F9
:100AA00000F05AFAED2000F075FA642000F054FAD4
:100AB000032000F051FA122000F04EFA812000F0DD
:100AC0004BFACB2000F066FA392000F045FA2C20D2
:100AD00000F042FA002000F03FFA342000F03CFA27
:100AE000022000F039FAEA2000F054FA002000F069
:100AF00033FA002000F030FAE82000F04BFA8520AD
:100B000000F02AFA102000F027FA792000F024FAE9
:100B1000C02000F03FFA232000F01EFAC12000F0B0
:100B200039FA112000F018FAC22000F033FA11202F
:100B300000F012FAC52000F02DFA3D2000F00CFA6A
:100B4000302000F009FAC72000F024FAAA2000F0B3
:100B500003FA3A2000F01EFA552000F0FDF9362085
:100B600000F018FA082000F0F7F9B12000F012FAAE
:100B7000002000F0F1F9112000F0EEF9B62000F0AD
:100B800009FA0A2000F0E8F9A22000F0E5F9F220C5
:100B900000F000FA002000F0DFF9F72000F0FAF989
:100BA000202000F0D9F9F12000F0F4F9012000F044
:100BB000D3F9302000F0D0F9262000F0EBF9012025
:100BC00000F0CAF9E02000F0E5F90F2000F0C4F9C8
:100BD0003F2000F0C1F92F2000F0BEF90C2000F0FA
:100BE000BBF9102000F0B8F90A2000F0B5F9532045
:100BF00000F0B2F9D52000F0AFF9402000F0ACF9D8
:100C00000A2000F0A9F9132000F0A6F9032000F053
:100C1000A3F9082000F0A0F9032000F09DF90020BE
:100C200000F09AF9E12000F0B5F9002000F094F905
:100C3000002000F091F9102000F08EF9032000F060
:100C40008BF90F2000F088F9052000F085F92C20A1
:100C500000F082F9A22000F07FF93F2000F07CF93B
:100C6000052000F079F90E2000F076F90C2000F054
:100C700073F9372000F070F93C2000F06DF90F2077
:100C800000F06AF9112000F085F96420FFF7FEFA00
:100C9000292000F07FF910BDF8B507461C4615461F
:100CA0000E462A2000F076F9380A00F055F9F8B21D
:100CB00000F052F9280A00F04FF9E8B200F04CF9C0
:100CC0002B2000F067F9300A00F046F9F0B200F08E
:100CD00043F9200A00F040F9E0B200F03DF92C2081
:100CE00000F058F9F8BD0000F0B58A4887B04269B5
:100CF000012189040A43426142690A40059242691E
:100D00000A43426142690A400592426909010A4365
:100D1000426142690A40059242690A43426142695E
:100D20000A400592426949110A43426142690A40F8
:100D3000059242690A43426142690A40059242694A
:100D40000A43426142690A40059242690A4342618C
:100D500042690A40059242690A43426142690A4077
:100D6000059242690A43426142690A40059242691A
:100D70000A43426142690A40059242690A4342615C
:100D800042690A40059242690A434261406940272C
:100D900008400097059001240025032601AA70C28F
:100DA00069465D48FFF798FA01A870C069465A483D
:100DB0000094FFF791FA01A870C069465748009463
:100DC000FFF78AFA02206A4671C269465348FFF764
:100DD00083FA20026A4671C209206946C006FFF7FD
:100DE0007BFA01A870C009206946C0060094FFF78D
:100DF00073FA02206A4671C209206946C006FFF7ED
:100E00006BFA04206A4671C209206946C006FFF7E2
:100E100063FA08206A4671C209206946C006FFF7D6
:100E20005BFA10206A4671C209206946C006FFF7C6
:100E300053FA20206A4671C209206946C006FFF7AE
:100E40004BFA01AA009770C209206946C006FFF755
:100E500043FA80206A4671C209206946C006FFF73E
:100E60003BFA012209201146C006FFF7F2FA0222DE
:100E700009201146C006FFF7ECFA042209201146AA
:100E8000C006FFF7E6FA082209201146C006FFF760
:100E9000E0FA102209201146C006FFF7DAFA2022F4
:100EA00009201146C006FFF7D4FA40220920114656
:100EB000C006FFF7CEFA802209201146C006FFF7D0
:100EC000C8FA012202211548FFF7C3FA0122114690
:100ED0001248FFF7BEFA012211460F48FFF7B9FA90
:100EE000092000222102C006FFF7B3FA1420FFF701
:100EF000CDF9012209201102C006FFF7AAFA142039
:100F0000FFF7C4F9002202210448FFF7A2FA07B054
:100F1000F0BD00000010024000040048001400482A
:100F2000F8B5010A0091C7B2FF2300214033EF2238
:100F30000846FFF7B1FE0025FF264136002439465A
:100F4000009800F017F8641CA4B2B442F7D36D1CEB
:100F5000ADB2F02DF2D3F8BD10B504460122402108
:100F60000348FFF776FA204600F0B8F810BD0000FD
:100F70000004004870B50C46054601224021044893
:100F8000FFF767FA2146284600F012F870BD00000E
:100F90000004004810B50446002240210348FFF732
:100FA00058FA204600F09AF810BD000000040048EE
:100FB000F8B5C20705460C460920D20F0121C0062C
:100FC000FFF747FA02262A46092032403146C0067A
:100FD000FFF73FFA04272A4609203A403946C0065F
:100FE000FFF737FA08202A46024001460920C006CA
:100FF000FFF72FFA10202A46024001460920C006BA
:10100000FFF727FA20202A46024001460920C006A1
:10101000FFF71FFA40202A46024001460920C00679
:10102000FFF717FAEA090920D2018021C006FFF76D
:1010300010FA294D002201212846FFF70AFA012261
:1010400011462846FFF705FAE2070920D20F0121D1
:10105000C006FFF7FEF92246092032400221C006F1
:10106000FFF7F7F9224609203A400421C006FFF7AE
:10107000F0F908202246024001460920C006FFF789
:10108000E8F910202246024001460920C006FFF779
:10109000E0F920202246024001460920C006FFF761
:1010A000D8F940202246024001460920C006FFF739
:1010B000D0F9E2090920D2018021C006FFF7C9F961
:1010C000002201212846FFF7C4F9012211462846D3
:1010D000FFF7BFF9F8BD00000004004870B5C20773
:1010E00009250446ED06D20F01212846FFF7B1F984
:1010F00002202246024001462846FFF7AAF90420B2
:101100002246024001462846FFF7A3F9082022465E
:10111000024001462846FFF79CF910202246024073
:1011200001462846FFF795F9202022460240014655
:101130002846FFF78EF94020224602400146284605
:10114000FFF787F9E209D20180212846FFF781F9EC
:10115000054C002201212046FFF77BF901221146B0
:101160002046FFF776F970BD0004004808B5010A73
:101170000091C7B2FF2300214033EF220846FFF75A
:101180008BFD0025FF264136002439460098FFF7E5
:10119000F1FE641CA4B2B442F7D36D1CADB2F02DC5
:1011A000F2D3E0200727002500900024384600995C
:1011B000FFF7E0FE641CA4B2B442F7D36D1CADB2DD
:1011C000F02DF2D3FF270025009700243846009920
:1011D000FFF7D0FE641CA4B2B442F7D36D1CADB2CD
:1011E000F02DF2D300273D460097002438460099A1
:1011F000FFF7C0FE641CA4B2B442F7D36D1CADB2BD
:10120000F02DF2D3FF2700250097002438460099DF
:10121000FFF7B0FE641CA4B2B442F7D36D1CADB2AC
:10122000F02DF2D300273D46009700243846009960
:10123000FFF7A0FE641CA4B2B442F7D36D1CADB29C
:10124000F02DF2D3FF27002500970024384600999F
:10125000FFF790FE641CA4B2B442F7D36D1CADB28C
:10126000F02DF2D300273D46009700243846009920
:10127000FFF780FE641CA4B2B442F7D36D1CADB27C
:10128000F02DF2D3FF27002500970024384600995F
:10129000FFF770FE641CA4B2B442F7D36D1CADB26C
:1012A000F02DF2D300273D460097002438460099E0
:1012B000FFF760FE641CA4B2B442F7D36D1CADB25C
:1012C000F02DF2D3FF27002500970024384600991F
:1012D000FFF750FE641CA4B2B442F7D36D1CADB24C
:1012E000F02DF2D300252C460095002728460099C2
:1012F000FFF740FE7F1CBFB2B742F7D3641CA4B215
:10130000F02CF2D3DEE7704710B500F001F9802130
:10131000122000F009F8002805D00A20FEF7B6FFD9
:1013200000F0B2F9012010BD70B50C46054600F082
:101330002EF9422000F064F900280DD0284600F074
:101340005FF9002808D0204600F05AF9002803D0A1
:1013500000F03BF9012070BD00F037F9002070BDAE
:1013600010B5002803D00720FFF7DEF810BD0720D6
:10137000FFF7CAF810BD0000F0B52C4887B04269ED
:10138000012189040A43426142690A400592426987
:101390000A43426142690A40059243694A10134375
:1013A000436143691340059342690A4342614069BE
:1013B0000325084005900220012400266A46039573
:1013C00051C21B4F69463846FEF786FF80206A46A9
:1013D000039551C269463846FEF77EFF08206A46EB
:1013E000039551C269463846FEF776FFE002009049
:1013F000104801AA31C209206946C006FEF76CFFF9
:10140000002202210720FFF79BF80720FFF77CF856
:101410000020FFF7A5FF002000F01EF8002000F0DC
:101420000BF8002000F058F807B0F0BD00100240A3
:10143000000400480000211010B5064B002803D01E
:10144000012806D1002200E0012202211846FFF700
:1014500000F810BD0004004810B5064B002803D06A
:10146000012806D1002200E0012280211846FEF763
:10147000F0FF10BD0004004810B50020FFF770FF1A
:10148000144C012202212046FEF7E3FF01228021B5
:101490002046FEF7DEFFFF2300214033EF220846FF
:1014A000FFF7FAFB012240212046FEF7D2FF00227F
:1014B00001212046FEF7CDFF002202212046FEF743
:1014C000C8FF002280212046FEF7C3FF0120FFF75E
:1014D00047FF10BD0004004810B5064B002803D09C
:1014E000012806D1002200E0012208211846FEF75B
:1014F000B0FF10BD00040048704708B500206946E1
:1015000008700878642802D20878401CF8E708BD03
:10151000F0B5124887B04269012149040A4342618B
:1015200042690A40059242690A43426140691124B6
:10153000084005900812012503266A4671C2092752
:10154000FF0669463846FEF7C7FEA8026A4671C222
:1015500069463846FEF7C0FE07B0F0BD00100240F5
:101560000920C00601680322120591430160016849
:10157000016070470920C0060168032212059143EB
:10158000016001680122120511430160704770B5C6
:10159000012209259402ED0621462846FEF759FF4F
:1015A0000122560231462846FEF753FFFFF7A5FFFA
:1015B000002221462846FEF74CFFFFF79EFF00223F
:1015C00031462846FEF745FF70BD70B50124092558
:1015D000A402ED06002221462846FEF73AFFFFF757
:1015E0008CFF012251022846FEF733FFFFF785FFEB
:1015F000012221462846FEF72CFFFFF77EFF70BD33
:10160000F8B509260024F606012705467F022806BC
:1016100001D5012200E00022012189023046FEF7B7
:1016200018FF6806050EFFF768FF012239463046AD
:10163000FEF70FFFFFF761FF002239463046FEF745
:1016400008FF641CE4B2082CE1D3FFF789FFFFF721
:1016500054FF012239463046FEF7FBFEFFF74DFFEF
:10166000012189023046FEF7EFFE002801D0002458
:1016700000E00124002239463046FEF7EAFEFFF77B
:1016800079FF2046F8BD704710B504213A20FFF7D6
:101690004BFED0214020FFF747FE14211220FFF718
:1016A00043FE80213220FFF73FFE16211720FFF76F
:1016B0003BFE04211820FFF737FE02211920FFF717
:1016C00033FE7B211A20FFF72FFE06210320FFF7B0
:1016D0002BFE04210C20FFF727FE00213E20FFF700
:1016E00023FE3A217020FFF71FFE35217120FFF7FE
:1016F0001BFE11217220FFF717FE00217320FFF758
:1017000013FE0221A220FFF70FFE81211120FFF717
:101710000BFE20217A20FFF707FE1C217B20FFF71C
:1017200003FE28217C20FFF7FFFD3C217D20FFF7F1
:10173000FBFD55217E20FFF7F7FD68217F20FFF795
:10174000F3FD76218020FFF7EFFD80218120FFF758
:10175000EBFD88218220FFF7E7FD8F218320FFF733
:10176000E3FD96218420FFF7DFFDA3218520FFF70D
:10177000DBFDAF218620FFF7D7FDC4218720FFF7CF
:10178000D3FDD7218820FFF7CFFDE8218920FFF77F
:10179000CBFDE0211320FFF7C7FD00210846FFF72E
:1017A000C3FD00211020FFF7BFFD00210D20FFF732
:1017B000BBFD28211420FFF7B7FD0521A520FFF769
:1017C000B3FD0721AB20FFF7AFFD75212420FFF704
:1017D000ABFD63212520FFF7A7FDA5212620FFF7FC
:1017E000A3FD78219F20FFF79FFD6821A020FFF730
:1017F0009BFD0321A120FFF797FDDF21A620FFF726
:1018000093FDDF21A720FFF78FFDF021A820FFF730
:101810008BFD9021A920FFF787FD9421AA20FFF7D7
:1018200083FDE5211320FFF77FFD61210E20FFF7E7
:101830007BFD4B210F20FFF777FD02211620FFF7DC
:1018400073FD07211E20FFF76FFD02212120FFF706
:101850006BFD91212220FFF767FD07212920FFF76B
:1018600063FD0B213320FFF75FFD0B213520FFF7D0
:101870005BFD1D213720FFF757FD71213820FFF751
:1018800053FD2A213920FFF74FFD78213C20FFF737
:101890004BFD40214D20FFF747FD20214E20FFF753
:1018A00043FD00216920FFF73FFD60216B20FFF71A
:1018B0003BFD19217420FFF737FD4F218D20FFF7E5
:1018C00033FD00218E20FFF72FFD00218F20FFF731
:1018D0002BFD00219020FFF727FD00219120FFF72D
:1018E00023FD00219220FFF71FFD00219620FFF726
:1018F0001BFD80219A20FFF717FD8421B020FFF700
:1019000013FD0C21B120FFF70FFD0E21B220FFF7D0
:101910000BFD8221B320FFF707FD0A21B820FFF756
:1019200003FD14214320FFF7FFFCF0214420FFF7C3
:10193000FBFC34214520FFF7F7FC58214620FFF738
:10194000F3FC28214720FFF7EFFC3A214820FFF75E
:10195000EBFC88215920FFF7E7FC88215A20FFF78C
:10196000E3FC44215B20FFF7DFFC67215C20FFF7ED
:10197000DBFC49215D20FFF7D7FC0E215E20FFF73D
:10198000D3FC04216420FFF7CFFC20216520FFF762
:10199000CBFC05216620FFF7C7FC04219420FFF74C
:1019A000C3FC08219520FFF7BFFC0A216C20FFF73C
:1019B000BBFC55216D20FFF7B7FC11216E20FFF70E
:1019C000B3FC9F216F20FFF7AFFC40216A20FFF797
:1019D000ABFC40210120FFF7A7FC40210220FFF7CC
:1019E000A3FCE7211320FFF79FFC00211520FFF740
:1019F0009BFC80214F20FFF797FC80215020FFF7B0
:101A000093FC00215120FFF78FFC22215220FFF789
:101A10008BFC5E215320FFF787FC80215420FFF7C9
:101A200083FC9E215820FFF77FFC08214120FFF70F
:101A30007BFC00213F20FFF777FC05217520FFF795
:101A400073FCE1217620FFF76FFC00214C20FFF7AB
:101A50006BFC01217720FFF767FCC2213D20FFF7D7
:101A600063FC09214B20FFF75FFC6021C920FFF7D1
:101A70005BFC38214120FFF757FC40215620FFF73F
:101A800053FC11213420FFF74FFC02213B20FFF7CC
:101A90004BFC8921A420FFF747FC00219620FFF78B
:101AA00043FC30219720FFF73FFC20219820FFF7CF
:101AB0003BFC30219920FFF737FC84219A20FFF767
:101AC00033FC29219B20FFF72FFC03219C20FFF7EB
:101AD0002BFC4C219D20FFF727FC3F219E20FFF788
:101AE00023FC04217820FFF71FFC01217920FFF758
:101AF0001BFCF021C820FFF717FC0F217920FFF70E
:101B000013FC0021C820FFF70FFC10217920FFF7FC
:101B10000BFC7E21C820FFF707FC0A217920FFF784
:101B200003FC8021C820FFF7FFFB0B217920FFF782
:101B3000FBFB0121C820FFF7F7FB0C217920FFF701
:101B4000F3FB0F21C820FFF7EFFB0D217920FFF7F2
:101B5000EBFB2021C820FFF7E7FB09217920FFF7E5
:101B6000E3FB8021C820FFF7DFFB02217920FFF78C
:101B7000DBFBC021C820FFF7D7FB03217920FFF74B
:101B8000D3FB4021C820FFF7CFFB05217920FFF7C9
:101B9000CBFB3021C820FFF7C7FB26217920FFF7B8
:101BA000C3FB00210920FFF7BFFB10BD10B5FEF7F6
:101BB0005DFC10BD30B591B030216846FEF7EEFAFD
:101BC00000240D94012003900E9402251020099406
:101BD0000490009505200F94C0040A900C94089579
:101BE0000B946846FEF774FD07200C900E940121BB
:101BF0000D950F940CA8FEF7A7FC11B030BD7047EF
:101C0000F8B5040C8BB2264682B25E430D0C10462A
:101C1000370C5843360480190021794116466E432B
:101C2000370C36048019794126466E438919F8BD70
:101C30008307FF22DB0E9A408907090E994000288E
:101C400008DB830809489B001B1818689043084369
:101C5000186070470007000F0838830804489B008D
:101C60001B18D86990430843D861704700E400E02E
:101C700000ED00E002E008C8121F08C1002AFAD1F6
:101C800070477047002001E001C1121F002AFBD1FC
:101C900070470000FEF7F2FBFFF78CFFFFF76CFBCD
:101CA0007D24E4002046FEF7F1FA0120FFF714FC42
:101CB0002046FEF7EBFAFFF717F8C820FEF7E6FA22
:101CC000FEF7E3FEC820FEF7E1FAFFF71DFB084D23
:101CD00001280AD01F20C002FFF722F92046FEF794
:101CE000D5FA2846FFF742FAFEE72846F4E7000057
:101CF000E0FF0000000000000000000001020304FB
:101D000006070809241D000800000020100000003C
:101D1000741C0008341D000810000020000400009E
:101D2000841C000801000000040000000000000006
:041D300000127A0023
:04000005080000B13E
:00000001FF
