:020000040800F2
:1000000018040020C5000008D1110008890A000862
:1000100000000000000000000000000000000000E0
:100020000000000000000000000000005117000860
:100030000000000000000000B51400089F1C00082C
:10004000D700000800000000D7000008D700000813
:10005000D7000008D7000008D7000008F901000801
:1000600000000000D7000008D7000008D7000008F3
:10007000D7000008D7000008D700000800000000E3
:10008000D70000080000000000000000D7000008B2
:1000900000000000D7000008D7000008D7000008C3
:1000A00000000000D700000800000000D700000892
:1000B0000348854600F08EF800480047891D000877
:1000C000180400200448804704480047FEE7FEE784
:1000D000FEE7FEE7FEE7FEE7F11C0008B1000008BE
:1000E00030B50B46014600202022012409E00D46D0
:1000F000D5409D4205D31D469540491B2546954058
:1001000040191546521E002DF1DC30BDF0B51FB46C
:100110000646002082B005464024019100901BE075
:10012000019922460F46304600F020F8049A059BBC
:10013000801A994110D310461946224600F039F82A
:10014000361A8F410197224601200021009F00F0BE
:1001500030F838184D4100902046641E0028DFDC3E
:10016000019B00982946324607B0F0BD10B5202A01
:1001700004DB0846203AD040002110BD0B46D34096
:10018000D0402024A21A91400843194610BDD2B293
:1001900001E00270401C491EFBD270470022F6E7C6
:1001A00010B513460A4604461946FFF7F0FF2046ED
:1001B00010BD10B5202A04DB0146203A91400020F2
:1001C00010BD914020239C1A0346E3401943904000
:1001D00010BD0000064C0125064E05E0E36807CC83
:1001E0002B430C3C98471034B442F7D3FFF764FF1D
:1001F000081E0008281E000810B523484169C906DA
:1002000001D5102003E04169890603D5202000F0C4
:1002100057F810BD4169490601D54020F7E741690B
:10022000090601D58020F2E74169C90502D5FF2002
:100230000130ECE74169890502D501204002E6E77B
:100240004169490502D501208002E0E741690905BD
:1002500002D50120C002DAE74169C90402D50120B4
:100260000003D4E74169890402D501204003CEE7A9
:100270004169490402D501208003C8E740690004B0
:10028000C7D50120C003C2E70004014070B5044691
:1002900000F0E6F80546601C02D0044800782418F7
:1002A00000F0DEF8401BA042FAD370BD040000202D
:1002B000012110B5C902884201D101F0B7F810BD83
:1002C00010B504494A69024202D04861FFF7F0FFC5
:1002D00010BD000000040140FCB500230124A1E092
:1002E00027462A469F403A4073D04D68012D05D0DD
:1002F000022D03D0112D01D0122D16D185680326B1
:10030000AC465D00AE46AE406546B543AC46CE68F1
:100310007546AE4065462E43866046680D79BE43FD
:10032000ED06ED0F9D4035434560C6685F0003252F
:10033000BD40AE46AE4335468E68BE402E43C660D5
:100340004E68022E01D0122E14D1DE08B6003618E7
:100350000196366A5D07B446EE0E0F25B54000964D
:100360006646AE43B4460D69009EB54066462E43D0
:10037000019D2E6206687546AE430D79AD07AD0F3F
:10038000BD40354305604D68ED004AD5284DAE6946
:100390002643AE61AD699E08ED07ED0F0095254D32
:1003A000B6007519AC46AD689E07360F0F27B740EB
:1003B000BD430927FF06B84201D1002710E01E4FB8
:1003C000B84201D101270BE01C4FB84202D10227ED
:1003D00006E026E01A4FB84201D1032700E00527C6
:1003E000B7402F436546AF60164E35684F6895435A
:1003F000FF0300D51543356075684F689543BF030B
:1004000000D515437560B5684F689543FF0200D568
:100410001543B560F5684F689543BF0200D5154395
:10042000F5605B1C0A681546DA4000D058E7FCBD51
:10043000001002400000014000040048000800488D
:10044000000C0048000401400069084000D0012071
:100450007047002A01D081617047816270470000B7
:10046000014880687047000004000020024881684D
:1004700002788918816070470400002010B5064892
:100480000168102211430160002000F007F800F01D
:1004900027F8002010BD00000020024070B504467F
:1004A0000D4D7D202978C000FFF71AFE01460B484C
:1004B0000068FFF715FE00F0CFFA002809D1042CE0
:1004C00007D200222146401E00F03AF800206C605E
:1004D00070BD012070BD000004000020100000204D
:1004E00008B5084881690122114381618169114081
:1004F0000091C26901040A43C261C06908400090CA
:1005000008BD000000100240002809DBC106C90E2A
:100510000120884003490860BFF34F8FBFF36F8FFE
:100520007047000080E100E0002805DBC106C90E2D
:1005300001208840014908607047000000E100E0A8
:1005400010B501F0EFFB10BDF8B50F46060059D00D
:100550003A4D2868C007C00FB84209D22868400841
:100560004000384328602868C007C00FB84249D10E
:100570003068334C81070CD5400704D560680721EB
:100580000902084360606068F0218843B16808434D
:1005900060603078C00726D0706801280ED02168CE
:1005A00002280ED0890700292CDA616889088900A1
:1005B00001436160FFF754FF00900DE0216889035B
:1005C000F1E78901EFE7FFF74BFF0099411A1D485A
:1005D000814201D90320F8BD60680C210840716890
:1005E00089008842EFD12868C007C00FB8420BD9F4
:1005F000286840084000384328602868C007C00FBA
:10060000B84201D00120F8BD3078400706D56068B7
:10061000072109028843F1680843606000F018F878
:100620006168094A0906090F515CC840074908601A
:100630000020FFF733FF0020F8BD0000002002403B
:100640000010024088130000F81D00081000002070
:1006500010B514A30FCB88B06C460FC415A30FCBF5
:100660000FC4184A51680C200B4603401648042B4F
:1006700016D0082B14D18B021B0F6C46E45CD26A97
:1006800004AB1207120F9A5CC90305D50023194663
:10069000FFF73CFD214601E020460C4901F029FB13
:1006A00008B010BD02030405060708090A0B0C0D6B
:1006B0000E0F10100102030405060708090A0B0CAF
:1006C0000D0E0F100010024000127A0000093D00CC
:1006D000FEB5040070D02078DC4DC0074AD06868B1
:1006E0000007800F012807D068680007800F0228E4
:1006F00009D16868C00306D5286880033AD56068C8
:100700000028E7D036E06168012914D00120800478
:10071000002901D0052914D02A68012109048A433F
:100720002A602968814329606068002816D0FFF795
:1007300097FE06460EE02868012109040843286058
:10074000F2E7296801432960F5E7FFF789FE801B7E
:1007500064286ED828688003F7D50BE0FFF780FE89
:10076000064604E0FFF77CFE801B6428F1D8286869
:100770008003F7D420780126800700283CDA6868D7
:100780000007800F07D068680007800F022809D192
:100790006868C00306D42868800716D5E068012879
:1007A0000AD112E0E0680028286816D0304328609B
:1007B000FFF756FE074605E043E1FFF751FEC01B79
:1007C0000228C6D828688007F7D52868F82188430A
:1007D0002169C900084328600EE0400840002860F5
:1007E000FFF73EFE074604E0FFF73AFEC01B022873
:1007F000AFD828688007F7D42078000722D5E069B1
:100800000028686A0ED030436862FFF729FE074669
:1008100004E0FFF725FEC01B02289AD8686A80070B
:10082000F7D50FE0400840006862FFF719FE074661
:1008300005E09DE0FFF714FEC01B022889D8686A16
:100840008007F7D4207804274007002860DA0020CA
:100850000190E869C00008D4E969B8060143E9617C
:10086000E969014001200091019079480168C905BA
:1008700011D40168821511430160FFF7F1FD00906A
:1008800005E0FFF7EDFD0099401A642870D8704824
:100890000068C005F5D5A06801280AD0002801D05D
:1008A000052810D0286A400840002862286AB8430A
:1008B00001E0286A30432862A068002812D0FFF7C0
:1008C000CFFD00900AE0286A38432862F1E7FFF77D
:1008D000C7FD0099411A5F48814249D8286A8007BC
:1008E000F5D50DE0FFF7BCFD009006E0FFF7B8FD81
:1008F0000099411A574881423AD8286A8007F5D4AE
:100900000198002804D0E969012000078143E961CA
:100910002078C00635D5606901280CD0401D686B71
:1009200023D038436863686B400840006863FFF772
:1009300097FD064622E0686B38436863686B304376
:100940006863FFF78DFD064604E0FFF789FD801B15
:1009500002285BD8686B8007F7D5686BF82188435D
:10096000A169C900084368630BE0B8436863F4E712
:100970004CE0FFF775FD801B022847D8686B8007A5
:10098000F7D4206A00285ED069680907890F022918
:1009900042D0012636060228286805D0B0432860D8
:1009A000FFF75EFD044633E0B0432860FFF758FDD3
:1009B000074604E0FFF754FDC01B022826D828682C
:1009C0008001F7D4E86AE16A000900010843E8629F
:1009D000616AA06A084369683D2212049143084392
:1009E0006860286830432860FFF73AFD044604E059
:1009F000FFF736FD001B022808D828688001F7D5CC
:100A000021E0FFF72DFD001B022801D90320FEBDC8
:100A100028688001F5D416E00128F8D06868E96AF2
:100A200001221204636A02409A420AD10907E26A6B
:100A3000090F914205D10F2189040840A16A88421B
:100A400001D00120FEBD0020FEBD000000100240CC
:100A50000070004088130000094910B5401E88420C
:100A600001D9012010BD074C60610321081F01F06E
:100A700059F90020A06107202061002010BD00006E
:100A8000FFFFFF0000E000E0FEE710B5F22000F0FD
:100A9000B3FA182000F092FAA32000F08FFA122087
:100AA00000F08CFA022000F089FAB22000F086FAF9
:100AB000122000F083FAFF2000F080FA102000F0EE
:100AC0007DFA002000F07AFAF82000F095FA212053
:100AD00000F074FA042000F071FAF92000F08CFAAA
:100AE000002000F06BFA082000F068FA362000F0D1
:100AF00083FA082000F062FA3A2000F07DFA05201F
:100B000000F05CFAB42000F077FA012000F056FA09
:100B1000B62000F071FA022000F050FA222000F016
:100B20004DFAC12000F068FA412000F047FAC520D4
:100B300000F062FA002000F041FA072000F03EFACF
:100B4000E02000F059FA0F2000F038FA1F2000F0E2
:100B500035FA1C2000F032FA0C2000F02FFA0F209A
:100B600000F02CFA082000F029FA482000F026FABC
:100B7000982000F023FA372000F020FA0A2000F035
:100B80001DFA132000F01AFA042000F017FA1120C1
:100B900000F014FA0D2000F011FA002000F00EFA17
:100BA000E12000F029FA0F2000F008FA322000F0CE
:100BB00005FA2E2000F002FA0B2000F0FFF90D20BC
:100BC00000F0FCF9052000F0F9F9472000F0F6F9F3
:100BD000752000F0F3F9372000F0F0F9062000F05E
:100BE000EDF9102000F0EAF9032000F0E7F92420E5
:100BF00000F0E4F9202000F0E1F9002000F0DEF937
:100C0000112000F0F9F9FF20F530FFF73FFB292014
:100C100000F0F2F97D24E4002046FFF737FBFF22C5
:100C20004132F021682000F09BF92046FFF72EFBAF
:100C300010BDF8B507461C4615460E462A2000F0A2
:100C4000DBF9380A00F0BAF9F8B200F0B7F9280A6F
:100C500000F0B4F9E8B200F0B1F92B2000F0CCF9C3
:100C6000300A00F0ABF9F0B200F0A8F9200A00F069
:100C7000A5F9E0B200F0A2F92C2000F0BDF9F8BD12
:100C8000F0B58A4887B04269012189040A4342616C
:100C900042690A40059242690A43426142690A4038
:100CA0000592426909010A43426142690A4005927C
:100CB00042690A43426142690A4005924269491108
:100CC0000A43426142690A40059242690A4342610D
:100CD00042690A40059242690A43426142690A40F8
:100CE000059242690A43426142690A40059242699B
:100CF0000A43426142690A40059242690A434261DD
:100D000042690A40059242690A43426142690A40C7
:100D1000059242690A43426142690A40059242696A
:100D20000A4342614069402708400097059001242A
:100D30000025032601AA70C269465D48FFF7CCFA78
:100D400001A870C069465A480094FFF7C5FA01A887
:100D500070C0694657480094FFF7BEFA02206A4601
:100D600071C269465348FFF7B7FA20026A4671C25A
:100D700009206946C006FFF7AFFA01A870C0092034
:100D80006946C0060094FFF7A7FA02206A4671C2BE
:100D900009206946C006FFF79FFA04206A4671C21F
:100DA00009206946C006FFF797FA08206A4671C213
:100DB00009206946C006FFF78FFA10206A4671C203
:100DC00009206946C006FFF787FA20206A4671C2EB
:100DD00009206946C006FFF77FFA01AA009770C292
:100DE00009206946C006FFF777FA80206A4671C27B
:100DF00009206946C006FFF76FFA01220920114653
:100E0000C006FFF726FB022209201146C006FFF7A5
:100E100020FB042209201146C006FFF71AFB082216
:100E200009201146C006FFF714FB102209201146C5
:100E3000C006FFF70EFB202209201146C006FFF76F
:100E400008FB402209201146C006FFF702FB802262
:100E500009201146C006FFF7FCFA012202211548BD
:100E6000FFF7F7FA012211461248FFF7F2FA0122C2
:100E700011460F48FFF7EDFA092000222102C006B3
:100E8000FFF7E7FA6420FFF701FA012209201102B7
:100E9000C006FFF7DEFA6420FFF7F8F9002202210E
:100EA0000448FFF7D6FA07B0F0BD0000001002407A
:100EB0000004004800140048F8B5010A0091C7B2C8
:100EC000FF220021EF2340320846FFF7B2FE002543
:100ED000FF26413600243946009800F07DF8641C56
:100EE000A4B2B442F7D36D1CADB2F02DF2D3F8BD6D
:100EF00000B50C4887B04269012149040A434261A8
:100F00004069084005900020019002900320039062
:100F1000FF20009009206946C006FFF7DDF907B001
:100F200000BD00000010024000B50C4887B04269C7
:100F3000012149040A4342614069084005900120AB
:100F400001900020029003200390FF2000900920D0
:100F50006946C006FFF7C0F907B000BD00100240A7
:100F600070B5064615460C46362000F045F830466A
:100F700000F024F82A2000F03FF8002000F01EF8CE
:100F8000002000F01BF8641E2004000E00F016F88C
:100F9000E0B200F013F82B2000F02EF8002000F053
:100FA0000DF8002000F00AF86D1E2804000E00F075
:100FB00005F8E8B200F002F870BD000010B5044674
:100FC000012240210348FFF744FA204600F0B8F818
:100FD00010BD00000004004870B50C460546012213
:100FE00040210448FFF735FA2146284600F012F860
:100FF00070BD00000004004810B5044600224021E6
:101000000348FFF726FA204600F09AF810BD0000CA
:1010100000040048F8B5C20705460C460920D20F67
:101020000121C006FFF715FA02262A4609203240A0
:101030003146C006FFF70DFA04272A4609203A4038
:101040003946C006FFF705FA08202A460240014645
:101050000920C006FFF7FDF910202A46024001468C
:101060000920C006FFF7F5F920202A460240014674
:101070000920C006FFF7EDF940202A46024001464C
:101080000920C006FFF7E5F9EA090920D20180210D
:10109000C006FFF7DEF9294D002201212846FFF79F
:1010A000D8F9012211462846FFF7D3F9E2070920B3
:1010B000D20F0121C006FFF7CCF9224609203240A9
:1010C0000221C006FFF7C5F9224609203A40042153
:1010D000C006FFF7BEF9082022460240014609205B
:1010E000C006FFF7B6F9102022460240014609204B
:1010F000C006FFF7AEF92020224602400146092033
:10110000C006FFF7A6F9402022460240014609200A
:10111000C006FFF79EF9E2090920D2018021C0062E
:10112000FFF797F9002201212846FFF792F90122E3
:1011300011462846FFF78DF9F8BD0000000400486D
:1011400070B5C20709250446ED06D20F01212846D5
:10115000FFF77FF902202246024001462846FFF7AA
:1011600078F904202246024001462846FFF771F92B
:1011700008202246024001462846FFF76AF910205F
:101180002246024001462846FFF763F92020224606
:10119000024001462846FFF75CF940202246024003
:1011A00001462846FFF755F9E209D2018021284679
:1011B000FFF74FF9054C002201212046FFF749F9BE
:1011C000012211462046FFF744F970BD0004004893
:1011D000704708B50020694608807D21C90003E0FA
:1011E0006A461088401C1080684600888842F7D301
:1011F00008BD10B500F06AF97D20C000FFF746F881
:101200008021122000F032F800280CD00A20FFF7CD
:101210003DF800F09EFAFF234133F022B0210C206C
:1012200000F044F8012010BD10B5044600F00EFA9D
:10123000422000F046FAFFF7CCFF204600F041FACA
:10124000FFF7C7FF00F022FAFFF7C3FF00F0FEF937
:10125000432000F036FAFFF7BCFF00F08DF904469A
:1012600000F068F900F012FA204610BD70B50C4687
:10127000054600F0EBF9422000F023FA002811D0D7
:10128000FFF7A7FF284600F01CFA00280AD0FFF756
:10129000A0FF204600F015FA002803D000F0F6F970
:1012A000012070BD00F0F2F9002070BDF8B50546D0
:1012B0005000401986B20F465800C01984B2312040
:1012C0000001844201D9201A84B20320FFF7ACFF49
:1012D000B107AA070009090F920F0001114301434A
:1012E0000320FFF7C3FFA805010E1920FFF7BEFF7B
:1012F000B005010E1A20FFF7B9FF3220FFF794FF67
:101300007805010E1720FFF7B1FF6005010E1820C8
:10131000FFF7ACFFF8BD10B5002803D00720FFF79A
:1013200003F910BD0720FFF7EFF810BDF0B52C480A
:1013300087B04269012189040A43426142690A4037
:10134000059242690A43426142690A400592436933
:101350004A101343436143691340059342690A43AA
:1013600042614069032508400590022001240026BF
:101370006A46039551C21B4F69463846FEF7ACFFDB
:1013800080206A46039551C269463846FEF7A4FF9D
:1013900008206A46039551C269463846FEF79CFF0D
:1013A000E0020090104801AA31C209206946C00637
:1013B000FEF792FF002202210720FFF7C1F8072065
:1013C000FFF7A2F80020FFF7A6FF002000F01EF8AC
:1013D000002000F00BF8002000F05CF807B0F0BD32
:1013E00000100240000400480000211010B5064B18
:1013F000002803D0012806D1002200E001220221AA
:101400001846FFF726F810BD0004004810B5064B3B
:10141000002803D0012806D1002200E0012280210B
:101420001846FFF716F810BD0004004810B500205C
:10143000FFF771FFFFF778FD154C012202212046CE
:10144000FFF707F8012280212046FFF702F8FF226C
:101450000021EF2340320846FFF7EBFB0122402139
:101460002046FEF7F6FF002201212046FEF7F1FF9D
:10147000002202212046FEF7ECFF002280212046B8
:10148000FEF7E7FFFFF734FD0120FFF744FF10BD33
:101490000004004810B5064B002803D0012806D1EF
:1014A000002200E0012208211846FEF7D2FF10BDFD
:1014B00000040048704708B5002069460880088885
:1014C000AA2802D20888401CF8E708BDF0B51848E1
:1014D00087B04269012149040A43426142690A40D6
:1014E000059242690A43426140690C120840059026
:1014F0001125012603276A46F0C209206946C00665
:10150000FEF7EAFE60006A46E1C209206946C006AD
:10151000FEF7E2FE092001222146C006FEF799FFF0
:10152000012209209102C006FEF793FF07B0F0BD2B
:101530000010024070B5FFF7BEFF0122092594029A
:10154000ED0621462846FEF784FF01225602314669
:101550002846FEF77EFFFFF7AEFF00223146284601
:10156000FEF777FFFFF7A7FF002221462846FEF788
:1015700070FFFFF7A0FF70BDF8B5002400F028F859
:1015800008250926AF01F606FFF795FF0122394627
:101590003046FEF75EFF6006040E012189023046E8
:1015A000FEF752FF002801D0641CE4B2FFF783FF6E
:1015B000002239463046FEF74CFF6D1E2D062D0EDB
:1015C000E2D100F027F8FFF776FF2046F8BD0000D3
:1015D00030B50F4887B04269012149040A4342618E
:1015E000406909250840CC11ED06059001222146ED
:1015F0002846FEF72EFF00200190012002900320D4
:101600000390009469462846FEF766FE07B030BD99
:101610000010024000B50C4887B04269012149041E
:101620000A434261406908400590C81100901120AA
:101630000190012002900320039009206946C00612
:10164000FEF74AFE07B000BD0010024070B501224F
:1016500009259402ED0621462846FEF7FAFE0122EE
:10166000560231462846FEF7F4FEFFF724FF00221B
:1016700021462846FEF7EDFEFFF71DFF002231460A
:101680002846FEF7E6FEFFF716FF70BD70B5012491
:101690000925A402ED06002221462846FEF7D9FEC0
:1016A000FFF709FF012251022846FEF7D2FEFFF79D
:1016B00002FF012221462846FEF7CBFEFFF7FBFE84
:1016C00070BDF8B509260024F606012705467F02FD
:1016D000280601D5012200E00022012189023046BE
:1016E000FEF7B7FE6806050EFFF7E5FE0122394654
:1016F0003046FEF7AEFEFFF7DEFE002239463046EA
:10170000FEF7A7FEFFF7D7FE641CE4B2082CDFD378
:10171000FFF75EFFFFF7CFFE012239463046FEF7A6
:1017200098FEFFF7C8FE012189023046FEF78CFEC5
:10173000002801D0002400E0012400223946304670
:10174000FEF787FEFFF766FFFFF7B5FE2046F8BD00
:10175000704710B502211120FFF788FD8A216B2008
:10176000FFF784FD04213A20FFF780FD00211220BD
:10177000FFF77CFD13211720FFF778FD01211820CA
:10178000FFF774FDB6213220FFF770FD022119200A
:10179000FFF76CFD7A211A20FFF768FD0F21032067
:1017A000FFF764FD00210C20FFF760FD00213E20C3
:1017B000FFF75CFD3A217020FFF758FD35217120BD
:1017C000FFF754FD11217220FFF750FDF021732027
:1017D000FFF74CFD3B21A220FFF748FD0F211E2003
:1017E000FFF744FD20217A20FFF740FD03217B20F5
:1017F000FFF73CFD0A217C20FFF738FD1A217D20F0
:10180000FFF734FD3F217E20FFF730FD4E217F2082
:10181000FFF72CFD5B218020FFF728FD6821812048
:10182000FFF724FD75218220FFF720FD7F21832013
:10183000FFF71CFD89218420FFF718FD9A218520E0
:10184000FFF714FDA6218620FFF710FDBD2187209C
:10185000FFF70CFDD3218820FFF708FDE821892040
:10186000FFF704FDE0211320FFF700FD00210846EB
:10187000FFF7FCFC00211020FFF7F8FC50210D20A1
:10188000FFF7F4FC40214220FFF7F0FC2821142050
:10189000FFF7ECFC0321A520FFF7E8FC0321AB20B8
:1018A000FFF7E4FC50212420FFF7E0FC4321252032
:1018B000FFF7DCFCA3212620FFF7D8FC78219F202E
:1018C000FFF7D4FC6821A020FFF7D0FC0321A12062
:1018D000FFF7CCFCD221A620FFF7C8FCD221A7201D
:1018E000FFF7C4FCF021A820FFF7C0FC8021A9204D
:1018F000FFF7BCFC1421AA20FFF7B8FCE521132058
:10190000FFF7B4FC61210E20FFF7B0FC4B210F2044
:10191000FFF7ACFC02211620FFF7A8FC02212120D2
:10192000FFF7A4FC91212220FFF7A0FC072129202A
:10193000FFF79CFC0B213320FFF798FC0B2135208F
:10194000FFF794FC1D213720FFF790FC7121382010
:10195000FFF78CFC2A213920FFF788FC78213C20F6
:10196000FFF784FC40214D20FFF780FC20214E2012
:10197000FFF77CFC00216920FFF778FC1021742020
:10198000FFF774FC4F218D20FFF770FC00218E20A3
:10199000FFF76CFC00218F20FFF768FC00219020EE
:1019A000FFF764FC00219120FFF760FC00219620E6
:1019B000FFF75CFC80219A20FFF758FC8421B020BF
:1019C000FFF754FC0C21B120FFF750FC0E21B22090
:1019D000FFF74CFC8221B320FFF748FC0A21B82016
:1019E000FFF744FC02214320FFF740FCF221442092
:1019F000FFF73CFC46214520FFF738FC63214620D9
:101A0000FFF734FC32214720FFF730FC3B21482010
:101A1000FFF72CFC92215920FFF728FC9B215A202C
:101A2000FFF724FCA5215B20FFF720FC7A215C2036
:101A3000FFF71CFC4A215D20FFF718FC0A215E20FD
:101A4000FFF714FC0A216C20FFF710FC55216D20D4
:101A5000FFF70CFC11216E20FFF708FC9E216F2080
:101A6000FFF704FC40216A20FFF700FC4021012021
:101A7000FFF7FCFB40210220FFF7F8FBF7211320C2
:101A8000FFF7F4FB9C214F20FFF7F0FB992150203A
:101A9000FFF7ECFB02215120FFF7E8FB2921522040
:101AA000FFF7E4FB8B215320FFF7E0FBB521542027
:101AB000FFF7DCFB1E215820FFF7D8FB082162202E
:101AC000FFF7D4FB10216320FFF7D0FB0421642033
:101AD000FFF7CCFB00216520FFF7C8FB052166203E
:101AE000FFF7C4FB04219420FFF7C0FB06219520DB
:101AF000FFF7BCFB08214120FFF7B8FB00213F2086
:101B0000FFF7B4FB44217520FFF7B0FBE1217620FD
:101B1000FFF7ACFB00214C20FFF7A8FB0121772049
:101B2000FFF7A4FBC0213D20FFF7A0FB09214B20BC
:101B3000FFF79CFB6021C920FFF798FB382141206B
:101B4000FFF794FB40215620FFF790FB1121342032
:101B5000FFF78CFB02213B20FFF788FB8821A420A4
:101B6000FFF784FB00219220FFF780FB00219620E5
:101B7000FFF77CFB30219720FFF778FB202198208E
:101B8000FFF774FB20219920FFF770FB84219A2036
:101B9000FFF76CFB29219B20FFF768FB03219C20AA
:101BA000FFF764FB99219D20FFF760FB7F219E20BA
:101BB000FFF75CFB00217820FFF758FB012179201B
:101BC000FFF754FBF021C820FFF750FB0F217920CD
:101BD000FFF74CFB0021C820FFF748FB10217920BC
:101BE000FFF744FB7E21C820FFF740FB0A21792044
:101BF000FFF73CFB8021C820FFF738FB0B21792041
:101C0000FFF734FB0121C820FFF730FB0C217920BE
:101C1000FFF72CFB0F21C820FFF728FB0D217920AF
:101C2000FFF724FB2021C820FFF720FB09217920A2
:101C3000FFF71CFB8021C820FFF718FB0221792049
:101C4000FFF714FBC021C820FFF710FB0321792008
:101C5000FFF70CFB4021C820FFF708FB0521792086
:101C6000FFF704FB3021C820FFF700FB2621792075
:101C7000FFF7FCFA02213B20FFF7F8FA022143208C
:101C8000FFF7F4FAF2214420FFF7F0FA4F21302059
:101C9000FFF7ECFA00210920FFF7E8FA10BD10B5B4
:101CA000FEF7E4FB10BD30B591B030216846FEF779
:101CB00075FA00240D94012003900E940225102043
:101CC00009940490009505200F94C0040A900C9488
:101CD00008950B946846FEF7FBFC07200C900E94C9
:101CE00001210D950F940CA8FEF72EFC11B030BD0C
:101CF0007047F8B5040C8BB2264682B25E430D0CD9
:101D00001046370C58433604801900217941164695
:101D10006E43370C36048019794126466E43891983
:101D2000F8BD00008307FF22DB0E9A408907090EE9
:101D30009940002808DB830809489B001B18186895
:101D400090430843186070470007000F0838830865
:101D500004489B001B18D86990430843D86170471A
:101D600000E400E000ED00E002E008C8121F08C136
:101D7000002AFAD170477047002001E001C1121F0C
:101D8000002AFBD170470000FEF778FBFFF78BFFBE
:101D9000FFF7CCFA0120FFF77DFBFEF771FFC820AB
:101DA000FEF774FAFEF771FE1F20C002FFF784F8F9
:101DB0003F204001FFF780F81F20FFF77DF8C82083
:101DC000FEF764FAFFF715FA0A49002808700FD0E9
:101DD0007D20C000FEF75AFAFFF78AF80120FFF7CE
:101DE00015FB0120FFF702FB0120FFF794FAFEE745
:101DF000FEE70000000000200000000000000000DE
:101E00000102030406070809281E0008000000203C
:101E100014000000681D00083C1E0008140000208B
:101E200004040000781D000800000000010000000C
:0C1E3000040000000000000000127A0016
:04000005080000B13E
:00000001FF
