:020000040800F2
:1000000018040020C5000008DD130008890A000854
:1000100000000000000000000000000000000000E0
:10002000000000000000000000000000211800088F
:10003000000000000000000021160008871C0008D6
:10004000D700000800000000D7000008D700000813
:10005000D7000008D7000008D7000008F901000801
:1000600000000000D7000008D7000008D7000008F3
:10007000D7000008D7000008D700000800000000E3
:10008000D70000080000000000000000D7000008B2
:1000900000000000D7000008D7000008D7000008C3
:1000A00000000000D700000800000000D700000892
:1000B0000348854600F08EF800480047711D00088F
:1000C000180400200448804704480047FEE7FEE784
:1000D000FEE7FEE7FEE7FEE7D91C0008B1000008D6
:1000E00030B50B46014600202022012409E00D46D0
:1000F000D5409D4205D31D469540491B2546954058
:1001000040191546521E002DF1DC30BDF0B51FB46C
:100110000646002082B005464024019100901BE075
:10012000019922460F46304600F020F8049A059BBC
:10013000801A994110D310461946224600F039F82A
:10014000361A8F410197224601200021009F00F0BE
:1001500030F838184D4100902046641E0028DFDC3E
:10016000019B00982946324607B0F0BD10B5202A01
:1001700004DB0846203AD040002110BD0B46D34096
:10018000D0402024A21A91400843194610BDD2B293
:1001900001E00270401C491EFBD270470022F6E7C6
:1001A00010B513460A4604461946FFF7F0FF2046ED
:1001B00010BD10B5202A04DB0146203A91400020F2
:1001C00010BD914020239C1A0346E3401943904000
:1001D00010BD0000064C0125064E05E0E36807CC83
:1001E0002B430C3C98471034B442F7D3FFF764FF1D
:1001F000EC1D00080C1E000810B523484169C90613
:1002000001D5102003E04169890603D5202000F0C4
:1002100057F810BD4169490601D54020F7E741690B
:10022000090601D58020F2E74169C90502D5FF2002
:100230000130ECE74169890502D501204002E6E77B
:100240004169490502D501208002E0E741690905BD
:1002500002D50120C002DAE74169C90402D50120B4
:100260000003D4E74169890402D501204003CEE7A9
:100270004169490402D501208003C8E740690004B0
:10028000C7D50120C003C2E70004014070B5044691
:1002900000F0E6F80546601C02D0044800782418F7
:1002A00000F0DEF8401BA042FAD370BD040000202D
:1002B000012110B5C902884201D101F065F910BDD4
:1002C00010B504494A69024202D04861FFF7F0FFC5
:1002D00010BD000000040140FCB500230124A1E092
:1002E00027462A469F403A4073D04D68012D05D0DD
:1002F000022D03D0112D01D0122D16D185680326B1
:10030000AC465D00AE46AE406546B543AC46CE68F1
:100310007546AE4065462E43866046680D79BE43FD
:10032000ED06ED0F9D4035434560C6685F0003252F
:10033000BD40AE46AE4335468E68BE402E43C660D5
:100340004E68022E01D0122E14D1DE08B6003618E7
:100350000196366A5D07B446EE0E0F25B54000964D
:100360006646AE43B4460D69009EB54066462E43D0
:10037000019D2E6206687546AE430D79AD07AD0F3F
:10038000BD40354305604D68ED004AD5284DAE6946
:100390002643AE61AD699E08ED07ED0F0095254D32
:1003A000B6007519AC46AD689E07360F0F27B740EB
:1003B000BD430927FF06B84201D1002710E01E4FB8
:1003C000B84201D101270BE01C4FB84202D10227ED
:1003D00006E026E01A4FB84201D1032700E00527C6
:1003E000B7402F436546AF60164E35684F6895435A
:1003F000FF0300D51543356075684F689543BF030B
:1004000000D515437560B5684F689543FF0200D568
:100410001543B560F5684F689543BF0200D5154395
:10042000F5605B1C0A681546DA4000D058E7FCBD51
:10043000001002400000014000040048000800488D
:10044000000C0048000401400069084000D0012071
:100450007047002A01D081617047816270470000B7
:10046000014880687047000004000020024881684D
:1004700002788918816070470400002010B5064892
:100480000168102211430160002000F007F800F01D
:1004900027F8002010BD00000020024070B504467F
:1004A0000D4D7D202978C000FFF71AFE01460B484C
:1004B0000068FFF715FE00F0CFFA002809D1042CE0
:1004C00007D200222146401E00F03AF800206C605E
:1004D00070BD012070BD000004000020100000204D
:1004E00008B5084881690122114381618169114081
:1004F0000091C26901040A43C261C06908400090CA
:1005000008BD000000100240002809DBC106C90E2A
:100510000120884003490860BFF34F8FBFF36F8FFE
:100520007047000080E100E0002805DBC106C90E2D
:1005300001208840014908607047000000E100E0A8
:1005400010B501F0E3FB10BDF8B50F46060059D019
:100550003A4D2868C007C00FB84209D22868400841
:100560004000384328602868C007C00FB84249D10E
:100570003068334C81070CD5400704D560680721EB
:100580000902084360606068F0218843B16808434D
:1005900060603078C00726D0706801280ED02168CE
:1005A00002280ED0890700292CDA616889088900A1
:1005B00001436160FFF754FF00900DE0216889035B
:1005C000F1E78901EFE7FFF74BFF0099411A1D485A
:1005D000814201D90320F8BD60680C210840716890
:1005E00089008842EFD12868C007C00FB8420BD9F4
:1005F000286840084000384328602868C007C00FBA
:10060000B84201D00120F8BD3078400706D56068B7
:10061000072109028843F1680843606000F018F878
:100620006168094A0906090F515CC840074908601A
:100630000020FFF733FF0020F8BD0000002002403B
:100640000010024088130000DC1D0008100000208C
:1006500010B514A30FCB88B06C460FC415A30FCBF5
:100660000FC4184A51680C200B4603401648042B4F
:1006700016D0082B14D18B021B0F6C46E45CD26A97
:1006800004AB1207120F9A5CC90305D50023194663
:10069000FFF73CFD214601E020460C4901F01DFB1F
:1006A00008B010BD02030405060708090A0B0C0D6B
:1006B0000E0F10100102030405060708090A0B0CAF
:1006C0000D0E0F100010024000127A0000093D00CC
:1006D000FEB5040070D02078DC4DC0074AD06868B1
:1006E0000007800F012807D068680007800F0228E4
:1006F00009D16868C00306D5286880033AD56068C8
:100700000028E7D036E06168012914D00120800478
:10071000002901D0052914D02A68012109048A433F
:100720002A602968814329606068002816D0FFF795
:1007300097FE06460EE02868012109040843286058
:10074000F2E7296801432960F5E7FFF789FE801B7E
:1007500064286ED828688003F7D50BE0FFF780FE89
:10076000064604E0FFF77CFE801B6428F1D8286869
:100770008003F7D420780126800700283CDA6868D7
:100780000007800F07D068680007800F022809D192
:100790006868C00306D42868800716D5E068012879
:1007A0000AD112E0E0680028286816D0304328609B
:1007B000FFF756FE074605E043E1FFF751FEC01B79
:1007C0000228C6D828688007F7D52868F82188430A
:1007D0002169C900084328600EE0400840002860F5
:1007E000FFF73EFE074604E0FFF73AFEC01B022873
:1007F000AFD828688007F7D42078000722D5E069B1
:100800000028686A0ED030436862FFF729FE074669
:1008100004E0FFF725FEC01B02289AD8686A80070B
:10082000F7D50FE0400840006862FFF719FE074661
:1008300005E09DE0FFF714FEC01B022889D8686A16
:100840008007F7D4207804274007002860DA0020CA
:100850000190E869C00008D4E969B8060143E9617C
:10086000E969014001200091019079480168C905BA
:1008700011D40168821511430160FFF7F1FD00906A
:1008800005E0FFF7EDFD0099401A642870D8704824
:100890000068C005F5D5A06801280AD0002801D05D
:1008A000052810D0286A400840002862286AB8430A
:1008B00001E0286A30432862A068002812D0FFF7C0
:1008C000CFFD00900AE0286A38432862F1E7FFF77D
:1008D000C7FD0099411A5F48814249D8286A8007BC
:1008E000F5D50DE0FFF7BCFD009006E0FFF7B8FD81
:1008F0000099411A574881423AD8286A8007F5D4AE
:100900000198002804D0E969012000078143E961CA
:100910002078C00635D5606901280CD0401D686B71
:1009200023D038436863686B400840006863FFF772
:1009300097FD064622E0686B38436863686B304376
:100940006863FFF78DFD064604E0FFF789FD801B15
:1009500002285BD8686B8007F7D5686BF82188435D
:10096000A169C900084368630BE0B8436863F4E712
:100970004CE0FFF775FD801B022847D8686B8007A5
:10098000F7D4206A00285ED069680907890F022918
:1009900042D0012636060228286805D0B0432860D8
:1009A000FFF75EFD044633E0B0432860FFF758FDD3
:1009B000074604E0FFF754FDC01B022826D828682C
:1009C0008001F7D4E86AE16A000900010843E8629F
:1009D000616AA06A084369683D2212049143084392
:1009E0006860286830432860FFF73AFD044604E059
:1009F000FFF736FD001B022808D828688001F7D5CC
:100A000021E0FFF72DFD001B022801D90320FEBDC8
:100A100028688001F5D416E00128F8D06868E96AF2
:100A200001221204636A02409A420AD10907E26A6B
:100A3000090F914205D10F2189040840A16A88421B
:100A400001D00120FEBD0020FEBD000000100240CC
:100A50000070004088130000094910B5401E88420C
:100A600001D9012010BD074C60610321081F01F06E
:100A70004DF90020A06107202061002010BD00007A
:100A8000FFFFFF0000E000E0FEE710B5CF2000F020
:100A9000B9FB002000F098FBC12000F095FB30204E
:100AA00000F092FBED2000F0ADFB642000F08CFB29
:100AB000032000F089FB122000F086FB812000F06B
:100AC00083FBCB2000F09EFB392000F07DFB2C2027
:100AD00000F07AFB002000F077FB342000F074FB7C
:100AE000022000F071FBEA2000F08CFB002000F0F7
:100AF0006BFB002000F068FBE82000F083FB852002
:100B000000F062FB102000F05FFB792000F05CFB3E
:100B1000C02000F077FB232000F056FBC12000F03E
:100B200071FB112000F050FBC22000F06BFB112084
:100B300000F04AFBC52000F065FB3D2000F044FBBF
:100B4000302000F041FBC72000F05CFBAA2000F041
:100B50003BFB3A2000F056FB552000F035FB3620D9
:100B600000F050FB082000F02FFBB12000F04AFB02
:100B7000002000F029FB112000F026FBB62000F039
:100B800041FB0A2000F020FBA22000F01DFBF22018
:100B900000F038FB002000F017FBF72000F032FBDC
:100BA000202000F011FBF12000F02CFB012000F0D0
:100BB0000BFB302000F008FB262000F023FB012077
:100BC00000F002FBE02000F01DFB0F2000F0FCFA1B
:100BD0003F2000F0F9FA2F2000F0F6FA0C2000F088
:100BE000F3FA102000F0F0FA0A2000F0EDFA53209A
:100BF00000F0EAFAD52000F0E7FA402000F0E4FA2D
:100C00000A2000F0E1FA132000F0DEFA032000F0E1
:100C1000DBFA082000F0D8FA032000F0D5FA002013
:100C200000F0D2FAE12000F0EDFA002000F0CCFA5A
:100C3000002000F0C9FA102000F0C6FA032000F0EE
:100C4000C3FA0F2000F0C0FA052000F0BDFA2C20F6
:100C500000F0BAFAA22000F0B7FA3F2000F0B4FA90
:100C6000052000F0B1FA0E2000F0AEFA0C2000F0E2
:100C7000ABFA372000F0A8FA3C2000F0A5FA0F20CC
:100C800000F0A2FA112000F0BDFAFF224132F0215B
:100C9000682000F06BFA6420FFF7F8FA292000F0D2
:100CA000B1FA7D24E4002046FFF7F0FA2046FFF772
:100CB000EDFA10BDF8B507461C4615460E462A202B
:100CC00000F0A0FA380A00F07FFAF8B200F07CFADF
:100CD000280A00F079FAE8B200F076FA2B2000F04A
:100CE00091FA300A00F070FAF0B200F06DFA200AC2
:100CF00000F06AFAE0B200F067FA2C2000F082FA05
:100D0000F8BD0000F0B58A4887B042690121890426
:100D10000A43426142690A40059242690A434261BC
:100D200042690A400592426909010A4342614269E7
:100D30000A40059242690A43426142690A400592AB
:100D4000426949110A43426142690A400592426977
:100D50000A43426142690A40059242690A4342617C
:100D600042690A40059242690A43426142690A4067
:100D7000059242690A43426142690A40059242690A
:100D80000A43426142690A40059242690A4342614C
:100D900042690A40059242690A43426142690A4037
:100DA000059242690A434261406940270840009722
:100DB000059001240025032601AA70C269465D48FA
:100DC000FFF78AFA01A870C069465A480094FFF7F5
:100DD00083FA01A870C0694657480094FFF77CFA6F
:100DE00002206A4671C269465348FFF775FA20022D
:100DF0006A4671C209206946C006FFF76DFA01A86C
:100E000070C009206946C0060094FFF765FA022009
:100E10006A4671C209206946C006FFF75DFA0420E0
:100E20006A4671C209206946C006FFF755FA0820D4
:100E30006A4671C209206946C006FFF74DFA1020C4
:100E40006A4671C209206946C006FFF745FA2020AC
:100E50006A4671C209206946C006FFF73DFA01AA39
:100E6000009770C209206946C006FFF735FA802056
:100E70006A4671C209206946C006FFF72DFA0122B1
:100E800009201146C006FFF7E4FA022209201146A4
:100E9000C006FFF7DEFA042209201146C006FFF75C
:100EA000D8FA082209201146C006FFF7D2FA10220C
:100EB00009201146C006FFF7CCFA2022092011466E
:100EC000C006FFF7C6FA402209201146C006FFF708
:100ED000C0FA802209201146C006FFF7BAFA0122A3
:100EE00002211548FFF7B5FA012211461248FFF713
:100EF000B0FA012211460F48FFF7ABFA0920002291
:100F00002102C006FFF7A5FA1420FFF7BFF901225E
:100F100009201102C006FFF79CFA1420FFF7B6F96A
:100F2000002202210448FFF794FA07B0F0BD000048
:100F3000001002400004004800140048F8B5010AFF
:100F40000091C7B2FF220021EF2340320846FFF78D
:100F5000B1FE0025FF26413600243946009800F0F6
:100F600041F9641CA4B2B442F7D36D1CADB2F02DAC
:100F7000F2D3F8BD70B5414886B0426901214904F9
:100F80000A43426142690A40059242690A4342614A
:100F900042690A40059242690A43426142690A4035
:100FA000059242690A43426142690A4005924269D8
:100FB0000A43426142690A40059242690A4342611A
:100FC00042690A40059242690A43426142690A4005
:100FD000059242690A434261406900240840059035
:100FE000012009260325F60600900194039502943A
:100FF00069463046FFF770F9022000900194694677
:10100000039502943046FFF767F90420009001949D
:101010006946039502943046FFF75EF90820009078
:1010200001946946039502943046FFF755F9102064
:10103000009001946946039502943046FFF74CF9FD
:101040002020009001946946039502943046FFF7F2
:1010500043F940200090019469460395029430467C
:10106000FFF73AF9802000900194694603950294B5
:101070003046FFF731F906B070BD000000100240A5
:10108000F0B5394887B04269012149040A434261F9
:1010900042690A40059242690A43426142690A4034
:1010A000059242690A43426142690A4005924269D7
:1010B0000A43426142690A40059242690A43426119
:1010C00042690A40059242690A43426142690A4004
:1010D000059242690A43426142690A4005924269A7
:1010E0000A43426140690124084005900025032617
:1010F00001A970C10927FF06694638460094FFF729
:10110000EBF802206A4671C269463846FFF7E4F8F8
:1011100004206A4671C269463846FFF7DDF80820A8
:101120006A4671C269463846FFF7D6F810206A460B
:1011300071C269463846FFF7CFF820206A4671C26F
:1011400069463846FFF7C8F840206A4671C26946CA
:101150003846FFF7C1F880206A4671C269463846B2
:10116000FFF7BAF807B0F0BD0010024070B50646B0
:1011700015460C46362000F045F8304600F024F8BD
:101180002A2000F03FF8002000F01EF8002000F0B8
:101190001BF8641E2004000E00F016F8E0B200F008
:1011A00013F82B2000F02EF8002000F00DF800209E
:1011B00000F00AF86D1E2804000E00F005F8E8B2F1
:1011C00000F002F870BD000010B504460122402175
:1011D0000348FFF73EF9204600F0B8F810BD0000C4
:1011E0000004004870B50C46054601224021044821
:1011F000FFF72FF92146284600F012F870BD0000D5
:101200000004004810B50446002240210348FFF7BF
:1012100020F9204600F09AF810BD000000040048B4
:10122000F8B5C20705460C460920D20F0121C006B9
:10123000FFF70FF902262A46092032403146C00640
:10124000FFF707F904272A4609203A403946C00625
:10125000FFF7FFF808202A46024001460920C00691
:10126000FFF7F7F810202A46024001460920C00681
:10127000FFF7EFF820202A46024001460920C00669
:10128000FFF7E7F840202A46024001460920C00641
:10129000FFF7DFF8EA090920D2018021C006FFF735
:1012A000D8F8294D002201212846FFF7D2F8012263
:1012B00011462846FFF7CDF8E2070920D20F012199
:1012C000C006FFF7C6F82246092032400221C006B8
:1012D000FFF7BFF8224609203A400421C006FFF775
:1012E000B8F808202246024001460920C006FFF750
:1012F000B0F810202246024001460920C006FFF740
:10130000A8F820202246024001460920C006FFF727
:10131000A0F840202246024001460920C006FFF7FF
:1013200098F8E2090920D2018021C006FFF791F860
:10133000002201212846FFF78CF801221146284699
:10134000FFF787F8F8BD00000004004870B5C20739
:1013500009250446ED06D20F01212846FFF779F84A
:1013600002202246024001462846FFF772F8042078
:101370002246024001462846FFF76BF80820224625
:10138000024001462846FFF764F81020224602403A
:1013900001462846FFF75DF820202246024001461C
:1013A0002846FFF756F840202246024001462846CC
:1013B000FFF74FF8E209D20180212846FFF749F8EC
:1013C000054C002201212046FFF743F80122114677
:1013D0002046FFF73EF870BD00040048704708B58E
:1013E0000020694608807D21C90003E06A46108814
:1013F000401C1080684600888842F7D308BD10B5AD
:1014000000F01AF97D20C000FEF740FF8021122075
:1014100000F009F8002805D00A20FEF737FF00F099
:1014200000FA012010BD70B50C46054600F076F9B3
:10143000422000F0AEF9002811D0FFF7D0FF284677
:1014400000F0A7F900280AD0FFF7C9FF204600F0F6
:10145000A0F9002803D000F081F9012070BD00F050
:101460007DF9002070BD10B5002803D00720FFF7DC
:101470005BF810BD0720FFF747F810BD0149087859
:101480004870704714000020F0B52C4887B04269BE
:10149000012189040A43426142690A400592426976
:1014A0000A43426142690A40059243694A10134364
:1014B000436143691340059342690A4342614069AD
:1014C0000325084005900220012400266A46039562
:1014D00051C21B4F69463846FEF7FEFE80206A4621
:1014E000039551C269463846FEF7F6FE08206A4663
:1014F000039551C269463846FEF7EEFEE0020090C1
:10150000104801AA31C209206946C006FEF7E4FE70
:10151000002202210720FFF713F80720FEF7F4FF4F
:101520000020FFF7A0FF002000F01EF8002000F0D0
:101530000BF8002000F02EF807B0F0BD00100240BC
:10154000000400480000211010B5064B002803D00D
:10155000012806D1002200E0012202211846FEF7F0
:1015600078FF10BD0004004810B5064B002803D0DA
:10157000012806D1002200E0012280211846FEF752
:1015800068FF10BD00040048014901200870704741
:101590001400002010B5064B002803D0012806D106
:1015A000002200E0012208211846FEF752FF10BD7C
:1015B0000004004810B5FFF761FF01282AD1002080
:1015C000FFF751FFFFF75CFD0020FFF7BDFF002094
:1015D000FFF7CAFFFF220021EF2340320846FFF742
:1015E00069FB0D4C012240212046FEF732FF00220C
:1015F00001212046FEF72DFF0120FFF7A5FF012066
:10160000FFF7B2FFFFF7B6FC0120FFF72CFF0349FD
:101610000020087010BD00000004004814000020E5
:10162000704708B50020694608800888AA2802D2B9
:101630000888401CF8E708BDF0B5184887B0426933
:10164000012149040A43426142690A400592426904
:101650000A43426140690C12084005901125012699
:1016600003276A46F0C209206946C006FEF734FE29
:1016700060006A46E1C209206946C006FEF72CFEFA
:10168000092001222146C006FEF7E3FE01220920BF
:101690009102C006FEF7DDFE07B0F0BD001002406B
:1016A00030B50F4887B04269012149040A434261BD
:1016B000406909250840CC11ED060590012221461C
:1016C0002846FEF7C6FE002001900120029003206C
:1016D0000390009469462846FEF7FEFD07B030BD32
:1016E0000010024000B50C4887B04269012149044E
:1016F0000A434261406908400590C81100901120DA
:101700000190012002900320039009206946C00641
:10171000FEF7E2FD07B000BD0010024070B50122E7
:1017200009259402ED0621462846FEF792FE012285
:10173000560231462846FEF78CFEFFF772FF002264
:1017400021462846FEF785FEFFF76BFF0022314653
:101750002846FEF77EFEFFF764FF70BD70B50124DA
:101760000925A402ED06002221462846FEF771FE57
:10177000FFF757FF012251022846FEF76AFEFFF7E6
:1017800050FF012221462846FEF763FEFFF749FF7E
:1017900070BDF8B509260024F606012705467F022C
:1017A000280601D5012200E00022012189023046ED
:1017B000FEF74FFE6806050EFFF733FF012239469C
:1017C0003046FEF746FEFFF72CFF00223946304632
:1017D000FEF73FFEFFF725FF641CE4B2082CDFD3C1
:1017E000FFF75EFFFFF71DFF012239463046FEF787
:1017F00030FEFFF716FF012189023046FEF724FE76
:10180000002801D0002400E001240022394630469F
:10181000FEF71FFEFFF766FFFFF703FF2046F8BD48
:10182000704710B504213A20FFF7FDFDD02140207C
:10183000FFF7F9FD14211220FFF7F5FD802132207A
:10184000FFF7F1FD16211720FFF7EDFD0421182009
:10185000FFF7E9FD02211920FFF7E5FD7B211A20A2
:10186000FFF7E1FD06210320FFF7DDFD04210C2039
:10187000FFF7D9FD00213E20FFF7D5FD3A2170206A
:10188000FFF7D1FD35217120FFF7CDFD1121722029
:10189000FFF7C9FD00217320FFF7C5FD0221A2203B
:1018A000FFF7C1FD81211120FFF7BDFD20217A2026
:1018B000FFF7B9FD1C217B20FFF7B5FD28217C2017
:1018C000FFF7B1FD3C217D20FFF7ADFD55217E20C6
:1018D000FFF7A9FD68217F20FFF7A5FD7621802075
:1018E000FFF7A1FD80218120FFF79DFD8821822047
:1018F000FFF799FD8F218320FFF795FD9621842026
:10190000FFF791FDA3218520FFF78DFDAF218620F4
:10191000FFF789FDC4218720FFF785FDD7218820A7
:10192000FFF781FDE8218920FFF77DFDE0211320ED
:10193000FFF779FD00210846FFF775FD0021102013
:10194000FFF771FD00210D20FFF76DFD2821142008
:10195000FFF769FD0521A520FFF765FD0721AB20F5
:10196000FFF761FD75212420FFF75DFD6321252030
:10197000FFF759FDA5212620FFF755FD78219F206F
:10198000FFF751FD6821A020FFF74DFD0321A120A5
:10199000FFF749FDDF21A620FFF745FDDF21A72046
:1019A000FFF741FDF021A820FFF73DFD9021A92080
:1019B000FFF739FD9421AA20FFF735FDE52113201B
:1019C000FFF731FD61210E20FFF72DFD4B210F2088
:1019D000FFF729FD02211620FFF725FD27211E20F4
:1019E000FFF721FD02212120FFF71DFD912122207B
:1019F000FFF719FD07212920FFF715FD0B213320E3
:101A0000FFF711FD0B213520FFF70DFD1D213720BC
:101A1000FFF709FD71213820FFF705FD2A21392044
:101A2000FFF701FD78213C20FFF7FDFC40214D2010
:101A3000FFF7F9FC20214E20FFF7F5FC002169207B
:101A4000FFF7F1FC60216B20FFF7EDFC19217420FA
:101A5000FFF7E9FC4F218D20FFF7E5FC00218E20E8
:101A6000FFF7E1FC00218F20FFF7DDFC0021902033
:101A7000FFF7D9FC00219120FFF7D5FC002192202F
:101A8000FFF7D1FC00219620FFF7CDFC80219A20A2
:101A9000FFF7C9FC8421B020FFF7C5FC0C21B12061
:101AA000FFF7C1FC0E21B220FFF7BDFC8221B3205D
:101AB000FFF7B9FC0A21B820FFF7B5FC1421432039
:101AC000FFF7B1FCF0214420FFF7ADFC34214520A5
:101AD000FFF7A9FC58214620FFF7A5FC2821472045
:101AE000FFF7A1FC3A214820FFF79DFC88215920EF
:101AF000FFF799FC88215A20FFF795FC44215B20D1
:101B0000FFF791FC67215C20FFF78DFC49215D20E8
:101B1000FFF789FC0E215E20FFF785FC042164207D
:101B2000FFF781FC20216520FFF77DFC0521662061
:101B3000FFF779FC04219420FFF775FC082195201C
:101B4000FFF771FC0A216C20FFF76DFC55216D2019
:101B5000FFF769FC11216E20FFF765FC9F216F20C4
:101B6000FFF761FC40216A20FFF75DFC4021012066
:101B7000FFF759FC40210220FFF755FCE721132015
:101B8000FFF751FC00211520FFF74DFC80214F206D
:101B9000FFF749FC80215020FFF745FC0021512030
:101BA000FFF741FC22215220FFF73DFC5E2153202C
:101BB000FFF739FC80215420FFF735FC9E21582087
:101BC000FFF731FC08214120FFF72DFC00213F20C9
:101BD000FFF729FC05217520FFF725FCE121762080
:101BE000FFF721FC00214C20FFF71DFC012177208D
:101BF000FFF719FCC2213D20FFF715FC09214B20FE
:101C0000FFF711FC6021C920FFF70DFC38214120AE
:101C1000FFF709FC40215620FFF705FC1121342075
:101C2000FFF701FC02213B20FFF7FDFB8921A420E7
:101C3000FFF7F9FB00219620FFF7F5FB30219720F5
:101C4000FFF7F1FB20219820FFF7EDFB30219920D1
:101C5000FFF7E9FB84219A20FFF7E5FB29219B2070
:101C6000FFF7E1FB03219C20FFF7DDFB4C219D20CA
:101C7000FFF7D9FB3F219E20FFF7D5FB04217820F9
:101C8000FFF7D1FB10BD10B5FEF7F0FB10BD30B56E
:101C900091B030216846FEF781FA00240D940120AE
:101CA00003900E94022510200994049000950520BD
:101CB0000F94C0040A900C9408950B946846FEF7A4
:101CC00007FD07200C900E9401210D950F940CA890
:101CD000FEF73AFC11B030BD7047F8B5040C8BB27A
:101CE000264682B25E430D0C1046370C584336042C
:101CF00080190021794116466E43370C360480194D
:101D0000794126466E438919F8BD00008307FF22FA
:101D1000DB0E9A408907090E9940002808DB8308EA
:101D200009489B001B1818689043084318607047C7
:101D30000007000F0838830804489B001B18D86967
:101D400090430843D861704700E400E000ED00E0F4
:101D500002E008C8121F08C1002AFAD17047704774
:101D6000002001E001C1121F002AFBD170470000D2
:101D7000FEF784FBFFF78BFFFFF786FB0120FFF7E1
:101D800009FCFEF7BFFFFEF780FE1F20C002FFF731
:101D9000D5F83F204001FFF7D1F81F20FFF7CEF81C
:101DA000C820FEF773FAFFF72AFB0B4900280870DA
:101DB00011D07D20C000FEF769FAFFF7DBF80120A3
:101DC000FFF7D2FB0120FFF7BFFB0120FFF74BFB22
:101DD000FFF7F0FBFCE7FEE700000020000000003A
:101DE0000000000001020304060708090C1E000899
:101DF0000000002018000000501D0008241E0008EC
:101E00001800002000040000601D00080000000011
:101E100001000000040000000000000000127A0031
:041E200000000000BE
:04000005080000B13E
:00000001FF
