:020000040800F2
:1000000018040020C5000008A10E0008890A000895
:1000100000000000000000000000000000000000E0
:1000200000000000000000000000000001130008B4
:10003000000000000000000001110008271800085F
:10004000D700000800000000D7000008D700000813
:10005000D7000008D7000008D7000008F901000801
:1000600000000000D7000008D7000008D7000008F3
:10007000D7000008D7000008D700000800000000E3
:10008000D70000080000000000000000D7000008B2
:1000900000000000D7000008D7000008D7000008C3
:1000A00000000000D700000800000000D700000892
:1000B0000348854600F08EF800480047ED2300080D
:1000C000180400200448804704480047FEE7FEE784
:1000D000FEE7FEE7FEE7FEE779180008B10000083A
:1000E00030B50B46014600202022012409E00D46D0
:1000F000D5409D4205D31D469540491B2546954058
:1001000040191546521E002DF1DC30BDF0B51FB46C
:100110000646002082B005464024019100901BE075
:10012000019922460F46304600F020F8049A059BBC
:10013000801A994110D310461946224600F039F82A
:10014000361A8F410197224601200021009F00F0BE
:1001500030F838184D4100902046641E0028DFDC3E
:10016000019B00982946324607B0F0BD10B5202A01
:1001700004DB0846203AD040002110BD0B46D34096
:10018000D0402024A21A91400843194610BDD2B293
:1001900001E00270401C491EFBD270470022F6E7C6
:1001A00010B513460A4604461946FFF7F0FF2046ED
:1001B00010BD10B5202A04DB0146203A91400020F2
:1001C00010BD914020239C1A0346E3401943904000
:1001D00010BD0000064C0125064E05E0E36807CC83
:1001E0002B430C3C98471034B442F7D3FFF764FF1D
:1001F000602400088024000810B523484169C9061E
:1002000001D5102003E04169890603D5202000F0C4
:1002100057F810BD4169490601D54020F7E741690B
:10022000090601D58020F2E74169C90502D5FF2002
:100230000130ECE74169890502D501204002E6E77B
:100240004169490502D501208002E0E741690905BD
:1002500002D50120C002DAE74169C90402D50120B4
:100260000003D4E74169890402D501204003CEE7A9
:100270004169490402D501208003C8E740690004B0
:10028000C7D50120C003C2E70004014070B5044691
:1002900000F0E6F80546601C02D0044800782418F7
:1002A00000F0DEF8401BA042FAD370BD040000202D
:1002B000012110B5C902884201D100F0C1FE10BD74
:1002C00010B504494A69024202D04861FFF7F0FFC5
:1002D00010BD000000040140FCB500230124A1E092
:1002E00027462A469F403A4073D04D68012D05D0DD
:1002F000022D03D0112D01D0122D16D185680326B1
:10030000AC465D00AE46AE406546B543AC46CE68F1
:100310007546AE4065462E43866046680D79BE43FD
:10032000ED06ED0F9D4035434560C6685F0003252F
:10033000BD40AE46AE4335468E68BE402E43C660D5
:100340004E68022E01D0122E14D1DE08B6003618E7
:100350000196366A5D07B446EE0E0F25B54000964D
:100360006646AE43B4460D69009EB54066462E43D0
:10037000019D2E6206687546AE430D79AD07AD0F3F
:10038000BD40354305604D68ED004AD5284DAE6946
:100390002643AE61AD699E08ED07ED0F0095254D32
:1003A000B6007519AC46AD689E07360F0F27B740EB
:1003B000BD430927FF06B84201D1002710E01E4FB8
:1003C000B84201D101270BE01C4FB84202D10227ED
:1003D00006E026E01A4FB84201D1032700E00527C6
:1003E000B7402F436546AF60164E35684F6895435A
:1003F000FF0300D51543356075684F689543BF030B
:1004000000D515437560B5684F689543FF0200D568
:100410001543B560F5684F689543BF0200D5154395
:10042000F5605B1C0A681546DA4000D058E7FCBD51
:10043000001002400000014000040048000800488D
:10044000000C0048000401400069084000D0012071
:100450007047002A01D081617047816270470000B7
:10046000014880687047000004000020024881684D
:1004700002788918816070470400002010B5064892
:100480000168102211430160002000F007F800F01D
:1004900027F8002010BD00000020024070B504467F
:1004A0000D4D7D202978C000FFF71AFE01460B484C
:1004B0000068FFF715FE00F0CFFA002809D1042CE0
:1004C00007D200222146401E00F03AF800206C605E
:1004D00070BD012070BD000004000020100000204D
:1004E00008B5084881690122114381618169114081
:1004F0000091C26901040A43C261C06908400090CA
:1005000008BD000000100240002809DBC106C90E2A
:100510000120884003490860BFF34F8FBFF36F8FFE
:100520007047000080E100E0002805DBC106C90E2D
:1005300001208840014908607047000000E100E0A8
:1005400010B501F021FF10BDF8B50F46060059D0D7
:100550003A4D2868C007C00FB84209D22868400841
:100560004000384328602868C007C00FB84249D10E
:100570003068334C81070CD5400704D560680721EB
:100580000902084360606068F0218843B16808434D
:1005900060603078C00726D0706801280ED02168CE
:1005A00002280ED0890700292CDA616889088900A1
:1005B00001436160FFF754FF00900DE0216889035B
:1005C000F1E78901EFE7FFF74BFF0099411A1D485A
:1005D000814201D90320F8BD60680C210840716890
:1005E00089008842EFD12868C007C00FB8420BD9F4
:1005F000286840084000384328602868C007C00FBA
:10060000B84201D00120F8BD3078400706D56068B7
:10061000072109028843F1680843606000F018F878
:100620006168094A0906090F515CC840074908601A
:100630000020FFF733FF0020F8BD0000002002403B
:100640000010024088130000502400081000002011
:1006500010B514A30FCB88B06C460FC415A30FCBF5
:100660000FC4184A51680C200B4603401648042B4F
:1006700016D0082B14D18B021B0F6C46E45CD26A97
:1006800004AB1207120F9A5CC90305D50023194663
:10069000FFF73CFD214601E020460C4901F05CFEDD
:1006A00008B010BD02030405060708090A0B0C0D6B
:1006B0000E0F10100102030405060708090A0B0CAF
:1006C0000D0E0F100010024000127A0000093D00CC
:1006D000FEB5040070D02078DC4DC0074AD06868B1
:1006E0000007800F012807D068680007800F0228E4
:1006F00009D16868C00306D5286880033AD56068C8
:100700000028E7D036E06168012914D00120800478
:10071000002901D0052914D02A68012109048A433F
:100720002A602968814329606068002816D0FFF795
:1007300097FE06460EE02868012109040843286058
:10074000F2E7296801432960F5E7FFF789FE801B7E
:1007500064286ED828688003F7D50BE0FFF780FE89
:10076000064604E0FFF77CFE801B6428F1D8286869
:100770008003F7D420780126800700283CDA6868D7
:100780000007800F07D068680007800F022809D192
:100790006868C00306D42868800716D5E068012879
:1007A0000AD112E0E0680028286816D0304328609B
:1007B000FFF756FE074605E043E1FFF751FEC01B79
:1007C0000228C6D828688007F7D52868F82188430A
:1007D0002169C900084328600EE0400840002860F5
:1007E000FFF73EFE074604E0FFF73AFEC01B022873
:1007F000AFD828688007F7D42078000722D5E069B1
:100800000028686A0ED030436862FFF729FE074669
:1008100004E0FFF725FEC01B02289AD8686A80070B
:10082000F7D50FE0400840006862FFF719FE074661
:1008300005E09DE0FFF714FEC01B022889D8686A16
:100840008007F7D4207804274007002860DA0020CA
:100850000190E869C00008D4E969B8060143E9617C
:10086000E969014001200091019079480168C905BA
:1008700011D40168821511430160FFF7F1FD00906A
:1008800005E0FFF7EDFD0099401A642870D8704824
:100890000068C005F5D5A06801280AD0002801D05D
:1008A000052810D0286A400840002862286AB8430A
:1008B00001E0286A30432862A068002812D0FFF7C0
:1008C000CFFD00900AE0286A38432862F1E7FFF77D
:1008D000C7FD0099411A5F48814249D8286A8007BC
:1008E000F5D50DE0FFF7BCFD009006E0FFF7B8FD81
:1008F0000099411A574881423AD8286A8007F5D4AE
:100900000198002804D0E969012000078143E961CA
:100910002078C00635D5606901280CD0401D686B71
:1009200023D038436863686B400840006863FFF772
:1009300097FD064622E0686B38436863686B304376
:100940006863FFF78DFD064604E0FFF789FD801B15
:1009500002285BD8686B8007F7D5686BF82188435D
:10096000A169C900084368630BE0B8436863F4E712
:100970004CE0FFF775FD801B022847D8686B8007A5
:10098000F7D4206A00285ED069680907890F022918
:1009900042D0012636060228286805D0B0432860D8
:1009A000FFF75EFD044633E0B0432860FFF758FDD3
:1009B000074604E0FFF754FDC01B022826D828682C
:1009C0008001F7D4E86AE16A000900010843E8629F
:1009D000616AA06A084369683D2212049143084392
:1009E0006860286830432860FFF73AFD044604E059
:1009F000FFF736FD001B022808D828688001F7D5CC
:100A000021E0FFF72DFD001B022801D90320FEBDC8
:100A100028688001F5D416E00128F8D06868E96AF2
:100A200001221204636A02409A420AD10907E26A6B
:100A3000090F914205D10F2189040840A16A88421B
:100A400001D00120FEBD0020FEBD000000100240CC
:100A50000070004088130000094910B5401E88420C
:100A600001D9012010BD074C60610321081F01F06E
:100A70008BFC0020A06107202061002010BD000039
:100A8000FFFFFF0000E000E0FEE7000000B587B0D8
:100A900000BFDD484069012189040843DA49486103
:100AA00008464069012189040840019000BF00BF49
:100AB00000BFD54840690843D349486108464069AA
:100AC000012189040840019000BF00BF00BFCE484B
:100AD000406909010843CC49486108464069012141
:100AE00089050840019000BF00BF00BFC6484069AB
:100AF0000843C54948610846406901218905084005
:100B0000019000BF00BF00BFBF48406949110843C2
:100B1000BD494861084640690121490408400190E7
:100B200000BF00BF00BFB84840690843B6494861EC
:100B300008464069012149040840019000BF00BFF8
:100B400000BFB14840690843AF4948610846406961
:100B5000012149040840019000BF00BF00BFAA481E
:100B600040690843A8494861084640690121490491
:100B70000840019000BF00BF00BFA3484069084380
:100B8000A149486108464069012149040840019093
:100B900000BF00BF00BF9C48406908439A494861B4
:100BA00008464069012149040840019000BF00BF88
:100BB00000BF954840690843934948610846406929
:100BC000012149040840019000BF00BF00BF8E48CA
:100BD000406908438C49486108464069012149043D
:100BE0000840019000BF00BF00BF8748406908432C
:100BF000854948610846406901214904084001903F
:100C000000BF00BF01200390002004900320059046
:100C10004020029002A97D48FFF75EFB012003906F
:100C200000200490032005900120029002A977483B
:100C3000FFF752FB01200390002004900320059051
:100C40000120029002A97248FFF746FB01200390A1
:100C500000200490032005900220029002A96C4815
:100C6000FFF73AFB01200390002004900320059039
:100C7000FF200130029002A90920C006FFF72CFBDB
:100C80000120039000200490032005900120029091
:100C900002A90920C006FFF71FFB012003900020D6
:100CA0000490032005900220029002A90920C006AA
:100CB000FFF712FB01200390002004900320059011
:100CC0000420029002A90920C006FFF705FB0120BD
:100CD000039000200490032005900820029002A9B0
:100CE0000920C006FFF7F8FA0120039000200490C5
:100CF000032005901020029002A90920C006FFF7EA
:100D0000EBFA01200390002004900320059020209E
:100D1000029002A90920C006FFF7DEFA0120039025
:100D200000200490032005904020029002A9092091
:100D3000C006FFF7D1FA01200390002004900320A1
:100D400005908020029002A90920C006FFF7C4FA8E
:100D500000BF012211460920C006FFF77AFB0222DC
:100D600011460920C006FFF774FB04221146092032
:100D7000C006FFF76EFB082211460920C006FFF7E8
:100D800068FB102211460920C006FFF762FB2022F3
:100D900011460920C006FFF75CFB402211460920DE
:100DA000C006FFF756FB802211460920C006FFF758
:100DB00050FB00BF012202211548FFF74AFB012228
:100DC00011461348FFF745FB012211460F48FFF774
:100DD00040FB0022FF2101310920C006FFF739FB4B
:100DE0001420FFF753FA012211020920C006FFF771
:100DF00030FB1420FFF74AFA002202210448FFF7D3
:100E000028FB07B000BD00000010024000040048AD
:100E10000014004800B587B000BF0E4840690121AA
:100E2000490408430B4948610846406901214904C7
:100E30000840019000BF00BF0020039004900320F1
:100E40000590FF20029002A90920C006FFF744FA8E
:100E500007B000BD0010024000B587B000BF0F48CA
:100E600040690121490408430C494861084640692A
:100E7000012149040840019000BF00BF01200390F8
:100E80000020049003200590FF20029002A9092071
:100E9000C006FFF721FA07B000BD000000100240B5
:100EA000704708B50020694608807D21C90003E02D
:100EB0006A461088401C1080684600888842F7D334
:100EC00008BD10B500F028F97D20C000FFF7DEF95D
:100ED0008021122000F009F8002805D00A20FFF731
:100EE000D5F900F00EFA012010BD70B50C4605468C
:100EF00000F084F9422000F0BCF9002811D0FFF77F
:100F0000D0FF284600F0B5F900280AD0FFF7C9FF46
:100F1000204600F0AEF9002803D000F08FF9012040
:100F200070BD00F08BF9002070BD10B5002803D013
:100F30000720FFF7F9FA10BD0720FFF7E5FA10BD0B
:100F4000F0B52C4887B04269012189040A43426107
:100F500042690A40059242690A43426142690A4075
:100F6000059243694A101343436143691340059353
:100F700042690A4342614069032508400590022006
:100F8000012400266A46039551C21B4F6946384624
:100F9000FFF7A2F980206A46039551C26946384698
:100FA000FFF79AF908206A46039551C26946384608
:100FB000FFF792F9E0020090104801AA31C209201F
:100FC0006946C006FFF788F9002202210720FFF7D3
:100FD000B7FA0720FFF798FA0020FFF7A6FF0020D6
:100FE00000F01EF8002000F00BF8002000F078F868
:100FF00007B0F0BD001002400004004800002110BE
:1010000010B5064B002803D0012806D1002200E0CD
:10101000012202211846FFF71CFA10BD0004004807
:1010200010B5064B002803D0012806D1002200E0AD
:10103000012280211846FFF70CFA10BD0004004879
:1010400070B50020FFF771FFFFF706FF224C012269
:1010500002212046FFF7FDF9012280212046FFF7FB
:10106000F8F90021202000F033FCFF254035294607
:10107000212000F02DFC0021502000F029FCEF2160
:10108000512000F025FC0021522000F021FC2946CF
:10109000532000F01DFC1149032000F019FC222010
:1010A00000F026FE012240212046FFF7D2F900225F
:1010B00001212046FFF7CDF9002202212046FFF74B
:1010C000C8F9002280212046FFF7C3F9FFF7A2FEEE
:1010D0000120FFF72AFF70BD00040048181000002F
:1010E00010B5064B002803D0012806D1002200E0ED
:1010F000012208211846FFF7ACF910BD0004004892
:10110000704708B50020694608800888AA2802D2DE
:101110000888401CF8E708BDF0B5184887B0426958
:10112000012149040A43426142690A400592426929
:101130000A43426140690C120840059011250126BE
:1011400003276A46F0C209206946C006FFF7C4F8C3
:1011500060006A46E1C209206946C006FFF7BCF894
:10116000092001222146C006FFF773F90122092058
:101170009102C006FFF76DF907B0F0BD0010024004
:1011800030B50F4887B04269012149040A434261E2
:10119000406909250840CC11ED0605900122214641
:1011A0002846FFF756F90020019001200290032005
:1011B0000390009469462846FFF78EF807B030BDCB
:1011C0000010024000B50C4887B042690121490473
:1011D0000A434261406908400590C81100901120FF
:1011E0000190012002900320039009206946C00667
:1011F000FFF772F807B000BD0010024070B5012281
:1012000009259402ED0621462846FFF722F901221E
:10121000560231462846FFF71CF9FFF772FF0022FD
:1012200021462846FFF715F9FFF76BFF00223146EC
:101230002846FFF70EF9FFF764FF70BD70B5012473
:101240000925A402ED06002221462846FFF701F9F0
:10125000FFF757FF012251022846FFF7FAF8FFF780
:1012600050FF012221462846FFF7F3F8FFF749FF18
:1012700070BDF8B509260024F606012705467F0251
:10128000280601D5012200E0002201218902304612
:10129000FFF7DFF86806050EFFF733FF0122394636
:1012A0003046FFF7D6F8FFF72CFF002239463046CC
:1012B000FFF7CFF8FFF725FF641CE4B2082CDFD35B
:1012C000FFF75EFFFFF71DFF012239463046FFF7AB
:1012D000C0F8FFF716FF012189023046FFF7B4F886
:1012E000002801D0002400E00124002239463046C5
:1012F000FFF7AFF8FFF766FFFFF703FF2046F8BDE3
:10130000704710B504213A20FFF7EFFDD0214020AF
:10131000FFF7EBFD14211220FFF7E7FD80213220BB
:10132000FFF7E3FD16211720FFF7DFFD042118204A
:10133000FFF7DBFD02211920FFF7D7FD7B211A20E3
:10134000FFF7D3FD06210320FFF7CFFD04210C207A
:10135000FFF7CBFD00213E20FFF7C7FD3A217020AB
:10136000FFF7C3FD35217120FFF7BFFD112172206A
:10137000FFF7BBFD00217320FFF7B7FD0221A2207C
:10138000FFF7B3FD81211120FFF7AFFD20217A2067
:10139000FFF7ABFD1C217B20FFF7A7FD28217C2058
:1013A000FFF7A3FD3C217D20FFF79FFD55217E2007
:1013B000FFF79BFD68217F20FFF797FD76218020B6
:1013C000FFF793FD80218120FFF78FFD8821822088
:1013D000FFF78BFD8F218320FFF787FD9621842067
:1013E000FFF783FDA3218520FFF77FFDAF21862036
:1013F000FFF77BFDC4218720FFF777FDD7218820E9
:10140000FFF773FDE8218920FFF76FFDE02113202E
:10141000FFF76BFD00210846FFF767FD0021102054
:10142000FFF763FD00210D20FFF75FFD2821142049
:10143000FFF75BFD0521A520FFF757FD0721AB2036
:10144000FFF753FD75212420FFF74FFD6321252071
:10145000FFF74BFDA5212620FFF747FD78219F20B0
:10146000FFF743FD6821A020FFF73FFD0321A120E6
:10147000FFF73BFDDF21A620FFF737FDDF21A72087
:10148000FFF733FDF021A820FFF72FFD9021A920C1
:10149000FFF72BFD9421AA20FFF727FDE52113205C
:1014A000FFF723FD61210E20FFF71FFD4B210F20C9
:1014B000FFF71BFD02211620FFF717FD07211E2055
:1014C000FFF713FD02212120FFF70FFD91212220BC
:1014D000FFF70BFD07212920FFF707FD0B21332024
:1014E000FFF703FD0B213520FFF7FFFC1D213720FF
:1014F000FFF7FBFC71213820FFF7F7FC2A21392088
:10150000FFF7F3FC78213C20FFF7EFFC40214D2052
:10151000FFF7EBFC20214E20FFF7E7FC00216920BC
:10152000FFF7E3FC60216B20FFF7DFFC192174203B
:10153000FFF7DBFC4F218D20FFF7D7FC00218E2029
:10154000FFF7D3FC00218F20FFF7CFFC0021902074
:10155000FFF7CBFC00219120FFF7C7FC0021922070
:10156000FFF7C3FC00219620FFF7BFFC80219A20E3
:10157000FFF7BBFC8421B020FFF7B7FC0C21B120A2
:10158000FFF7B3FC0E21B220FFF7AFFC8221B3209E
:10159000FFF7ABFC0A21B820FFF7A7FC142143207A
:1015A000FFF7A3FCF0214420FFF79FFC34214520E6
:1015B000FFF79BFC58214620FFF797FC2821472086
:1015C000FFF793FC3A214820FFF78FFC8821592030
:1015D000FFF78BFC88215A20FFF787FC44215B2012
:1015E000FFF783FC67215C20FFF77FFC49215D202A
:1015F000FFF77BFC0E215E20FFF777FC04216420BF
:10160000FFF773FC20216520FFF76FFC05216620A2
:10161000FFF76BFC04219420FFF767FC082195205D
:10162000FFF763FC0A216C20FFF75FFC55216D205A
:10163000FFF75BFC11216E20FFF757FC9F216F2005
:10164000FFF753FC40216A20FFF74FFC40210120A7
:10165000FFF74BFC40210220FFF747FCE721132056
:10166000FFF743FC00211520FFF73FFC80214F20AE
:10167000FFF73BFC80215020FFF737FC0021512071
:10168000FFF733FC22215220FFF72FFC5E2153206D
:10169000FFF72BFC80215420FFF727FC9E215820C8
:1016A000FFF723FC08214120FFF71FFC00213F200A
:1016B000FFF71BFC05217520FFF717FCE1217620C1
:1016C000FFF713FC00214C20FFF70FFC01217720CE
:1016D000FFF70BFCC2213D20FFF707FC09214B203F
:1016E000FFF703FC6021C920FFF7FFFB38214120F1
:1016F000FFF7FBFB40215620FFF7F7FB11213420B9
:10170000FFF7F3FB02213B20FFF7EFFB8921A42029
:10171000FFF7EBFB00219620FFF7E7FB3021972036
:10172000FFF7E3FB20219820FFF7DFFB3021992012
:10173000FFF7DBFB84219A20FFF7D7FB29219B20B1
:10174000FFF7D3FB03219C20FFF7CFFB4C219D200B
:10175000FFF7CBFB3F219E20FFF7C7FB042178203A
:10176000FFF7C3FB01217920FFF7BFFBF021C82061
:10177000FFF7BBFB0F217920FFF7B7FB0021C82043
:10178000FFF7B3FB10217920FFF7AFFB7E21C820C4
:10179000FFF7ABFB0A217920FFF7A7FB8021C820C8
:1017A000FFF7A3FB0B217920FFF79FFB0121C82046
:1017B000FFF79BFB0C217920FFF797FB0F21C82037
:1017C000FFF793FB0D217920FFF78FFB2021C82025
:1017D000FFF78BFB09217920FFF787FB8021C820C9
:1017E000FFF783FB02217920FFF77FFBC021C82090
:1017F000FFF77BFB03217920FFF777FB4021C8200F
:10180000FFF773FB05217920FFF76FFB3021C8201C
:10181000FFF76BFB26217920FFF767FB00210920EA
:10182000FFF763FB10BD10B5FEF720FE10BD30B50D
:1018300091B030216846FEF7B1FC00240D940120E0
:1018400003900E9402251020099404900095052021
:101850000F94C0040A900C9408950B946846FEF708
:1018600037FF07200C900E9401210D950F940CA8C2
:10187000FEF76AFE11B030BD704770B50546002412
:101880000021502000F024F8EF21512000F020F832
:101890000021522000F01CF8FF214031532000F0BD
:1018A00017F80021202000F013F80021212000F07B
:1018B0000FF8222000F01CFA00BF03E0284600F0D9
:1018C00041FC641C4B2080028442F7D370BD0000B1
:1018D000F3B581B0FF210902019808400412019874
:1018E000C5B20298084006120298C7B200224021F1
:1018F000FE48FEF7AEFD00BF002201210920C00610
:10190000FEF7A7FD002202210920C006FEF7A1FD77
:10191000002204210920C006FEF79BFD00220821B9
:101920000920C006FEF795FD002210210920C006FF
:10193000FEF78FFD002220210920C006FEF789FD59
:10194000002240210920C006FEF783FD00228021ED
:101950000920C006FEF77DFD00BF00BFE207D20FE1
:1019600001210920C006FEF774FD02202040024636
:1019700002210920C006FEF76CFD0420204002462B
:1019800004210920C006FEF764FD0820204002461D
:1019900008210920C006FEF75CFD10202040024609
:1019A00010210920C006FEF754FD202020400246E9
:1019B00020210920C006FEF74CFD402020400246B1
:1019C00040210920C006FEF744FD80202040024649
:1019D00080210920C006FEF73CFD00BF0022012146
:1019E000C248FEF736FD01221146C048FEF731FD20
:1019F00000BF002201210920C006FEF72AFD0022B7
:101A000002210920C006FEF724FD0022042109203E
:101A1000C006FEF71EFD002208210920C006FEF7C1
:101A200018FD002210210920C006FEF712FD002239
:101A300020210920C006FEF70CFD002240210920CC
:101A4000C006FEF706FD002280210920C006FEF731
:101A500000FD00BF00BFEA07D20F01210920C00628
:101A6000FEF7F7FC02202840024602210920C006AA
:101A7000FEF7EFFC04202840024604210920C0069E
:101A8000FEF7E7FC08202840024608210920C0068E
:101A9000FEF7DFFC10202840024610210920C00676
:101AA000FEF7D7FC20202840024620210920C0064E
:101AB000FEF7CFFC40202840024640210920C00606
:101AC000FEF7C7FC80202840024680210920C0067E
:101AD000FEF7BFFC00BF002201218448FEF7B9FCDD
:101AE000012211468148FEF7B4FC012240217F48C3
:101AF000FEF7AFFC00BF002201210920C006FEF75F
:101B0000A8FC002202210920C006FEF7A2FC002248
:101B100004210920C006FEF79CFC002208210920B0
:101B2000C006FEF796FC002210210920C006FEF731
:101B300090FC002220210920C006FEF78AFC00222A
:101B400040210920C006FEF784FC002280210920E4
:101B5000C006FEF77EFC00BF00BFF207D20F0121D6
:101B60000920C006FEF775FC022030400246022123
:101B70000920C006FEF76DFC042030400246042117
:101B80000920C006FEF765FC082030400246082107
:101B90000920C006FEF75DFC1020304002461021EF
:101BA0000920C006FEF755FC2020304002462021C7
:101BB0000920C006FEF74DFC40203040024640217F
:101BC0000920C006FEF745FC8020304002468021F7
:101BD0000920C006FEF73DFC00BF0022012143485A
:101BE000FEF737FC012211464048FEF732FC00BFE9
:101BF000002201210920C006FEF72BFC0022022151
:101C00000920C006FEF725FC002204210920C00699
:101C1000FEF71FFC002208210920C006FEF719FC70
:101C2000002210210920C006FEF713FC002220210B
:101C30000920C006FEF70DFC002240210920C00645
:101C4000FEF707FC002280210920C006FEF701FCF8
:101C500000BF00BFFA07D20F01210920C006FEF71E
:101C6000F8FB02203840024602210920C006FEF798
:101C7000F0FB04203840024604210920C006FEF78C
:101C8000E8FB08203840024608210920C006FEF77C
:101C9000E0FB10203840024610210920C006FEF764
:101CA000D8FB20203840024620210920C006FEF73C
:101CB000D0FB40203840024640210920C006FEF7F4
:101CC000C8FB80203840024680210920C006FEF76C
:101CD000C0FB00BF002201210448FEF7BAFB01222D
:101CE00011460248FEF7B5FBFEBD000000040048A7
:101CF00070B50646FF20000230400412F5B2002203
:101D000040217F48FEF7A5FB00BF002201210920EA
:101D1000C006FEF79EFB002202210920C006FEF746
:101D200098FB002204210920C006FEF792FB002246
:101D300008210920C006FEF78CFB00221021092093
:101D4000C006FEF786FB002220210920C006FEF710
:101D500080FB002240210920C006FEF77AFB00220A
:101D600080210920C006FEF774FB00BF00BFE20718
:101D7000D20F01210920C006FEF76BFB0220204094
:101D8000024602210920C006FEF763FB0420204022
:101D9000024604210920C006FEF75BFB0820204014
:101DA000024608210920C006FEF753FB1020204000
:101DB000024610210920C006FEF74BFB20202040E0
:101DC000024620210920C006FEF743FB40202040A8
:101DD000024640210920C006FEF73BFB8020204040
:101DE000024680210920C006FEF733FB00BF002217
:101DF00001214348FEF72DFB012211464048FEF722
:101E000028FB00BF002201210920C006FEF721FBAC
:101E1000002202210920C006FEF71BFB002204213C
:101E20000920C006FEF715FB002208210920C00684
:101E3000FEF70FFB002210210920C006FEF709FB68
:101E4000002220210920C006FEF703FB00224021CA
:101E50000920C006FEF7FDFA002280210920C006F5
:101E6000FEF7F7FA00BF00BFEA07D20F01210920F1
:101E7000C006FEF7EEFA02202840024602210920A1
:101E8000C006FEF7E6FA0420284002460421092095
:101E9000C006FEF7DEFA0820284002460821092085
:101EA000C006FEF7D6FA102028400246102109206D
:101EB000C006FEF7CEFA2020284002462021092045
:101EC000C006FEF7C6FA40202840024640210920FD
:101ED000C006FEF7BEFA8020284002468021092075
:101EE000C006FEF7B6FA00BF002201210448FEF743
:101EF000B0FA012211460248FEF7ABFA70BD0000AD
:101F00000004004810B5012211020920C006FEF7A6
:101F1000A0FA1420FEF7BAF90022FF2101310920AE
:101F2000C006FEF796FA1420FEF7B0F9012211025E
:101F30000920C006FEF78DFA7D20C000FEF7A6F945
:101F40000121C903E520FFF7C3FC01210020FFF7B1
:101F5000BFFCFF2101310120FFF7BAFC0721090274
:101F60000220FFF7B5FC71490320FFF7B1FC002107
:101F70000420FFF7ADFC6E490820FFF7A9FC002103
:101F80000920FFF7A5FC00210A20FFF7A1FC002192
:101F90000C20FFF79DFC00210D20FFF799FC00218C
:101FA0000F20FFF795FC00211020FFF791FC07217F
:101FB0001120FFF78DFC00211220FFF789FC002182
:101FC0001320FFF785FC7D20C000FEF75FF959491B
:101FD0001020FFF77DFC07211120FFF779FC7D2001
:101FE000C000FEF753F9FF213B311220FFF770FCD0
:101FF0007D20C000FEF74AF90D2149021320FFF7AA
:1020000067FC0C212920FFF763FC7D20C000FEF750
:102010003DF900213020FFF75BFC47493120FFF7F5
:1020200057FC04213220FFF753FC06213520FFF72F
:102030004FFC42493620FFF74BFCFF210631372089
:10204000FFF746FC02213820FFF742FC3B493920CC
:10205000FFF73EFC3949C91E3C20FFF739FC3849DF
:102060003D20FFF735FC00215020FFF731FCEF2128
:102070005120FFF72DFC00215220FFF729FCFF2102
:1020800040315320FFF724FC272109026020FFF78D
:102090001FFC01216120FFF71BFC00216A20FFF7D4
:1020A00017FC00212020FFF713FCFF2140312120E5
:1020B000FFF70EFC00218020FFF70AFC00218120A1
:1020C000FFF706FC00218220FFF702FC002183209D
:1020D000FFF7FEFB00218420FFF7FAFB002185209B
:1020E000FFF7F6FB10219020FFF7F2FB0021922072
:1020F000FFF7EEFB03219320FFF7EAFBFF211131ED
:102100009520FFF7E5FB00219720FFF7E1FB002179
:102110009820FFF7DDFBFF2174310720FFF7D8FB84
:102120007D20C000FEF7B2F810BD000018100000BE
:1021300002020000B01700000505000007070000BC
:102140000708000070B50646F5B2FF2000023040D7
:102150000412012240217F48FEF77BF900BF0022D4
:1021600001210920C006FEF774F90022022109208E
:10217000C006FEF76EF9002204210920C006FEF712
:1021800068F9002208210920C006FEF762F9002242
:1021900010210920C006FEF75CF900222021092049
:1021A000C006FEF756F9002240210920C006FEF7BE
:1021B00050F9002280210920C006FEF74AF900BF2D
:1021C00000BFE207D20F01210920C006FEF741F946
:1021D00002202040024602210920C006FEF739F9FC
:1021E00004202040024604210920C006FEF731F9F0
:1021F00008202040024608210920C006FEF729F9E0
:1022000010202040024610210920C006FEF721F9C7
:1022100020202040024620210920C006FEF719F99F
:1022200040202040024640210920C006FEF711F957
:1022300080202040024680210920C006FEF709F9CF
:1022400000BF002201214348FEF703F90122114695
:102250004048FEF7FEF800BF002201210920C00619
:10226000FEF7F7F8002202210920C006FEF7F1F878
:10227000002204210920C006FEF7EBF80022082105
:102280000920C006FEF7E5F8002210210920C0064B
:10229000FEF7DFF8002220210920C006FEF7D9F85A
:1022A000002240210920C006FEF7D3F80022802139
:1022B0000920C006FEF7CDF800BF00BFEA07D20F25
:1022C00001210920C006FEF7C4F80220284002467A
:1022D00002210920C006FEF7BCF80420284002466F
:1022E00004210920C006FEF7B4F808202840024661
:1022F00008210920C006FEF7ACF81020284002464D
:1023000010210920C006FEF7A4F82020284002462C
:1023100020210920C006FEF79CF8402028400246F4
:1023200040210920C006FEF794F88020284002468C
:1023300080210920C006FEF78CF800BF0022012191
:102340000448FEF786F8012211460248FEF781F89C
:1023500070BD000000040048F8B5040C8BB226469E
:1023600082B25E430D0C1046370C58433604801978
:102370000021794116466E43370C360480197941A5
:1023800026466E438919F8BD8307FF22DB0E9A406B
:102390008907090E9940002808DB830809489B003B
:1023A0001B18186890430843186070470007000F17
:1023B0000838830804489B001B18D86990430843D9
:1023C000D861704700E400E000ED00E002E008C8DA
:1023D000121F08C1002AFAD170477047002001E09F
:1023E00001C1121F002AFBD170470000FEF746F81A
:1023F000FFF71DFAFEF7A4FD0120FEF771FEFEF7C0
:1024000045FBC820FDF742FFFFF77CFD0E48FFF7B4
:1024100034FA1F20FFF731FAFEF753FD0B4900286D
:1024200008700FD07D20C000FDF730FFFEF7F2FCF2
:102430000120FEF7F5FD0120FEF7E2FD0120FEF789
:1024400074FDFEE7FEE70000E0FF00000000002052
:102450000000000000000000010203040607080954
:10246000802400080000002014000000CC23000895
:10247000942400081400002004040000DC23000859
:102480000000000001000000040000000000000047
:0424900000127A00BC
:04000005080000B13E
:00000001FF
