:020000040800F2
:1000000018040020C500000855120008890A0008DD
:1000100000000000000000000000000000000000E0
:100020000000000000000000000000007D16000835
:1000300000000000000000007D140008E31A000822
:10004000D700000800000000D7000008D700000813
:10005000D7000008D7000008D7000008F901000801
:1000600000000000D7000008D7000008D7000008F3
:10007000D7000008D7000008D700000800000000E3
:10008000D70000080000000000000000D7000008B2
:1000900000000000D7000008D7000008D7000008C3
:1000A00000000000D700000800000000D700000892
:1000B0000348854600F08EF800480047CD1B000835
:1000C000180400200448804704480047FEE7FEE784
:1000D000FEE7FEE7FEE7FEE7351B0008B10000087B
:1000E00030B50B46014600202022012409E00D46D0
:1000F000D5409D4205D31D469540491B2546954058
:1001000040191546521E002DF1DC30BDF0B51FB46C
:100110000646002082B005464024019100901BE075
:10012000019922460F46304600F020F8049A059BBC
:10013000801A994110D310461946224600F039F82A
:10014000361A8F410197224601200021009F00F0BE
:1001500030F838184D4100902046641E0028DFDC3E
:10016000019B00982946324607B0F0BD10B5202A01
:1001700004DB0846203AD040002110BD0B46D34096
:10018000D0402024A21A91400843194610BDD2B293
:1001900001E00270401C491EFBD270470022F6E7C6
:1001A00010B513460A4604461946FFF7F0FF2046ED
:1001B00010BD10B5202A04DB0146203A91400020F2
:1001C00010BD914020239C1A0346E3401943904000
:1001D00010BD0000064C0125064E05E0E36807CC83
:1001E0002B430C3C98471034B442F7D3FFF764FF1D
:1001F0004C1C00086C1C000810B523484169C90656
:1002000001D5102003E04169890603D5202000F0C4
:1002100057F810BD4169490601D54020F7E741690B
:10022000090601D58020F2E74169C90502D5FF2002
:100230000130ECE74169890502D501204002E6E77B
:100240004169490502D501208002E0E741690905BD
:1002500002D50120C002DAE74169C90402D50120B4
:100260000003D4E74169890402D501204003CEE7A9
:100270004169490402D501208003C8E740690004B0
:10028000C7D50120C003C2E70004014070B5044691
:1002900000F0E6F80546601C02D0044800782418F7
:1002A00000F0DEF8401BA042FAD370BD040000202D
:1002B000012110B5C902884201D101F09BF810BD9F
:1002C00010B504494A69024202D04861FFF7F0FFC5
:1002D00010BD000000040140FCB500230124A1E092
:1002E00027462A469F403A4073D04D68012D05D0DD
:1002F000022D03D0112D01D0122D16D185680326B1
:10030000AC465D00AE46AE406546B543AC46CE68F1
:100310007546AE4065462E43866046680D79BE43FD
:10032000ED06ED0F9D4035434560C6685F0003252F
:10033000BD40AE46AE4335468E68BE402E43C660D5
:100340004E68022E01D0122E14D1DE08B6003618E7
:100350000196366A5D07B446EE0E0F25B54000964D
:100360006646AE43B4460D69009EB54066462E43D0
:10037000019D2E6206687546AE430D79AD07AD0F3F
:10038000BD40354305604D68ED004AD5284DAE6946
:100390002643AE61AD699E08ED07ED0F0095254D32
:1003A000B6007519AC46AD689E07360F0F27B740EB
:1003B000BD430927FF06B84201D1002710E01E4FB8
:1003C000B84201D101270BE01C4FB84202D10227ED
:1003D00006E026E01A4FB84201D1032700E00527C6
:1003E000B7402F436546AF60164E35684F6895435A
:1003F000FF0300D51543356075684F689543BF030B
:1004000000D515437560B5684F689543FF0200D568
:100410001543B560F5684F689543BF0200D5154395
:10042000F5605B1C0A681546DA4000D058E7FCBD51
:10043000001002400000014000040048000800488D
:10044000000C0048000401400069084000D0012071
:100450007047002A01D081617047816270470000B7
:10046000014880687047000004000020024881684D
:1004700002788918816070470400002010B5064892
:100480000168102211430160002000F007F800F01D
:1004900027F8002010BD00000020024070B504467F
:1004A0000D4D7D202978C000FFF71AFE01460B484C
:1004B0000068FFF715FE00F0CFFA002809D1042CE0
:1004C00007D200222146401E00F03AF800206C605E
:1004D00070BD012070BD000004000020100000204D
:1004E00008B5084881690122114381618169114081
:1004F0000091C26901040A43C261C06908400090CA
:1005000008BD000000100240002809DBC106C90E2A
:100510000120884003490860BFF34F8FBFF36F8FFE
:100520007047000080E100E0002805DBC106C90E2D
:1005300001208840014908607047000000E100E0A8
:1005400010B501F011FB10BDF8B50F46060059D0EB
:100550003A4D2868C007C00FB84209D22868400841
:100560004000384328602868C007C00FB84249D10E
:100570003068334C81070CD5400704D560680721EB
:100580000902084360606068F0218843B16808434D
:1005900060603078C00726D0706801280ED02168CE
:1005A00002280ED0890700292CDA616889088900A1
:1005B00001436160FFF754FF00900DE0216889035B
:1005C000F1E78901EFE7FFF74BFF0099411A1D485A
:1005D000814201D90320F8BD60680C210840716890
:1005E00089008842EFD12868C007C00FB8420BD9F4
:1005F000286840084000384328602868C007C00FBA
:10060000B84201D00120F8BD3078400706D56068B7
:10061000072109028843F1680843606000F018F878
:100620006168094A0906090F515CC840074908601A
:100630000020FFF733FF0020F8BD0000002002403B
:1006400000100240881300003C1C0008100000202D
:1006500010B514A30FCB88B06C460FC415A30FCBF5
:100660000FC4184A51680C200B4603401648042B4F
:1006700016D0082B14D18B021B0F6C46E45CD26A97
:1006800004AB1207120F9A5CC90305D50023194663
:10069000FFF73CFD214601E020460C4901F04BFAF2
:1006A00008B010BD02030405060708090A0B0C0D6B
:1006B0000E0F10100102030405060708090A0B0CAF
:1006C0000D0E0F100010024000127A0000093D00CC
:1006D000FEB5040070D02078DC4DC0074AD06868B1
:1006E0000007800F012807D068680007800F0228E4
:1006F00009D16868C00306D5286880033AD56068C8
:100700000028E7D036E06168012914D00120800478
:10071000002901D0052914D02A68012109048A433F
:100720002A602968814329606068002816D0FFF795
:1007300097FE06460EE02868012109040843286058
:10074000F2E7296801432960F5E7FFF789FE801B7E
:1007500064286ED828688003F7D50BE0FFF780FE89
:10076000064604E0FFF77CFE801B6428F1D8286869
:100770008003F7D420780126800700283CDA6868D7
:100780000007800F07D068680007800F022809D192
:100790006868C00306D42868800716D5E068012879
:1007A0000AD112E0E0680028286816D0304328609B
:1007B000FFF756FE074605E043E1FFF751FEC01B79
:1007C0000228C6D828688007F7D52868F82188430A
:1007D0002169C900084328600EE0400840002860F5
:1007E000FFF73EFE074604E0FFF73AFEC01B022873
:1007F000AFD828688007F7D42078000722D5E069B1
:100800000028686A0ED030436862FFF729FE074669
:1008100004E0FFF725FEC01B02289AD8686A80070B
:10082000F7D50FE0400840006862FFF719FE074661
:1008300005E09DE0FFF714FEC01B022889D8686A16
:100840008007F7D4207804274007002860DA0020CA
:100850000190E869C00008D4E969B8060143E9617C
:10086000E969014001200091019079480168C905BA
:1008700011D40168821511430160FFF7F1FD00906A
:1008800005E0FFF7EDFD0099401A642870D8704824
:100890000068C005F5D5A06801280AD0002801D05D
:1008A000052810D0286A400840002862286AB8430A
:1008B00001E0286A30432862A068002812D0FFF7C0
:1008C000CFFD00900AE0286A38432862F1E7FFF77D
:1008D000C7FD0099411A5F48814249D8286A8007BC
:1008E000F5D50DE0FFF7BCFD009006E0FFF7B8FD81
:1008F0000099411A574881423AD8286A8007F5D4AE
:100900000198002804D0E969012000078143E961CA
:100910002078C00635D5606901280CD0401D686B71
:1009200023D038436863686B400840006863FFF772
:1009300097FD064622E0686B38436863686B304376
:100940006863FFF78DFD064604E0FFF789FD801B15
:1009500002285BD8686B8007F7D5686BF82188435D
:10096000A169C900084368630BE0B8436863F4E712
:100970004CE0FFF775FD801B022847D8686B8007A5
:10098000F7D4206A00285ED069680907890F022918
:1009900042D0012636060228286805D0B0432860D8
:1009A000FFF75EFD044633E0B0432860FFF758FDD3
:1009B000074604E0FFF754FDC01B022826D828682C
:1009C0008001F7D4E86AE16A000900010843E8629F
:1009D000616AA06A084369683D2212049143084392
:1009E0006860286830432860FFF73AFD044604E059
:1009F000FFF736FD001B022808D828688001F7D5CC
:100A000021E0FFF72DFD001B022801D90320FEBDC8
:100A100028688001F5D416E00128F8D06868E96AF2
:100A200001221204636A02409A420AD10907E26A6B
:100A3000090F914205D10F2189040840A16A88421B
:100A400001D00120FEBD0020FEBD000000100240CC
:100A50000070004088130000094910B5401E88420C
:100A600001D9012010BD074C60610321081F01F06E
:100A70007BF80020A06107202061002010BD00004D
:100A8000FFFFFF0000E000E0FEE710B5CF2000F020
:100A9000F5FA002000F0D4FAC12000F0D1FA30209D
:100AA00000F0CEFAED2000F0E9FA642000F0C8FA78
:100AB000032000F0C5FA122000F0C2FA812000F0F5
:100AC000BFFACB2000F0DAFA392000F0B9FA2C2076
:100AD00000F0B6FA002000F0B3FA342000F0B0FACB
:100AE000022000F0ADFAEA2000F0C8FA002000F081
:100AF000A7FA002000F0A4FAE82000F0BFFA852051
:100B000000F09EFA102000F09BFA792000F098FA8D
:100B1000C02000F0B3FA232000F092FAC12000F0C8
:100B2000ADFA112000F08CFAC22000F0A7FA1120D3
:100B300000F086FAC52000F0A1FA3D2000F080FA0E
:100B4000302000F07DFAC72000F098FAAA2000F0CB
:100B500077FA3A2000F092FA552000F071FA362028
:100B600000F08CFA082000F06BFAB12000F086FA51
:100B7000002000F065FA112000F062FAB62000F0C3
:100B80007DFA0A2000F05CFAA22000F059FAF22067
:100B900000F074FA002000F053FAF72000F06EFA2B
:100BA000202000F04DFAF12000F068FA012000F05A
:100BB00047FA302000F044FA262000F05FFA0120C6
:100BC00000F03EFAE02000F059FA0F2000F038FA69
:100BD0003F2000F035FA2F2000F032FA0C2000F010
:100BE0002FFA102000F02CFA0A2000F029FA5320E6
:100BF00000F026FAD52000F023FA402000F020FA79
:100C00000A2000F01DFA132000F01AFA032000F069
:100C100017FA082000F014FA032000F011FA00205F
:100C200000F00EFAE12000F029FA002000F008FAA6
:100C3000002000F005FA102000F002FA032000F076
:100C4000FFF90F2000F0FCF9052000F0F9F92C2045
:100C500000F0F6F9A22000F0F3F93F2000F0F0F9DF
:100C6000052000F0EDF90E2000F0EAF90C2000F06C
:100C7000E7F9372000F0E4F93C2000F0E1F90F201B
:100C800000F0DEF9112000F0F9F9FF20F530FFF750
:100C9000FDFA292000F0F2F97D24E4002046FFF758
:100CA000F5FAFF224132F021682000F09BF920463E
:100CB000FFF7ECFA10BDF8B507461C4615460E4680
:100CC0002A2000F0DBF9380A00F0BAF9F8B200F097
:100CD000B7F9280A00F0B4F9E8B200F0B1F92B2016
:100CE00000F0CCF9300A00F0ABF9F0B200F0A8F94E
:100CF000200A00F0A5F9E0B200F0A2F92C2000F0E3
:100D0000BDF9F8BDF0B58A4887B042690121890470
:100D10000A43426142690A40059242690A434261BC
:100D200042690A400592426909010A4342614269E7
:100D30000A40059242690A43426142690A400592AB
:100D4000426949110A43426142690A400592426977
:100D50000A43426142690A40059242690A4342617C
:100D600042690A40059242690A43426142690A4067
:100D7000059242690A43426142690A40059242690A
:100D80000A43426142690A40059242690A4342614C
:100D900042690A40059242690A43426142690A4037
:100DA000059242690A434261406940270840009722
:100DB000059001240025032601AA70C269465D48FA
:100DC000FFF78AFA01A870C069465A480094FFF7F5
:100DD00083FA01A870C0694657480094FFF77CFA6F
:100DE00002206A4671C269465348FFF775FA20022D
:100DF0006A4671C209206946C006FFF76DFA01A86C
:100E000070C009206946C0060094FFF765FA022009
:100E10006A4671C209206946C006FFF75DFA0420E0
:100E20006A4671C209206946C006FFF755FA0820D4
:100E30006A4671C209206946C006FFF74DFA1020C4
:100E40006A4671C209206946C006FFF745FA2020AC
:100E50006A4671C209206946C006FFF73DFA01AA39
:100E6000009770C209206946C006FFF735FA802056
:100E70006A4671C209206946C006FFF72DFA0122B1
:100E800009201146C006FFF7E4FA022209201146A4
:100E9000C006FFF7DEFA042209201146C006FFF75C
:100EA000D8FA082209201146C006FFF7D2FA10220C
:100EB00009201146C006FFF7CCFA2022092011466E
:100EC000C006FFF7C6FA402209201146C006FFF708
:100ED000C0FA802209201146C006FFF7BAFA0122A3
:100EE00002211548FFF7B5FA012211461248FFF713
:100EF000B0FA012211460F48FFF7ABFA0920002291
:100F00002102C006FFF7A5FA1420FFF7BFF901225E
:100F100009201102C006FFF79CFA1420FFF7B6F96A
:100F2000002202210448FFF794FA07B0F0BD000048
:100F3000001002400004004800140048F8B5010AFF
:100F40000091C7B2FF220021EF2340320846FFF78D
:100F5000B2FE0025FF26413600243946009800F0F5
:100F60007DF8641CA4B2B442F7D36D1CADB2F02D71
:100F7000F2D3F8BD00B50C4887B04269012149049D
:100F80000A434261406908400590002001900290A8
:100F900003200390FF20009009206946C006FFF758
:100FA0009BF907B000BD00000010024000B50C48DE
:100FB00087B04269012149040A43426140690840FF
:100FC0000590012001900020029003200390FF2053
:100FD000009009206946C006FFF77EF907B000BD02
:100FE0000010024070B5064615460C46362000F04B
:100FF00045F8304600F024F82A2000F03FF80020A1
:1010000000F01EF8002000F01BF8641E2004000E03
:1010100000F016F8E0B200F013F82B2000F02EF8E4
:10102000002000F00DF8002000F00AF86D1E2804E2
:10103000000E00F005F8E8B200F002F870BD000004
:1010400010B50446012240210348FFF702FA20466A
:1010500000F0B8F810BD00000004004870B50C4660
:101060000546012240210448FFF7F3F921462846AE
:1010700000F012F870BD00000004004810B50446EE
:10108000002240210348FFF7E4F9204600F09AF8D7
:1010900010BD000000040048F8B5C20705460C4624
:1010A0000920D20F0121C006FFF7D3F902262A46F4
:1010B000092032403146C006FFF7CBF904272A4603
:1010C00009203A403946C006FFF7C3F908202A46EE
:1010D000024001460920C006FFF7BBF910202A464E
:1010E000024001460920C006FFF7B3F920202A4636
:1010F000024001460920C006FFF7ABF940202A460E
:10110000024001460920C006FFF7A3F9EA090920B9
:10111000D2018021C006FFF79CF9294D0022012150
:101120002846FFF796F9012211462846FFF791F964
:10113000E2070920D20F0121C006FFF78AF92246F3
:10114000092032400221C006FFF783F92246092018
:101150003A400421C006FFF77CF9082022460240ED
:1011600001460920C006FFF774F91020224602400C
:1011700001460920C006FFF76CF9202022460240F4
:1011800001460920C006FFF764F9402022460240CC
:1011900001460920C006FFF75CF9E2090920D201E7
:1011A0008021C006FFF755F9002201212846FFF7EC
:1011B00050F9012211462846FFF74BF9F8BD00000F
:1011C0000004004870B5C20709250446ED06D20F99
:1011D00001212846FFF73DF9022022460240014640
:1011E0002846FFF736F904202246024001462846E9
:1011F000FFF72FF908202246024001462846FFF754
:1012000028F910202246024001462846FFF721F91E
:1012100020202246024001462846FFF71AF94020C6
:101220002246024001462846FFF713F9E209D2019F
:1012300080212846FFF70DF9054C002201212046A8
:10124000FFF707F9012211462046FFF702F970BDAA
:1012500000040048704708B50020694608807D21D9
:10126000C90003E06A461088401C10806846008868
:101270008842F7D308BD10B500F00CF97D20C000FE
:10128000FFF704F88021122000F009F8002805D0AB
:101290000A20FEF7FBFF00F0F2F9012010BD70B547
:1012A0000C46054600F068F9422000F0A0F900283D
:1012B00011D0FFF7D0FF284600F099F900280AD096
:1012C000FFF7C9FF204600F092F9002803D000F094
:1012D00073F9012070BD00F06FF9002070BD10B5EA
:1012E000002803D00720FFF71FF910BD0720FFF7E4
:1012F0000BF910BDF0B52C4887B042690121890473
:101300000A43426142690A40059242690A434261C6
:1013100042690A40059243694A1013434361436995
:101320001340059342690A4342614069032508401E
:1013300005900220012400266A46039551C21B4FE6
:1013400069463846FEF7C8FF80206A46039551C2B9
:1013500069463846FEF7C0FF08206A46039551C229
:1013600069463846FEF7B8FFE0020090104801AA2F
:1013700031C209206946C006FEF7AEFF00220221F5
:101380000720FFF7DDF80720FFF7BEF80020FFF782
:10139000A6FF002000F01EF8002000F00BF800204F
:1013A00000F05CF807B0F0BD0010024000040048F7
:1013B0000000211010B5064B002803D0012806D1EB
:1013C000002200E0012202211846FFF742F810BD7A
:1013D0000004004810B5064B002803D0012806D1B0
:1013E000002200E0012280211846FFF732F810BDEC
:1013F0000004004810B50020FFF771FFFFF7D6FD8D
:10140000154C012202212046FFF723F801228021FA
:101410002046FFF71EF8FF220021EF234032084646
:10142000FFF749FC012240212046FFF712F8002275
:1014300001212046FFF70DF8002202212046FFF788
:1014400008F8002280212046FFF703F8FFF792FDFD
:101450000120FFF744FF10BD0004004810B5064B03
:10146000002803D0012806D1002200E00122082133
:101470001846FEF7EEFF10BD00040048704708B59F
:101480000020694608800888AA2802D20888401CE3
:10149000F8E708BDF0B5184887B042690121490452
:1014A0000A43426142690A40059242690A43426125
:1014B00040690C12084005901125012603276A4651
:1014C000F0C209206946C006FEF706FF60006A46C2
:1014D000E1C209206946C006FEF7FEFE092001228E
:1014E0002146C006FEF7B5FF012209209102C00681
:1014F000FEF7AFFF07B0F0BD0010024030B50F4857
:1015000087B04269012149040A43426140690925C3
:101510000840CC11ED060590012221462846FEF731
:1015200098FF002001900120029003200390009476
:1015300069462846FEF7D0FE07B030BD00100240D5
:1015400000B50C4887B04269012149040A43426151
:10155000406908400590C8110090112001900120B9
:1015600002900320039009206946C006FEF7B4FEEE
:1015700007B000BD0010024070B501220925940299
:10158000ED0621462846FEF764FF01225602314649
:101590002846FEF75EFFFFF772FF0022214628462D
:1015A000FEF757FFFFF76BFF002231462846FEF794
:1015B00050FFFFF764FF70BD70B501240925A40238
:1015C000ED06002221462846FEF743FFFFF757FFAE
:1015D000012251022846FEF73CFFFFF750FF01228F
:1015E00021462846FEF735FFFFF749FF70BDF8B5E5
:1015F00009260024F606012705467F02280601D5A4
:10160000012200E00022012189023046FEF721FF7D
:101610006806050EFFF733FF012239463046FEF714
:1016200018FFFFF72CFF002239463046FEF711FF66
:10163000FFF725FF641CE4B2082CDFD3FFF75EFF41
:10164000FFF71DFF012239463046FEF702FFFFF784
:1016500016FF012189023046FEF7F6FE002801D070
:10166000002400E00124002239463046FEF7F1FE56
:10167000FFF766FFFFF703FF2046F8BD704710B580
:1016800004213A20FFF70BFED0214020FFF707FE90
:1016900014211220FFF703FE80213220FFF7FFFD07
:1016A00016211720FFF7FBFD04211820FFF7F7FD97
:1016B00002211920FFF7F3FD7B211A20FFF7EFFD30
:1016C00006210320FFF7EBFD04210C20FFF7E7FDC7
:1016D00000213E20FFF7E3FD3A217020FFF7DFFDF8
:1016E00035217120FFF7DBFD11217220FFF7D7FDB7
:1016F00000217320FFF7D3FD0221A220FFF7CFFDC9
:1017000081211120FFF7CBFD20217A20FFF7C7FDB3
:101710001C217B20FFF7C3FD28217C20FFF7BFFDA4
:101720003C217D20FFF7BBFD55217E20FFF7B7FD53
:1017300068217F20FFF7B3FD76218020FFF7AFFD02
:1017400080218120FFF7ABFD88218220FFF7A7FDD4
:101750008F218320FFF7A3FD96218420FFF79FFDB3
:10176000A3218520FFF79BFDAF218620FFF797FD82
:10177000C4218720FFF793FDD7218820FFF78FFD35
:10178000E8218920FFF78BFDE0211320FFF787FD7B
:1017900000210846FFF783FD00211020FFF77FFDA1
:1017A00000210D20FFF77BFD28211420FFF777FD96
:1017B0000521A520FFF773FD0721AB20FFF76FFD83
:1017C00075212420FFF76BFD63212520FFF767FDBE
:1017D000A5212620FFF763FD78219F20FFF75FFDFD
:1017E0006821A020FFF75BFD0321A120FFF757FD33
:1017F000DF21A620FFF753FDDF21A720FFF74FFDD4
:10180000F021A820FFF74BFD9021A920FFF747FD0D
:101810009421AA20FFF743FDE5211320FFF73FFDA8
:1018200061210E20FFF73BFD4B210F20FFF737FD15
:1018300002211620FFF733FD27211E20FFF72FFD81
:1018400002212120FFF72BFD91212220FFF727FD08
:1018500007212920FFF723FD0B213320FFF71FFD70
:101860000B213520FFF71BFD1D213720FFF717FD4A
:1018700071213820FFF713FD2A213920FFF70FFDD2
:1018800078213C20FFF70BFD40214D20FFF707FD9D
:1018900020214E20FFF703FD00216920FFF7FFFC08
:1018A00060216B20FFF7FBFC19217420FFF7F7FC88
:1018B0004F218D20FFF7F3FC00218E20FFF7EFFC76
:1018C00000218F20FFF7EBFC00219020FFF7E7FCC1
:1018D00000219120FFF7E3FC00219220FFF7DFFCBD
:1018E00000219620FFF7DBFC80219A20FFF7D7FC30
:1018F0008421B020FFF7D3FC0C21B120FFF7CFFCEF
:101900000E21B220FFF7CBFC8221B320FFF7C7FCEA
:101910000A21B820FFF7C3FC14214320FFF7BFFCC6
:10192000F0214420FFF7BBFC34214520FFF7B7FC32
:1019300058214620FFF7B3FC28214720FFF7AFFCD2
:101940003A214820FFF7ABFC88215920FFF7A7FC7C
:1019500088215A20FFF7A3FC44215B20FFF79FFC5E
:1019600067215C20FFF79BFC49215D20FFF797FC76
:101970000E215E20FFF793FC04216420FFF78FFC0B
:1019800020216520FFF78BFC05216620FFF787FCEF
:1019900004219420FFF783FC08219520FFF77FFCAA
:1019A0000A216C20FFF77BFC55216D20FFF777FCA7
:1019B00011216E20FFF773FC9F216F20FFF76FFC52
:1019C00040216A20FFF76BFC40210120FFF767FCF4
:1019D00040210220FFF763FCE7211320FFF75FFCA3
:1019E00000211520FFF75BFC80214F20FFF757FCFB
:1019F00080215020FFF753FC00215120FFF74FFCBE
:101A000022215220FFF74BFC5E215320FFF747FCB9
:101A100080215420FFF743FC9E215820FFF73FFC14
:101A200008214120FFF73BFC00213F20FFF737FC56
:101A300005217520FFF733FCE1217620FFF72FFC0D
:101A400000214C20FFF72BFC01217720FFF727FC1A
:101A5000C2213D20FFF723FC09214B20FFF71FFC8B
:101A60006021C920FFF71BFC38214120FFF717FC3C
:101A700040215620FFF713FC11213420FFF70FFC03
:101A800002213B20FFF70BFC8921A420FFF707FC74
:101A900000219620FFF703FC30219720FFF7FFFB82
:101AA00020219820FFF7FBFB30219920FFF7F7FB5F
:101AB00084219A20FFF7F3FB29219B20FFF7EFFBFE
:101AC00003219C20FFF7EBFB4C219D20FFF7E7FB58
:101AD0003F219E20FFF7E3FB04217820FFF7DFFB87
:101AE00010BD10B5FEF7C2FC10BD30B591B030216D
:101AF0006846FEF753FB00240D94012003900E94DA
:101B00000225102009940490009505200F94C0042C
:101B10000A900C9408950B946846FEF7D9FD0720AF
:101B20000C900E9401210D950F940CA8FEF70CFD5E
:101B300011B030BD7047F8B5040C8BB2264682B2A6
:101B40005E430D0C1046370C5843360480190021B3
:101B5000794116466E43370C360480197941264682
:101B60006E438919F8BD00008307FF22DB0E9A40FF
:101B70008907090E9940002808DB830809489B0063
:101B80001B18186890430843186070470007000F3F
:101B90000838830804489B001B18D8699043084301
:101BA000D861704700E400E000ED00E002E008C802
:101BB000121F08C1002AFAD170477047002001E0C7
:101BC00001C1121F002AFBD170470000FEF756FC2E
:101BD000FFF78BFFFFF78EFB0120FFF73FFCFFF7BE
:101BE00091F8C820FEF752FBFEF74FFF1F20C002FE
:101BF000FFF7A4F93F204001FFF7A0F91F20FFF7EE
:101C00009DF9C820FEF742FBFFF735FB0A49002883
:101C100008700FD07D20C000FEF738FBFFF7AAF94F
:101C20000120FFF7D7FB0120FFF7C4FB0120FFF7DE
:101C300056FBFEE7FEE70000000000200000000069
:101C40000000000001020304060708096C1C0008DC
:101C50000000002014000000AC1B0008801C0008DD
:101C60001400002004040000BC1B00080000000059
:101C700001000000040000000000000000127A00D3
:04000005080000B13E
:00000001FF
