:020000040800F2
:1000000010040020C500000885100008A1090008A0
:1000100000000000000000000000000000000000E0
:10002000000000000000000000000000AB1100080C
:100030000000000000000000A9110008AD11000838
:10004000D700000800000000D7000008D700000813
:10005000D7000008D7000008D7000008D700000824
:1000600000000000D7000008D7000008D7000008F3
:10007000D7000008D7000008D700000800000000E3
:10008000D70000080000000000000000D7000008B2
:1000900000000000D7000008D7000008D7000008C3
:1000A00000000000D700000800000000D700000892
:1000B0000348854600F08EF8004800479512000876
:1000C000100400200448804704480047FEE7FEE78C
:1000D000FEE7FEE7FEE7FEE7FF110008B1000008BB
:1000E00030B50B46014600202022012409E00D46D0
:1000F000D5409D4205D31D469540491B2546954058
:1001000040191546521E002DF1DC30BDF0B51FB46C
:100110000646002082B005464024019100901BE075
:10012000019922460F46304600F020F8049A059BBC
:10013000801A994110D310461946224600F039F82A
:10014000361A8F410197224601200021009F00F0BE
:1001500030F838184D4100902046641E0028DFDC3E
:10016000019B00982946324607B0F0BD10B5202A01
:1001700004DB0846203AD040002110BD0B46D34096
:10018000D0402024A21A91400843194610BDD2B293
:1001900001E00270401C491EFBD270470022F6E7C6
:1001A00010B513460A4604461946FFF7F0FF2046ED
:1001B00010BD10B5202A04DB0146203A91400020F2
:1001C00010BD914020239C1A0346E3401943904000
:1001D00010BD0000064C0125064E05E0E36807CC83
:1001E0002B430C3C98471034B442F7D3FFF764FF1D
:1001F000AC130008CC13000870B5044600F0CCF82E
:100200000546601C02D004480078241800F0C4F8A9
:10021000401BA042FAD370BD00000020FCB50023B3
:100220000124A1E027462A469F403A4073D04D68FA
:10023000012D05D0022D03D0112D01D0122D16D184
:1002400085680326AC465D00AE46AE406546B543C4
:10025000AC46CE687546AE4065462E43866046681D
:100260000D79BE43ED06ED0F9D4035434560C668F0
:100270005F000325BD40AE46AE4335468E68BE40A6
:100280002E43C6604E68022E01D0122E14D1DE0815
:10029000B60036180196366A5D07B446EE0E0F2595
:1002A000B54000966646AE43B4460D69009EB54023
:1002B00066462E43019D2E6206687546AE430D7953
:1002C000AD07AD0FBD40354305604D68ED004AD523
:1002D000284DAE692643AE61AD699E08ED07ED0F6E
:1002E0000095254DB6007519AC46AD689E07360FD2
:1002F0000F27B740BD430927FF06B84201D10027A9
:1003000010E01E4FB84201D101270BE01C4FB8424C
:1003100002D1022706E026E01A4FB84201D1032796
:1003200000E00527B7402F436546AF60164E35689D
:100330004F689543FF0300D51543356075684F68D6
:100340009543BF0300D515437560B5684F68954365
:10035000FF0200D51543B560F5684F689543BF02AD
:1003600000D51543F5605B1C0A681546DA4000D0DD
:1003700058E7FCBD001002400000014000040048A6
:1003800000080048000C004800040140002A01D089
:100390008161704781627047014880687047000042
:1003A0000000002002488168027889188160704747
:1003B0000000002010B506480168102211430160BA
:1003C000002000F007F800F027F8002010BD000022
:1003D0000020024070B504460D4D7D202978C000F4
:1003E000FFF77EFE01460B480068FFF779FE00F03C
:1003F000BFFA002809D1042C07D200222146401E52
:1004000000F02AF800206C6070BD012070BD000073
:10041000000000200C00002008B508488169012276
:1004200011438161816911400091C26901040A434D
:10043000C261C0690840009008BD00000010024081
:10044000002805DBC106C90E01208840014908606B
:100450007047000000E100E010B500F0E9FE10BDBB
:10046000F8B50F46060059D03A4D2868C007C00FAE
:10047000B84209D2286840084000384328602868FC
:10048000C007C00FB84249D13068334C81070CD542
:10049000400704D56068072109020843606060686E
:1004A000F0218843B168084360603078C00726D0E7
:1004B000706801280ED0216802280ED08907002913
:1004C0002CDA61688908890001436160FFF764FFE5
:1004D00000900DE021688903F1E78901EFE7FFF75C
:1004E0005BFF0099411A1D48814201D90320F8BDE4
:1004F00060680C210840716889008842EFD1286843
:10050000C007C00FB8420BD92868400840003843E4
:1005100028602868C007C00FB84201D00120F8BD8C
:100520003078400706D56068072109028843F168E2
:100530000843606000F018F86168094A0906090F6D
:10054000515CC840074908600020FFF743FF0020C6
:10055000F8BD000000200240001002408813000097
:100560009C1300080C00002010B514A30FCB88B01A
:100570006C460FC415A30FCB0FC4184A51680C204A
:100580000B4603401648042B16D0082B14D18B02BF
:100590001B0F6C46E45CD26A04AB1207120F9A5C24
:1005A000C90305D500231946FFF7B0FD214601E038
:1005B00020460C4900F024FE08B010BD02030405DB
:1005C000060708090A0B0C0D0E0F10100102030498
:1005D00005060708090A0B0C0D0E0F10001002404B
:1005E00000127A0000093D00FEB5040070D02078AA
:1005F000DC4DC0074AD068680007800F012807D08B
:1006000068680007800F022809D16868C00306D512
:10061000286880033AD560680028E7D036E0616832
:10062000012914D001208004002901D0052914D00B
:100630002A68012109048A432A60296881432960C4
:100640006068002816D0FFF7A7FE06460EE028686F
:100650000121090408432860F2E729680143296061
:10066000F5E7FFF799FE801B64286ED828688003A1
:10067000F7D50BE0FFF790FE064604E0FFF78CFE8F
:10068000801B6428F1D828688003F7D420780126DD
:10069000800700283CDA68680007800F07D0686888
:1006A0000007800F022809D16868C00306D42868B3
:1006B000800716D5E06801280AD112E0E06800281A
:1006C000286816D030432860FFF766FE074605E02D
:1006D00043E1FFF761FEC01B0228C6D828688007E7
:1006E000F7D52868F82188432169C90008432860A4
:1006F0000EE0400840002860FFF74EFE074604E089
:10070000FFF74AFEC01B0228AFD828688007F7D43D
:100710002078000722D5E0690028686A0ED03043AF
:100720006862FFF739FE074604E0FFF735FEC01B9D
:1007300002289AD8686A8007F7D50FE04008400081
:100740006862FFF729FE074605E09DE0FFF724FEFB
:10075000C01B022889D8686A8007F7D4207804274C
:100760004007002860DA00200190E869C00008D442
:10077000E969B8060143E961E96901400120009196
:10078000019079480168C90511D4016882151143A7
:100790000160FFF701FE009005E0FFF7FDFD009905
:1007A000401A642870D870480068C005F5D5A06864
:1007B00001280AD0002801D0052810D0286A400856
:1007C00040002862286AB84301E0286A3043286262
:1007D000A068002812D0FFF7DFFD00900AE0286A29
:1007E00038432862F1E7FFF7D7FD0099411A5F48C7
:1007F000814249D8286A8007F5D50DE0FFF7CCFD86
:10080000009006E0FFF7C8FD0099411A5748814261
:100810003AD8286A8007F5D40198002804D0E969FD
:10082000012000078143E9612078C00635D5606961
:1008300001280CD0401D686B23D038436863686B77
:10084000400840006863FFF7A7FD064622E0686B9A
:1008500038436863686B30436863FFF79DFD064665
:1008600004E0FFF799FD801B02285BD8686B8007C6
:10087000F7D5686BF8218843A169C900084368630C
:100880000BE0B8436863F4E74CE0FFF785FD801B9D
:10089000022847D8686B8007F7D4206A00285ED00A
:1008A00069680907890F022942D001263606022805
:1008B000286805D0B0432860FFF76EFD044633E09A
:1008C000B0432860FFF768FD074604E0FFF764FDCA
:1008D000C01B022826D828688001F7D4E86AE16A9C
:1008E000000900010843E862616AA06A0843696878
:1008F0003D22120491430843686028683043286011
:10090000FFF74AFD044604E0FFF746FD001B0228FE
:1009100008D828688001F7D521E0FFF73DFD001BCE
:10092000022801D90320FEBD28688001F5D416E015
:100930000128F8D06868E96A01221204636A02405B
:100940009A420AD10907E26A090F914205D10F21A3
:1009500089040840A16A884201D00120FEBD002020
:10096000FEBD00000010024000700040881300002F
:10097000094910B5401E884201D9012010BD074C1D
:1009800060610321081F00F053FC0020A0610720D4
:100990002061002010BD0000FFFFFF0000E000E02C
:1009A000FEE710B5CF2000F081FA002000F060FAD9
:1009B000C12000F05DFA302000F05AFAED2000F07E
:1009C00075FA642000F054FA032000F051FA122066
:1009D00000F04EFA812000F04BFACB2000F066FACE
:1009E000392000F045FA2C2000F042FA002000F0F7
:1009F0003FFA342000F03CFA022000F039FAEA20F5
:100A000000F054FA002000F033FA002000F030FA31
:100A1000E82000F04BFA852000F02AFA102000F0C0
:100A200027FA792000F024FAC02000F03FFA2320B2
:100A300000F01EFAC12000F039FA112000F018FA77
:100A4000C22000F033FA112000F012FAC52000F0A5
:100A50002DFA3D2000F00CFA302000F009FAC720F2
:100A600000F024FAAA2000F003FA3A2000F01EFA5F
:100A7000552000F0FDF9362000F018FA082000F0AB
:100A8000F7F9B12000F012FA002000F0F1F911207E
:100A900000F0EEF9B62000F009FA0A2000F0E8F9BB
:100AA000A22000F0E5F9F22000F000FA002000F0AA
:100AB000DFF9F72000F0FAF9202000F0D9F9F12051
:100AC00000F0F4F9012000F0D3F9302000F0D0F963
:100AD000262000F0EBF9012000F0CAF9E02000F038
:100AE000E5F90F2000F0C4F93F2000F0C1F92F20F4
:100AF00000F0BEF90C2000F0BBF9102000F0B8F9AE
:100B00000A2000F0B5F9532000F0B2F9D52000F02A
:100B1000AFF9402000F0ACF90A2000F0A9F9132049
:100B200000F0A6F9032000F0A3F9082000F0A0F9D6
:100B3000032000F09DF9002000F09AF9E12000F078
:100B4000B5F9002000F094F9002000F091F9102090
:100B500000F08EF9032000F08BF90F2000F088F9E7
:100B6000052000F085F92C2000F082F9A22000F089
:100B70007FF93F2000F07CF9052000F079F90E2084
:100B800000F076F90C2000F073F9372000F070F9CE
:100B90003C2000F06DF90F2000F06AF9112000F000
:100BA00085F96420FFF728FB292000F07FF910BDAC
:100BB000F8B507461C4615460E462A2000F076F981
:100BC000380A00F055F9F8B200F052F9280A00F09E
:100BD0004FF9E8B200F04CF92B2000F067F9300A29
:100BE00000F046F9F0B200F043F9200A00F040F9B5
:100BF000E0B200F03DF92C2000F058F9F8BD0000FB
:100C0000F0B58A4887B04269012189040A434261EC
:100C100042690A40059242690A43426142690A40B8
:100C20000592426909010A43426142690A400592FC
:100C300042690A43426142690A4005924269491188
:100C40000A43426142690A40059242690A4342618D
:100C500042690A40059242690A43426142690A4078
:100C6000059242690A43426142690A40059242691B
:100C70000A43426142690A40059242690A4342615D
:100C800042690A40059242690A43426142690A4048
:100C9000059242690A43426142690A4005924269EB
:100CA0000A434261406940270840009705900124AB
:100CB0000025032601AA70C269465D48FFF7AEFA17
:100CC00001A870C069465A480094FFF7A7FA01A826
:100CD00070C0694657480094FFF7A0FA02206A46A0
:100CE00071C269465348FFF799FA20026A4671C2F9
:100CF00009206946C006FFF791FA01A870C00920D3
:100D00006946C0060094FFF789FA02206A4671C25C
:100D100009206946C006FFF781FA04206A4671C2BD
:100D200009206946C006FFF779FA08206A4671C2B1
:100D300009206946C006FFF771FA10206A4671C2A1
:100D400009206946C006FFF769FA20206A4671C289
:100D500009206946C006FFF761FA01AA009770C230
:100D600009206946C006FFF759FA80206A4671C219
:100D700009206946C006FFF751FA012209201146F1
:100D8000C006FFF703FB022209201146C006FFF749
:100D9000FDFA042209201146C006FFF7F7FA0822DF
:100DA00009201146C006FFF7F1FA1022092011466A
:100DB000C006FFF7EBFA202209201146C006FFF714
:100DC000E5FA402209201146C006FFF7DFFA80222B
:100DD00009201146C006FFF7D9FA01220221154861
:100DE000FFF7D4FA012211461248FFF7CFFA012289
:100DF00011460F48FFF7CAFA092000222102C00657
:100E0000FFF7C4FA1420FFF7F7F9012209201102B5
:100E1000C006FFF7BBFA1420FFF7EEF9002202210B
:100E20000448FFF7B3FA07B0F0BD0000001002401D
:100E30000004004800140048F8B5010A0091C7B248
:100E4000FF2300214033EF220846FFF7B1FE0025C3
:100E5000FF26413600243946009800F017F8641C3C
:100E6000A4B2B442F7D36D1CADB2F02DF2D3F8BDED
:100E700010B50446012240210348FFF787FA2046B7
:100E800000F0B8F810BD00000004004870B50C4632
:100E90000546012240210448FFF778FA21462846FA
:100EA00000F012F870BD00000004004810B50446C0
:100EB000002240210348FFF769FA204600F09AF823
:100EC00010BD000000040048F8B5C20705460C46F6
:100ED0000920D20F0121C006FFF758FA02262A4640
:100EE000092032403146C006FFF750FA04272A464F
:100EF00009203A403946C006FFF748FA08202A463A
:100F0000024001460920C006FFF740FA10202A4699
:100F1000024001460920C006FFF738FA20202A4681
:100F2000024001460920C006FFF730FA40202A4659
:100F3000024001460920C006FFF728FAEA09092005
:100F4000D2018021C006FFF721FA294D002201219C
:100F50002846FFF71BFA012211462846FFF716FA2A
:100F6000E2070920D20F0121C006FFF70FFA22463F
:100F7000092032400221C006FFF708FA2246092064
:100F80003A400421C006FFF701FA08202246024039
:100F900001460920C006FFF7F9F910202246024059
:100FA00001460920C006FFF7F1F920202246024041
:100FB00001460920C006FFF7E9F940202246024019
:100FC00001460920C006FFF7E1F9E2090920D20134
:100FD0008021C006FFF7DAF9002201212846FFF739
:100FE000D5F9012211462846FFF7D0F9F8BD0000D7
:100FF0000004004870B5C20709250446ED06D20F6B
:1010000001212846FFF7C2F902202246024001468C
:101010002846FFF7BBF90420224602400146284635
:10102000FFF7B4F908202246024001462846FFF7A0
:10103000ADF910202246024001462846FFF7A6F9E6
:1010400020202246024001462846FFF79FF9402013
:101050002246024001462846FFF798F9E209D201EC
:1010600080212846FFF792F9054C002201212046F5
:10107000FFF78CF9012211462046FFF787F970BD72
:101080000004004870470000F0B52C4887B0426962
:10109000012189040A43426142690A40059242697A
:1010A0000A43426142690A40059243694A10134368
:1010B000436143691340059342690A4342614069B1
:1010C0001F4F0840059002200126002403250090B0
:1010D00069460196039502943846FFF79FF88020F1
:1010E000009069460196039502943846FFF796F8FA
:1010F0000820009069460196039502943846FFF750
:101100008DF8F00200900F4801AA31C2092069460B
:10111000C006FFF783F8002202210720FFF79CF9A1
:101120000720FFF78DF9002000F01EF8002000F0E6
:101130000BF8002000F028F807B0F0BD00100240C6
:10114000000400480000111010B5064B002803D021
:10115000012806D1002200E0012202211846FFF7F3
:1011600015F910BD0004004810B5064B002803D047
:10117000012806D1002200E0012280211846FFF755
:1011800005F910BD0004004810B5064B002803D037
:10119000012806D1002200E0012208211846FFF7AD
:1011A000F5F810BD000400487047704710B5FFF710
:1011B000F9F810BD30B591B030216846FEF7EEFF6A
:1011C00000240D94012003900E9402251020099410
:1011D0000490009505200F94C0040A900C94089583
:1011E0000B946846FFF700FA07200C900E9401213B
:1011F0000D950F940CA8FFF733F911B030BD70476F
:10120000F8B5040C8BB2264682B25E430D0C104634
:10121000370C5843360480190021794116466E4335
:10122000370C36048019794126466E438919F8BD7A
:101230008307FF22DB0E9A408907090E9940002898
:1012400008DB830809489B001B1818689043084373
:10125000186070470007000F0838830804489B0097
:101260001B18D86990430843D861704700E400E038
:1012700000ED00E002E008C8121F08C1002AFAD100
:1012800070477047002001E001C1121F002AFBD106
:1012900070470000FFF78EF8FFF78CFFFFF7F4FEB2
:1012A0007D24E4002046FEF7A7FF0120FFF76CFF36
:1012B0002046FEF7A1FFFFF7A3FCC820FEF79CFF26
:1012C000FFF76FFBC820FEF797FF2E4D2D4E2E4CDB
:1012D0001F3D6F113046FFF7AFFDC820FEF78CFFB2
:1012E0000020FFF7A9FDC820FEF786FF1F20FFF7AB
:1012F000A3FDC820FEF780FF2046FFF79DFDC82014
:10130000FEF77AFF2846FFF797FDC820FEF774FF27
:101310003846FFF791FDC820FEF76EFF1F20C00280
:10132000FFF78AFDC820FEF767FF2046FFF784FD20
:10133000C820FEF761FF3F204001FFF77DFDC82078
:10134000FEF75AFF1148FFF777FDC820FEF754FF5C
:101350002846FFF771FDC820FEF74EFF0C48FFF747
:101360006BFDC820FEF748FF0A48FFF765FDC8205F
:10137000FEF742FF0848FFF75FFDC820FEF73CFF7D
:10138000A8E70000FFFF00001FF80000FF7F00003B
:1013900040BC000007FC000030840000000000009A
:1013A000000000000102030406070809CC1300082E
:1013B000000000201000000074120008DC13000878
:1013C000100000200004000084120008010000004A
:0C13D000040000000000000000127A0081
:04000005080000B13E
:00000001FF
