:020000040800F2
:1000000018040020C5000008B9100008710E00088F
:1000100000000000000000000000000000000000E0
:100020000000000000000000000000003D16000875
:100030000000000000000000B51300083F16000893
:10004000D700000800000000D7000008D700000813
:10005000D7000008D7000008D7000008F901000801
:1000600000000000D7000008D7000008D7000008F3
:10007000D7000008D7000008D700000800000000E3
:10008000D70000080000000000000000D7000008B2
:1000900000000000D7000008D7000008D7000008C3
:1000A00000000000D700000800000000D700000892
:1000B0000348854600F08EF800480047AD18000858
:1000C000180400200448804704480047FEE7FEE784
:1000D000FEE7FEE7FEE7FEE791160008B100000824
:1000E00030B50B46014600202022012409E00D46D0
:1000F000D5409D4205D31D469540491B2546954058
:1001000040191546521E002DF1DC30BDF0B51FB46C
:100110000646002082B005464024019100901BE075
:10012000019922460F46304600F020F8049A059BBC
:10013000801A994110D310461946224600F039F82A
:10014000361A8F410197224601200021009F00F0BE
:1001500030F838184D4100902046641E0028DFDC3E
:10016000019B00982946324607B0F0BD10B5202A01
:1001700004DB0846203AD040002110BD0B46D34096
:10018000D0402024A21A91400843194610BDD2B293
:1001900001E00270401C491EFBD270470022F6E7C6
:1001A00010B513460A4604461946FFF7F0FF2046ED
:1001B00010BD10B5202A04DB0146203A91400020F2
:1001C00010BD914020239C1A0346E3401943904000
:1001D00010BD0000064C0125064E05E0E36807CC83
:1001E0002B430C3C98471034B442F7D3FFF764FF1D
:1001F000141900083419000810B53A484069102154
:100200000840102802D100F089F869E035484069BB
:1002100020210840202802D100F080F860E0314819
:10022000406940210840402802D100F077F857E0AB
:100230002C48406980210840802802D100F06EF8E7
:100240004EE028484069FF2101310840884202D130
:1002500000F064F844E02348406901214902084065
:10026000884202D100F05AF83AE01E484069012164
:1002700089020840884202D100F050F830E0194865
:1002800040690121C9020840884202D100F046F8C5
:1002900026E014484069012109030840884202D140
:1002A00000F03CF81CE00F48406901214903084078
:1002B000884202D100F032F812E00A484069012178
:1002C00089030840884202D100F028F808E0054878
:1002D00040690121C9030840884201D100F01EF89D
:1002E00010BD00000004014070B5044600F02AF97A
:1002F0000546601C02D004480078241800F022F95A
:10030000401BA042FAD370BD04000020012110B5AB
:10031000C902884201D100F0E5FF10BD10B50446C6
:10032000054840692040002804D003484461204625
:10033000FFF7ECFF10BD00000004014078B5034654
:100340000022DDE0012696400C683440002C7DD070
:100350004D68012D08D04D68022D05D04D68112D36
:1003600002D04D68122D18D1986856000325B5406B
:100370000646AE4330465600CD68B54028439860E7
:100380005868012595400646AE43304610264D6814
:1003900035402D09954028435860D86856000325FC
:1003A000B5400646AE43304656008D68B5402843FA
:1003B000D8604D68022D02D04D68122D15D1D50898
:1003C000AE001D462035A8595507EE0E0F25B54045
:1003D0000646AE4330465607F60E0D69B540284333
:1003E000D508AD001E46203670511868560003250A
:1003F000B5400646AE4330460D79AD07AD0F560009
:10040000B54028431860012636074D683540B5428F
:1004100075D100BF3D4DAD69012635433B4EB561F9
:100420003546AD69ED07ED0F009500BF00BF384DB3
:100430009608B600A85995072E0F0F25B540064619
:10044000AE4330460925ED06AB4200E057E001D14E
:1004500000250FE02F4DAB4201D101250AE02E4DC2
:10046000AB4201D1022505E02C4DAB4201D1032561
:1004700000E005259607360FB5402843244D960821
:10048000B600A851264D28680546A54328460126F2
:1004900036044D683540B54202D10546254328460D
:1004A0001F4D286068680546A54328460126760446
:1004B0004D683540B54202D1054625432846184DC2
:1004C0006860A8680546A5432846012636054D689C
:1004D0003540B54202D1054625432846104DA86057
:1004E000E8680546A5432846012676054D6835404F
:1004F000B54202D1054625432846094DE860521C05
:100500000D68D540002D00D01CE778BD00100240DA
:10051000080001400004004800080048000C0048A2
:1005200000040140024613690B40002B01D001205A
:1005300000E000207047002A01D0816100E0816264
:1005400070470000014880687047000004000020E8
:100550000248816802788918816070470400002091
:1005600010B506480168102211430160002000F018
:1005700007F800F027F8002010BD0000002002401E
:1005800070B504460D4D7D202978C000FFF7A8FD09
:1005900001460B480068FFF7A3FD00F04DFC002862
:1005A00009D1042C07D200222146401E00F056F843
:1005B00000206C6070BD012070BD000004000020B0
:1005C0001000002008B500BF0D48806901210843D4
:1005D0000B49886108468069C007C00F009000BFC2
:1005E00000BF00BF0846C069090408430449C86148
:1005F0000846C06909040840009000BF00BF08BD5C
:10060000001002400146002915DBCB06DB0E01225B
:100610009A400A4B1A6000BF00BF00BFBFF34F8F64
:1006200000BF00BF00BF00BF00BF00BFBFF36F8FA0
:1006300000BF00BF00BF00BF7047000080E100E0C6
:100640000146002905DBCB06DB0E01229A40024B56
:100650001A6000BF7047000000E100E070B504467A
:100660000D4616462946204601F0D4F870BD00001C
:1006700070B504460D46002C01D1012070BD5248D2
:100680000068C007C00FA8420ED24F48006840085B
:10069000400028434C49086008460068C007C00F66
:1006A000A84201D00120E9E7022120680840022881
:1006B00014D1042120680840042807D14348406829
:1006C0000721090288434018404948603F48406874
:1006D000F0218843A16808433C4948602078C0075E
:1006E000C00F00283BD06068012808D13748006857
:1006F000012149040840002815D10120BEE76068A7
:10070000022808D131480068012149060840002824
:1007100009D10120B2E72D480068022108400028D5
:1007200001D10120AAE7294840688008800061685B
:10073000084326494860FFF705FF064607E0FFF734
:1007400001FF801B2249884201D9032096E71F48F8
:1007500040680C210840616889008842EFD11A483E
:100760000068C007C00FA8420ED9174800684008AB
:10077000400028431449086008460068C007C00FBD
:10078000A84201D0012079E704212068084004280C
:1007900008D10E484068072109028843E1680843F0
:1007A0000A49486000F01AF808494968F0221140E7
:1007B0000909084A515CC840074908600020FFF752
:1007C000DFFE00205AE70000002002400010024037
:1007D00088130000FC18000810000020F0B589B054
:1007E00027A001460EC9C06805AC0EC4089028A019
:1007F00001460EC9C06801AC0EC404900024002557
:100800000027002600200090254844680C20204046
:1008100000282DD0042802D0082828D102E0214841
:10082000009028E00F2080042040800C05A90E5C79
:100830001B48C06A0007000F01A90D5C01200004DD
:1008400020400121090488420AD12A460023154884
:100850001946FFF75BFC314600F0C4FF074604E091
:100860001148314600F0BEFF0746009703E000BF85
:100870000C48009000BF00BF009809B0F0BD000018
:1008800002030405060708090A0B0C0D0E0F1010D1
:100890000102030405060708090A0B0C0D0E0F10D0
:1008A0000010024000127A0000093D00FEB5044627
:1008B000002C01D10120FEBD2078C007C00F002808
:1008C00071D0FC4840680C21084004280BD0F9483E
:1008D00040680840082812D1F64840680121090400
:1008E000084088420BD1F3480068012149040840C0
:1008F00000286BD06068002868D10120DBE700BFCA
:100900006068012807D1EB48006801210904084309
:10091000E849086031E0606800280ED1E5480068C9
:10092000012109048843E349086008460068012161
:1009300089048843DF4908601FE0606805280ED1FC
:10094000DC480068012189040843DA490860084648
:100950000068012109040843D64908600DE0D54824
:100960000068012109048843D249086008460068EC
:10097000012189048843CF49086000BF60680028CE
:1009800012D0FFF7DFFD054606E0FFF7DBFD401B59
:10099000642801D903208EE7C64800680121490474
:1009A00008400028F1D011E0FFF7CCFD054606E035
:1009B000FFF7C8FD401B642801D903207BE7BD4831
:1009C00000680121490408400028F1D10221206873
:1009D0000840022861D1B74840680C21084000282F
:1009E0000BD0B4484068084008281BD1B148406883
:1009F000012109040840002814D1AE4800680221F2
:100A00000840002804D0E068012801D0012052E706
:100A1000A8480068F82188432169C9000843A5490E
:100A200008603AE0E068002820D0A2480068012170
:100A30000843A0490860FFF785FD054606E0FFF77B
:100A400081FD401B022801D9032034E79948006842
:100A5000022108400028F2D096480068F821884317
:100A60002169C90008439349086016E0914800686D
:100A7000400840008F490860FFF764FD054606E026
:100A8000FFF760FD401B022801D9032013E78948C6
:100A90000068022108400028F2D10821206808409F
:100AA000082831D1E069002817D08248406A012126
:100AB000084380494862FFF745FD054606E0FFF719
:100AC00041FD401B022801D90320F4E67948406A21
:100AD000022108400028F2D016E07648406A40081B
:100AE000400074494862FFF72DFD054606E0FFF718
:100AF00029FD401B022801D90320DCE66D48406A2D
:100B0000022108400028F2D104212068084004286E
:100B100073D1002001906748C06989060840002809
:100B20000ED100BF6348C06908436249C8610846E6
:100B3000C06909040840009000BF00BF0120019077
:100B40005D480068FF2101310840002816D15A484D
:100B50000068084358490860FFF7F4FC054606E0C2
:100B6000FFF7F0FC401B642801D90320A3E652489C
:100B70000068FF21013108400028F1D000BFA068C3
:100B8000012806D14B48006A0121084349490862FF
:100B90002BE0A06800280CD14648006A40084000BD
:100BA000444908620846006A0421884341490862B2
:100BB0001BE0A06805280CD13E48006A04210843C8
:100BC0003C4908620846006A012108433949086225
:100BD0000BE03848006A4008400036490862084681
:100BE000006A042188433349086200BFA0680028D6
:100BF00013D0FFF7A7FC054608E02BE0FFF7A2FCA7
:100C0000401B2E49884201D9032054E62948006A36
:100C1000022108400028F1D011E0FFF793FC0546BF
:100C200007E0FFF78FFC401B2449884201D90320CD
:100C300041E62048006A022108400028F1D10198CD
:100C4000012806D11B48C0690121090788431949B9
:100C5000C86100BF102120680840102860D1606979
:100C600001282DD11348406B0421084311494863E2
:100C70000846406B012108430E494863FFF762FCB8
:100C8000054606E0FFF75EFC401B022801D9032061
:100C900011E60848406B022108400028F2D00548C0
:100CA000406BF8218843A169C900084301494863A2
:100CB00036E0000000100240007000408813000081
:100CC0006069401D00280FD15A48406B04218843B9
:100CD000584948630846406BF8218843A169C90018
:100CE0000843544948631BE05248406B04210843C1
:100CF000504948630846406B400840004863FFF78E
:100D000021FC054606E0FFF71DFC401B022801D927
:100D10000320D0E54748406B022108400028F2D16B
:100D2000206A00284FD0434840680C21084008281A
:100D300064D0206A022847D13E4800680121090694
:100D400088433C490860FFF7FDFB054606E0FFF7D6
:100D5000F9FB401B022801D90320ACE535480068A7
:100D60000121490608400028F1D100BF3148C06A7E
:100D700000090001E16A08432E49C862616AA06A5D
:100D800008432C4949683D221204914308432949EC
:100D9000486000BF0846006801210906084325494C
:100DA0000860FFF7CFFB054606E0FFF7CBFB401BD3
:100DB000022801D903207EE51E480068012149066A
:100DC00008400028F1D033E01A48006801210906E4
:100DD000884318490860FFF7B5FB054606E0FFF7B2
:100DE000B1FB401B022801D9032064E511480068CB
:100DF0000121490608400028F1D119E0206A0128A4
:100E000000D158E50B484668C76A0120000430400D
:100E1000616A88420AD13907090FE06A814205D127
:100E20000F2080043040A16A884201D0012042E5B1
:100E3000002040E50010024070B504462546681EBB
:100E40000949884201D901200CE0681E0749486120
:100E50000321081F00F0DEFC002004498861072000
:100E60000861002070BD0000FFFFFF0000E000E00F
:100E700000BFFEE7F0B5714887B0426901218904DF
:100E80000A43426142690A40059242690A4342614B
:100E900042690A400592426909010A434261426976
:100EA0000A40059242690A43426142690A4005923A
:100EB000426949110A43426142690A400592426906
:100EC0000A43426142690A40059242690A4342610B
:100ED00042690A40059242690A43426142690A40F6
:100EE000059242690A43426142690A400592426999
:100EF0000A43426142690A40059242690A434261DB
:100F000042690A40059242690A43426142690A40C5
:100F1000059242690A4342614069012408400590F4
:100F20000025032640206A4671C269464448FFF7FF
:100F300005FA01A870C0694641480094FFF7FEF920
:100F400001A870C069463F480094FFF7F7F90220F6
:100F50006A4671C269463B48FFF7F0F920026A46CB
:100F600071C20927FF0669463846FFF7E7F901A86D
:100F700070C0694638460094FFF7E0F902206A46DF
:100F800071C269463846FFF7D9F904206A4671C232
:100F900069463846FFF7D2F908206A4671C26946A9
:100FA0003846FFF7CBF910206A4671C269463846C9
:100FB000FFF7C4F920206A4671C269463846FFF738
:100FC000BDF940206A4671C269463846FFF7B6F956
:100FD00080206A4671C269463846FFF7AFF97869E2
:100FE000FF210902084078617869FF210843786190
:100FF000012202211348FFF79EFA012211461148EF
:10100000FFF799FA012211460D48FFF794FA0022E2
:1010100021023846FFF78FFA1420FFF765F9012205
:1010200011023846FFF787FA1420FFF75DF9002216
:1010300002210448FFF77FFA07B0F0BD001002401C
:10104000000400480014004800B50C4887B042690D
:10105000012149040A43426140690840059000208B
:101060000190029003200390FF2000900920694620
:10107000C006FFF763F907B000BD00000010024092
:1010800000B50C4887B04269012149040A43426116
:101090004069084005900120019000200290032043
:1010A0000390FF20009009206946C006FFF746F92B
:1010B00007B000BD00100240704708B50020009046
:1010C00004E068460088401C81B2009168460088B0
:1010D0007D21C9008842F4DB08BD10B504462046D6
:1010E000FFF702F910BD10B500F074F9802112204D
:1010F00000F008F8002800D110BD0A20FFF7EDFF2E
:101100000120F9E770B505460C4600F0F7F94220DA
:1011100000F031FA002803D100F012FA002070BD6F
:10112000FFF7CBFF284600F026FA002803D100F095
:1011300007FA0020F3E7FFF7C0FF204600F01BFA94
:10114000002803D100F0FCF90020E8E700F0F8F9EE
:101150000120E4E710B50446002C03D10720FFF777
:1011600051FA02E00720FFF76BFA10BD00B587B017
:1011700000BF414840690121890408433E49486154
:1011800008464069012189040840019000BF00BF62
:1011900000BF3948406908433749486108464069FB
:1011A000012189040840019000BF00BF00BF324800
:1011B00040694910084330494861084640690121A7
:1011C00049040840019000BF00BF00BF2A484069A1
:1011D00049000843284948610846406901218904BB
:1011E0000840019000BF00BF022002900120039040
:1011F000002004900320059002A92048FFF79EF8E4
:10120000802002900120039000200490032005908C
:1012100002A91A48FFF792F80820029001200390D3
:10122000002004900320059002A91448FFF786F8D7
:101230000120C00202901248039001200490032074
:10124000059002A90920C006FFF778F800220221C4
:101250000720FFF703FA0720FFF7D4F90020FFF774
:1012600079FF002000F026F8002000F00BF80020A5
:1012700000F088F807B000BD0010024000040048EC
:101280000000211010B50446002C07D0012C0BD112
:10129000002202210648FFF74EF906E00122022152
:1012A0000348FFF748F900E000BF00BF10BD000091
:1012B0000004004810B50446002C07D0012C0BD1C7
:1012C000002280210648FFF736F906E0012280213E
:1012D0000348FFF730F900E000BF00BF10BD000079
:1012E0000004004810B50020FFF734FFFFF7C8FEE8
:1012F000012202212148FFF71EF9012280211F4807
:10130000FFF719F90021202000F0C4F9FF21403136
:10131000212000F0BFF90021502000F0BBF9EF219F
:10132000512000F0B7F90021522000F0B3F9FF215D
:101330004031532000F0AEF91149032000F0AAF922
:10134000222000F015FA012240210C48FFF7F3F8A3
:10135000002201210948FFF7EEF800220221074888
:10136000FFF7E9F8002280210448FFF7E4F8FFF7CF
:101370006BFE0120FFF7EEFE10BD000000040048E8
:101380001810000010B50446002C07D0012C0BD11A
:10139000002208210648FFF7CEF806E001220821C6
:1013A0000348FFF7C8F800E000BF00BF10BD000011
:1013B00000040048704708B50020009004E068462B
:1013C0000088401C81B2009168460088FF28F6DB47
:1013D00008BD000000B587B000BF1D48406901216D
:1013E000490408431A4948610846406901214904F3
:1013F0000840019000BF00BF00BF15484069084386
:101400001349486108464069012149040840019098
:1014100000BF00BF08120290112003900120049029
:101420000320059002A90920C006FEF787FF0120CE
:101430008002029011200390012004900320059067
:1014400002A90920C006FEF779FF07B000BD000021
:101450000010024000B587B000BF1248406901216A
:10146000490408430F49486108464069012149047D
:101470000840019000BF00BFC811029000200390F7
:10148000012004900320059002A90920C006FEF760
:1014900055FF012291020920C006FFF74CF807B062
:1014A00000BD00000010024000B587B000BF124828
:1014B00040690121490408430F49486108464069D1
:1014C000012149040840019000BF00BFC8110290EB
:1014D00011200390012004900320059002A9092007
:1014E000C006FEF72BFF012291020920C006FFF77C
:1014F00022F807B000BD00000010024010B5012224
:1015000091020920C006FFF716F8FFF754FF0122E9
:1015100051020920C006FFF70EF8FFF74CFF00222A
:10152000012189020920C006FFF705F8FFF743FFF4
:101530000022012149020920C006FEF7FCFF10BD70
:1015400010B50022012189020920C006FEF7F3FF31
:10155000FFF731FF012251020920C006FEF7EBFF21
:10156000FFF729FF012291020920C006FEF7E3FFE1
:10157000FFF721FF10BD70B50446002626E080204D
:101580002040002806D0012291020920C006FEF763
:10159000D2FF06E00022012189020920C006FEF7E1
:1015A000CAFF6006040EFFF706FF01225102092060
:1015B000C006FEF7C0FFFFF7FEFE00220121490230
:1015C0000920C006FEF7B7FF701CC6B2082ED6DB96
:1015D000FFF740FFFFF7EFFE012251020920C0068E
:1015E000FEF7A9FFFFF7E7FEFFF7E5FEFFF7E3FED3
:1015F000FFF7E1FEFFF7DFFEFFF7DDFEFFF7DBFEA3
:10160000FFF7D9FEFFF7D7FEFFF7D5FEFFF7D3FEB2
:10161000012189020920C006FEF784FF002801D0BD
:10162000002500E001250022012149020920C00611
:10163000FEF781FFFFF738FF284670BD704710B5F1
:10164000FEF786FF10BD30B591B030216846FEF739
:10165000A5FD00240D94012003900E940225102076
:1016600009940490009505200F94C0040A900C94EE
:1016700008950B946846FFF719F907200C900E9413
:1016800001210D950F940CA8FEF7F2FF11B030BDAB
:1016900070470000FEB5020AC0B20E0ACFB2019236
:1016A0000090002240213148FEF745FF0924E4065E
:1016B0006069FF252D022840606160696061606992
:1016C000284060616069019A104360610022012135
:1016D0002648FEF730FF012211462448FEF72BFF73
:1016E000606928406061606960616069284060618C
:1016F0006169009801436161002201211B48FEF7E6
:101700001AFF012211461948FEF715FF0122402158
:101710001648FEF710FF60692840606160696061EB
:101720006069284060616069304360610022012186
:101730000E48FEF700FF012211460C48FEF7FBFEA3
:10174000606928406061606960616069284060612B
:10175000606938436061002201210448FEF7EBFE16
:10176000012211460148FEF7E6FEFEBD00040048D6
:10177000F8B5060AC7B2002240211948FEF7DBFE81
:101780000924E4066069FF252D0228406061606934
:101790006061606928406061606930436061002277
:1017A00001210F48FEF7C7FE012211460C48FEF743
:1017B000C2FE6069284060616069606160692840BC
:1017C0006061606938436061002201210448FEF7CE
:1017D000B2FE012211460248FEF7ADFEF8BD000040
:1017E00000040048F8B582B28BB2040C0D0C104610
:1017F0005843002126465E43370C36048019794150
:1018000016466E43370C36048019794126466E43DE
:101810008919F8BD10B5002819DB1A4A03231B02E9
:10182000D21883089B00D2588307DC0EFF23A34005
:101830009A438B071B0E8407E40EA3401A43114BF7
:10184000032424021B198408A4001A5118E00E4A2C
:1018500003071B0F083B9B089B00D2588307DC0E35
:10186000FF23A3409A438B071B0E8407E40EA3407B
:101870001A43054B0407240F083CA408A4001A517E
:1018800010BD000000E100E01CED00E002E008C82F
:10189000121F08C1002AFAD170477047002001E0EA
:1018A00001C1121F002AFBD170470000FEF758FE4D
:1018B000FFF7C9FEFFF75AFCFFF7DCFAC820FEF776
:1018C00013FDC820FEF710FDFFF70DFC0A490028A4
:1018D00008700FD07D20C000FEF706FDFFF7B4FBB7
:1018E0000120FFF7E7FC0120FFF7CCFC0120FFF708
:1018F00031FCFEE7FEE700000000002000000000D1
:1019000000000000010203040607080900000000AF
:101910000102030434190008000000201400000034
:101920008C18000848190008140000200404000066
:101930009C180008000000000100000004000000E6
:081940000000000000127A0013
:04000005080000B13E
:00000001FF
