:020000040800F2
:1000000040040020C50000088D1300084D0C0008B6
:1000100000000000000000000000000000000000E0
:100020000000000000000000000000001D19000892
:1000300000000000000000001D170008831D0008DC
:10004000D700000800000000D7000008D700000813
:10005000D7000008D7000008D7000008990300085F
:1000600000000000D7000008D7000008D7000008F3
:10007000D7000008D7000008D700000800000000E3
:10008000D70000080000000000000000D7000008B2
:1000900000000000D7000008D7000008D7000008C3
:1000A00000000000D700000800000000D700000892
:1000B0000348854600F08EF800480047731E00088C
:1000C000400400200448804704480047FEE7FEE75C
:1000D000FEE7FEE7FEE7FEE7DD1D0008B1000008D1
:1000E00030B50B46014600202022012409E00D46D0
:1000F000D5409D4205D31D469540491B2546954058
:1001000040191546521E002DF1DC30BDF0B51FB46C
:100110000646002082B005464024019100901BE075
:10012000019922460F46304600F020F8049A059BBC
:10013000801A994110D310461946224600F039F82A
:10014000361A8F410197224601200021009F00F0BE
:1001500030F838184D4100902046641E0028DFDC3E
:10016000019B00982946324607B0F0BD10B5202A01
:1001700004DB0846203AD040002110BD0B46D34096
:10018000D0402024A21A91400843194610BDD2B293
:1001900001E00270401C491EFBD270470022F6E7C6
:1001A00010B513460A4604461946FFF7F0FF2046ED
:1001B00010BD10B5202A04DB0146203A91400020F2
:1001C00010BD914020239C1A0346E3401943904000
:1001D00010BD0000064C0125064E05E0E36807CC83
:1001E0002B430C3C98471034B442F7D3FFF764FF1D
:1001F0009C1E0008BC1E000800210122102806D009
:10020000202803D1034842704180017070470148A3
:10021000001FF8E736000020074900200B7802464F
:10022000002B02D008780A7070470349091D0B782B
:10023000002BF7D17047000032000020F0B51F48B6
:1002400087B04269012189040A43426142690A4038
:10025000059242690A4342614069012508400590C0
:100260001020174C03266A4671C2164F694638465D
:1002700000F00AF92020009001AA70C269463846B1
:1002800000F002F900220321072000F021FA0022E9
:100290000321072000F01CFA072000F00DFA0720C8
:1002A00000F00AFA08490020488048700870091DCB
:1002B00048804870087007B0F0BD00000010024090
:1002C000000021100004004832000020F8B51E4C48
:1002D0006078012702260025012817D110211B482C
:1002E00000F08AF90028608803D0192808D8277000
:1002F0000AE0401C60806088322807D3267003E043
:1003000060883228FAD22570657065800E4C241DF5
:100310006078012817D110210C4800F06DF90028F1
:10032000608803D0192808D827700AE0401C608034
:100330006088322807D3267003E060883228FAD21A
:10034000257065706580F8BD32000020000400480B
:1003500010B5FFF761FF012804D0022801D101F098
:100360006DF810BD01F076F8012802D001F060F8B8
:1003700010BD01F07FF910BD10B5064C2078401C6F
:1003800020702078142803D3FFF7A0FF00202070EE
:1003900010BD00003000002010B523484169C90697
:1003A00001D5102003E04169890603D5202000F023
:1003B0005FF810BD4169490601D54020F7E7416962
:1003C000090601D58020F2E74169C90502D5FF2061
:1003D0000130ECE74169890502D501204002E6E7DA
:1003E0004169490502D501208002E0E7416909051C
:1003F00002D50120C002DAE74169C90402D5012013
:100400000003D4E74169890402D501204003CEE707
:100410004169490402D501208003C8E7406900040E
:10042000C7D50120C003C2E70004014070B50446EF
:1004300000F0EEF80546601C02D00448007824184D
:1004400000F0E6F8401BA042FAD370BD0000002087
:10045000012110B5C902884202D101F079F810BD1E
:10046000102801D02028FAD1FFF7C6FE10BD0000E9
:1004700010B504494A69024202D04861FFF7E8FF1B
:1004800010BD000000040140FCB500230124A1E0E0
:1004900027462A469F403A4073D04D68012D05D02B
:1004A000022D03D0112D01D0122D16D185680326FF
:1004B000AC465D00AE46AE406546B543AC46CE6840
:1004C0007546AE4065462E43866046680D79BE434C
:1004D000ED06ED0F9D4035434560C6685F0003257E
:1004E000BD40AE46AE4335468E68BE402E43C66024
:1004F0004E68022E01D0122E14D1DE08B600361836
:100500000196366A5D07B446EE0E0F25B54000969B
:100510006646AE43B4460D69009EB54066462E431E
:10052000019D2E6206687546AE430D79AD07AD0F8D
:10053000BD40354305604D68ED004AD5284DAE6994
:100540002643AE61AD699E08ED07ED0F0095254D80
:10055000B6007519AC46AD689E07360F0F27B74039
:10056000BD430927FF06B84201D1002710E01E4F06
:10057000B84201D101270BE01C4FB84202D102273B
:1005800006E026E01A4FB84201D1032700E0052714
:10059000B7402F436546AF60164E35684F689543A8
:1005A000FF0300D51543356075684F689543BF0359
:1005B00000D515437560B5684F689543FF0200D5B7
:1005C0001543B560F5684F689543BF0200D51543E4
:1005D000F5605B1C0A681546DA4000D058E7FCBDA0
:1005E00000100240000001400004004800080048DC
:1005F000000C0048000401400069084000D00120C0
:100600007047002A01D08161704781627047000005
:10061000014880687047000000000020024881689F
:1006200002788918816070470000002010B50648E4
:100630000168102211430160002000F007F800F06B
:1006400027F8002010BD00000020024070B50446CD
:100650000D4D7D202978C000FFF742FD01460B4873
:100660000068FFF73DFD00F0D9FA002809D1042CFD
:1006700007D200222146401E00F02AF800206C60BC
:1006800070BD012070BD0000000000200C000020A3
:1006900008B50848816901221143816181691140CF
:1006A0000091C26901040A43C261C0690840009018
:1006B00008BD000000100240002805DBC106C90E7D
:1006C00001208840014908607047000000E100E017
:1006D00010B501F09DFB10BD0A4B1A6892089200FC
:1006E00002431A6008480369042213430361012985
:1006F00006D040BF20BF20BF016991430161704710
:1007000030BFF9E70070004000ED00E0F8B50F469B
:10071000060059D03A4D2868C007C00FB84209D228
:10072000286840084000384328602868C007C00F88
:10073000B84249D13068334C81070CD5400704D505
:10074000606807210902084360606068F0218843FF
:10075000B168084360603078C00726D0706801280F
:100760000ED0216802280ED0890700292CDA616892
:100770008908890001436160FFF74AFF00900DE09E
:1007800021688903F1E78901EFE7FFF741FF00994D
:10079000411A1D48814201D90320F8BD60680C212F
:1007A0000840716889008842EFD12868C007C00FEF
:1007B000B8420BD9286840084000384328602868B0
:1007C000C007C00FB84201D00120F8BD3078400703
:1007D00006D56068072109028843F1680843606014
:1007E00000F018F86168094A0906090F515CC84011
:1007F000074908600020FFF729FF0020F8BD00002E
:100800000020024000100240881300008C1E0008E7
:100810000C00002010B514A30FCB88B06C460FC499
:1008200015A30FCB0FC4184A51680C200B46034088
:100830001648042B16D0082B14D18B021B0F6C46C4
:10084000E45CD26A04AB1207120F9A5CC90305D5A7
:1008500000231946FFF75AFC214601E020460C49C7
:1008600001F0BDFA08B010BD02030405060708092F
:100870000A0B0C0D0E0F10100102030405060708E9
:10088000090A0B0C0D0E0F100010024000127A0026
:1008900000093D00FEB5040070D02078DC4DC00793
:1008A0004AD068680007800F012807D068680007F1
:1008B000800F022809D16868C00306D52868800324
:1008C0003AD560680028E7D036E06168012914D085
:1008D00001208004002901D0052914D02A680121B3
:1008E00009048A432A6029688143296060680028D6
:1008F00016D0FFF78DFE06460EE028680121090498
:1009000008432860F2E7296801432960F5E7FFF70B
:100910007FFE801B64286ED828688003F7D50BE023
:10092000FFF776FE064604E0FFF772FE801B6428A0
:10093000F1D828688003F7D42078012680070028A2
:100940003CDA68680007800F07D068680007800FEE
:10095000022809D16868C00306D42868800716D524
:10096000E06801280AD112E0E0680028286816D063
:1009700030432860FFF74CFE074605E043E1FFF7F0
:1009800047FEC01B0228C6D828688007F7D528680C
:10099000F82188432169C900084328600EE0400817
:1009A00040002860FFF734FE074604E0FFF730FE02
:1009B000C01B0228AFD828688007F7D4207800072A
:1009C00022D5E0690028686A0ED030436862FFF7DC
:1009D0001FFE074604E0FFF71BFEC01B02289AD843
:1009E000686A8007F7D50FE0400840006862FFF7AB
:1009F0000FFE074605E09DE0FFF70AFEC01B022838
:100A000089D8686A8007F7D420780427400700282F
:100A100060DA00200190E869C00008D4E969B806EE
:100A20000143E961E96901400120009101907948A1
:100A30000168C90511D40168821511430160FFF7EF
:100A4000E7FD009005E0FFF7E3FD0099401A6428F8
:100A500070D870480068C005F5D5A06801280AD094
:100A6000002801D0052810D0286A400840002862DC
:100A7000286AB84301E0286A30432862A068002849
:100A800012D0FFF7C5FD00900AE0286A38432862BB
:100A9000F1E7FFF7BDFD0099411A5F48814249D84F
:100AA000286A8007F5D50DE0FFF7B2FD009006E05B
:100AB000FFF7AEFD0099411A574881423AD8286A9B
:100AC0008007F5D40198002804D0E96901200007C7
:100AD0008143E9612078C00635D5606901280CD0D2
:100AE000401D686B23D038436863686B4008400042
:100AF0006863FFF78DFD064622E0686B3843686344
:100B0000686B30436863FFF783FD064604E0FFF738
:100B10007FFD801B02285BD8686B8007F7D5686B68
:100B2000F8218843A169C900084368630BE0B84312
:100B30006863F4E74CE0FFF76BFD801B022847D8A1
:100B4000686B8007F7D4206A00285ED069680907BF
:100B5000890F022942D0012636060228286805D0CE
:100B6000B0432860FFF754FD044633E0B0432860EB
:100B7000FFF74EFD074604E0FFF74AFDC01B0228C1
:100B800026D828688001F7D4E86AE16A00090001E4
:100B90000843E862616AA06A084369683D2212045A
:100BA000914308436860286830432860FFF730FDB0
:100BB000044604E0FFF72CFD001B022808D8286833
:100BC0008001F7D521E0FFF723FD001B022801D9A2
:100BD0000320FEBD28688001F5D416E00128F8D076
:100BE0006868E96A01221204636A02409A420AD1E3
:100BF0000907E26A090F914205D10F2189040840D3
:100C0000A16A884201D00120FEBD0020FEBD000087
:100C1000001002400070004088130000094910B520
:100C2000401E884201D9012010BD074C606103219C
:100C3000081F01F0EDF80020A061072020610020CE
:100C400010BD0000FFFFFF0000E000E0FEE710B570
:100C5000CF2000F065FB002000F04EFBC12000F02B
:100C60004BFB302000F048FBED2000F059FB6420E6
:100C700000F042FB032000F03FFB122000F03CFBA1
:100C8000812000F039FBCB2000F04AFB392000F036
:100C900033FB2C2000F030FB002000F02DFB342033
:100CA00000F02AFB022000F027FBEA2000F038FBCE
:100CB000002000F021FB002000F01EFBE82000F0E7
:100CC0002FFB852000F018FB102000F015FB792089
:100CD00000F012FBC02000F023FB232000F00CFBEF
:100CE000C12000F01DFB112000F006FBC22000F027
:100CF00017FB112000F000FBC52000F011FB3D2088
:100D000000F0FAFA302000F0F7FAC72000F008FBF4
:100D1000AA2000F0F1FA3A2000F002FB552000F082
:100D2000EBFA362000F0FCFA082000F0E5FAB120DA
:100D300000F0F6FA002000F0DFFA112000F0DCFAF3
:100D4000B62000F0EDFA0A2000F0D6FAA22000F05A
:100D5000D3FAF22000F0E4FA002000F0CDFAF720F8
:100D600000F0DEFA202000F0C7FAF12000F0D8FAF7
:100D7000012000F0C1FA302000F0BEFA262000F079
:100D8000CFFA012000F0B8FAE02000F0C9FA0F20F5
:100D900000F0B2FA3F2000F0AFFA2F2000F0ACFADA
:100DA0000C2000F0A9FA102000F0A6FA0A2000F0AA
:100DB000A3FA532000F0A0FAD52000F09DFA4020BD
:100DC00000F09AFA0A2000F097FA132000F094FA43
:100DD000032000F091FA082000F08EFA032000F0C2
:100DE0008BFA002000F088FAE12000F099FA002048
:100DF00000F082FA002000F07FFA102000F07CFA68
:100E0000032000F079FA0F2000F076FA052000F0B8
:100E100073FA2C2000F070FAA22000F06DFA3F2047
:100E200000F06AFA052000F067FA0E2000F064FA7C
:100E30000C2000F061FA372000F05EFA3C2000F050
:100E40005BFA0F2000F058FA112000F069FAFF2237
:100E50004132F021682000F021FA6420FFF7E6FA21
:100E6000292000F05DFA10BDF0B507461C46154676
:100E70000E462A2000F054FA380A00F03DFAF8B283
:100E800000F03AFA280A00F037FAE8B200F034FA33
:100E90002B2000F045FA300A00F02EFAF0B200F0F4
:100EA0002BFA200A00F028FAE0B200F025FA2C20F4
:100EB00000F036FAF0BD0000F0B5694887B042692D
:100EC000012189040A43426142690A40059242694C
:100ED0000A43426142690A400592426909010A4394
:100EE000426142690A40059242690A43426142698D
:100EF0000A400592426949110A43426142690A4027
:100F0000059242690A43426142690A400592426978
:100F10000A43426142690A40059242690A434261BA
:100F200042690A40059242690A43426142690A40A5
:100F3000059242690A43426142690A400592426948
:100F40000A43426142690A40059242690A4342618A
:100F500042690A40059242690A434261406901249C
:100F6000084005900025032640206A4671C2694664
:100F70003C48FFF789FA01A870C0694639480094D7
:100F8000FFF782FA01A870C0694637480094FFF75E
:100F90007BFA02206A4671C269463348FFF774FA49
:100FA00020026A4671C20927FF0669463846FFF7E4
:100FB0006BFA01A870C0694638460094FFF764FADE
:100FC00002206A4671C269463846FFF75DFA04207E
:100FD0006A4671C269463846FFF756FA08206A46E3
:100FE00071C269463846FFF74FFA10206A4671C24F
:100FF00069463846FFF748FA20206A4671C26946BA
:101000003846FFF741FA40206A4671C269463846C1
:10101000FFF73AFA80206A4671C269463846FFF700
:1010200033FA7869FF210902084078617869FF2165
:10103000084378610C49022088618C610948846109
:101040002002B8621420FFF7F1F92002B8611420E1
:10105000FFF7ECF904490220886207B0F0BD0000F8
:10106000001002400004004800140048F8B5010ACE
:101070000091C7B2FF220021EF2340320846FFF75C
:10108000F3FE0025FF26413600243946009800F083
:101090003DF9641CA4B2B442F7D36D1CADB2F02D7F
:1010A000F2D3F8BD70B5414886B0426901214904C8
:1010B0000A43426142690A40059242690A43426119
:1010C00042690A40059242690A43426142690A4004
:1010D000059242690A43426142690A4005924269A7
:1010E0000A43426142690A40059242690A434261E9
:1010F00042690A40059242690A43426142690A40D4
:10110000059242690A434261406900240840059003
:10111000012009260325F606009001940395029408
:1011200069463046FFF7B0F9022000900194694605
:10113000039502943046FFF7A7F90420009001942C
:101140006946039502943046FFF79EF90820009007
:1011500001946946039502943046FFF795F91020F3
:10116000009001946946039502943046FFF78CF98C
:101170002020009001946946039502943046FFF7C1
:1011800083F940200090019469460395029430460B
:10119000FFF77AF980200090019469460395029444
:1011A0003046FFF771F906B070BD00000010024034
:1011B000F0B5394887B04269012149040A434261C8
:1011C00042690A40059242690A43426142690A4003
:1011D000059242690A43426142690A4005924269A6
:1011E0000A43426142690A40059242690A434261E8
:1011F00042690A40059242690A43426142690A40D3
:10120000059242690A43426142690A400592426975
:101210000A434261406901240840059000250326E5
:1012200001A970C10927FF06694638460094FFF7F7
:101230002BF902206A4671C269463846FFF724F945
:1012400004206A4671C269463846FFF71DF9082036
:101250006A4671C269463846FFF716F910206A4699
:1012600071C269463846FFF70FF920206A4671C2FD
:1012700069463846FFF708F940206A4671C2694658
:101280003846FFF701F980206A4671C26946384640
:10129000FFF7FAF807B0F0BD0010024070B506463F
:1012A00015460C46362000F03BF8304600F024F896
:1012B0002A2000F035F8002000F01EF8002000F091
:1012C0001BF8641E2004000E00F016F8E0B200F0D7
:1012D00013F82B2000F024F8002000F00DF8002077
:1012E00000F00AF86D1E2804000E00F005F8E8B2C0
:1012F00000F002F870BD000000B5034A4021916182
:1013000000F032F800BD00000004004800B5034BB7
:1013100040229A6100F00EF800BD00000004004871
:1013200000B5034A4021916200F01EF800BD0000A4
:101330000004004830B50922D2065369FF24240274
:1013400023405361536903435361064B0120986264
:10135000986155692540556154690C435461986200
:10136000986130BD000400480921C9064A69FF237D
:101370001B021A404A614A6902434A61024901203C
:10138000886288617047000000040048704708B513
:101390000020694608807D21C90003E06A46108864
:1013A000401C1080684600888842F7D308BD10B5FD
:1013B00000F0C0F98021122000F009F8002805D0C3
:1013C0000A20FFF733F800F0AAFA012010BD70B52B
:1013D0000C46054600F020FA422000F058FA00289A
:1013E00011D0FFF7D4FF284600F051FA00280AD0A8
:1013F000FFF7CDFF204600F04AFA002803D000F0A6
:101400002BFA012070BD00F027FA002070BD00000B
:1014100010B50549002800D0044848600920024959
:10142000C006FFF731F810BD1C000020000021109D
:1014300001490120887070471000002001490120F7
:10144000C870704710000020014908780871704783
:101450001000002001484078704700001000002074
:10146000F0B52C4887B04269012189040A434261E2
:1014700042690A40059242690A43426142690A4050
:10148000059243694A10134343614369134005932E
:1014900042690A43426140690325084005900220E1
:1014A000012400266A46039551C21B4F69463846FF
:1014B000FEF7EAFF80206A46039551C26946384626
:1014C000FEF7E2FF08206A46039551C26946384696
:1014D000FEF7DAFFE0020090104801AA31C20920AD
:1014E0006946C006FEF7D0FF002202210720FFF761
:1014F000EFF80720FFF7E0F80020FFF789FF002052
:1015000000F01AF8002000F00BF8002000F026F898
:1015100007B0F0BD00100240000400480000211098
:101520000221044A002803D0012800D191627047AB
:1015300091617047000400488021044A002803D0CC
:10154000012800D191627047916170470004004802
:101550000149012008707047100000200821044A4A
:10156000002803D0012800D1916270479161704733
:101570000004004810B5FFF773FF0120FFF7EEFFEE
:10158000FFF79AFCFFF763FB0A48FFF76FFDFFF7D1
:1015900089FDFFF70CFF0120FFF7CEFF0120FFF7C9
:1015A000BFFF0120FFF734FF0348012141700349C9
:1015B000816010BDFFFF0000100000201027000018
:1015C00070B5264886B04269012149040A43426148
:1015D00042690A400592426949000A4342614269F0
:1015E0000A400592426909010A4342614069084084
:1015F00005900020FFF70CFF0020FFF791FF00206F
:10160000FFF79AFF0020FFF7A9FF032514480024E5
:1016100002266A46039551C209206946C006FEF7B4
:1016200033FFE3206A46039551C269460D48FEF731
:101630002BFF039569460C48029600950194FEF72E
:1016400023FF0A4D6C70AC6001210846FFF744F897
:1016500000F09FFB0648A86006B070BD0010024075
:10166000FF9FFFFF00040048001400481000002006
:1016700010270000024901488860704710270000C9
:101680001000002070B5FFF7DFFE0025194C01287F
:1016900022D10020FFF7BCFEFFF78AFD0020FFF7F4
:1016A0003FFF0020FFF748FFFF220021EF234032D9
:1016B0000846FFF7D9FB1048402181610121816272
:1016C0000846FFF72DFF0120FFF736FFFFF7EAFC82
:1016D0000120FFF79DFE2570E078012802D1E5701A
:1016E000FFF76EFFA078012802D1A570FFF742FF37
:1016F00070BD00001000002000040048064881680A
:10170000002907D08168491E81608168002901D1C4
:101710000121C1707047000010000020704708B51B
:101720000020694608800888AA2802D20888401C40
:10173000F8E708BDF0B5184887B0426901214904AF
:101740000A43426142690A40059242690A43426182
:1017500040690C12084005901125012603276A46AE
:10176000F0C209206946C006FEF78EFE60006A4698
:10177000E1C209206946C006FEF786FE0920012263
:101780002146C006FEF73DFF012209209102C00656
:10179000FEF737FF07B0F0BD0010024030B50F482C
:1017A00087B04269012149040A4342614069092521
:1017B0000840CC11ED060590012221462846FEF78F
:1017C00020FF00200190012002900320039000944C
:1017D00069462846FEF758FE07B030BD00100240AB
:1017E00000B50C4887B04269012149040A434261AF
:1017F000406908400590C811009011200190012017
:1018000002900320039009206946C006FEF73CFEC3
:1018100007B000BD0010024070B5012209259402F6
:10182000ED0621462846FEF7ECFE0122560231461F
:101830002846FEF7E6FEFFF772FF00222146284603
:10184000FEF7DFFEFFF76BFF002231462846FEF76A
:10185000D8FEFFF764FF70BD70B501240925A4020E
:10186000ED06002221462846FEF7CBFEFFF757FF84
:10187000012251022846FEF7C4FEFFF750FF012265
:1018800021462846FEF7BDFEFFF749FF70BDF8B5BB
:1018900009260024F606012705467F02280601D501
:1018A000012200E00022012189023046FEF7A9FE54
:1018B0006806050EFFF733FF012239463046FEF772
:1018C000A0FEFFF72CFF002239463046FEF799FEB6
:1018D000FFF725FF641CE4B2082CDFD3FFF75EFF9F
:1018E000FFF71DFF012239463046FEF78AFEFFF75B
:1018F00016FF012189023046FEF77EFE002801D046
:10190000002400E00124002239463046FEF779FE2B
:10191000FFF766FFFFF703FF2046F8BD704710B5DD
:1019200004213A20FFF753FDD0214020FFF74FFD5F
:1019300014211220FFF74BFD80213220FFF747FDD5
:1019400016211720FFF743FD04211820FFF73FFD64
:1019500002211920FFF73BFD7B211A20FFF737FDFD
:1019600006210320FFF733FD04210C20FFF72FFD94
:1019700000213E20FFF72BFD3A217020FFF727FDC5
:1019800035217120FFF723FD11217220FFF71FFD84
:1019900000217320FFF71BFD0221A220FFF717FD96
:1019A00081211120FFF713FD20217A20FFF70FFD81
:1019B0001C217B20FFF70BFD28217C20FFF707FD72
:1019C0003C217D20FFF703FD55217E20FFF7FFFC22
:1019D00068217F20FFF7FBFC76218020FFF7F7FCD2
:1019E00080218120FFF7F3FC88218220FFF7EFFCA4
:1019F0008F218320FFF7EBFC96218420FFF7E7FC83
:101A0000A3218520FFF7E3FCAF218620FFF7DFFC51
:101A1000C4218720FFF7DBFCD7218820FFF7D7FC04
:101A2000E8218920FFF7D3FCE0211320FFF7CFFC4A
:101A300000210846FFF7CBFC00211020FFF7C7FC70
:101A400000210D20FFF7C3FC28211420FFF7BFFC65
:101A50000521A520FFF7BBFC0721AB20FFF7B7FC52
:101A600075212420FFF7B3FC63212520FFF7AFFC8D
:101A7000A5212620FFF7ABFC78219F20FFF7A7FCCC
:101A80006821A020FFF7A3FC0321A120FFF79FFC02
:101A9000DF21A620FFF79BFCDF21A720FFF797FCA3
:101AA000F021A820FFF793FC9021A920FFF78FFCDD
:101AB0009421AA20FFF78BFCE5211320FFF787FC78
:101AC00061210E20FFF783FC4B210F20FFF77FFCE5
:101AD00002211620FFF77BFC27211E20FFF777FC51
:101AE00002212120FFF773FC91212220FFF76FFCD8
:101AF00007212920FFF76BFC0B213320FFF767FC40
:101B00000B213520FFF763FC1D213720FFF75FFC19
:101B100071213820FFF75BFC2A213920FFF757FCA1
:101B200078213C20FFF753FC40214D20FFF74FFC6C
:101B300020214E20FFF74BFC00216920FFF747FCD6
:101B400060216B20FFF743FC19217420FFF73FFC55
:101B50004F218D20FFF73BFC00218E20FFF737FC43
:101B600000218F20FFF733FC00219020FFF72FFC8E
:101B700000219120FFF72BFC00219220FFF727FC8A
:101B800000219620FFF723FC80219A20FFF71FFCFD
:101B90008421B020FFF71BFC0C21B120FFF717FCBC
:101BA0000E21B220FFF713FC8221B320FFF70FFCB8
:101BB0000A21B820FFF70BFC14214320FFF707FC94
:101BC000F0214420FFF703FC34214520FFF7FFFB01
:101BD00058214620FFF7FBFB28214720FFF7F7FBA2
:101BE0003A214820FFF7F3FB88215920FFF7EFFB4C
:101BF00088215A20FFF7EBFB44215B20FFF7E7FB2E
:101C000067215C20FFF7E3FB49215D20FFF7DFFB45
:101C10000E215E20FFF7DBFB04216420FFF7D7FBDA
:101C200020216520FFF7D3FB05216620FFF7CFFBBE
:101C300004219420FFF7CBFB08219520FFF7C7FB79
:101C40000A216C20FFF7C3FB55216D20FFF7BFFB76
:101C500011216E20FFF7BBFB9F216F20FFF7B7FB21
:101C600040216A20FFF7B3FB40210120FFF7AFFBC3
:101C700040210220FFF7ABFBE7211320FFF7A7FB72
:101C800000211520FFF7A3FB80214F20FFF79FFBCA
:101C900080215020FFF79BFB00215120FFF797FB8D
:101CA00022215220FFF793FB5E215320FFF78FFB89
:101CB00080215420FFF78BFB9E215820FFF787FBE4
:101CC00008214120FFF783FB00213F20FFF77FFB26
:101CD00005217520FFF77BFBE1217620FFF777FBDD
:101CE00000214C20FFF773FB01217720FFF76FFBEA
:101CF000C2213D20FFF76BFB09214B20FFF767FB5B
:101D00006021C920FFF763FB38214120FFF75FFB0B
:101D100040215620FFF75BFB11213420FFF757FBD2
:101D200002213B20FFF753FB8921A420FFF74FFB43
:101D300000219620FFF74BFB30219720FFF747FB50
:101D400020219820FFF743FB30219920FFF73FFB2C
:101D500084219A20FFF73BFB29219B20FFF737FBCB
:101D600003219C20FFF733FB4C219D20FFF72FFB25
:101D70003F219E20FFF72BFB04217820FFF727FB54
:101D800010BD10B5FEF74AFCFFF7B8FCFEF7F4FAF9
:101D900010BD30B591B030216846FEF7FFF9002440
:101DA0000D94012003900E940225102009940490B4
:101DB000009505200F94C0040A900C9408950B948C
:101DC0006846FEF767FD07200C900E9401210D95E3
:101DD0000F940CA8FEF79AFC11B030BD7047F8B50F
:101DE000040C8BB2264682B25E430D0C1046370CB3
:101DF0005843360480190021794116466E43370C4A
:101E000036048019794126466E438919F8BD0000D1
:101E10008307FF22DB0E9A408907090E99400028AC
:101E200008DB830809489B001B1818689043084387
:101E3000186070470007000F0838830804489B00AB
:101E40001B18D86990430843D861704700E400E04C
:101E500000ED00E002E008C8121F08C1002AFAD114
:101E600070477047002001E001C1121F002AFBD11A
:101E70007047FEF7DBFBFFF78CFFFFF77BFBFEF7FE
:101E8000DDF9FFF7FFFBFEF763FAFAE70000000059
:101E9000000000000102030406070809BC1E000838
:101EA000000000203C000000541E0008F81E00083E
:101EB0003C00002004040000641E00080100000033
:101EC000040000000000000000127A000000000082
:101ED00000000000000000000008000000000000FA
:101EE00001000000030000000000000000000000EE
:081EF0000000000000000000EA
:04000005080000B13E
:00000001FF
