:020000040800F2
:1000000010040020C5000008290D00087D0A000822
:1000100000000000000000000000000000000000E0
:10002000000000000000000000000000690F000850
:1000300000000000000000000D0F00086B0F00081A
:10004000D700000800000000D7000008D700000813
:10005000D7000008D7000008D7000008F901000801
:1000600000000000D7000008D7000008D7000008F3
:10007000D7000008D7000008D700000800000000E3
:10008000D70000080000000000000000D7000008B2
:1000900000000000D7000008D7000008D7000008C3
:1000A00000000000D700000800000000D700000892
:1000B0000348854600F08EF8004800479F1A000864
:1000C000100400200448804704480047FEE7FEE78C
:1000D000FEE7FEE7FEE7FEE7BD0F0008B1000008FF
:1000E00030B50B46014600202022012409E00D46D0
:1000F000D5409D4205D31D469540491B2546954058
:1001000040191546521E002DF1DC30BDF0B51FB46C
:100110000646002082B005464024019100901BE075
:10012000019922460F46304600F020F8049A059BBC
:10013000801A994110D310461946224600F039F82A
:10014000361A8F410197224601200021009F00F0BE
:1001500030F838184D4100902046641E0028DFDC3E
:10016000019B00982946324607B0F0BD10B5202A01
:1001700004DB0846203AD040002110BD0B46D34096
:10018000D0402024A21A91400843194610BDD2B293
:1001900001E00270401C491EFBD270470022F6E7C6
:1001A00010B513460A4604461946FFF7F0FF2046ED
:1001B00010BD10B5202A04DB0146203A91400020F2
:1001C00010BD914020239C1A0346E3401943904000
:1001D00010BD0000064C0125064E05E0E36807CC83
:1001E0002B430C3C98471034B442F7D3FFF764FF1D
:1001F000F41A0008141B000810B523484169C90609
:1002000001D5102003E04169890603D5202000F0C4
:1002100057F810BD4169490601D54020F7E741690B
:10022000090601D58020F2E74169C90502D5FF2002
:100230000130ECE74169890502D501204002E6E77B
:100240004169490502D501208002E0E741690905BD
:1002500002D50120C002DAE74169C90402D50120B4
:100260000003D4E74169890402D501204003CEE7A9
:100270004169490402D501208003C8E740690004B0
:10028000C7D50120C003C2E70004014070B5044691
:1002900000F0E0F80546601C02D0044800782418FD
:1002A00000F0D8F8401BA042FAD370BD0000002037
:1002B000012110B5C902884201D100F0C7FD10BD6F
:1002C00010B504494A69024202D04861FFF7F0FFC5
:1002D00010BD000000040140FCB500230124A1E092
:1002E00027462A469F403A4073D04D68012D05D0DD
:1002F000022D03D0112D01D0122D16D185680326B1
:10030000AC465D00AE46AE406546B543AC46CE68F1
:100310007546AE4065462E43866046680D79BE43FD
:10032000ED06ED0F9D4035434560C6685F0003252F
:10033000BD40AE46AE4335468E68BE402E43C660D5
:100340004E68022E01D0122E14D1DE08B6003618E7
:100350000196366A5D07B446EE0E0F25B54000964D
:100360006646AE43B4460D69009EB54066462E43D0
:10037000019D2E6206687546AE430D79AD07AD0F3F
:10038000BD40354305604D68ED004AD5284DAE6946
:100390002643AE61AD699E08ED07ED0F0095254D32
:1003A000B6007519AC46AD689E07360F0F27B740EB
:1003B000BD430927FF06B84201D1002710E01E4FB8
:1003C000B84201D101270BE01C4FB84202D10227ED
:1003D00006E026E01A4FB84201D1032700E00527C6
:1003E000B7402F436546AF60164E35684F6895435A
:1003F000FF0300D51543356075684F689543BF030B
:1004000000D515437560B5684F689543FF0200D568
:100410001543B560F5684F689543BF0200D5154395
:10042000F5605B1C0A681546DA4000D058E7FCBD51
:10043000001002400000014000040048000800488D
:10044000000C004800040140002A01D0816170477F
:1004500081627047014880687047000000000020FA
:100460000248816802788918816070470000002086
:1004700010B506480168102211430160002000F009
:1004800007F800F027F8002010BD0000002002400F
:1004900070B504460D4D7D202978C000FFF720FE81
:1004A00001460B480068FFF71BFE00F0CFFA00285A
:1004B00009D1042C07D200222146401E00F03AF850
:1004C00000206C6070BD012070BD000000000020A5
:1004D0000C00002008B508488169012211438161A0
:1004E000816911400091C26901040A43C261C06977
:1004F0000840009008BD000000100240002809DB01
:10050000C106C90E0120884003490860BFF34F8F20
:10051000BFF36F8F7047000080E100E0002805DB2B
:10052000C106C90E012088400149086070470000DB
:1005300000E100E010B501F081FA10BDF8B50F46FA
:10054000060059D03A4D2868C007C00FB84209D2FA
:10055000286840084000384328602868C007C00F5A
:10056000B84249D13068334C81070CD5400704D5D7
:10057000606807210902084360606068F0218843D1
:10058000B168084360603078C00726D070680128E1
:100590000ED0216802280ED0890700292CDA616864
:1005A0008908890001436160FFF754FF00900DE066
:1005B00021688903F1E78901EFE7FFF74BFF009915
:1005C000411A1D48814201D90320F8BD60680C2101
:1005D0000840716889008842EFD12868C007C00FC1
:1005E000B8420BD928684008400038432860286882
:1005F000C007C00FB84201D00120F8BD30784007D5
:1006000006D56068072109028843F16808436060E5
:1006100000F018F86168094A0906090F515CC840E2
:10062000074908600020FFF733FF0020F8BD0000F5
:10063000002002400010024088130000E21A000867
:100640000C00002010B514A30FCB88B06C460FC46B
:1006500015A30FCB0FC4184A51680C200B4603405A
:100660001648042B16D0082B14D18B021B0F6C4696
:10067000E45CD26A04AB1207120F9A5CC90305D579
:1006800000231946FFF742FD214601E020460C49B0
:1006900001F0BCF908B010BD020304050607080903
:1006A0000A0B0C0D0E0F10100102030405060708BB
:1006B000090A0B0C0D0E0F100010024000127A00F8
:1006C00000093D00FEB5040070D02078DC4DC00765
:1006D0004AD068680007800F012807D068680007C3
:1006E000800F022809D16868C00306D528688003F6
:1006F0003AD560680028E7D036E06168012914D057
:1007000001208004002901D0052914D02A68012184
:1007100009048A432A6029688143296060680028A7
:1007200016D0FFF797FE06460EE02868012109045F
:1007300008432860F2E7296801432960F5E7FFF7DD
:1007400089FE801B64286ED828688003F7D50BE0EB
:10075000FFF780FE064604E0FFF77CFE801B64285E
:10076000F1D828688003F7D4207801268007002874
:100770003CDA68680007800F07D068680007800FC0
:10078000022809D16868C00306D42868800716D5F6
:10079000E06801280AD112E0E0680028286816D035
:1007A00030432860FFF756FE074605E043E1FFF7B8
:1007B00051FEC01B0228C6D828688007F7D52868D4
:1007C000F82188432169C900084328600EE04008E9
:1007D00040002860FFF73EFE074604E0FFF73AFEC0
:1007E000C01B0228AFD828688007F7D420780007FC
:1007F00022D5E0690028686A0ED030436862FFF7AE
:1008000029FE074604E0FFF725FEC01B02289AD800
:10081000686A8007F7D50FE0400840006862FFF77C
:1008200019FE074605E09DE0FFF714FEC01B0228F5
:1008300089D8686A8007F7D4207804274007002801
:1008400060DA00200190E869C00008D4E969B806C0
:100850000143E961E9690140012000910190794873
:100860000168C90511D40168821511430160FFF7C1
:10087000F1FD009005E0FFF7EDFD0099401A6428B6
:1008800070D870480068C005F5D5A06801280AD066
:10089000002801D0052810D0286A400840002862AE
:1008A000286AB84301E0286A30432862A06800281B
:1008B00012D0FFF7CFFD00900AE0286A3843286283
:1008C000F1E7FFF7C7FD0099411A5F48814249D817
:1008D000286A8007F5D50DE0FFF7BCFD009006E023
:1008E000FFF7B8FD0099411A574881423AD8286A63
:1008F0008007F5D40198002804D0E9690120000799
:100900008143E9612078C00635D5606901280CD0A3
:10091000401D686B23D038436863686B4008400013
:100920006863FFF797FD064622E0686B384368630B
:10093000686B30436863FFF78DFD064604E0FFF700
:1009400089FD801B02285BD8686B8007F7D5686B30
:10095000F8218843A169C900084368630BE0B843E4
:100960006863F4E74CE0FFF775FD801B022847D869
:10097000686B8007F7D4206A00285ED06968090791
:10098000890F022942D0012636060228286805D0A0
:10099000B0432860FFF75EFD044633E0B0432860B3
:1009A000FFF758FD074604E0FFF754FDC01B02287F
:1009B00026D828688001F7D4E86AE16A00090001B6
:1009C0000843E862616AA06A084369683D2212042C
:1009D000914308436860286830432860FFF73AFD78
:1009E000044604E0FFF736FD001B022808D82868FB
:1009F0008001F7D521E0FFF72DFD001B022801D96A
:100A00000320FEBD28688001F5D416E00128F8D047
:100A10006868E96A01221204636A02409A420AD1B4
:100A20000907E26A090F914205D10F2189040840A4
:100A3000A16A884201D00120FEBD0020FEBD000059
:100A4000001002400070004088130000094910B5F2
:100A5000401E884201D9012010BD074C606103216E
:100A6000081F00F0EBFF0020A0610720206100209C
:100A700010BD0000FFFFFF0000E000E0FEE7000007
:100A8000F0B58A4887B04269012189040A4342616E
:100A900042690A40059242690A43426142690A403A
:100AA0000592426909010A43426142690A4005927E
:100AB00042690A43426142690A400592426949110A
:100AC0000A43426142690A40059242690A4342610F
:100AD00042690A40059242690A43426142690A40FA
:100AE000059242690A43426142690A40059242699D
:100AF0000A43426142690A40059242690A434261DF
:100B000042690A40059242690A43426142690A40C9
:100B1000059242690A43426142690A40059242696C
:100B20000A4342614069402708400097059001242C
:100B30000025032601AA70C269465D48FFF7CCFB79
:100B400001A870C069465A480094FFF7C5FB01A888
:100B500070C0694657480094FFF7BEFB02206A4602
:100B600071C269465348FFF7B7FB20026A4671C25B
:100B700009206946C006FFF7AFFB01A870C0092035
:100B80006946C0060094FFF7A7FB02206A4671C2BF
:100B900009206946C006FFF79FFB04206A4671C220
:100BA00009206946C006FFF797FB08206A4671C214
:100BB00009206946C006FFF78FFB10206A4671C204
:100BC00009206946C006FFF787FB20206A4671C2EC
:100BD00009206946C006FFF77FFB01AA009770C293
:100BE00009206946C006FFF777FB80206A4671C27C
:100BF00009206946C006FFF76FFB01220920114654
:100C0000C006FFF721FC022209201146C006FFF7AB
:100C10001BFC042209201146C006FFF715FC082220
:100C200009201146C006FFF70FFC102209201146CB
:100C3000C006FFF709FC202209201146C006FFF775
:100C400003FC402209201146C006FFF7FDFB80226D
:100C500009201146C006FFF7F7FB012202211548C3
:100C6000FFF7F2FB012211461248FFF7EDFB0122CC
:100C700011460F48FFF7E8FB092000222102C006B9
:100C8000FFF7E2FB1420FFF701FB0122092011020C
:100C9000C006FFF7D9FB1420FFF7F8FA0022022163
:100CA0000448FFF7D1FB07B0F0BD00000010024080
:100CB000000400480014004800B50C4887B04269A1
:100CC000012149040A43426140690840059000201F
:100CD0000190029003200390FF20009009206946B4
:100CE000C006FFF7F9FA07B000BD0000001002408F
:100CF00000B50C4887B04269012149040A434261AA
:100D000040690840059001200190002002900320D6
:100D10000390FF20009009206946C006FFF7DCFA27
:100D200007B000BD00100240704710B500F0F0F8A9
:100D3000012010BD10B5002803D00720FFF7EEFBFF
:100D400010BD0720FFF7DAFB10BD0000F0B52C48FE
:100D500087B04269012189040A43426142690A401D
:100D6000059242690A43426142690A400592436919
:100D70004A101343436143691340059342690A4390
:100D800042614069032508400590022001240026A5
:100D90006A46039551C21B4F69463846FFF79CFAD5
:100DA00080206A46039551C269463846FFF794FA97
:100DB00008206A46039551C269463846FFF78CFA07
:100DC000E0020090104801AA31C209206946C0061D
:100DD000FFF782FA002202210720FFF7ABFB072072
:100DE000FFF78CFB0020FFF7A5FF002000F01EF8A6
:100DF000002000F00BF8002000F078F807B0F0BDFC
:100E000000100240000400480000211010B5064BFD
:100E1000002803D0012806D1002200E0012202218F
:100E20001846FFF711FB10BD0004004810B5064B33
:100E3000002803D0012806D1002200E001228021F1
:100E40001846FFF701FB10BD0004004870B50020F4
:100E5000FFF770FFFFF74CFF224C012202212046D2
:100E6000FFF7F2FA012280212046FFF7EDFA002178
:100E7000202000F0CDF8FF2540352946212000F044
:100E8000C7F80021502000F0C3F8EF21512000F0F6
:100E9000BFF80021522000F0BBF82946532000F093
:100EA000B7F81149032000F0B3F8222000F0A2FAAD
:100EB000012240212046FFF7C7FA002201212046E7
:100EC000FFF7C2FA002202212046FFF7BDFA0022F6
:100ED00080212046FFF7B8FAFFF7EEFE0120FFF76A
:100EE00029FF70BD000400481810000010B5064B23
:100EF000002803D0012806D1002200E001220821A9
:100F00001846FFF7A1FA10BD000400487047000022
:100F100070B5144886B04269012149040A43426110
:100F200042690A40059242690A43426140690024CD
:100F300008400590081209260325F6060090019442
:100F40006946039502943046FFF7C6F901208002F6
:100F5000009001946946039502943046FFF7BCF96E
:100F600006B070BD00100240704710B5FFF778FA68
:100F700010BD30B591B030216846FFF70FF900245D
:100F80000D94012003900E940225102009940490E2
:100F9000009505200F94C0040A900C9408950B94BA
:100FA0006846FFF78FFB07200C900E9401210D95EA
:100FB0000F940CA8FFF7C2FA11B030BD704770B59E
:100FC000064600242146502000F022F8EF2151204F
:100FD00000F01EF80021522000F01AF8FF214031E5
:100FE000532000F015F80021202000F011F8002116
:100FF000212000F00DF8222000F0FCF94B25AD0275
:10100000304600F009FC641CAC42F9D370BD00000E
:10101000F8B5070AC6B20D0ACCB200224021F44846
:10102000FFF712FA092000220121C006FFF70CFA8F
:10103000092000220221C006FFF706FA092000223B
:101040000421C006FFF700FA092000220821C0068B
:10105000FFF7FAF9092000221021C006FFF7F4F982
:10106000092000222021C006FFF7EEF90920002206
:101070004021C006FFF7E8F9092000228021C006C0
:10108000FFF7E2F9FA070920D20F0121C006FFF7A6
:10109000DBF902203A46024001460920C006FFF76C
:1010A000D3F904203A46024001460920C006FFF762
:1010B000CBF908203A46024001460920C006FFF756
:1010C000C3F910203A46024001460920C006FFF746
:1010D000BBF920203A46024001460920C006FFF72E
:1010E000B3F940203A46024001460920C006FFF706
:1010F000ABF9FA090920D2018021C006FFF7A4F953
:1011000000220121BA48FFF79FF901221146B84891
:10111000FFF79AF9092000220121C006FFF794F990
:10112000092000220221C006FFF78EF909200022C3
:101130000421C006FFF788F9092000220821C00613
:10114000FFF782F9092000221021C006FFF77CF981
:10115000092000222021C006FFF776F9092000228D
:101160004021C006FFF770F9092000228021C00647
:10117000FFF76AF9F2070920D20F0121C006FFF735
:1011800063F902203246024001460920C006FFF7FB
:101190005BF904203246024001460920C006FFF7F1
:1011A00053F908203246024001460920C006FFF7E5
:1011B0004BF910203246024001460920C006FFF7D5
:1011C00043F920203246024001460920C006FFF7BD
:1011D0003BF940203246024001460920C006FFF795
:1011E00033F9F2090920D2018021C006FFF72CF95A
:1011F000002201217E48FFF727F9012211467C4891
:10120000FFF722F9012240217948FFF71DF9092053
:1012100000220121C006FFF717F909200022022150
:10122000C006FFF711F9092000220421C006FFF7CC
:101230000BF9092000220821C006FFF705F9092053
:1012400000221021C006FFF7FFF80920002220210C
:10125000C006FFF7F9F8092000224021C006FFF779
:10126000F3F8092000228021C006FFF7EDF8EA0715
:101270000920D20F0121C006FFF7E6F802202A4616
:10128000024001460920C006FFF7DEF804202A4686
:10129000024001460920C006FFF7D6F808202A467A
:1012A000024001460920C006FFF7CEF810202A466A
:1012B000024001460920C006FFF7C6F820202A4652
:1012C000024001460920C006FFF7BEF840202A462A
:1012D000024001460920C006FFF7B6F8EA090920D6
:1012E000D2018021C006FFF7AFF80022012140485B
:1012F000FFF7AAF8012211463D48FFF7A5F809209B
:1013000000220121C006FFF79FF8092000220221D8
:10131000C006FFF799F8092000220421C006FFF754
:1013200093F8092000220821C006FFF78DF8092054
:1013300000221021C006FFF787F809200022202193
:10134000C006FFF781F8092000224021C006FFF700
:101350007BF8092000228021C006FFF775F8E2071C
:101360000920D20F0121C006FFF76EF802202246A5
:10137000024001460920C006FFF766F80420224615
:10138000024001460920C006FFF75EF80820224609
:10139000024001460920C006FFF756F810202246F9
:1013A000024001460920C006FFF74EF820202246E1
:1013B000024001460920C006FFF746F840202246B9
:1013C000024001460920C006FFF73EF8E209092065
:1013D000D2018021C006FFF737F80022012104481E
:1013E000FFF732F8012211460148FFF72DF8F8BD4A
:1013F00000040048F8B5050AC4B20022402179482B
:10140000FFF722F8092000220121C006FFF71CF88F
:10141000092000220221C006FFF716F80920002249
:101420000421C006FFF710F8092000220821C00699
:10143000FFF70AF8092000221021C006FFF704F880
:10144000092000222021C006FEF7FEFF092000220D
:101450004021C006FEF7F8FF092000228021C006C7
:10146000FEF7F2FFEA070920D20F0121C006FEF7BE
:10147000EBFF02262A46092032403146C006FEF71D
:10148000E3FF04272A4609203A403946C006FEF702
:10149000DBFF08202A46024001460920C006FEF76D
:1014A000D3FF10202A46024001460920C006FEF75D
:1014B000CBFF20202A46024001460920C006FEF745
:1014C000C3FF40202A46024001460920C006FEF71D
:1014D000BBFFEA090920D2018021C006FEF7B4FF54
:1014E000002201213F48FEF7AFFF012211463D488F
:1014F000FEF7AAFF092000220121C006FEF7A4FF83
:10150000092000220221C006FEF79EFF09200022CA
:101510000421C006FEF798FF092000220821C0061A
:10152000FEF792FF092000221021C006FEF78CFF73
:10153000092000222021C006FEF786FF0920002294
:101540004021C006FEF780FF092000228021C0064E
:10155000FEF77AFFE2070920D20F0121C006FEF74D
:1015600073FF2246092032400221C006FEF76CFFBD
:10157000224609203A400421C006FEF765FF0820F4
:101580002246024001460920C006FEF75DFF1020FA
:101590002246024001460920C006FEF755FF2020E2
:1015A0002246024001460920C006FEF74DFF4020BA
:1015B0002246024001460920C006FEF745FFE20927
:1015C0000920D2018021C006FEF73EFF0022012142
:1015D0000448FEF739FF012211460248FEF734FFA6
:1015E000F8BD00000004004870B50122092514026E
:1015F000ED0621462846FEF727FF1420FEF746FE9B
:10160000002221462846FEF71FFF1420FEF73EFE6B
:10161000012221462846FEF717FF7D25ED002846CA
:10162000FEF734FEE101E520FFF7F2FC0121002086
:10163000FFF7EEFC21460120FFF7EAFC0721090233
:101640000220FFF7E5FC6E490320FFF7E1FC0021D3
:101650000420FFF7DDFC6B490820FFF7D9FC0021CF
:101660000920FFF7D5FC00210A20FFF7D1FC00215B
:101670000C20FFF7CDFC00210D20FFF7C9FC002155
:101680000F20FFF7C5FC00211020FFF7C1FC072148
:101690001120FFF7BDFC00211220FFF7B9FC00214B
:1016A0001320FFF7B5FC2846FEF7F0FD5649102041
:1016B000FFF7AEFC07211120FFF7AAFC2846FEF732
:1016C000E5FDFF213B311220FFF7A2FC2846FEF783
:1016D000DDFD0D2149021320FFF79AFC0C21292082
:1016E000FFF796FC2846FEF7D1FD00213020FFF7DA
:1016F0008FFC46493120FFF78BFC04213220FFF795
:1017000087FC06213520FFF783FC414C362021461B
:10171000FFF77EFCFF2106313720FFF779FC02211D
:101720003820FFF775FC21463920FFF771FCE11ED8
:101730003C20FFF76DFC37493D20FFF769FC002195
:101740005020FFF765FCEF215120FFF761FC0021DD
:101750005220FFF75DFCFF24403421465320FFF761
:1017600057FC272109026020FFF752FC012161206C
:10177000FFF74EFC00216A20FFF74AFC00212020E1
:10178000FFF746FC21462120FFF742FC0021802084
:10179000FFF73EFC00218120FFF73AFC0021822068
:1017A000FFF736FC00218320FFF732FC0021842064
:1017B000FFF72EFC00218520FFF72AFC1021902046
:1017C000FFF726FC00219220FFF722FC0321932043
:1017D000FFF71EFCFF2111319520FFF719FC0021B6
:1017E0009720FFF715FC00219820FFF711FCFF213F
:1017F00074310720FFF70CFC2846FEF747FD70BD4B
:101800001810000002020000B017000005050000DB
:101810000707000007080000F8B5C5B2040A012256
:1018200040217948FEF710FE092000220121C00660
:10183000FEF70AFE092000220221C006FEF704FE80
:10184000092000220421C006FEF7FEFD0920002227
:101850000821C006FEF7F8FD092000221021C0066D
:10186000FEF7F2FD092000222021C006FEF7ECFD64
:10187000092000224021C006FEF7E6FD09200022D3
:101880008021C006FEF7E0FDE2070920D20F01210A
:10189000C006FEF7D9FD0226224609203240314615
:1018A000C006FEF7D1FD0427224609203A403946FA
:1018B000C006FEF7C9FD0820224602400146092065
:1018C000C006FEF7C1FD1020224602400146092055
:1018D000C006FEF7B9FD202022460240014609203D
:1018E000C006FEF7B1FD4020224602400146092015
:1018F000C006FEF7A9FDE2090920D2018021C00639
:10190000FEF7A2FD002201213F48FEF79DFD0122C6
:1019100011463D48FEF798FD092000220121C0062E
:10192000FEF792FD092000220221C006FEF78CFD81
:10193000092000220421C006FEF786FD09200022AE
:101940000821C006FEF780FD092000221021C006F4
:10195000FEF77AFD092000222021C006FEF774FD63
:10196000092000224021C006FEF76EFD092000225A
:101970008021C006FEF768FDEA070920D20F012189
:10198000C006FEF761FD2A46092032400221C0064A
:10199000FEF75AFD2A4609203A400421C006FEF708
:1019A00053FD08202A46024001460920C006FEF7E2
:1019B0004BFD10202A46024001460920C006FEF7D2
:1019C00043FD20202A46024001460920C006FEF7BA
:1019D0003BFD40202A46024001460920C006FEF792
:1019E00033FDEA090920D2018021C006FEF72CFD53
:1019F000002201210448FEF727FD0122114602487A
:101A0000FEF722FDF8BD000000040048F8B5040C04
:101A10008BB2264682B25E430D0C1046370C5843FB
:101A2000360480190021794116466E43370C36047E
:101A30008019794126466E438919F8BD8307FF2234
:101A4000DB0E9A408907090E9940002808DB8308BD
:101A500009489B001B18186890430843186070479A
:101A60000007000F0838830804489B001B18D8693A
:101A700090430843D861704700E400E000ED00E0C7
:101A800002E008C8121F08C1002AFAD17047704747
:101A9000002001E001C1121F002AFBD17047FEF7B0
:101AA000E7FCFFF766FAFFF751F9FEF7E9FFC820F8
:101AB000FEF7ECFBFFF798FDC820FEF7E7FB1F20C1
:101AC000FFF77DFAC820FEF7E1FBFFF72EF97D2036
:101AD000C000FEF7DBFBFFF7EFF80120FFF72AF964
:101AE000FEE70000000000000000010203040607FA
:101AF00008090000141B000800000020100000006E
:101B0000801A0008241B00081000002000040000B8
:101B1000901A00080100000004000000000000000E
:041B200000127A0035
:04000005080000B13E
:00000001FF
