:020000040800F2
:1000000010040020C5000008C50C00087D0A000887
:1000100000000000000000000000000000000000E0
:10002000000000000000000000000000050F0008B4
:100030000000000000000000A90E0008070F0008E3
:10004000D700000800000000D7000008D700000813
:10005000D7000008D7000008D7000008F901000801
:1000600000000000D7000008D7000008D7000008F3
:10007000D7000008D7000008D700000800000000E3
:10008000D70000080000000000000000D7000008B2
:1000900000000000D7000008D7000008D7000008C3
:1000A00000000000D700000800000000D700000892
:1000B0000348854600F08EF80048004751140008B8
:1000C000100400200448804704480047FEE7FEE78C
:1000D000FEE7FEE7FEE7FEE7590F0008B100000863
:1000E00030B50B46014600202022012409E00D46D0
:1000F000D5409D4205D31D469540491B2546954058
:1001000040191546521E002DF1DC30BDF0B51FB46C
:100110000646002082B005464024019100901BE075
:10012000019922460F46304600F020F8049A059BBC
:10013000801A994110D310461946224600F039F82A
:10014000361A8F410197224601200021009F00F0BE
:1001500030F838184D4100902046641E0028DFDC3E
:10016000019B00982946324607B0F0BD10B5202A01
:1001700004DB0846203AD040002110BD0B46D34096
:10018000D0402024A21A91400843194610BDD2B293
:1001900001E00270401C491EFBD270470022F6E7C6
:1001A00010B513460A4604461946FFF7F0FF2046ED
:1001B00010BD10B5202A04DB0146203A91400020F2
:1001C00010BD914020239C1A0346E3401943904000
:1001D00010BD0000064C0125064E05E0E36807CC83
:1001E0002B430C3C98471034B442F7D3FFF764FF1D
:1001F000C4140008E414000810B523484169C90676
:1002000001D5102003E04169890603D5202000F0C4
:1002100057F810BD4169490601D54020F7E741690B
:10022000090601D58020F2E74169C90502D5FF2002
:100230000130ECE74169890502D501204002E6E77B
:100240004169490502D501208002E0E741690905BD
:1002500002D50120C002DAE74169C90402D50120B4
:100260000003D4E74169890402D501204003CEE7A9
:100270004169490402D501208003C8E740690004B0
:10028000C7D50120C003C2E70004014070B5044691
:1002900000F0E0F80546601C02D0044800782418FD
:1002A00000F0D8F8401BA042FAD370BD0000002037
:1002B000012110B5C902884201D100F095FD10BDA1
:1002C00010B504494A69024202D04861FFF7F0FFC5
:1002D00010BD000000040140FCB500230124A1E092
:1002E00027462A469F403A4073D04D68012D05D0DD
:1002F000022D03D0112D01D0122D16D185680326B1
:10030000AC465D00AE46AE406546B543AC46CE68F1
:100310007546AE4065462E43866046680D79BE43FD
:10032000ED06ED0F9D4035434560C6685F0003252F
:10033000BD40AE46AE4335468E68BE402E43C660D5
:100340004E68022E01D0122E14D1DE08B6003618E7
:100350000196366A5D07B446EE0E0F25B54000964D
:100360006646AE43B4460D69009EB54066462E43D0
:10037000019D2E6206687546AE430D79AD07AD0F3F
:10038000BD40354305604D68ED004AD5284DAE6946
:100390002643AE61AD699E08ED07ED0F0095254D32
:1003A000B6007519AC46AD689E07360F0F27B740EB
:1003B000BD430927FF06B84201D1002710E01E4FB8
:1003C000B84201D101270BE01C4FB84202D10227ED
:1003D00006E026E01A4FB84201D1032700E00527C6
:1003E000B7402F436546AF60164E35684F6895435A
:1003F000FF0300D51543356075684F689543BF030B
:1004000000D515437560B5684F689543FF0200D568
:100410001543B560F5684F689543BF0200D5154395
:10042000F5605B1C0A681546DA4000D058E7FCBD51
:10043000001002400000014000040048000800488D
:10044000000C004800040140002A01D0816170477F
:1004500081627047014880687047000000000020FA
:100460000248816802788918816070470000002086
:1004700010B506480168102211430160002000F009
:1004800007F800F027F8002010BD0000002002400F
:1004900070B504460D4D7D202978C000FFF720FE81
:1004A00001460B480068FFF71BFE00F0CFFA00285A
:1004B00009D1042C07D200222146401E00F03AF850
:1004C00000206C6070BD012070BD000000000020A5
:1004D0000C00002008B508488169012211438161A0
:1004E000816911400091C26901040A43C261C06977
:1004F0000840009008BD000000100240002809DB01
:10050000C106C90E0120884003490860BFF34F8F20
:10051000BFF36F8F7047000080E100E0002805DB2B
:10052000C106C90E012088400149086070470000DB
:1005300000E100E010B500F059FF10BDF8B50F461E
:10054000060059D03A4D2868C007C00FB84209D2FA
:10055000286840084000384328602868C007C00F5A
:10056000B84249D13068334C81070CD5400704D5D7
:10057000606807210902084360606068F0218843D1
:10058000B168084360603078C00726D070680128E1
:100590000ED0216802280ED0890700292CDA616864
:1005A0008908890001436160FFF754FF00900DE066
:1005B00021688903F1E78901EFE7FFF74BFF009915
:1005C000411A1D48814201D90320F8BD60680C2101
:1005D0000840716889008842EFD12868C007C00FC1
:1005E000B8420BD928684008400038432860286882
:1005F000C007C00FB84201D00120F8BD30784007D5
:1006000006D56068072109028843F16808436060E5
:1006100000F018F86168094A0906090F515CC840E2
:10062000074908600020FFF733FF0020F8BD0000F5
:10063000002002400010024088130000B41400089B
:100640000C00002010B514A30FCB88B06C460FC46B
:1006500015A30FCB0FC4184A51680C200B4603405A
:100660001648042B16D0082B14D18B021B0F6C4696
:10067000E45CD26A04AB1207120F9A5CC90305D579
:1006800000231946FFF742FD214601E020460C49B0
:1006900000F094FE08B010BD020304050607080927
:1006A0000A0B0C0D0E0F10100102030405060708BB
:1006B000090A0B0C0D0E0F100010024000127A00F8
:1006C00000093D00FEB5040070D02078DC4DC00765
:1006D0004AD068680007800F012807D068680007C3
:1006E000800F022809D16868C00306D528688003F6
:1006F0003AD560680028E7D036E06168012914D057
:1007000001208004002901D0052914D02A68012184
:1007100009048A432A6029688143296060680028A7
:1007200016D0FFF797FE06460EE02868012109045F
:1007300008432860F2E7296801432960F5E7FFF7DD
:1007400089FE801B64286ED828688003F7D50BE0EB
:10075000FFF780FE064604E0FFF77CFE801B64285E
:10076000F1D828688003F7D4207801268007002874
:100770003CDA68680007800F07D068680007800FC0
:10078000022809D16868C00306D42868800716D5F6
:10079000E06801280AD112E0E0680028286816D035
:1007A00030432860FFF756FE074605E043E1FFF7B8
:1007B00051FEC01B0228C6D828688007F7D52868D4
:1007C000F82188432169C900084328600EE04008E9
:1007D00040002860FFF73EFE074604E0FFF73AFEC0
:1007E000C01B0228AFD828688007F7D420780007FC
:1007F00022D5E0690028686A0ED030436862FFF7AE
:1008000029FE074604E0FFF725FEC01B02289AD800
:10081000686A8007F7D50FE0400840006862FFF77C
:1008200019FE074605E09DE0FFF714FEC01B0228F5
:1008300089D8686A8007F7D4207804274007002801
:1008400060DA00200190E869C00008D4E969B806C0
:100850000143E961E9690140012000910190794873
:100860000168C90511D40168821511430160FFF7C1
:10087000F1FD009005E0FFF7EDFD0099401A6428B6
:1008800070D870480068C005F5D5A06801280AD066
:10089000002801D0052810D0286A400840002862AE
:1008A000286AB84301E0286A30432862A06800281B
:1008B00012D0FFF7CFFD00900AE0286A3843286283
:1008C000F1E7FFF7C7FD0099411A5F48814249D817
:1008D000286A8007F5D50DE0FFF7BCFD009006E023
:1008E000FFF7B8FD0099411A574881423AD8286A63
:1008F0008007F5D40198002804D0E9690120000799
:100900008143E9612078C00635D5606901280CD0A3
:10091000401D686B23D038436863686B4008400013
:100920006863FFF797FD064622E0686B384368630B
:10093000686B30436863FFF78DFD064604E0FFF700
:1009400089FD801B02285BD8686B8007F7D5686B30
:10095000F8218843A169C900084368630BE0B843E4
:100960006863F4E74CE0FFF775FD801B022847D869
:10097000686B8007F7D4206A00285ED06968090791
:10098000890F022942D0012636060228286805D0A0
:10099000B0432860FFF75EFD044633E0B0432860B3
:1009A000FFF758FD074604E0FFF754FDC01B02287F
:1009B00026D828688001F7D4E86AE16A00090001B6
:1009C0000843E862616AA06A084369683D2212042C
:1009D000914308436860286830432860FFF73AFD78
:1009E000044604E0FFF736FD001B022808D82868FB
:1009F0008001F7D521E0FFF72DFD001B022801D96A
:100A00000320FEBD28688001F5D416E00128F8D047
:100A10006868E96A01221204636A02409A420AD1B4
:100A20000907E26A090F914205D10F2189040840A4
:100A3000A16A884201D00120FEBD0020FEBD000059
:100A4000001002400070004088130000094910B5F2
:100A5000401E884201D9012010BD074C606103216E
:100A6000081F00F0C3FC0020A061072020610020C7
:100A700010BD0000FFFFFF0000E000E0FEE7000007
:100A8000F0B5714887B04269012189040A43426187
:100A900042690A40059242690A43426142690A403A
:100AA0000592426909010A43426142690A4005927E
:100AB00042690A43426142690A400592426949110A
:100AC0000A43426142690A40059242690A4342610F
:100AD00042690A40059242690A43426142690A40FA
:100AE000059242690A43426142690A40059242699D
:100AF0000A43426142690A40059242690A434261DF
:100B000042690A40059242690A43426142690A40C9
:100B1000059242690A43426142690A40059242696C
:100B20000A434261406901240840059000250326DC
:100B300040206A4671C269464448FFF7CDFB01A8D0
:100B400070C0694641480094FFF7C6FB01A870C019
:100B500069463F480094FFF7BFFB02206A4671C216
:100B600069463B48FFF7B8FB20026A4671C2092775
:100B7000FF0669463846FFF7AFFB01A870C069461B
:100B800038460094FFF7A8FB02206A4671C2694606
:100B90003846FFF7A1FB04206A4671C26946384611
:100BA000FFF79AFB08206A4671C269463846FFF78C
:100BB00093FB10206A4671C269463846FFF78CFBEA
:100BC00020206A4671C269463846FFF785FB4020FF
:100BD0006A4671C269463846FFF77EFB80206A4646
:100BE00071C269463846FFF777FB7869FF21090231
:100BF000084078617869FF21084378610122022169
:100C00001348FFF721FC012211461148FFF71CFC95
:100C1000012211460D48FFF717FC00222102384639
:100C2000FFF712FC1420FFF731FB012211023846B6
:100C3000FFF70AFC1420FFF729FB002202210448D9
:100C4000FFF702FC07B0F0BD0010024000040048AE
:100C50000014004800B50C4887B0426901214904DE
:100C60000A434261406908400590002001900290CB
:100C700003200390FF20009009206946C006FFF77B
:100C80002BFB07B000BD00000010024000B50C486F
:100C900087B04269012149040A4342614069084022
:100CA0000590012001900020029003200390FF2076
:100CB000009009206946C006FFF70EFB07B000BD93
:100CC00000100240704710B500F0F0F8012010BD90
:100CD00010B5002803D00720FFF720FC10BD072027
:100CE000FFF70CFC10BD0000F0B52C4887B042693E
:100CF000012189040A43426142690A40059242691E
:100D00000A43426142690A40059243694A1013430B
:100D1000436143691340059342690A434261406954
:100D20000325084005900220012400266A46039509
:100D300051C21B4F69463846FFF7CEFA80206A46FB
:100D4000039551C269463846FFF7C6FA08206A463D
:100D5000039551C269463846FFF7BEFAE00200909B
:100D6000104801AA31C209206946C006FFF7B4FA4B
:100D7000002202210720FFF7DDFB0720FFF7BEFB63
:100D80000020FFF7A5FF002000F01EF8002000F073
:100D90000BF8002000F078F807B0F0BD001002401A
:100DA000000400480000211010B5064B002803D0B5
:100DB000012806D1002200E0012202211846FFF797
:100DC00043FB10BD0004004810B5064B002803D0BB
:100DD000012806D1002200E0012280211846FFF7F9
:100DE00033FB10BD0004004870B50020FFF770FF12
:100DF000FFF74CFF224C012202212046FFF724FB83
:100E0000012280212046FFF71FFB0021202000F057
:100E1000CDF8FF2540352946212000F0C7F80021F4
:100E2000502000F0C3F8EF21512000F0BFF800215E
:100E3000522000F0BBF82946532000F0B7F81149C2
:100E4000032000F0B3F8222000F01EF90122402117
:100E50002046FFF7F9FA002201212046FFF7F4FAB5
:100E6000002202212046FFF7EFFA002280212046CF
:100E7000FFF7EAFAFFF7EEFE0120FFF729FF70BD4A
:100E8000000400481810000010B5064B002803D0DD
:100E9000012806D1002200E0012208211846FFF7B0
:100EA000D3FA10BD000400487047000070B5144824
:100EB00086B04269012149040A43426142690A40FD
:100EC000059242690A434261406900240840059046
:100ED000081209260325F606009001946946039539
:100EE00002943046FFF7F8F9012080020090019447
:100EF0006946039502943046FFF7EEF906B070BDDF
:100F000000100240704710B5FFF7AAFA10BD30B5C7
:100F100091B030216846FFF741F900240D9401207B
:100F200003900E940225102009940490009505204A
:100F30000F94C0040A900C9408950B946846FFF730
:100F4000C1FB07200C900E9401210D950F940CA865
:100F5000FFF7F4FA11B030BD704770B506460024B3
:100F60002146502000F022F8EF21512000F01EF819
:100F70000021522000F01AF8FF214031532000F0E8
:100F800015F80021202000F011F80021212000F0A8
:100F90000DF8222000F078F84B25AD02304600F025
:100FA000D3F9641CAC42F9D370BD0000FEB5020A4F
:100FB000C0B20E0ACFB20192009000224021314807
:100FC000FFF742FA0924E4066069FF252D02284054
:100FD0006061606960616069284060616069019A70
:100FE00010436061002201212648FFF72DFA0122FB
:100FF00011462448FFF728FA60692840606160695B
:1010000060616069284060616169009801436161C5
:10101000002201211B48FFF717FA01221146194847
:10102000FFF712FA012240211648FFF70DFA606916
:101030002840606160696061606928406061606942
:1010400030436061002201210E48FFF7FDF90122C3
:1010500011460C48FFF7F8F9606928406061606943
:1010600060616069284060616069384360610022A6
:1010700001210448FFF7E8F9012211460148FFF772
:10108000E3F9FEBD00040048F8B5060AC7B2002225
:1010900040211948FFF7D8F90924E4066069FF25C3
:1010A0002D0228406061606960616069284060616C
:1010B000606930436061002201210F48FFF7C4F9E5
:1010C000012211460C48FFF7BFF9606928406061B2
:1010D000606960616069284060616069384360618F
:1010E000002201210448FFF7AFF90122114602480E
:1010F000FFF7AAF9F8BD00000004004870B501220E
:1011000009251402ED0621462846FFF79DF9142013
:10111000FFF7BCF8002221462846FFF795F9142076
:10112000FFF7B4F8012221462846FFF78DF97D2408
:10113000E4002046FFF7AAF87B49E320FFF736FFDB
:101140001221E720FFF732FF7849EF20FFF72EFF4B
:1011500001210020FFF72AFF00210120FFF726FFD1
:10116000072109020220FFF721FF71490320FFF741
:101170001DFF00210420FFF719FF6E490820FFF72B
:1011800015FF00210920FFF711FF00210A20FFF7BA
:101190000DFF80211020FFF709FF07211120FFF725
:1011A00005FF00211220FFF701FF00211320FFF7A8
:1011B000FDFE01210720FFF7F9FE6000FFF766F84A
:1011C0005D491020FFF7F2FE5C491120FFF7EEFEAB
:1011D0002046FFF75BF81E211220FFF7E7FE2046AE
:1011E000FFF754F8152109021320FFF7DFFE28212D
:1011F0002920FFF7DBFE0F212B20FFF7D7FE601021
:10120000FFF744F800212020FFF7D0FEFF254035EE
:1012100029462120FFF7CAFE07213020FFF7C6FE2E
:1012200047493120FFF7C2FEFF2108313220FFF786
:10123000BDFE424935202139FFF7B8FE3D49362031
:10124000891CFFF7B3FEFF26023631463720FFF731
:10125000ADFE31463820FFF7A9FE38493920203944
:10126000FFF7A4FE37493C20FFF7A0FE34493D209C
:10127000FF31FFF79BFE00215020FFF797FEEF2183
:101280005120FFF793FE00215220FFF78FFE2946E1
:101290005320FFF78BFE272109026020FFF786FE0F
:1012A00001216120FFF782FE00216A20FFF77EFE08
:1012B00000218020FFF77AFE00218120FFF776FED3
:1012C00000218220FFF772FE00218320FFF76EFECF
:1012D00000218420FFF76AFE00218520FFF766FECB
:1012E00010219020FFF762FE032149029220FFF7B0
:1012F0005DFE03219320FFF759FEFF211131952058
:10130000FFF754FE00219720FFF750FE00219820A0
:10131000FFF74CFEFF2174310720FFF747FE204600
:10132000FEF7B4FF70BD000008300000311200006D
:1013300018100000040400009015000027020000AF
:101340000707000004050000F8B5C6B2070A01222D
:1013500040211948FFF778F80924E4066069FF2561
:101360002D022840606160696061606928406061A9
:10137000606938436061002201210F48FFF764F87B
:10138000012211460C48FFF75FF860692840606150
:1013900060696061606928406061606930436061D4
:1013A000002201210448FFF74FF8012211460248AC
:1013B000FFF74AF8F8BD000000040048F8B5040C37
:1013C0008BB2264682B25E430D0C1046370C584352
:1013D000360480190021794116466E43370C3604D5
:1013E0008019794126466E438919F8BD8307FF228B
:1013F000DB0E9A408907090E9940002808DB830814
:1014000009489B001B1818689043084318607047F0
:101410000007000F0838830804489B001B18D86990
:1014200090430843D861704700E400E000ED00E01D
:1014300002E008C8121F08C1002AFAD1704770479D
:10144000002001E001C1121F002AFBD170470000FB
:10145000FFF70EF8FFF75BFDFFF746FCFFF710FB09
:10146000C820FEF713FFFFF749FE1148FFF775FD8F
:101470007D24E4002046FEF709FF1F20FFF76DFDE5
:101480002046FEF703FFC820FEF700FFFFF71BFC16
:101490002046FEF7FBFEFFF7DDFB0120FFF794FC83
:1014A0000120FFF781FC0120FFF712FCFEE700009E
:1014B000E0FF000000000000000000000102030443
:1014C00006070809E41400080000002010000000CE
:1014D00030140008F414000810000020000400007C
:1014E000401400080100000004000000000000009B
:0414F00000127A006C
:04000005080000B13E
:00000001FF
