:020000040800F2
:1000000010040020C5000008D11100087D0A000876
:1000100000000000000000000000000000000000E0
:10002000000000000000000000000000D9130008DC
:1000300000000000000000007D130008DB13000832
:10004000D700000800000000D7000008D700000813
:10005000D7000008D7000008D7000008F901000801
:1000600000000000D7000008D7000008D7000008F3
:10007000D7000008D7000008D700000800000000E3
:10008000D70000080000000000000000D7000008B2
:1000900000000000D7000008D7000008D7000008C3
:1000A00000000000D700000800000000D700000892
:1000B0000348854600F08EF800480047111F0008ED
:1000C000100400200448804704480047FEE7FEE78C
:1000D000FEE7FEE7FEE7FEE72D140008B10000088A
:1000E00030B50B46014600202022012409E00D46D0
:1000F000D5409D4205D31D469540491B2546954058
:1001000040191546521E002DF1DC30BDF0B51FB46C
:100110000646002082B005464024019100901BE075
:10012000019922460F46304600F020F8049A059BBC
:10013000801A994110D310461946224600F039F82A
:10014000361A8F410197224601200021009F00F0BE
:1001500030F838184D4100902046641E0028DFDC3E
:10016000019B00982946324607B0F0BD10B5202A01
:1001700004DB0846203AD040002110BD0B46D34096
:10018000D0402024A21A91400843194610BDD2B293
:1001900001E00270401C491EFBD270470022F6E7C6
:1001A00010B513460A4604461946FFF7F0FF2046ED
:1001B00010BD10B5202A04DB0146203A91400020F2
:1001C00010BD914020239C1A0346E3401943904000
:1001D00010BD0000064C0125064E05E0E36807CC83
:1001E0002B430C3C98471034B442F7D3FFF764FF1D
:1001F000801F0008A01F000810B523484169C906E8
:1002000001D5102003E04169890603D5202000F0C4
:1002100057F810BD4169490601D54020F7E741690B
:10022000090601D58020F2E74169C90502D5FF2002
:100230000130ECE74169890502D501204002E6E77B
:100240004169490502D501208002E0E741690905BD
:1002500002D50120C002DAE74169C90402D50120B4
:100260000003D4E74169890402D501204003CEE7A9
:100270004169490402D501208003C8E740690004B0
:10028000C7D50120C003C2E70004014070B5044691
:1002900000F0E0F80546601C02D0044800782418FD
:1002A00000F0D8F8401BA042FAD370BD0000002037
:1002B000012110B5C902884201D101F01BF810BD1F
:1002C00010B504494A69024202D04861FFF7F0FFC5
:1002D00010BD000000040140FCB500230124A1E092
:1002E00027462A469F403A4073D04D68012D05D0DD
:1002F000022D03D0112D01D0122D16D185680326B1
:10030000AC465D00AE46AE406546B543AC46CE68F1
:100310007546AE4065462E43866046680D79BE43FD
:10032000ED06ED0F9D4035434560C6685F0003252F
:10033000BD40AE46AE4335468E68BE402E43C660D5
:100340004E68022E01D0122E14D1DE08B6003618E7
:100350000196366A5D07B446EE0E0F25B54000964D
:100360006646AE43B4460D69009EB54066462E43D0
:10037000019D2E6206687546AE430D79AD07AD0F3F
:10038000BD40354305604D68ED004AD5284DAE6946
:100390002643AE61AD699E08ED07ED0F0095254D32
:1003A000B6007519AC46AD689E07360F0F27B740EB
:1003B000BD430927FF06B84201D1002710E01E4FB8
:1003C000B84201D101270BE01C4FB84202D10227ED
:1003D00006E026E01A4FB84201D1032700E00527C6
:1003E000B7402F436546AF60164E35684F6895435A
:1003F000FF0300D51543356075684F689543BF030B
:1004000000D515437560B5684F689543FF0200D568
:100410001543B560F5684F689543BF0200D5154395
:10042000F5605B1C0A681546DA4000D058E7FCBD51
:10043000001002400000014000040048000800488D
:10044000000C004800040140002A01D0816170477F
:1004500081627047014880687047000000000020FA
:100460000248816802788918816070470000002086
:1004700010B506480168102211430160002000F009
:1004800007F800F027F8002010BD0000002002400F
:1004900070B504460D4D7D202978C000FFF720FE81
:1004A00001460B480068FFF71BFE00F0CFFA00285A
:1004B00009D1042C07D200222146401E00F03AF850
:1004C00000206C6070BD012070BD000000000020A5
:1004D0000C00002008B508488169012211438161A0
:1004E000816911400091C26901040A43C261C06977
:1004F0000840009008BD000000100240002809DB01
:10050000C106C90E0120884003490860BFF34F8F20
:10051000BFF36F8F7047000080E100E0002805DB2B
:10052000C106C90E012088400149086070470000DB
:1005300000E100E010B501F0B9FC10BDF8B50F46C0
:10054000060059D03A4D2868C007C00FB84209D2FA
:10055000286840084000384328602868C007C00F5A
:10056000B84249D13068334C81070CD5400704D5D7
:10057000606807210902084360606068F0218843D1
:10058000B168084360603078C00726D070680128E1
:100590000ED0216802280ED0890700292CDA616864
:1005A0008908890001436160FFF754FF00900DE066
:1005B00021688903F1E78901EFE7FFF74BFF009915
:1005C000411A1D48814201D90320F8BD60680C2101
:1005D0000840716889008842EFD12868C007C00FC1
:1005E000B8420BD928684008400038432860286882
:1005F000C007C00FB84201D00120F8BD30784007D5
:1006000006D56068072109028843F16808436060E5
:1006100000F018F86168094A0906090F515CC840E2
:10062000074908600020FFF733FF0020F8BD0000F5
:10063000002002400010024088130000701F0008D4
:100640000C00002010B514A30FCB88B06C460FC46B
:1006500015A30FCB0FC4184A51680C200B4603405A
:100660001648042B16D0082B14D18B021B0F6C4696
:10067000E45CD26A04AB1207120F9A5CC90305D579
:1006800000231946FFF742FD214601E020460C49B0
:1006900001F0F4FB08B010BD0203040506070809C9
:1006A0000A0B0C0D0E0F10100102030405060708BB
:1006B000090A0B0C0D0E0F100010024000127A00F8
:1006C00000093D00FEB5040070D02078DC4DC00765
:1006D0004AD068680007800F012807D068680007C3
:1006E000800F022809D16868C00306D528688003F6
:1006F0003AD560680028E7D036E06168012914D057
:1007000001208004002901D0052914D02A68012184
:1007100009048A432A6029688143296060680028A7
:1007200016D0FFF797FE06460EE02868012109045F
:1007300008432860F2E7296801432960F5E7FFF7DD
:1007400089FE801B64286ED828688003F7D50BE0EB
:10075000FFF780FE064604E0FFF77CFE801B64285E
:10076000F1D828688003F7D4207801268007002874
:100770003CDA68680007800F07D068680007800FC0
:10078000022809D16868C00306D42868800716D5F6
:10079000E06801280AD112E0E0680028286816D035
:1007A00030432860FFF756FE074605E043E1FFF7B8
:1007B00051FEC01B0228C6D828688007F7D52868D4
:1007C000F82188432169C900084328600EE04008E9
:1007D00040002860FFF73EFE074604E0FFF73AFEC0
:1007E000C01B0228AFD828688007F7D420780007FC
:1007F00022D5E0690028686A0ED030436862FFF7AE
:1008000029FE074604E0FFF725FEC01B02289AD800
:10081000686A8007F7D50FE0400840006862FFF77C
:1008200019FE074605E09DE0FFF714FEC01B0228F5
:1008300089D8686A8007F7D4207804274007002801
:1008400060DA00200190E869C00008D4E969B806C0
:100850000143E961E9690140012000910190794873
:100860000168C90511D40168821511430160FFF7C1
:10087000F1FD009005E0FFF7EDFD0099401A6428B6
:1008800070D870480068C005F5D5A06801280AD066
:10089000002801D0052810D0286A400840002862AE
:1008A000286AB84301E0286A30432862A06800281B
:1008B00012D0FFF7CFFD00900AE0286A3843286283
:1008C000F1E7FFF7C7FD0099411A5F48814249D817
:1008D000286A8007F5D50DE0FFF7BCFD009006E023
:1008E000FFF7B8FD0099411A574881423AD8286A63
:1008F0008007F5D40198002804D0E9690120000799
:100900008143E9612078C00635D5606901280CD0A3
:10091000401D686B23D038436863686B4008400013
:100920006863FFF797FD064622E0686B384368630B
:10093000686B30436863FFF78DFD064604E0FFF700
:1009400089FD801B02285BD8686B8007F7D5686B30
:10095000F8218843A169C900084368630BE0B843E4
:100960006863F4E74CE0FFF775FD801B022847D869
:10097000686B8007F7D4206A00285ED06968090791
:10098000890F022942D0012636060228286805D0A0
:10099000B0432860FFF75EFD044633E0B0432860B3
:1009A000FFF758FD074604E0FFF754FDC01B02287F
:1009B00026D828688001F7D4E86AE16A00090001B6
:1009C0000843E862616AA06A084369683D2212042C
:1009D000914308436860286830432860FFF73AFD78
:1009E000044604E0FFF736FD001B022808D82868FB
:1009F0008001F7D521E0FFF72DFD001B022801D96A
:100A00000320FEBD28688001F5D416E00128F8D047
:100A10006868E96A01221204636A02409A420AD1B4
:100A20000907E26A090F914205D10F2189040840A4
:100A3000A16A884201D00120FEBD0020FEBD000059
:100A4000001002400070004088130000094910B5F2
:100A5000401E884201D9012010BD074C606103216E
:100A6000081F01F023FA0020A06107202061002068
:100A700010BD0000FFFFFF0000E000E0FEE710B542
:100A8000CF2000F0B9FA002000F098FAC12000F061
:100A900095FA302000F092FAED2000F0ADFA6420D3
:100AA00000F08CFA032000F089FA122000F086FA98
:100AB000812000F083FACB2000F09EFA392000F06C
:100AC0007DFA2C2000F07AFA002000F077FA34202A
:100AD00000F074FA022000F071FAEA2000F08CFABB
:100AE000002000F06BFA002000F068FAE82000F027
:100AF00083FA852000F062FA102000F05FFA792076
:100B000000F05CFAC02000F077FA232000F056FADB
:100B1000C12000F071FA112000F050FAC22000F05C
:100B20006BFA112000F04AFAC52000F065FA3D206A
:100B300000F044FA302000F041FAC72000F05CFADF
:100B4000AA2000F03BFA3A2000F056FA552000F0B7
:100B500035FA362000F050FA082000F02FFAB120C4
:100B600000F04AFA002000F029FA112000F026FADD
:100B7000B62000F041FA0A2000F020FAA22000F08E
:100B80001DFAF22000F038FA002000F017FAF720E2
:100B900000F032FA202000F011FAF12000F02CFAD7
:100BA000012000F00BFA302000F008FA262000F0B7
:100BB00023FA012000F002FAE02000F01DFA0F20D5
:100BC00000F0FCF93F2000F0F9F92F2000F0F6F9D1
:100BD0000C2000F0F3F9102000F0F0F90A2000F0EA
:100BE000EDF9532000F0EAF9D52000F0E7F94020B4
:100BF00000F0E4F90A2000F0E1F9132000F0DEF93A
:100C0000032000F0DBF9082000F0D8F9032000F001
:100C1000D5F9002000F0D2F9E12000F0EDF9002034
:100C200000F0CCF9002000F0C9F9102000F0C6F95E
:100C3000032000F0C3F90F2000F0C0F9052000F0F8
:100C4000BDF92C2000F0BAF9A22000F0B7F93F203E
:100C500000F0B4F9052000F0B1F90E2000F0AEF973
:100C60000C2000F0ABF9372000F0A8F93C2000F090
:100C7000A5F90F2000F0A2F9112000F0BDF96420C1
:100C8000FFF704FB292000F0B7F910BDF8B50746BF
:100C90001C4615460E462A2000F0AEF9380A00F030
:100CA0008DF9F8B200F08AF9280A00F087F9E8B265
:100CB00000F084F92B2000F09FF9300A00F07EF953
:100CC000F0B200F07BF9200A00F078F9E0B200F011
:100CD00075F92C2000F090F9F8BD0000F0B58A48B5
:100CE00087B04269012189040A43426142690A408E
:100CF000059242690A43426142690A40059242698B
:100D000009010A43426142690A40059242690A4365
:100D1000426142690A400592426949110A434261AF
:100D200042690A40059242690A43426142690A40A7
:100D3000059242690A43426142690A40059242694A
:100D40000A43426142690A40059242690A4342618C
:100D500042690A40059242690A43426142690A4077
:100D6000059242690A43426142690A40059242691A
:100D70000A43426142690A40059242690A4342615C
:100D8000406940270840009705900124002503266C
:100D900001AA70C269465D48FFF79EFA01A870C0BB
:100DA00069465A480094FFF797FA01A870C069464F
:100DB00057480094FFF790FA02206A4671C26946CC
:100DC0005348FFF789FA20026A4671C20920694632
:100DD000C006FFF781FA01A870C009206946C00665
:100DE0000094FFF779FA02206A4671C20920694629
:100DF000C006FFF771FA04206A4671C209206946ED
:100E0000C006FFF769FA08206A4671C209206946E0
:100E1000C006FFF761FA10206A4671C209206946D0
:100E2000C006FFF759FA20206A4671C209206946B8
:100E3000C006FFF751FA01AA009770C2092069465F
:100E4000C006FFF749FA80206A4671C20920694648
:100E5000C006FFF741FA012209201146C006FFF73C
:100E6000F3FA022209201146C006FFF7EDFA042228
:100E700009201146C006FFF7E7FA082209201146AB
:100E8000C006FFF7E1FA102209201146C006FFF75D
:100E9000DBFA202209201146C006FFF7D5FA4022CE
:100EA00009201146C006FFF7CFFA8022092011461B
:100EB000C006FFF7C9FA012202211548FFF7C4FA5C
:100EC000012211461248FFF7BFFA012211460F48CE
:100ED000FFF7BAFA092000222102C006FFF7B4FA90
:100EE0001420FFF7D3F9012209201102C006FFF7F1
:100EF000ABFA1420FFF7CAF9002202210448FFF7D9
:100F0000A3FA07B0F0BD0000001002400004004842
:100F100000140048F8B5010A0091C7B2FF23002170
:100F20004033EF220846FFF7B1FE0025FF26413689
:100F300000243946009800F04FF8641CA4B2B44273
:100F4000F7D36D1CADB2F02DF2D3F8BD00B50C484F
:100F500087B04269012149040A434261406908405F
:100F6000059000200190029003200390FF20009044
:100F700009206946C006FFF7AFF907B000BD0000C1
:100F80000010024000B50C4887B0426901214904B5
:100F90000A43426140690840059001200190002009
:100FA000029003200390FF20009009206946C006AC
:100FB000FFF792F907B000BD0010024010B50446DB
:100FC000012240210348FFF73FFA204600F0B8F81D
:100FD00010BD00000004004870B50C460546012213
:100FE00040210448FFF730FA2146284600F012F865
:100FF00070BD00000004004810B5044600224021E6
:101000000348FFF721FA204600F09AF810BD0000CF
:1010100000040048F8B5C20705460C460920D20F67
:101020000121C006FFF710FA02262A4609203240A5
:101030003146C006FFF708FA04272A4609203A403D
:101040003946C006FFF700FA08202A46024001464A
:101050000920C006FFF7F8F910202A460240014691
:101060000920C006FFF7F0F920202A460240014679
:101070000920C006FFF7E8F940202A460240014651
:101080000920C006FFF7E0F9EA090920D201802112
:10109000C006FFF7D9F9294D002201212846FFF7A4
:1010A000D3F9012211462846FFF7CEF9E2070920BD
:1010B000D20F0121C006FFF7C7F9224609203240AE
:1010C0000221C006FFF7C0F9224609203A40042158
:1010D000C006FFF7B9F90820224602400146092060
:1010E000C006FFF7B1F91020224602400146092050
:1010F000C006FFF7A9F92020224602400146092038
:10110000C006FFF7A1F9402022460240014609200F
:10111000C006FFF799F9E2090920D2018021C00633
:10112000FFF792F9002201212846FFF78DF90122ED
:1011300011462846FFF788F9F8BD00000004004872
:1011400070B5C20709250446ED06D20F01212846D5
:10115000FFF77AF902202246024001462846FFF7AF
:1011600073F904202246024001462846FFF76CF935
:1011700008202246024001462846FFF765F9102064
:101180002246024001462846FFF75EF9202022460B
:10119000024001462846FFF757F940202246024008
:1011A00001462846FFF750F9E209D201802128467E
:1011B000FFF74AF9054C002201212046FFF744F9C8
:1011C000012211462046FFF73FF970BD0004004898
:1011D000704710B500F0D4F8012010BD10B50028FC
:1011E00003D00720FFF79AF910BD0720FFF786F913
:1011F00010BD0000F0B52C4887B042690121890478
:101200000A43426142690A40059242690A434261C7
:1012100042690A40059243694A1013434361436996
:101220001340059342690A4342614069032508401F
:1012300005900220012400266A46039551C21B4FE7
:1012400069463846FFF748F880206A46039551C240
:1012500069463846FFF740F808206A46039551C2B0
:1012600069463846FFF738F8E0020090104801AAB6
:1012700031C209206946C006FFF72EF8002202217C
:101280000720FFF757F90720FFF738F90020FFF78D
:10129000A5FF002000F01EF8002000F00BF8002051
:1012A00000F05CF807B0F0BD0010024000040048F8
:1012B0000000211010B5064B002803D0012806D1EC
:1012C000002200E0012202211846FFF7BDF810BD00
:1012D0000004004810B5064B002803D0012806D1B1
:1012E000002200E0012280211846FFF7ADF810BD72
:1012F0000004004810B50020FFF770FFFFF742FE22
:10130000154C012202212046FFF79EF80122802180
:101310002046FFF799F8FF2300214033EF220846CB
:10132000FFF7B4FC012240212046FFF78DF8002290
:1013300001212046FFF788F8002202212046FFF70E
:1013400083F8002280212046FFF77EF8FFF7FEFD9C
:101350000120FFF743FF10BD0004004810B5064B05
:10136000002803D0012806D1002200E00122082134
:101370001846FFF769F810BD0004004870470000E8
:1013800070B5144886B04269012149040A4342619C
:1013900042690A40059242690A4342614069002459
:1013A00008400590081209260325F60600900194CE
:1013B0006946039502943046FEF78EFF01208002B5
:1013C000009001946946039502943046FEF784FF2D
:1013D00006B070BD00100240704710B5FFF740F82E
:1013E00010BD30B591B030216846FEF7D7FE00241D
:1013F0000D94012003900E9402251020099404906E
:10140000009505200F94C0040A900C9408950B9445
:101410006846FFF757F907200C900E9401210D95AF
:101420000F940CA8FFF78AF811B030BD704770B563
:10143000064600242146502000F022F8EF215120DA
:1014400000F01EF80021522000F01AF8FF21403170
:10145000532000F015F80021202000F011F80021A1
:10146000212000F00DF8222000F0FCF94B25AD0200
:10147000304600F009FC641CAC42F9D370BD00009A
:10148000F8B5070AC6B20D0ACCB200224021F448D2
:10149000FEF7DAFF092000220121C006FEF7D4FF83
:1014A000092000220221C006FEF7CEFF09200022FB
:1014B0000421C006FEF7C8FF092000220821C0064B
:1014C000FEF7C2FF092000221021C006FEF7BCFF74
:1014D000092000222021C006FEF7B6FF09200022C5
:1014E0004021C006FEF7B0FF092000228021C0067F
:1014F000FEF7AAFFFA070920D20F0121C006FEF766
:10150000A3FF02203A46024001460920C006FEF72A
:101510009BFF04203A46024001460920C006FEF720
:1015200093FF08203A46024001460920C006FEF714
:101530008BFF10203A46024001460920C006FEF704
:1015400083FF20203A46024001460920C006FEF7EC
:101550007BFF40203A46024001460920C006FEF7C4
:1015600073FFFA090920D2018021C006FEF76CFF43
:1015700000220121BA48FEF767FF01221146B84850
:10158000FEF762FF092000220121C006FEF75CFF82
:10159000092000220221C006FEF756FF0920002282
:1015A0000421C006FEF750FF092000220821C006D2
:1015B000FEF74AFF092000221021C006FEF744FF73
:1015C000092000222021C006FEF73EFF092000224C
:1015D0004021C006FEF738FF092000228021C00606
:1015E000FEF732FFF2070920D20F0121C006FEF7F5
:1015F0002BFF02203246024001460920C006FEF7BA
:1016000023FF04203246024001460920C006FEF7AF
:101610001BFF08203246024001460920C006FEF7A3
:1016200013FF10203246024001460920C006FEF793
:101630000BFF20203246024001460920C006FEF77B
:1016400003FF40203246024001460920C006FEF753
:10165000FBFEF2090920D2018021C006FEF7F4FE4C
:10166000002201217E48FEF7EFFE012211467C4850
:10167000FEF7EAFE012240217948FEF7E5FE092047
:1016800000220121C006FEF7DFFE09200022022110
:10169000C006FEF7D9FE092000220421C006FEF78D
:1016A000D3FE092000220821C006FEF7CDFE092046
:1016B00000221021C006FEF7C7FE092000222021CB
:1016C000C006FEF7C1FE092000224021C006FEF739
:1016D000BBFE092000228021C006FEF7B5FEEA0706
:1016E0000920D20F0121C006FEF7AEFE02202A46D5
:1016F000024001460920C006FEF7A6FE04202A4645
:10170000024001460920C006FEF79EFE08202A4638
:10171000024001460920C006FEF796FE10202A4628
:10172000024001460920C006FEF78EFE20202A4610
:10173000024001460920C006FEF786FE40202A46E8
:10174000024001460920C006FEF77EFEEA09092094
:10175000D2018021C006FEF777FE00220121404819
:10176000FEF772FE012211463D48FEF76DFE09208C
:1017700000220121C006FEF767FE09200022022197
:10178000C006FEF761FE092000220421C006FEF714
:101790005BFE092000220821C006FEF755FE092045
:1017A00000221021C006FEF74FFE09200022202152
:1017B000C006FEF749FE092000224021C006FEF7C0
:1017C00043FE092000228021C006FEF73DFEE2070D
:1017D0000920D20F0121C006FEF736FE0220224664
:1017E000024001460920C006FEF72EFE04202246D4
:1017F000024001460920C006FEF726FE08202246C8
:10180000024001460920C006FEF71EFE10202246B7
:10181000024001460920C006FEF716FE202022469F
:10182000024001460920C006FEF70EFE4020224677
:10183000024001460920C006FEF706FEE209092023
:10184000D2018021C006FEF7FFFD002201210448DD
:10185000FEF7FAFD012211460148FEF7F5FDF8BD3D
:1018600000040048F8B5050AC4B2002240217948B6
:10187000FEF7EAFD092000220121C006FEF7E4FD83
:10188000092000220221C006FEF7DEFD0920002209
:101890000421C006FEF7D8FD092000220821C00659
:1018A000FEF7D2FD092000221021C006FEF7CCFD74
:1018B000092000222021C006FEF7C6FD09200022D3
:1018C0004021C006FEF7C0FD092000228021C0068D
:1018D000FEF7BAFDEA070920D20F0121C006FEF784
:1018E000B3FD02262A46092032403146C006FEF7E3
:1018F000ABFD04272A4609203A403946C006FEF7C8
:10190000A3FD08202A46024001460920C006FEF732
:101910009BFD10202A46024001460920C006FEF722
:1019200093FD20202A46024001460920C006FEF70A
:101930008BFD40202A46024001460920C006FEF7E2
:1019400083FDEA090920D2018021C006FEF77CFD53
:10195000002201213F48FEF777FD012211463D4854
:10196000FEF772FD092000220121C006FEF76CFD82
:10197000092000220221C006FEF766FD0920002290
:101980000421C006FEF760FD092000220821C006E0
:10199000FEF75AFD092000221021C006FEF754FD73
:1019A000092000222021C006FEF74EFD092000225A
:1019B0004021C006FEF748FD092000228021C00614
:1019C000FEF742FDE2070920D20F0121C006FEF713
:1019D0003BFD2246092032400221C006FEF734FDBD
:1019E000224609203A400421C006FEF72DFD0820BA
:1019F0002246024001460920C006FEF725FD1020C0
:101A00002246024001460920C006FEF71DFD2020A7
:101A10002246024001460920C006FEF715FD40207F
:101A20002246024001460920C006FEF70DFDE209EC
:101A30000920D2018021C006FEF706FD0022012107
:101A40000448FEF701FD012211460248FEF7FCFCA6
:101A5000F8BD00000004004870B5012209251402F9
:101A6000ED0621462846FEF7EFFC1420FEF70EFC9B
:101A7000002221462846FEF7E7FC1420FEF706FC6C
:101A8000012221462846FEF7DFFC7D25ED00284691
:101A9000FEF7FCFBE101E520FFF7F2FC012100204D
:101AA000FFF7EEFC21460120FFF7EAFC07210902BF
:101AB0000220FFF7E5FC6E490320FFF7E1FC00215F
:101AC0000420FFF7DDFC6B490820FFF7D9FC00215B
:101AD0000920FFF7D5FC00210A20FFF7D1FC0021E7
:101AE0000C20FFF7CDFC00210D20FFF7C9FC0021E1
:101AF0000F20FFF7C5FC00211020FFF7C1FC0721D4
:101B00001120FFF7BDFC00211220FFF7B9FC0021D6
:101B10001320FFF7B5FC2846FEF7B8FB5649102006
:101B2000FFF7AEFC07211120FFF7AAFC2846FEF7BD
:101B3000ADFBFF213B311220FFF7A2FC2846FEF748
:101B4000A5FB0D2149021320FFF79AFC0C21292047
:101B5000FFF796FC2846FEF799FB00213020FFF79F
:101B60008FFC46493120FFF78BFC04213220FFF720
:101B700087FC06213520FFF783FC414C36202146A7
:101B8000FFF77EFCFF2106313720FFF779FC0221A9
:101B90003820FFF775FC21463920FFF771FCE11E64
:101BA0003C20FFF76DFC37493D20FFF769FC002121
:101BB0005020FFF765FCEF215120FFF761FC002169
:101BC0005220FFF75DFCFF24403421465320FFF7ED
:101BD00057FC272109026020FFF752FC01216120F8
:101BE000FFF74EFC00216A20FFF74AFC002120206D
:101BF000FFF746FC21462120FFF742FC0021802010
:101C0000FFF73EFC00218120FFF73AFC00218220F3
:101C1000FFF736FC00218320FFF732FC00218420EF
:101C2000FFF72EFC00218520FFF72AFC10219020D1
:101C3000FFF726FC00219220FFF722FC03219320CE
:101C4000FFF71EFCFF2111319520FFF719FC002141
:101C50009720FFF715FC00219820FFF711FCFF21CA
:101C600074310720FFF70CFC2846FEF70FFB70BD10
:101C70001810000002020000B01700000505000067
:101C80000707000007080000F8B5C5B2040A0122E2
:101C900040217948FEF7D8FB092000220121C00627
:101CA000FEF7D2FB092000220221C006FEF7CCFB82
:101CB000092000220421C006FEF7C6FB09200022ED
:101CC0000821C006FEF7C0FB092000221021C00633
:101CD000FEF7BAFB092000222021C006FEF7B4FB64
:101CE000092000224021C006FEF7AEFB0920002299
:101CF0008021C006FEF7A8FBE2070920D20F0121D0
:101D0000C006FEF7A1FB02262246092032403146DA
:101D1000C006FEF799FB0427224609203A403946BF
:101D2000C006FEF791FB082022460240014609202A
:101D3000C006FEF789FB102022460240014609201A
:101D4000C006FEF781FB2020224602400146092002
:101D5000C006FEF779FB40202246024001460920DA
:101D6000C006FEF771FBE2090920D2018021C006FE
:101D7000FEF76AFB002201213F48FEF765FB0122C6
:101D800011463D48FEF760FB092000220121C006F4
:101D9000FEF75AFB092000220221C006FEF754FB81
:101DA000092000220421C006FEF74EFB0920002274
:101DB0000821C006FEF748FB092000221021C006BA
:101DC000FEF742FB092000222021C006FEF73CFB63
:101DD000092000224021C006FEF736FB0920002220
:101DE0008021C006FEF730FBEA070920D20F01214F
:101DF000C006FEF729FB2A46092032400221C00610
:101E0000FEF722FB2A4609203A400421C006FEF7CD
:101E10001BFB08202A46024001460920C006FEF7A7
:101E200013FB10202A46024001460920C006FEF797
:101E30000BFB20202A46024001460920C006FEF77F
:101E400003FB40202A46024001460920C006FEF757
:101E5000FBFAEA090920D2018021C006FEF7F4FA54
:101E6000002201210448FEF7EFFA01221146024840
:101E7000FEF7EAFAF8BD000000040048F8B5040CCB
:101E80008BB2264682B25E430D0C1046370C584387
:101E9000360480190021794116466E43370C36040A
:101EA0008019794126466E438919F8BD8307FF22C0
:101EB000DB0E9A408907090E9940002808DB830849
:101EC00009489B001B181868904308431860704726
:101ED0000007000F0838830804489B001B18D869C6
:101EE00090430843D861704700E400E000ED00E053
:101EF00002E008C8121F08C1002AFAD170477047D3
:101F0000002001E001C1121F002AFBD17047000030
:101F1000FEF7AEFAFFF765FAFFF76CF9FEF7DEFEA3
:101F2000C820FEF7B3F9FEF7AAFD3F204001FEF7F7
:101F3000F1FFFFF791FD0D48FFF779FAC820FEF792
:101F4000A5F9C820FEF7A2F9FFF743F97D20C000EC
:101F5000FEF79CF9FEF7FAFF0120FFF7BBF901201D
:101F6000FFF7A8F90120FFF739F9FEE7E0FF0000CD
:101F70000000000000000000010203040607080939
:101F8000A01F00080000002010000000F01E000844
:101F9000B01F00081000002000040000001F00080F
:101FA00001000000040000000000000000127A00A0
:04000005080000B13E
:00000001FF
