:020000040800F2
:1000000018040020C50000087D120008650E0008D5
:1000100000000000000000000000000000000000E0
:10002000000000000000000000000000691500084A
:100030000000000000000000E91400086B15000833
:10004000D700000800000000D7000008D700000813
:10005000D7000008D7000008D7000008F901000801
:1000600000000000D7000008D7000008D7000008F3
:10007000D7000008D7000008D700000800000000E3
:10008000D70000080000000000000000D7000008B2
:1000900000000000D7000008D7000008D7000008C3
:1000A00000000000D700000800000000D700000892
:1000B0000348854600F08EF8004800477D2100087F
:1000C000180400200448804704480047FEE7FEE784
:1000D000FEE7FEE7FEE7FEE7D7150008B1000008DF
:1000E00030B50B46014600202022012409E00D46D0
:1000F000D5409D4205D31D469540491B2546954058
:1001000040191546521E002DF1DC30BDF0B51FB46C
:100110000646002082B005464024019100901BE075
:10012000019922460F46304600F020F8049A059BBC
:10013000801A994110D310461946224600F039F82A
:10014000361A8F410197224601200021009F00F0BE
:1001500030F838184D4100902046641E0028DFDC3E
:10016000019B00982946324607B0F0BD10B5202A01
:1001700004DB0846203AD040002110BD0B46D34096
:10018000D0402024A21A91400843194610BDD2B293
:1001900001E00270401C491EFBD270470022F6E7C6
:1001A00010B513460A4604461946FFF7F0FF2046ED
:1001B00010BD10B5202A04DB0146203A91400020F2
:1001C00010BD914020239C1A0346E3401943904000
:1001D00010BD0000064C0125064E05E0E36807CC83
:1001E0002B430C3C98471034B442F7D3FFF764FF1D
:1001F000142200083422000810B53A484069102142
:100200000840102802D100F08DF869E035484069B7
:1002100020210840202802D100F084F860E0314815
:10022000406940210840402802D100F07BF857E0A7
:100230002C48406980210840802802D100F072F8E3
:100240004EE028484069FF2101310840884202D130
:1002500000F068F844E02348406901214902084061
:10026000884202D100F05EF83AE01E484069012160
:1002700089020840884202D100F054F830E0194861
:1002800040690121C9020840884202D100F04AF8C1
:1002900026E014484069012109030840884202D140
:1002A00000F040F81CE00F48406901214903084074
:1002B000884202D100F036F812E00A484069012174
:1002C00089030840884202D100F02CF808E0054874
:1002D00040690121C9030840884201D100F022F899
:1002E00010BD0000000401407047000070B50446D6
:1002F00000F022F90546601C02D00448007824185A
:1003000000F01AF9401BA042FAD370BD040000208F
:1003100010B504460120C002844201D101F07CF8EE
:1003200010BD000010B50446054840692040002873
:1003300004D0034844612046FFF7EAFF10BD0000E7
:100340000004014078B503460022DDE00126964016
:100350000C683440002C7DD04D68012D08D04D68CC
:10036000022D05D04D68112D02D04D68122D18D1E7
:10037000986856000325B5400646AE433046560001
:10038000CD68B540284398605868012595400646D9
:10039000AE43304610264D6835402D099540284320
:1003A0005860D86856000325B5400646AE4330462F
:1003B00056008D68B5402843D8604D68022D02D0A4
:1003C0004D68122D15D1D508AE001D462035A8590F
:1003D0005507EE0E0F25B5400646AE43304656078C
:1003E000F60E0D69B5402843D508AD001E462036EF
:1003F0007051186856000325B5400646AE43304696
:100400000D79AD07AD0F5600B540284318600126A1
:1004100036074D683540B54275D100BF3D4DAD69D9
:10042000012635433B4EB5613546AD69ED07ED0F0D
:10043000009500BF00BF384D9608B600A859950733
:100440002E0F0F25B5400646AE4330460925ED0672
:10045000AB4200E057E001D100250FE02F4DAB4249
:1004600001D101250AE02E4DAB4201D1022505E064
:100470002C4DAB4201D1032500E005259607360F30
:10048000B5402843244D9608B600A851264D28684B
:100490000546A5432846012636044D683540B54239
:1004A00002D10546254328461F4D28606868054649
:1004B000A5432846012676044D683540B54202D151
:1004C000054625432846184D6860A8680546A5439B
:1004D0002846012636054D683540B54202D105460D
:1004E00025432846104DA860E8680546A5432846E0
:1004F000012676054D683540B54202D105462543B3
:100500002846094DE860521C0D68D540002D00D0EA
:100510001CE778BD001002400800014000040048BC
:1005200000080048000C004800040140002A01D0E7
:10053000816100E081627047014880687047000077
:1005400004000020024881680278891881607047A1
:100550000400002010B50648016810221143016014
:10056000002000F007F800F027F8002010BD000080
:100570000020024070B504460D4D7D202978C00052
:10058000FFF7AEFD01460B480068FFF7A9FD00F03C
:100590004DFC002809D1042C07D200222146401E20
:1005A00000F056F800206C6070BD012070BD0000A6
:1005B000040000201000002008B500BF0D4880692D
:1005C000012108430B49886108468069C007C00FB4
:1005D000009000BF00BF00BF0846C069090408437F
:1005E0000449C8610846C06909040840009000BF7A
:1005F00000BF08BD001002400146002915DBCB06F4
:10060000DB0E01229A400A4B1A6000BF00BF00BFF8
:10061000BFF34F8F00BF00BF00BF00BF00BF00BFD0
:10062000BFF36F8F00BF00BF00BF00BF7047000067
:1006300080E100E00146002905DBCB06DB0E01224C
:100640009A40024B1A6000BF7047000000E100E0D2
:1006500070B504460D4616462946204601F042FD77
:1006600070BD000070B504460D46002C01D101207C
:1006700070BD52480068C007C00FA8420ED24F4854
:1006800000684008400028434C490860084600685C
:10069000C007C00FA84201D00120E9E7022120686D
:1006A0000840022814D1042120680840042807D1FA
:1006B0004348406807210902884340184049486080
:1006C0003F484068F0218843A16808433C4948609E
:1006D0002078C007C00F00283BD06068012808D1EF
:1006E00037480068012149040840002815D101203D
:1006F000BEE76068022808D1314800680121490638
:100700000840002809D10120B2E72D4800680221E5
:100710000840002801D10120AAE729484068800844
:1007200080006168084326494860FFF705FF0646D8
:1007300007E0FFF701FF801B2249884201D903200F
:1007400096E71F4840680C2108406168890088428C
:10075000EFD11A480068C007C00FA8420ED9174849
:1007600000684008400028431449086008460068B3
:10077000C007C00FA84201D0012079E704212068FA
:100780000840042808D10E48406807210902884320
:10079000E16808430A49486000F01AF808494968C6
:1007A000F02211400909084A515CC8400749086015
:1007B0000020FFF7DFFE00205AE700000020024083
:1007C0000010024088130000FC21000810000020E7
:1007D000F0B589B027A001460EC9C06805AC0EC4AB
:1007E000089028A001460EC9C06801AC0EC4049050
:1007F000002400250027002600200090254844689A
:100800000C20204000282DD0042802D0082828D110
:1008100002E02148009028E00F2080042040800C56
:1008200005A90E5C1B48C06A0007000F01A90D5CFA
:100830000120000420400121090488420AD12A46EF
:10084000002315481946FFF761FC314601F032FCE0
:10085000074604E01148314601F02CFC074600979A
:1008600003E000BF0C48009000BF00BF009809B033
:10087000F0BD000002030405060708090A0B0C0D71
:100880000E0F10100102030405060708090A0B0CDD
:100890000D0E0F100010024000127A0000093D00FA
:1008A000FEB50446002C01D10120FEBD2078C00712
:1008B000C00F002871D0FC4840680C210840042873
:1008C0000BD0F94840680840082812D1F648406823
:1008D00001210904084088420BD1F3480068012136
:1008E0004904084000286BD06068002868D10120C6
:1008F000DBE700BF6068012807D1EB4800680121F1
:1009000009040843E849086031E0606800280ED116
:10091000E5480068012109048843E3490860084666
:100920000068012189048843DF4908601FE060688E
:1009300005280ED1DC480068012189040843DA4902
:10094000086008460068012109040843D649086088
:100950000DE0D5480068012109048843D2490860A8
:1009600008460068012189048843CF49086000BF18
:100970006068002812D0FFF7DFFD054606E0FFF7AC
:10098000DBFD401B642801D903208EE7C6480068C0
:100990000121490408400028F1D011E0FFF7CCFD07
:1009A000054606E0FFF7C8FD401B642801D9032077
:1009B0007BE7BD4800680121490408400028F1D1C7
:1009C000022120680840022861D1B74840680C2104
:1009D000084000280BD0B4484068084008281BD1C4
:1009E000B1484068012109040840002814D1AE48EC
:1009F000006802210840002804D0E068012801D0E6
:100A0000012052E7A8480068F82188432169C900FD
:100A10000843A54908603AE0E068002820D0A248D1
:100A2000006801210843A0490860FFF785FD0546DD
:100A300006E0FFF781FD401B022801D9032034E7BF
:100A400099480068022108400028F2D096480068C2
:100A5000F82188432169C90008439349086016E0DA
:100A600091480068400840008F490860FFF764FD26
:100A7000054606E0FFF760FD401B022801D9032070
:100A800013E789480068022108400028F2D10821B4
:100A900020680840082831D1E069002817D0824832
:100AA000406A0121084380494862FFF745FD054639
:100AB00006E0FFF741FD401B022801D90320F4E6C0
:100AC0007948406A022108400028F2D016E07648B2
:100AD000406A4008400074494862FFF72DFD054612
:100AE00006E0FFF729FD401B022801D90320DCE6C0
:100AF0006D48406A022108400028F2D10421206894
:100B00000840042873D1002001906748C069890615
:100B1000084000280ED100BF6348C06908436249FD
:100B2000C8610846C06909040840009000BF00BFC2
:100B3000012001905D480068FF2101310840002834
:100B400016D15A480068084358490860FFF7F4FC7A
:100B5000054606E0FFF7F0FC401B642801D903209E
:100B6000A3E652480068FF21013108400028F1D077
:100B700000BFA068012806D14B48006A0121084344
:100B8000494908622BE0A06800280CD14648006A59
:100B900040084000444908620846006A042188432E
:100BA000414908621BE0A06805280CD13E48006A54
:100BB000042108433C4908620846006A01210843B1
:100BC000394908620BE03848006A4008400036495D
:100BD00008620846006A042188433349086200BF5E
:100BE000A068002813D0FFF7A7FC054608E02BE01B
:100BF000FFF7A2FC401B2E49884201D9032054E68E
:100C00002948006A022108400028F1D011E0FFF7CE
:100C100093FC054607E0FFF78FFC401B2449884200
:100C200001D9032041E62048006A0221084000283B
:100C3000F1D10198012806D11B48C069012109079B
:100C400088431949C86100BF102120680840102856
:100C500060D1606901282DD11348406B04210843FD
:100C6000114948630846406B012108430E49486317
:100C7000FFF762FC054606E0FFF75EFC401B02281A
:100C800001D9032011E60848406B022108400028E2
:100C9000F2D00548406BF8218843A169C900084398
:100CA0000149486336E00000001002400070004037
:100CB000881300006069401D00280FD15A48406B1E
:100CC00004218843584948630846406BF82188430B
:100CD000A169C9000843544948631BE05248406B6E
:100CE00004210843504948630846406B40084000CF
:100CF0004863FFF721FC054606E0FFF71DFC401B9B
:100D0000022801D90320D0E54748406B0221084062
:100D10000028F2D1206A00284FD0434840680C21B7
:100D20000840082864D0206A022847D13E4800685D
:100D30000121090688433C490860FFF7FDFB054691
:100D400006E0FFF7F9FB401B022801D90320ACE5C0
:100D5000354800680121490608400028F1D100BF4C
:100D60003148C06A00090001E16A08432E49C8629F
:100D7000616AA06A08432C4949683D2212049143E4
:100D800008432949486000BF084600680121090658
:100D9000084325490860FFF7CFFB054606E0FFF74B
:100DA000CBFB401B022801D903207EE51E480068CA
:100DB0000121490608400028F1D033E01A480068B4
:100DC00001210906884318490860FFF7B5FB05466D
:100DD00006E0FFF7B1FB401B022801D9032064E5C0
:100DE000114800680121490608400028F1D119E0A6
:100DF000206A012800D158E50B484668C76A0120DF
:100E000000043040616A88420AD13907090FE06A5C
:100E1000814205D10F2080043040A16A884201D070
:100E2000012042E5002040E50010024070B5044674
:100E30002546681E0949884201D901200CE0681E38
:100E4000074948610321081F01F04CF900200449BB
:100E5000886107200861002070BD0000FFFFFF00CF
:100E600000E000E000BFFEE700B587B000BFDD484E
:100E70004069012189040843DA494861084640690C
:100E8000012189040840019000BF00BF00BFD54880
:100E900040690843D34948610846406901218904F3
:100EA0000840019000BF00BF00BFCE484069090163
:100EB0000843CC494861084640690121890508403A
:100EC000019000BF00BF00BFC64840690843C54944
:100ED000486108464069012189050840019000BF2A
:100EE00000BF00BFBF48406949110843BD49486180
:100EF00008464069012149040840019000BF00BF35
:100F000000BFB84840690843B6494861084640698F
:100F1000012149040840019000BF00BF00BFB14853
:100F200040690843AF4948610846406901214904C6
:100F30000840019000BF00BF00BFAA4840690843B5
:100F4000A8494861084640690121490408400190C8
:100F500000BF00BF00BFA34840690843A1494861E2
:100F600008464069012149040840019000BF00BFC4
:100F700000BF9C48406908439A4948610846406957
:100F8000012149040840019000BF00BF00BF9548FF
:100F90004069084393494861084640690121490472
:100FA0000840019000BF00BF00BF8E484069084361
:100FB0008C49486108464069012149040840019074
:100FC00000BF00BF00BF87484069084385494861AA
:100FD00008464069012149040840019000BF00BF54
:100FE00001200390002004900320059040200290EF
:100FF00002A97D48FFF7A6F9012003900020049084
:10100000032005900120029002A97748FFF79AF982
:1010100001200390002004900320059001200290FD
:1010200002A97248FFF78EF9012003900020049076
:10103000032005900220029002A96C48FFF782F974
:10104000012003900020049003200590FF20013030
:10105000029002A90920C006FFF774F9012003904D
:1010600000200490032005900120029002A909208D
:10107000C006FFF767F901200390002004900320C9
:1010800005900220029002A90920C006FFF75AF934
:10109000012003900020049003200590042002907A
:1010A00002A90920C006FFF74DF901200390002096
:1010B0000490032005900820029002A90920C00690
:1010C000FFF740F9012003900020049003200590D1
:1010D0001020029002A90920C006FFF733F9012071
:1010E000039000200490032005902020029002A984
:1010F0000920C006FFF726F9012003900020049084
:10110000032005904020029002A90920C006FFF7A5
:1011100019F90120039000200490032005908020FD
:10112000029002A90920C006FFF70CF900BF0122B6
:1011300011460920C006FFF7F9F9022211460920DD
:10114000C006FFF7F3F9042211460920C006FFF795
:10115000EDF9082211460920C006FFF7E7F9102231
:1011600011460920C006FFF7E1F9202211460920A7
:10117000C006FFF7DBF9402211460920C006FFF741
:10118000D5F9802211460920C006FFF7CFF900BF2C
:10119000012202211548FFF7C9F90122114613481F
:1011A000FFF7C4F9012211460F48FFF7BFF90022EB
:1011B000FF2101310920C006FFF7B8F91420FFF71D
:1011C00095F8012211020920C006FFF7AFF914209B
:1011D000FFF78CF8002202210448FFF7A7F907B0B7
:1011E00000BD000000100240000400480014004848
:1011F00000B587B000BF0E4840690121490408438B
:101200000B494861084640690121490408400190A2
:1012100000BF00BF00200390049003200590FF2032
:10122000029002A90920C006FFF78CF807B000BDA4
:101230000010024000B587B000BF0F48406901218F
:10124000490408430C4948610846406901214904A2
:101250000840019000BF00BF0120039000200490CF
:1012600003200590FF20029002A90920C006FFF785
:1012700069F807B000BD000000100240704710B5CB
:1012800000F034F9012010BD10B50446002C03D144
:101290000720FFF7B1F902E00720FFF7CBF910BDF7
:1012A00000B587B000BF4148406901218904084367
:1012B0003E4948610846406901218904084001907F
:1012C00000BF00BF00BF3948406908433749486143
:1012D00008464069012189040840019000BF00BF11
:1012E00000BF324840694910084330494861084608
:1012F0004069012149040840019000BF00BF00BFC0
:101300002A4840694900084328494861084640691D
:10131000012189040840019000BF00BF0220029013
:1013200001200390002004900320059002A920488A
:10133000FFF708F88020029001200390002004901D
:101340000320059002A91A48FEF7FCFF082002902E
:1013500001200390002004900320059002A9144866
:10136000FEF7F0FF0120C002029012480390012016
:1013700004900320059002A90920C006FEF7E2FFB1
:10138000002202210720FFF763F90720FFF734F955
:101390000020FFF779FF002000F026F8002000F081
:1013A0000BF8002000F088F807B000BD00100240E4
:1013B000000400480000211010B50446002C07D09E
:1013C000012C0BD1002202210648FFF7AFF806E0FE
:1013D000012202210348FFF7A9F800E000BF00BF87
:1013E00010BD00000004004810B50446002C07D0D2
:1013F000012C0BD1002280210648FFF797F806E068
:10140000012280210348FFF791F800E000BF00BFF0
:1014100010BD00000004004810B50020FFF734FFA5
:10142000FFF708FF012202212148FFF77FF8012280
:1014300080211F48FFF77AF80021202000F0F6F8FD
:10144000FF214031212000F0F1F80021502000F070
:10145000EDF8EF21512000F0E9F80021522000F0D2
:10146000E5F8FF214031532000F0E0F81149032056
:1014700000F0DCF8222000F0E9FA012240210C48BB
:10148000FFF754F8002201210948FFF74FF8002226
:1014900002210748FFF74AF8002280210448FFF79D
:1014A00045F8FFF7A5FE0120FFF7EEFE10BD000096
:1014B000000400481810000010B50446002C07D0A6
:1014C000012C0BD1002208210648FFF72FF806E077
:1014D000012208210348FFF729F800E000BF00BF00
:1014E00010BD0000000400487047000000B587B040
:1014F00000BF1C484069012149040843194948615B
:1015000008464069012149040840019000BF00BF1E
:1015100000BF1448406908431249486108464069C1
:10152000012149040840019000BF00BF0812029049
:101530000020039004900320059002A90920C00612
:10154000FEF700FF0120800202900020039004902B
:101550000320059002A90920C006FEF7F3FE07B09C
:1015600000BD000000100240704710B5FEF7EAFF12
:1015700010BD00B591B0302105A8FEF70FFE002088
:1015800001900290039004900220059001200890A1
:101590001020099002200D9000210E910521C90410
:1015A0000F910021109105A8FFF77AF9002801D0CA
:1015B000FEF79AFE0720019002200290002003907F
:1015C0000490012101A8FFF74DF8002801D0FEF793
:1015D0008BFE11B000BD704770B505460024002198
:1015E000502000F023F8EF21512000F01FF80021D7
:1015F000522000F01BF8FF214031532000F016F874
:101600000021202000F012F80021212000F00EF827
:10161000222000F01BFA00BF03E0284600F040FC47
:10162000641C4B2080028442F7D370BDF3B581B0B7
:10163000FF2109020198084004120198C5B20298DE
:10164000084006120298C7B200224021FE48FEF769
:101650006DFF00BF002201210920C006FEF766FFD2
:10166000002202210920C006FEF760FF00220421AB
:101670000920C006FEF75AFF002208210920C006F3
:10168000FEF754FF002210210920C006FEF74EFF8E
:10169000002220210920C006FEF748FF0022402139
:1016A0000920C006FEF742FF002280210920C00663
:1016B000FEF73CFF00BF00BFE207D20F0121092067
:1016C000C006FEF733FF0220204002460221092017
:1016D000C006FEF72BFF042020400246042109200B
:1016E000C006FEF723FF08202040024608210920FB
:1016F000C006FEF71BFF10202040024610210920E3
:10170000C006FEF713FF20202040024620210920BA
:10171000C006FEF70BFF4020204002464021092072
:10172000C006FEF703FF80202040024680210920EA
:10173000C006FEF7FBFE00BF00220121C248FEF7F3
:10174000F5FE01221146C048FEF7F0FE00BF002260
:1017500001210920C006FEF7E9FE0022022109202E
:10176000C006FEF7E3FE002204210920C006FEF7B2
:10177000DDFE002208210920C006FEF7D7FE002268
:1017800010210920C006FEF7D1FE002220210920E9
:10179000C006FEF7CBFE002240210920C006FEF75E
:1017A000C5FE002280210920C006FEF7BFFE00BF53
:1017B00000BFEA07D20F01210920C006FEF7B6FEDE
:1017C00002202840024602210920C006FEF7AEFE94
:1017D00004202840024604210920C006FEF7A6FE88
:1017E00008202840024608210920C006FEF79EFE78
:1017F00010202840024610210920C006FEF796FE60
:1018000020202840024620210920C006FEF78EFE37
:1018100040202840024640210920C006FEF786FEEF
:1018200080202840024680210920C006FEF77EFE67
:1018300000BF002201218448FEF778FE01221146F4
:101840008148FEF773FE012240217F48FEF76EFEBD
:1018500000BF002201210920C006FEF767FE00221A
:1018600002210920C006FEF761FE002204210920A2
:10187000C006FEF75BFE002208210920C006FEF725
:1018800055FE002210210920C006FEF74FFE00225F
:1018900020210920C006FEF749FE00224021092030
:1018A000C006FEF743FE002280210920C006FEF795
:1018B0003DFE00BF00BFF207D20F01210920C00684
:1018C000FEF734FE02203040024602210920C00605
:1018D000FEF72CFE04203040024604210920C006F9
:1018E000FEF724FE08203040024608210920C006E9
:1018F000FEF71CFE10203040024610210920C006D1
:10190000FEF714FE20203040024620210920C006A8
:10191000FEF70CFE40203040024640210920C00660
:10192000FEF704FE80203040024680210920C006D8
:10193000FEF7FCFD00BF002201214348FEF7F6FD43
:10194000012211464048FEF7F1FD00BF00220121AF
:101950000920C006FEF7EAFD002202210920C00688
:10196000FEF7E4FD002204210920C006FEF7DEFD9B
:10197000002208210920C006FEF7D8FD0022102110
:101980000920C006FEF7D2FD002220210920C00652
:10199000FEF7CCFD002240210920C006FEF7C6FD5F
:1019A000002280210920C006FEF7C0FD00BF00BF55
:1019B000FA07D20F01210920C006FEF7B7FD022069
:1019C0003840024602210920C006FEF7AFFD042080
:1019D0003840024604210920C006FEF7A7FD082072
:1019E0003840024608210920C006FEF79FFD10205E
:1019F0003840024610210920C006FEF797FD20203E
:101A00003840024620210920C006FEF78FFD402005
:101A10003840024640210920C006FEF787FD80209D
:101A20003840024680210920C006FEF77FFD00BF36
:101A3000002201210448FEF779FD012211460248E7
:101A4000FEF774FDFEBD00000004004870B50646B8
:101A5000FF20000230400412F5B2002240217F48EE
:101A6000FEF764FD00BF002201210920C006FEF739
:101A70005DFD002202210920C006FEF757FD00226D
:101A800004210920C006FEF751FD0022082109208B
:101A9000C006FEF74BFD002210210920C006FEF70C
:101AA00045FD002220210920C006FEF73FFD00224F
:101AB00040210920C006FEF739FD002280210920BF
:101AC000C006FEF733FD00BF00BFE207D20F0121C1
:101AD0000920C006FEF72AFD02202040024602210E
:101AE0000920C006FEF722FD042020400246042102
:101AF0000920C006FEF71AFD0820204002460821F2
:101B00000920C006FEF712FD1020204002461021D9
:101B10000920C006FEF70AFD2020204002462021B1
:101B20000920C006FEF702FD402020400246402169
:101B30000920C006FEF7FAFC8020204002468021E2
:101B40000920C006FEF7F2FC00BF00220121434835
:101B5000FEF7ECFC012211464048FEF7E7FC00BF0F
:101B6000002201210920C006FEF7E0FC002202212C
:101B70000920C006FEF7DAFC002204210920C00675
:101B8000FEF7D4FC002208210920C006FEF7CEFC97
:101B9000002210210920C006FEF7C8FC00222021E7
:101BA0000920C006FEF7C2FC002240210920C00621
:101BB000FEF7BCFC002280210920C006FEF7B6FC1F
:101BC00000BF00BFEA07D20F01210920C006FEF7BF
:101BD000ADFC02202840024602210920C006FEF783
:101BE000A5FC04202840024604210920C006FEF777
:101BF0009DFC08202840024608210920C006FEF767
:101C000095FC10202840024610210920C006FEF74E
:101C10008DFC20202840024620210920C006FEF726
:101C200085FC40202840024640210920C006FEF7DE
:101C30007DFC80202840024680210920C006FEF756
:101C400075FC00BF002201210448FEF76FFC012251
:101C500011460248FEF76AFC70BD0000000400480F
:101C600010B5012211020920C006FEF75FFC142006
:101C7000FEF73CFB0022FF2101310920C006FEF7E0
:101C800055FC1420FEF732FB012211020920C00688
:101C9000FEF74CFC7D20C000FEF728FB0121C903A4
:101CA000E520FFF7C3FC01210020FFF7BFFCFF2167
:101CB00001310120FFF7BAFC072109020220FFF7DA
:101CC000B5FC71490320FFF7B1FC00210420FFF7A8
:101CD000ADFC6E490820FFF7A9FC00210920FFF7A1
:101CE000A5FC00210A20FFF7A1FC00210C20FFF732
:101CF0009DFC00210D20FFF799FC00210F20FFF72C
:101D000095FC00211020FFF791FC07211120FFF71F
:101D10008DFC00211220FFF789FC00211320FFF722
:101D200085FC7D20C000FEF7E1FA59491020FFF73D
:101D30007DFC07211120FFF779FC7D20C000FEF714
:101D4000D5FAFF213B311220FFF770FC7D20C00047
:101D5000FEF7CCFA0D2149021320FFF767FC0C2196
:101D60002920FFF763FC7D20C000FEF7BFFA0021A9
:101D70003020FFF75BFC47493120FFF757FC042177
:101D80003220FFF753FC06213520FFF74FFC424974
:101D90003620FFF74BFCFF2106313720FFF746FCCA
:101DA00002213820FFF742FC3B493920FFF73EFC77
:101DB0003949C91E3C20FFF739FC38493D20FFF75F
:101DC00035FC00215020FFF731FCEF215120FFF7B7
:101DD0002DFC00215220FFF729FCFF214031532028
:101DE000FFF724FC272109026020FFF71FFC0121D7
:101DF0006120FFF71BFC00216A20FFF717FC002180
:101E00002020FFF713FCFF2140312120FFF70EFCBB
:101E100000218020FFF70AFC00218120FFF706FC4B
:101E200000218220FFF702FC00218320FFF7FEFB48
:101E300000218420FFF7FAFB00218520FFF7F6FB45
:101E400010219020FFF7F2FB00219220FFF7EEFB1C
:101E500003219320FFF7EAFBFF2111319520FFF7C3
:101E6000E5FB00219720FFF7E1FB00219820FFF719
:101E7000DDFBFF2174310720FFF7D8FB7D20C00078
:101E8000FEF734FA10BD0000181000000202000036
:101E9000B017000005050000070700000708000054
:101EA00070B50646F5B2FF20000230400412012250
:101EB00040217F48FEF73AFB00BF002201210920A4
:101EC000C006FEF733FB002202210920C006FEF700
:101ED0002DFB002204210920C006FEF727FB00226B
:101EE00008210920C006FEF721FB0022102109204D
:101EF000C006FEF71BFB002220210920C006FEF7CA
:101F000015FB002240210920C006FEF70FFB00222E
:101F100080210920C006FEF709FB00BF00BFE207D1
:101F2000D20F01210920C006FEF700FB022020404D
:101F3000024602210920C006FEF7F8FA04202040DC
:101F4000024604210920C006FEF7F0FA08202040CE
:101F5000024608210920C006FEF7E8FA10202040BA
:101F6000024610210920C006FEF7E0FA202020409A
:101F7000024620210920C006FEF7D8FA4020204062
:101F8000024640210920C006FEF7D0FA80202040FA
:101F9000024680210920C006FEF7C8FA00BF0022D1
:101FA00001214348FEF7C2FA012211464048FEF7DC
:101FB000BDFA00BF002201210920C006FEF7B6FAD3
:101FC000002202210920C006FEF7B0FA00220421F7
:101FD0000920C006FEF7AAFA002208210920C0063F
:101FE000FEF7A4FA002210210920C006FEF79EFA8F
:101FF000002220210920C006FEF798FA0022402185
:102000000920C006FEF792FA002280210920C006AE
:10201000FEF78CFA00BF00BFEA07D20F01210920AA
:10202000C006FEF783FA022028400246022109205A
:10203000C006FEF77BFA042028400246042109204E
:10204000C006FEF773FA082028400246082109203E
:10205000C006FEF76BFA1020284002461021092026
:10206000C006FEF763FA20202840024620210920FE
:10207000C006FEF75BFA40202840024640210920B6
:10208000C006FEF753FA802028400246802109202E
:10209000C006FEF74BFA00BF002201210448FEF7FC
:1020A00045FA012211460248FEF740FA70BD0000D1
:1020B00000040048F8B582B28BB2040C0D0C104637
:1020C0005843002126465E43370C36048019794177
:1020D00016466E43370C36048019794126466E4306
:1020E0008919F8BD10B5002819DB1A4A03231B0211
:1020F000D21883089B00D2588307DC0EFF23A3402D
:102100009A438B071B0E8407E40EA3401A43114B1E
:10211000032424021B198408A4001A5118E00E4A53
:1021200003071B0F083B9B089B00D2588307DC0E5C
:10213000FF23A3409A438B071B0E8407E40EA340A2
:102140001A43054B0407240F083CA408A4001A51A5
:1021500010BD000000E100E01CED00E002E008C856
:10216000121F08C1002AFAD170477047002001E011
:1021700001C1121F002AFBD170470000FEF7EAF9E7
:10218000FFF7F7F9FFF78CF80120FFF795F9FEF755
:102190006BFEC820FEF7AAF8FFF762FD1548FFF7AF
:1021A0001BFA7D20C000FEF7A1F81F20FFF714FAEC
:1021B0007D20C000FEF79AF8C820FEF797F8FFF7D9
:1021C0005EF80D49087008460078002801D100BF6C
:1021D000FEE77D20C000FEF789F8FFF709F801202F
:1021E000FFF702F90120FFF7E7F80120FFF74CF8AD
:1021F00000BFFEE7E0FF000000000020000000003C
:1022000000000000010203040607080900000000A6
:102210000102030434220008000000201400000022
:102220005C2100084822000814000020040400007B
:102230006C21000800000000010000000400000004
:082240000000000000127A000A
:04000005080000B13E
:00000001FF
